:020000022000DC
:10600000000004205D630200BD630200BF63020064
:10601000C1630200C3630200C56302000000000008
:10602000000000000000000000000000C763020044
:1060300061F9020000000000CB630200CD630200A2
:106040004D1A0300CF6302006D1703006D5D03005E
:10605000855D0300CF630200816C03005D46030091
:10606000CF6302005D2C0300CF630200CF63020008
:10607000CF63020021370300CF630200CF63020029
:10608000CF630200D5C10200CF630200CF630200DC
:1060900015C20200CF630200E9090300CF630200CA
:1060A000CF630200CF630200CF630200CF63020020
:1060B000917D0300CF63020000000000000000009B
:1060C000CF630200CF630200CF6302003D420300B2
:1060D000CF63020059150300791D0600CF6302004B
:1060E000CF630200CD2403009DE106000000000004
:1060F00000000000CF6302000000000055420300D2
:10610000000000000000000000000000000000008F
:10611000000000000000000000000000000000007F
:10612000000000000000000000000000000000006F
:10613000000000000000000000000000000000005F
:10614000000000000000000000000000000000004F
:10615000000000000000000000000000000000003F
:10616000000000000000000000000000000000002F
:10617000000000000000000000000000000000001F
:10618000000000000000000000000000000000000F
:1061900000000000000000000000000000000000FF
:1061A00000000000000000000000000000000000EF
:1061B00000000000000000000000000000000000DF
:1061C00000000000000000000000000000000000CF
:1061D00000000000000000000000000000000000BF
:1061E00000000000000000000000000000000000AF
:1061F000000000000000000000000000000000009F
:10620000354936480A1A02D0072291438D4634494F
:1062100034480A1A06D00722914381F309880222E2
:1062200082F3148830483149314A00F044F831484B
:106230003149324A00F03FF831483249324A00F0E1
:106240003AF832483249334A00F035F83248334997
:10625000334A00F030F833483349344A00F02BF821
:1062600033483449344A00F026F83448344900228F
:1062700000F02CF833483449002200F027F8334866
:106280003349091A082902DB002202604160314AC1
:1062900090471F481F49884205D00268043003B464
:1062A000904703BCF7E700208646EC46002000211B
:1062B000294A9047FEE7884207D0521A05D0037852
:1062C00001300B700131013AF9D17047884202D098
:1062D00002700130FAE770470000042000E003205C
:1062E00000000420000004204C0F0800CC2B0020EC
:1062F00090350020D4630200D4630200A81F070079
:106300004C0F0800CC2B0020CC2B0020B42207001F
:10631000B4220700B4220700B4220700B422070009
:10632000B4220700B4220700B42207004C0F080073
:10633000101908009035002090350020903500207D
:106340007C7301207C7301208873012088730120F5
:1063500088930120856302003DFB030010488047BD
:1063600010484FF00701884385460F4880470F4883
:10637000016841F470010160BFF34F8FBFF36F8F6D
:10638000FFF73EBF0A480B490B4A884207D0521A12
:1063900005D0037801300B700131013AF9D1704713
:1063A000D163020000000420FDFB020088ED00E044
:1063B000A0220700B82B0020CC2B0020FEE7FEE730
:1063C000FEE7FEE7FEE7FEE7FEE7FEE7FEE7FEE7A5
:0463D000704700BF53
:1063D400004870477473012000B583B001900091A8
:1063E400019B1B681B6800990198984700BF03B084
:1063F4005DF804FB00B583B00190019B1B685B68EA
:106404000198984700BF03B05DF804FB00B583B062
:106414000190019B1B689B680198984700BF03B0DB
:106424005DF804FB82B001900B468DF80330019BAC
:10643400DB689DF803201A7100BF02B0704782B078
:106444000190019BDB681B79184602B0704782B04B
:106454000190019BDB6801225A7100BF02B07047B2
:1064640082B00190019BDB685B79184602B07047EB
:1064740000B585B001900091019B002B01D1072349
:1064840036E01D4B40F2FF729A601B4B00221A60EB
:10649400194B00225A60184B03F500531A46002387
:1064A4009361154B03F500531A4600235361124BB5
:1064B40003F50053002283F82020009801F0B0F87F
:1064C4000D4B03F500531A46019BD3600B4804F0AF
:1064D4004DFE0390039B002B01D0039B08E008486A
:1064E40004F0DAFF074A084BD31ADB0802930023AF
:1064F400184605B05DF804FB7C3A00207C200700B8
:10650400B42207009022070098200700024A034B98
:10651400D31ADB081846704790220700982007001A
:1065240000B587B001900B468DF803309DF8033019
:10653400002B1FD0FFF7EAFF04900023059313E01C
:10654400059B9B000E4A13440393039B1B881A4626
:10655400019B1B689A4204D1019B059A1A6000238F
:1065640009E0059B01330593059A049B9A42E7D3FE
:10657400052300E00023184607B05DF804FB00BFC4
:10658400CC2B002000B585B001900B468DF803306C
:106594009DF8032001AB11461846FFF7C1FF0346DF
:1065A400002B07D1019BDB00054A13440393039B93
:1065B4001B6800E00023184605B05DF804FB00BF2B
:1065C4009820070084B001900B468DF80330019B9E
:1065D400DB00174A134402939DF80330013B032B5D
:1065E4001CD801A252F823F0FD65020005660200E2
:1065F4000D6602001766020002238DF80F3011E0C9
:1066040004238DF80F300DE0029B1B798DF80F30B9
:1066140008E0029B5B798DF80F3003E000238DF8CE
:106624000F3000BF9DF80F30184604B0704700BF0C
:106634009820070084B00190009100238DF80F305A
:10664400019B1B7803F00403DBB2002B24D0019BD5
:106654001B78C3F30103DBB2012B02D0022B0CD055
:1066640017E0009B1B68019A1288C2F38312D2B20E
:106674001344DA1C009B1A600BE0009B1B68019A10
:106684005288C2F3891292B21344DA1C009B1A6036
:1066940000BF01238DF80F309DF80F30184604B069
:1066A4007047000000B58BB00023ADF826303E489B
:1066B40004F063F83D4804F060F83D4B5B680493D4
:1066C4003B4B9B680693049A069B134002339B0042
:1066D400374A13440433089304AB19460898FFF768
:1066E400A9FF0346002B09D0049A069B13400233EA
:1066F4009B002F4A134404330893EDE700BF0023A3
:10670400079311E0049B5A1C0492069A1340079ABB
:10671400920001A90A44264902339B000B445B689A
:106724001360079B01330793079B022BEAD99DF85B
:106734000430C3F30103DBB2012B10D0022B1CD1B4
:10674400BDF80A30ADF82630BDF80630C3F389131E
:106754009BB203339A08049B1344049313E0BDF8DB
:106764000A30ADF82630BDF80430C3F38313DBB22E
:106774001A46049B1344049305E00E494FF4BF707A
:1067840017F0AEFC00BF094804F003F80590059B20
:10679400002B02D0049B064A5360BDF826301846ED
:1067A4000BB05DF804FB00BF945A0020905A0020FF
:1067B4007C3A0020C422070000B585B000210748B8
:1067C40003F010FF0390039B0293029B83F31003D7
:1067D4000193019B184605B05DF804FB985A00200C
:1067E40010B588B00390029101920093039B1B0C97
:1067F4000793FFF7E1FF0690FFF788FE0246079B29
:10680400934204D3294940F2A31017F069FC069B74
:106814001904009B5A1C0A9B1340079A0A432449F3
:1068240002339B000B445A60214B03F50053DB6891
:10683400009A911C0A9A01EA0204984702461C49EC
:10684400A31C9B000B445A60009A0A9B134002331A
:106854009B00174A134404330593039B03F0070377
:10686400D9B2059A137861F3C5031370019B03F041
:106874000F03D9B2059A138861F389131380029B1D
:10688400C3F31501059A136861F39F231360059AF6
:106894001378012161F301031370059A13786FF3E0
:1068A4008203137000BF08B010BD00BFC4220700EC
:1068B4007C3A002000B58DB00390029113468DF808
:1068C4000730039B03330A9301238DF827300023F9
:1068D4008DF81B300DF11B03184602F04DFE404BA2
:1068E4001A68029B1A603E4B9A683D4B59683C4BB0
:1068F4001B68CB1A134401330B9314E0012139486C
:1069040003F0FFFEFFF7CEFE07900799354803F02A
:10691400F8FE334B9A68324B5968314B1B68CB1ADB
:10692400134401330B930A9A0B9B9A42E6D89DF8C1
:106934002730002B48D0002305939DF80730002B07
:1069440017D09DF81430012262F301038DF814303E
:106954009DF8143043F004038DF81430039B03F0C6
:106964000F03DAB2BDF8143062F38913ADF81430B2
:1069740016E09DF81430022262F301038DF81430FE
:106984009DF8143043F004038DF81430039BC3F3D3
:1069940009039AB2BDF8163062F38F13ADF81630BE
:1069A4000F4B1A680E4B9B68134002339B000C4A32
:1069B400134404330893059A089B1A60084B1A6819
:1069C4000A9B1344064A13609DF81B30184602F0D4
:1069D400E9FD9DF8273018460DB05DF804FB00BFB3
:1069E4007C3A0020985A002000B587B00190254BCE
:1069F40003F5005393F82030002B02D1019B002BA8
:106A040001D1019B39E0019843F0E6F803460133D4
:106A1400049304AA03A901231B4804F05BFD034665
:106A2400002B29D1039B049A0199184643F078F866
:106A3400039A049B013B134400221A70049B1946D9
:106A4400114804F0C7FD0590059B002B04D00F49A5
:106A540040F20A2017F044FB049B19460A4804F04C
:106A6400ECFD0590059B002B04D0084940F20E2054
:106A740017F036FB039B00E00023184607B05DF8CF
:106A840004FB00BF7C3A0020B4220700C4220700A4
:106A940000B58BB00590049103920293204B9B6840
:106AA400079306AB012219460298FFF703FF03463A
:106AB400002B24D0069B033309930023089311E091
:106AC400089B9B00039A1A44099B591C0991079936
:106AD4000B401268124902339B000B445A60089B16
:106AE40001330893089A029B9A42E9D3069A079BBA
:106AF40000931346029A04990598FFF771FE084B18
:106B040003F5005393F82030002B05D000BF00F0AC
:106B140063F90346002BFAD100BF0BB05DF804FB08
:106B24007C3A002000B583B001900091002300223C
:106B340000990198FFF7ACFF00BF03B05DF804FBB8
:106B440000B587B0039002910192019B059305AAB9
:106B5400012302990398FFF79BFF00BF07B05DF87C
:106B640004FB00B587B00390029101920093019B4E
:106B74000493009B059304AA022302990398FFF748
:106B840087FF00BF07B05DF804FB00B589B0039030
:106B9400029101920093019B0593009B06930A9B2B
:106BA400079305AA032302990398FFF771FF00BF17
:106BB40009B05DF804FB00B589B00390029101921D
:106BC4000093019B0493009B05930A9B06930B9BE4
:106BD400079304AA042302990398FFF759FF00BFFF
:106BE40009B05DF804FB00B58BB0039002910192EB
:106BF4000093019B0593009B06930C9B07930D9BAD
:106C040008930E9B099305AA052302990398FFF79D
:106C14003FFF00BF0BB05DF804FB00B58BB00390E1
:106C2400029101920093019B0493009B05930C9B9A
:106C340006930D9B07930E9B08930F9B099304AA3D
:106C4400062302990398FFF723FF00BF0BB05DF8FA
:106C540004FB000010B58CB0039002911346ADF80C
:106C64000630544B9B680B93BDF8063003339B08E6
:106C740005A900221846FFF71DFE0346002B00F06D
:106C84008980059B0A93059B03330593494B9A68B6
:106C940005990B9B0B40D31A01339B000993BDF854
:106CA4000630099A9A420ED3059A0B9B134002337D
:106CB4009B00404A13440433BDF806200299184649
:106CC40042F02EFF17E0059A0B9B134002339B0002
:106CD400384A13440433099A0299184642F020FFB3
:106CE400029A099BD118BDF80620099BD31A1A46AB
:106CF400314842F015FF2F4B03F50053DB680A9A25
:106D0400911C0B9A01EA0204984702462949A31CE4
:106D14009B000B445A60039B1B0C0893FFF74CFD2C
:106D24000790079B19040A9B5A1C0B9B1340089A53
:106D34000A43204902339B000B445A600A9A0B9B76
:106D4400134002339B001B4A134404330693039BF2
:106D540003F00703D9B2069A137861F3C5031370DD
:106D6400069A13886FF38F131380BDF80630C3F3AC
:106D7400090399B2069A538861F38F135380069AD4
:106D84001378022161F301031370069A13786FF3E9
:106D940082031370074B03F5005393F82030002B44
:106DA40005D000BF00F018F80346002BFAD100BF4D
:106DB4000CB010BD7C3A0020883A0020054B5A687C
:106DC400044B1B689A420CBF01230023DBB2184614
:106DD400704700BF7C3A002000B599B0FFF7EEFF82
:106DE4000346002B01D00023C6E19D4B03F500535D
:106DF4001A4600239361BFF34F8F00BF984B5B6823
:106E04000493974B9B681093049A109B134002338E
:106E14009B00934A134404331193002317930023D4
:106E2400169300230F9304AB19461198FFF702FC45
:106E34000346002B1AD08A4B03F500539B69002BA1
:106E440014D1874B1A68049B9A4205D8844B1B685B
:106E5400834A536000238FE1049A109B134002334A
:106E64009B007F4A134404331193DCE700231593FA
:106E740011E0049B5A1C0492109A1340159A920034
:106E840001A90A44764902339B000B445B681360F2
:106E9400159B01331593159B022BEAD99DF80430F9
:106EA40003F00303DBB2022B40F09E80BDF80630F2
:106EB400C3F389139BB20D93BDF80630C3F3891352
:106EC4009BB2B3F5DC7F28BF4FF4DC739BB20C9309
:106ED4000C9BC3F309039AB2BDF8063062F38F1317
:106EE400ADF806300C9B0C330B939DF80430C3F3C0
:106EF400C203DBB20F930B995A4804F042F917907E
:106F0400179B002B00F0D080179804F0CBF901A94F
:106F1400169B0C22179804F081FA169B0C331693D7
:106F2400049BDA43109B134001339B000A930C9A91
:106F34000A9B9A4242D90A9B002B08D0049A109BC0
:106F4400134002339B00464A1344043300E0464B8B
:106F540008930A9B002B02D00A9BDBB201E00C9B36
:106F6400DBB28DF81F300A9B002B01D03E4B00E0B2
:106F7400002306930A9B002B06D00C9BDAB20A9BD3
:106F8400DBB2D31ADBB200E000238DF817309DF892
:106F94001F20169B0899179804F040FA9DF81F309B
:106FA400169A13441693069B002B16D09DF81720AF
:106FB400169B0699179804F031FA0EE0049A109B78
:106FC400134002339B00264A134404330993169B4F
:106FD4000C9A0999179804F021FA0D9B03339A0827
:106FE400049B134404935FE09DF8043003F003030F
:106FF400DBB2012B58D1BDF80430C3F38313DBB2E9
:10700400062B28BF0623DAB2BDF8043062F38913D5
:10701400ADF80430BDF80430C3F38313DBB203339B
:107024000E939DF80430C3F3C203DBB20F930E9B9F
:107034009B0019460B4804F0A4F81790179B002BEB
:1070440032D0179804F02EF901A9169B0C22179838
:1070540004F0E4F9169B0C331693002315931AE0FD
:107064007C3A00207C200700883A0020049B5A1CAC
:107074000492109A134002339B00414A1344191D91
:10708400169B0422179804F0C9F9169B043316932F
:10709400159B01331593BDF80430C3F38313DBB29E
:1070A4001A46159B9342E1D3179B002B43D0344BD4
:1070B40003F500531B691493314B03F500539B698B
:1070C400002B1BD0179804F0FCF84FE000238DF838
:1070D4004F301498FFF7C4F90346002B02D0012364
:1070E4008DF84F309DF84F30002B03D0179914982A
:1070F400FFF772F9149BDB681B681493149B002B35
:10710400E4D1179804F0DDF800238DF803300DF175
:107114000303184602F030FA194B03F500539B6938
:10712400002B02D1049B164A53609DF80330184685
:1071340002F038FA1AE0124B03F500531B6912935C
:1071440006E01298FFF762F9129BDB681B68129342
:10715400129B002BF5D10B4A0B4BD31ADB081B04F3
:1071640043F0020309491846FFF7DCFCFFF726FE4B
:10717400034683F00103DBB2184619B05DF804FB43
:107184007C3A0020F02107009820070028230700FC
:1071940000B585B00023039324E0174B03F5005397
:1071A4001B69029301238DF807300FE00298FFF763
:1071B40046F903461A46039B934203D100238DF8F4
:1071C400073006E0029BDB681B680293029B002BDE
:1071D400ECD19DF80730002B01D0039B07E0039B03
:1071E40001330393039B092BD7DD4FF0FF3318467C
:1071F40005B05DF804FB00BF7C3A002000B585B003
:1072040001900B468DF80330FFF7C2FF0390039BF8
:10721400B3F1FF3F01D1039B27E0039BDBB2194687
:107224000198FFF7FFF8134B03F500531B69002B7C
:107234000AD1104B03F500531A46019B1361019BBD
:10724400DB6800221A600FE00A4B03F500531B6948
:10725400DA68019BDB6812681A60064B03F5005379
:107264001B69DB68019A1A60039B184605B05DF838
:1072740004FB00BF7C3A002000B583B00E4B03F53D
:1072840000531B6901930C4B03F50053012283F84F
:10729400202009E00198FFF7DAF80198FFF7AAF82F
:1072A400019BDB681B680193019B002BF2D100BF9B
:1072B40000BF03B05DF804FB7C3A002000B583B046
:1072C40001900091009A0449019803F0ABFB00BFC0
:1072D40003B05DF804FB00BFA423070010B584B01D
:1072E40003900291039BDB88002B0AD0039BDB886D
:1072F4001A461F4B009313461E4A1F49029803F077
:1073040091FB039B1B7A052B2ED0039B5B7A002BEE
:1073140012D0039B9B881A46039B1B7A194610467E
:10732400FFF750F903461A46144B53F822301A4615
:107334001349029803F076FB039B1B6819460298D5
:10734400FFF7BCFF039B1B7A1A460E4B53F82240EF
:10735400039B9B8800211846FFF714F90346224635
:107364000949029803F05EFB00BF04B010BD00BFE2
:107374005C2307006C230700B0230700E02B0020E8
:10738400C8230700CC2B0020CC23070000B585B010
:107394000390029113468DF80730039B1B7A052B4B
:1073A4000FD0039B5B7A002B06D00D4B1B681A464B
:1073B4000C49029803F036FB0B49029803F032FBA8
:1073C40007E09DF80730002B03D00749029803F02B
:1073D40029FB029803F004FB00BF05B05DF804FB31
:1073E400E02B0020C8230700D823070030B58BB05A
:1073F40007900691059204930E9B1B7B8DF8273012
:107404000E9B00221A730E990498FFF767FF059BE1
:10741400062B7FD801A252F823F000BF3D7402006E
:1074240047740200577402006B74020089740200EE
:10743400B1740200E174020007990E9803F0F2FAA5
:1074440069E0069B1B681A4607990E9803F0EAFA4E
:1074540061E0069B1A68069B04331B6807990E9823
:1074640003F0E0FA57E0069B1A68069B0433196898
:10747400069B08331B6800930B4607990E9803F08C
:10748400D1FA48E0069B1968069B04331868069BEA
:1074940008331B68069A0C32126801920093034663
:1074A4000A4607990E9803F0BDFA34E0069B186863
:1074B400069B04331C68069B08331B68069A0C322F
:1074C40012680699103109680291019200932346CB
:1074D400024607990E9803F0A5FA1CE0069B1C6867
:1074E400069B04331D68069B08331B68069A0C32FE
:1074F40012680699103109680698143000680390E0
:107504000291019200932B46224607990E9803F0AC
:1075140089FA00E000BF00220E990498FFF736FFB5
:107524000E9B9DF827201A7300BF0BB030BD00BF1F
:1075340000B587B00390029101920093029B082B3F
:1075440060D8009B1B7B8DF81330009B00221A73BC
:1075540000990198FFF7C2FE0023059314E0059AF1
:10756400029B9A4209D2039A059B13441B781A463C
:107574002649009803F056FA03E02549009803F0E1
:1075840051FA059B01330593059B072BE7D9214944
:10759400009803F047FA0023059326E0059A029B1E
:1075A4009A421BD2039A059B13441B788DF8123020
:1075B4009DF812307E2B0AD89DF81230184641F0FF
:1075C400EDFB0346002B02D09DF8123000E02E2381
:1075D4001A461149009803F025FA03E00F49009870
:1075E40003F020FA059B01330593059B072BD5D99E
:1075F400012200990198FFF7C9FE009B9DF8132012
:107604001A7300E000BF07B05DF804FBDC23070039
:10761400E4230700E8230700EC230700F023070016
:1076240082B001900A4B01221A6007E0019B5B08BB
:107634000193074B1B685B00054A1360019B054AD5
:107644009342F3D8044A019B136000BF02B0704711
:10765400A45A002040420F00A05A002000B585B073
:107664000190019B002B0AD0074B43F001030393C5
:10767400019B9B010293039B0298984700E000BF83
:1076840005B05DF804FB00BF0024070000B583B01B
:107694000190019B002B0AD04FF47A70FFF7DEFFB4
:1076A400019B013B0193019B002BF5D100E000BF3E
:1076B40003B05DF804FB08B500F076FA00BF08BD1E
:1076C40000B589B0039002910192019B002B33D045
:1076D4000023079303230693029A079B1344019AFA
:1076E4001946002000F010FA0590079A059B1344F0
:1076F4000793019A059BD31A0193059B002B13D181
:107704000F4B1B7883F00103DBB2002B13D1012054
:10771400FFF7BCFF069B013B0693069B002B03D19E
:10772400074B00221A7007E0054B01221A70019BD7
:10773400002BD1D100E000BF00BF09B05DF804FB0D
:10774400A85A002000B585B003900291064B00931F
:107754004FF40053054A0299039800F013F800BF50
:1077640005B05DF804FB00BFC5760200AC5A0020EA
:1077740082B0019000BF02B0704782B0019000BF98
:1077840002B0704700B5A1B0059004910392029332
:10779400049803F087FD039B1593029B1693002323
:1077A400179300238DF8603000231993229B1A93BA
:1077B40000231F930FA91F9B0C22049803F04CFE77
:1077C4000C231F93119B1293BDF84030ADF84C303D
:1077D400BDF84230ADF84E3000238DF851309DF89D
:1077E4003C3003F00303DBB2012B26D10F9BC3F320
:1077F40095231C939DF83C30C3F3C203DBB28DF890
:107804005030BDF83C30C3F38313DBB21B931B9B96
:107814009A0009A91F9B049803F01EFE1B9B9B0062
:107824001F9A13441F9312AA09A915AB0093134678
:107834001B9A1C98FFF7DAFD2FE09DF83C3003F00B
:107844000303DBB2022B28D1BDF83E30C3F3891306
:107854009BB21E939DF83C30C3F3C203DBB28DF898
:1078640050301E9B082B28BF08231D9307A91F9B7C
:107874001D9A049803F0F0FD1F9A1D9B13441F9357
:107884001E9A1D9BD31A1E9315AB12AA07A81D9905
:10789400FFF74EFE1E9B002BE3D1049803F011FD6D
:1078A40000BF21B05DF804FB82B00190019BDB684E
:1078B40001225A7100BF02B07047000000B583B0C6
:1078C4004FF0FF330193FFF7F6FE04210848FFF75A
:1078D40095FC0190019B002B03DA0649412016F028
:1078E400FFFB0348FFF7E0FF00BF03B05DF804FBB4
:1078F400902207001824070082B0224B0193019BB9
:1079040004221A61019B02225A61019B1E4A9A6158
:10791400019B1E4ADA61019B4FF400521A62019BDB
:1079240000229A62019B00225A62019B0022DA62C1
:10793400019B154A9A67019B154ADA67019B40220D
:10794400C3F88020019B0022C3F88820019B0022F9
:10795400C3F88420019B0022C3F88C20019B0733C9
:107964000C4A10681860019B0B4A106818609188D3
:10797400927999809A71019B20229A7100BF02B07A
:10798400704700BFAC7A002084240700547B002099
:10799400549B0020902407009424070000B589B06C
:1079A40003900291019200230693039BDB680593E5
:1079B400039B1B690493049A059B9A4205D9049A74
:1079C400059BD31A013B079307E0039B9A6804992C
:1079D400059BCB1A1344013B0793039B9A68059BB1
:1079E400D31A079A934228BF13460793079A019B19
:1079F400934228BF13460793039B5A68059B13447D
:107A0400079A0299184642F08BF8069A079B13448A
:107A14000693029A079B13440293019A079BD31A75
:107A24000193059A079B13440593039B9B68059A4E
:107A34009A4201D100230593039B059ADA60019BC6
:107A4400002BB5D1069B184609B05DF804FB00B5C0
:107A540089B0039002910192039BDB680793039B17
:107A64009A68079BD31A0693069A019B9A420ED9E9
:107A7400039B5A68079B1344019A0299184642F0E3
:107A84004FF8079A019B1A44039BDA601AE0069B9D
:107A94000593039B5A68079B1344059A0299184659
:107AA40042F03EF8019A069BD31A0593039B58684B
:107AB400029A069B1344059A194642F031F8039B37
:107AC400059ADA6000BF09B05DF804FB86B0019046
:107AD400019B1B690493019BDB680393049A039B3A
:107AE4009A4208D8019B9A68039BD21A049B1344B8
:107AF400013B059304E0049A039BD31A013B0593CD
:107B0400059B184606B0704700B589B003900291F2
:107B14000192029B0693039B5A1C13465B00134479
:107B2400DB00204A13440593059B5B69022B29D093
:107B3400022B2ED8002B02D0012B13D029E005985C
:107B4400FFF7C4FF0490049A019B9A4202D20023D7
:107B5400079321E0019B0793019A06990598FFF783
:107B640076FF19E00598FFF7B1FF0490019A049B92
:107B7400934228BF13460793079A06990598FFF77F
:107B840066FF09E0019A06990598FFF707FF079039
:107B940002E00023079300BF079B184609B05DF875
:107BA40004FB00BFAC7A002008B5FFF7A5FE00BFB8
:107BB40008BD84B001904FF0FF3302930023039378
:107BC4000AE00B231A46019B934202D1039B0293C2
:107BD40005E0039B01330393039B002BF1D0029B2D
:107BE400184604B07047000000B587B003460A4643
:107BF4008DF8073013468DF8063000238DF81730C2
:107C0400002304939DF807301846FFF7D2FF049031
:107C1400049B002B61D19DF80630022B52D0022B1D
:107C24005EDC002B31D0012B5AD13649049A13461D
:107C34005B0013440B441B788DF817303149049AC8
:107C440013465B0013440B4401331B78002B0ED006
:107C54002D4B2E4A4FF40041184604F043FB039089
:107C6400039B002B03D1294A9DF807301370254943
:107C7400049A13465B0013440B4402331978244AD4
:107C8400049B13440A461A702AE01F4B184604F05A
:107C94005BFB1F4A049B134419781A48049A134641
:107CA4005B001344034402331B78994217D11549EE
:107CB400049A13465B0013440B4402331B788DF87B
:107CC40017300CE00F49049A13465B0013440B442D
:107CD40001331B788DF8173002E000BF00E000BFCD
:107CE4009DF81730002B09D00A4B1B68002B05D0D8
:107CF400084B1B689DF817201046984700BF07B033
:107D04005DF804FB989B00209C9B0020BC9B0020FA
:107D1400C09B0020949B002000B583B00190019B80
:107D24001B7802211846FFF75FFF00BF03B05DF820
:107D340004FB84B003468DF8073000230393039BB0
:107D4400184604B07047000000B585B0019000915A
:107D5400002303931B4A009B1360019B03F002035F
:107D6400002B2AD00023029308E00122012102986B
:107D740000F030F80390029B01330293029B002B26
:107D840002D1039B002BF0D0039B002B06D140F2C1
:107D9400666201210C4807F023FD0390039B002B2E
:107DA40002D107F099FD0390039B002B05D1074AEC
:107DB4000021074804F066FA0390039B184605B0B7
:107DC4005DF804FB949B0020A02407001D7D0200A5
:107DD4009C24070084B001900B468DF803301346B1
:107DE4008DF8023000230393019B002B3CD19DF8B6
:107DF4000230012B0BD19DF80330012B04D1019BE0
:107E0400DBB20E33DBB200E000238DF802309DF8C4
:107E14000330022B0FD0022B23DC002B16D0012BB6
:107E24001FD11449019A13465B0013440B449DF877
:107E340002201A701AE00F49019A13465B0013449A
:107E44000B4401339DF802201A700FE00949019A8E
:107E540013465B0013440B4402339DF802201A704E
:107E640004E00723039301E007230393039B1846CD
:107E740004B07047989B002000B585B00190019B29
:107E8400002B03D10A49852016F02AF90121019813
:107E940002F0A8FB0390BFF35F8F00BF039B002B8E
:107EA4000CBF01230023DBB2184605B05DF804FBC8
:107EB400A824070000B583B00190019B002B03D1D7
:107EC4000A49922016F00CF9019B1B68012B03D080
:107ED4000649932016F004F9BFF35F8F00BF019B9E
:107EE40000221A6000BF03B05DF804FBA824070059
:107EF40008B50348FFF7C0FF0346184608BD00BF96
:107F0400C49B002008B50248FFF7D4FF00BF08BD9A
:107F1400C49B002082B00190019B124A934215D069
:107F2400019B104A934217D8019B0F4A934210D0E9
:107F3400019B0D4A93420FD8019B002B04D0019B57
:107F44000A4A934202D007E0002307E048F2425372
:107F540004E048F2025301E048F21653184602B016
:107F6400704700BF2023F000080CF0008408F000E4
:107F740000B585B00190019B9B680393039845F07D
:107F840071FF0290029B184605B05DF804FB00B532
:107F9400ADB003900291039B5B682B93039B1B7A08
:107FA400002B01D000234DE02B98FFF7E1FF2A902E
:107FB40004238DF81430039B03F10C012B9B9B7954
:107FC4001A4605AB0133184641F0AAFDFFF790FFAE
:107FD40003468DF8A7309DF8A73083F00103DBB288
:107FE400002B02D048F204532CE000F029FD2B9B17
:107FF4009B7901331846039B0C3305A9029A01921D
:108004000093012302462A9845F046FB289000F08D
:108014002FFDFFF777FF2898FFF77CFF2790279B1A
:10802400002B03D1039B01221A720AE0039B03F184
:108034000C002B9B9B791A4605AB0133194641F082
:108044006FFD279B18462DB05DF804FB00B591B079
:10805400079006910592079B0F93069B0E93059B31
:108064000D930E9B5B681846FFF782FF0C90FFF799
:108074003FFF03468DF82F309DF82F3083F0010326
:10808400DBB2002B02D048F204531EE000F0D8FC0F
:108094000E9B03F108010D9B0C330F9A00200290F4
:1080A400019200930B460C9A0A49079845F038FC54
:1080B4000A9000F0DDFCFFF725FF0D9B01221A72E8
:1080C4000A98FFF727FF0990099B184611B05DF83D
:1080D40004FB00BFA58A020000B585B001900091A1
:1080E400019B0393039B5B680293039B03F10C00C6
:1080F400029B9B791A46009941F012FD039B0022D2
:108104001A720023184605B05DF804FB00B5ABB045
:1081140001900091019B2993299B5B682893299BDB
:108124001B7A83F00103DBB2002B0AD0299B03F1F5
:108134000C01289B9B791A46009841F0F1FC00231E
:1081440039E0FFF7D5FE03468DF89F309DF89F3048
:1081540083F00103DBB2002B02D048F204532AE07F
:10816400289B9B7901330293299B03F10C0002ABFA
:1081740003AA042145F058FB2690FFF7C3FE289B71
:108184009B7901331A46029B9A4203D19DF80C3025
:10819400042B02D048F216530DE0289B9B791A4613
:1081A40003AB01331946009841F0BAFC2698FFF757
:1081B400B1FE2590259B18462BB05DF804FB00000A
:1081C40010B590B0079006910592079B0F93069BFC
:1081D4000E93059B0D932023099320230893FFF707
:1081E40087FE03468DF833309DF8333083F0010366
:1081F400DBB2002B02D048F204531CE000F020FC58
:108204000D9B03F108000E9B03F108020F9B08ACC1
:1082140009A90293094B0193079B0093234645F058
:1082240071FD0B9000F024FCFFF76CFE0B98FFF738
:1082340071FE0A900A9B184610B010BDA58A020070
:1082440000B585B001900091019B0393039B083313
:1082540020220099184641F063FC0023184605B01B
:108264005DF804FB00B585B001900091019B039378
:10827400039B083320221946009841F051FC002347
:10828400184605B05DF804FB10B590B00790069150
:108294000592079B0F93069B0E93059B0D9320233A
:1082A400099340230893FFF723FE03468DF83330E8
:1082B4009DF8333083F00103DBB2002B02D048F287
:1082C40004531CE000F0BCFB0E9B03F108000D9B63
:1082D40003F108020F9B09AC08A90293094B01930F
:1082E400079B0093234645F06BFD0B9000F0C0FB09
:1082F400FFF708FE0B98FFF70DFE0A900A9B18463D
:1083040010B010BDA58A020000B585B0019000919F
:10831400019B0393039B083320220099184641F0E4
:10832400FFFB0023184605B05DF804FB00B585B0DB
:1083340001900091019B0393039B0833202219466B
:10834400009841F0EDFB0023184605B05DF804FBEE
:1083540000B585B00190019B002B03D10A4985200B
:1083640015F0BEFE0121019802F03CF90390BFF321
:108374005F8F00BF039B002B0CBF01230023DBB2E4
:10838400184605B05DF804FBF024070000B583B07F
:108394000190019B002B03D10A49922015F0A0FE05
:1083A400019B1B68012B03D00649932015F098FE0E
:1083B400BFF35F8F00BF019B00221A6000BF03B0B0
:1083C4005DF804FBF024070008B50348FFF7C0FF7D
:1083D4000346184608BD00BFC49B002008B50248E8
:1083E400FFF7D4FF00BF08BDC49B002000B5A1B0B7
:1083F4000590049103920293059B1E93049B1D9385
:10840400039B1C931D9B5B681B931E9B19461C9826
:10841400FFF7BDFD1A901A9B002B01D01A9B4BE06D
:108424001B9B5B791793179B03F00303002B07D067
:10843400179B033323F00303179306AB1F9301E049
:10844400029B1F93FFF7C0FF03468DF867309DF82A
:10845400673083F00103DBB2002B02D048F20453EF
:108464002AE000F0EDFA1C9B03F10C001D9B03F1C4
:1084740008011E9B17AA009313461F9A45F0D2FACF
:10848400189000F0F5FAFFF7A9FF1F9A029B9A4291
:108494000DD01B9B5B790333DB4303F0030306AA74
:1084A400D1181B9B5B791A46029841F039FB189846
:1084B400FFF730FD1A901A9B184621B05DF804FBB3
:1084C40000B593B00790069105920493079B11930E
:1084D400069B1093059B0F93109B5B680E930E9B5A
:1084E4005B79089320230D9320230C93FFF76CFFF3
:1084F40003468DF82F309DF82F3083F00103DBB253
:10850400002B02D048F204531BE000F099FA109BB0
:1085140003F108000F9B0833119A08A902920D9ADF
:10852400019200930C9B0246049845F0EFFA0A90DE
:1085340000F09EFAFFF752FF0A98FFF7EBFC099050
:10854400099B184613B05DF804FB000000B583B026
:108554000190019B002B03D10649722015F0C0FD48
:10856400019B00221A60BFF35F8F00BF00BF03B0FE
:108574005DF804FB2C25070008B50248FFF7E6FF69
:1085840000BF08BDC49B002084B001900323039363
:10859400019B002B02D10023039302E003230393E6
:1085A40000BF039B184604B07047000000B585B0B7
:1085B400FFF7E2FF134B0122C3F8002545F09CFCB2
:1085C4000390104B0022C3F800250398FFF7DCFF4B
:1085D4000290029B0193019B002B01D0019B0CE0B4
:1085E4000021002000F068FD0290029B0093009B94
:1085F400002B01D0009B00E0029B184605B05DF8FB
:1086040004FB00BF00A0025000B583B0002100208D
:1086140000F052FD0190019B0093009B002B01D0C0
:10862400009B0AE0074B0122C3F8002545F090FCAB
:10863400044B0022C3F800250023184603B05DF85C
:1086440004FB00BF00A0025000B585B00190019B5F
:10865400002B03D10A49852015F042FD0121019820
:1086640001F0C0FF0390BFF35F8F00BF039B002B9B
:108674000CBF01230023DBB2184605B05DF804FBF0
:108684006825070000B583B00190019B002B03D13E
:108694000A49922015F024FD019B1B68012B03D08D
:1086A4000649932015F01CFDBFF35F8F00BF019BAB
:1086B40000221A6000BF03B05DF804FB68250700C0
:1086C40008B50348FFF7C0FF0346184608BD00BFBE
:1086D400C49B002008B50248FFF7D4FF00BF08BDC3
:1086E400C49B002084B00190019B002B00F0828089
:1086F400019B5A4A934200F2A880019B584A934234
:10870400C0F0A380019BA3F57003A3F54063352B50
:1087140000F29B8001A252F823F000BF17880200E8
:108724000F8802004F8802001F8802002788020079
:10873400278802002F880200478802003F88020031
:108744004F8802004F8802004F8802004F880200C1
:108754000F8802004F8802000F8802000788020079
:1087640007880200078802004F8802004F88020031
:108774004F8802004F8802004F8802004F88020091
:108784004F8802004F8802004F8802004F88020081
:108794004F8802004F8802004F8802001F880200A1
:1087A4002F8802001F88020027880200FF8702002A
:1087B400378802004F880200378802004F88020081
:1087C4004F8802004F8802004F8802004F88020041
:1087D4004F8802004F8802004F8802001788020069
:1087E4002F880200278802004F8802000F880200A9
:1087F4000F880200002303932BE048F217530393DE
:1088040027E048F27053039323E048F203530393A1
:108814001FE048F2135303931BE048F210530393F1
:1088240017E048F21153039313E048F214530393EF
:108834000FE048F2015303930BE048F20253039311
:1088440007E048F27153039303E048F2165303938D
:1088540000BF039B184604B0704700BF350CF000FE
:10886400000CF00000B589B001900091009B0793C3
:10887400019B0693069B1B68144A934201D1002373
:1088840020E0FFF71DFF03468DF817309DF81730E1
:1088940083F00103DBB2002B02D048F2045311E051
:1088A40000F0CEF8069B04330799184643F0F8FA13
:1088B40004900498FFF716FF039000F0D9F8FFF72F
:1088C40009FF039B184609B05DF804FB6169614D1B
:1088D40000B589B00390029101928DF80330039B97
:1088E400043307939DF80330002B0ED0FFF7E8FE06
:1088F40003468DF81B309DF81B3083F00103DBB277
:10890400002B02D048F2045316E000F099F8019BC2
:108914009BB2029A1946079843F0A8FB059000F011
:10892400A7F80598FFF7DEFE04909DF80330002BAE
:1089340001D0FFF7CFFE049B184609B05DF804FB95
:1089440000B58BB003900291019200930023099328
:10895400029B0893039B04330793009B0C2B02D9BF
:1089640048F211533AE0009B03F00303002B02D0BA
:1089740048F2165332E0FFF7A3FE03468DF81B308E
:108984009DF81B3083F00103DBB2002B02D048F2C8
:10899400045323E000F054F8009B002B0ED0009BFE
:1089A4009BB21A460199079843F096FD05900598E5
:1089B400FFF798FE0990099B002B09D108990798A5
:1089C40043F0CEFC05900598FFF78CFE099000E07B
:1089D40000BF00F04DF8FFF77DFE099B18460BB071
:1089E4005DF804FB82B003468DF807309DF807302C
:1089F40003F01F0205499DF907305B09012000FAC5
:108A040002F241F8232000BF02B0704700E100E009
:108A140082B003468DF807309DF8073003F01F023B
:108A240006499DF907305B09012000FA02F2203360
:108A340041F8232000BF02B0704700BF00E100E00E
:108A440008B5094B1B680133074A1360064B1B68C2
:108A5400012B06D1054B0122C3F800252A20FFF77C
:108A6400C1FF00BF08BD00BFC89B002000A002508A
:108A740008B5094B1B68013B074A1360064B1B688A
:108A8400002B06D1054B0022C3F800252A20FFF74E
:108A9400BFFF00BF08BD00BFC89B002000A002505C
:108AA40000B587B003900B460192ADF80A30BDF8CB
:108AB4000A301946019800F0F0FA0590059B002B46
:108AC40001D1002307E0059B48F20252934201D1F1
:108AD400034B00E0034B184607B05DF804FB00BFEE
:108AE400080CF0000F0CF00082B001900091019B83
:108AF400002B02D148F210530CE0009B002B02D152
:108B040048F2135306E0009B00221A60009B019A6E
:108B14005A600023184602B0704782B00190009159
:108B2400019B002B02D148F2105308E0019B1B6803
:108B3400009A9A4202D048F2405300E000231846BB
:108B440002B0704784B0039002910192039B002B02
:108B540002D148F213530EE0029B002B0AD0029B71
:108B64001B68019A9A4202D948F2145303E0029B0B
:108B7400019A1A600023184604B0704784B0039029
:108B840002910192039B002B02D148F2105307E09B
:108B9400029A019B9A4202D048F2115300E000234A
:108BA400184604B07047000080B58CB000AFF86080
:108BB400B9607A603B600023FB627B68BB623B6800
:108BC4007B62B96AB868FFF78FFF38623B6AFB6162
:108BD400FB69002B01D0FB6948E0796AB868FFF7AC
:108BE40083FF38623B6ABB61BB69002B01D0BB6960
:108BF4003CE0BB681B791A461E4B53F822307B615C
:108C0400BB681B791A461C4B33F812303B617B69F5
:108C1400002B02D148F2035328E0FB68002B15D146
:108C24003B69002B12D03B690733DB08DB00ADEB5B
:108C3400030D6B460733DB08DB00FB62FB6A002B8A
:108C440002D148F2155311E0FB6AFB607B693A6874
:108C54007968F868984738623B6A002B05D1BB6A8B
:108C6400064A1A607B6A064A1A603B6A184630371D
:108C7400BD4680BDA4250700D82507007652464D81
:108C84007052464D00B58BB003900291019200934F
:108C9400029B099309990398FFF726FF0890089B04
:108CA4000793079B002B01D0079B27E0039B9B792D
:108CB4001A4600990198FFF761FF0890089B0693F4
:108CC400069B002B01D0069B18E0039B1B791A46D8
:108CD4000C4B53F822300593059B002B02D148F22C
:108CE40003530BE0059B0199029898470890089B51
:108CF400002B02D1099B044A1A60089B18460BB04A
:108D04005DF804FBF42507007052464D00B58BB0A6
:108D1400039002910192039B09931A490998FFF762
:108D2400FCFE0890089B0793079B002B01D0079B30
:108D340024E0099B5B680693069B9B791A4601997C
:108D44000298FFF7FFFE0890089B0593059B002BF4
:108D540001D0059B12E0069B1B791A460A4B53F877
:108D640022300493049B002B02D148F2035305E004
:108D7400049B0299039898470890089B18460BB0E7
:108D84005DF804FB7052464D2826070088B0039016
:108D9400029101920093039B002B02D1009B059347
:108DA40002E0039B5B790593029B002B02D148F2FE
:108DB400105340E0019B002B32D148F213533AE0A8
:108DC40000230793059B013B069319E0029A079B36
:108DD40013441B788DF81330029A069B1A440199A8
:108DE400079B0B4412781A70019A069B13449DF852
:108DF40013201A70079B01330793069B013B0693CC
:108E0400079A069B9A42E1D9009A059BD31A0093CC
:108E1400029A059B13440293019A059B1344019300
:108E2400009A059B9A42CBD2009B002B02D048F2B9
:108E3400115300E00023184608B0704790B58FB076
:108E440000AFF860B9607A603B6000237B63BB6865
:108E54003B637B68FB623649386BFFF75EFEB862A2
:108E6400BB6A7B627B6A002B01D07B6A5BE0314981
:108E7400F86AFFF752FEB862BB6A3B623B6A002B9A
:108E840001D03B6A4FE03B6B5A68FB6A5B689A42CD
:108E940002D048F2415346E03B6B5B68FB61FB69DF
:108EA4005B791A46B96C3868FFF74CFEB862BB6A46
:108EB400BB61BB69002B01D0BB6934E0FB691B7942
:108EC4001A461D4B53F822307B61FB691B791A4605
:108ED4001A4B33F812303B617B69002B02D148F204
:108EE400035320E0FB68002B15D13B69002B12D003
:108EF4003B690733DB08DB00ADEB030D6B4607333F
:108F0400DB08DB007B637B6B002B02D148F215533B
:108F140009E07B6BFB607C693B687A68B968F86838
:108F2400A047B862BB6A18463C37BD4690BD00BF37
:108F34007652464D7052464D5C2607008C2607003B
:108F440000B585B0134A144BD31ADB080293134BB4
:108F540001221A700023039310E0039BDB000E4AE6
:108F640013440193019B1B6898470090009B002BBE
:108F740001D0009B0AE0039B01330393039A029BF5
:108F84009A42EAD3054B02221A700023184605B010
:108F94005DF804FB9820070090200700CC9B00207C
:108FA400084B1B78DBB2022B04D0064B1B78DBB2D8
:108FB400012B01D1012300E0002303F00103DBB204
:108FC40018467047CC9B00206B461846704700003B
:108FD40008B5FFF7F9FF0346034A934201D2012380
:108FE40000E00023184608BD00E0032000B587B068
:108FF4000390029113468DF80730039B002B02D196
:1090040048F2135330E0029B002B02D148F2145370
:109014002AE0174B1B68174A934202D048F20253C6
:1090240022E0154B18689DF80730029A0399FFF760
:109034004FFC0590059B48F27152934213D10022D4
:109044000021002000F0B4F80590059B002B01D00E
:10905400059B09E0084B18689DF80730029A0399AC
:10906400FFF736FC0590059B184607B05DF804FB36
:10907400D49B00206572E54BD09B002000B585B0E1
:1090840001900091012200990198FFF7AFFF03902E
:10909400039B184605B05DF804FB00B585B001904C
:1090A4000091002200990198FFF7A0FF0390039B11
:1090B400184605B05DF804FB80B584B000AF786055
:1090C40039600023FB60FFF783FF0346002B0DD0BC
:1090D4002E4A2F4BD31ADB081B0443F001032D49FE
:1090E4001846FDF71FFD48F219534AE0FFF758FFF1
:1090F400034683F00103DBB2002B02D04FF4054397
:109104003FE0254B1B68002B06D0244B1B68244AE8
:10911400934201D1002334E07B68002B02D048F253
:1091240017532EE03B68002B02D048F2175328E077
:10913400194B1C4A1A601C4B3B603B68002B0ED138
:10914400ADF5BF5D6B460733DB08DB00FB60FB68F6
:10915400002B02D148F2155313E0FB683B600E4B21
:109164001B6839681846FFF77DFBB860BB68002BA5
:1091740006D10A4B0A4A1A60074B1B680B4A1A604D
:10918400BB6818461037BD4680BD00BFF0210700FC
:1091940098200700A4260700D09B0020D49B002021
:1091A4006572E54BD89B0020C09C00206169614D2D
:1091B40080B586B000AFF860B9607A6000237B6147
:1091C400FFF706FF0346002B0DD0234A234BD31A87
:1091D400DB081B0443F0010321491846FDF7A2FCF8
:1091E40048F2195333E07B68002B05D0BB68002B91
:1091F40002D148F210532AE01A4B1B681A4A9342D0
:1092040002D048F2025322E0FB68002B02D048F25D
:1092140017531CE0154BFB60FB68002B0ED1ADF51A
:10922400BF5D6B460733DB08DB007B617B69002B8A
:1092340002D148F215530AE07B69FB600C4B1868B5
:109244007B68BA68F968FFF77BFB38613B691846AD
:109254001837BD4680BD00BFF021070098200700E5
:10926400A4260700D49B00206572E54BC09C002017
:10927400D09B002086B003900291019201238DF8C7
:1092840017309DF81730214A039B13601F4A029B35
:1092940053601E4A019B9360039B44F20102934274
:1092A40013D0039B44F20202934221D1019B174A3B
:1092B400D360164BDB681B881A46144B9A61134B18
:1092C400DB685B68114AD36112E0019B0F4A1361AA
:1092D4000E4B1B699B680D4A53610C4B1B691B6841
:1092E4000A4A9361094B1B695B68084AD36100BF52
:1092F40072B600BF00BF9DF81730DBB2002BFAD165
:1093040062B600BF00BF06B0704700BFA0B4002023
:1093140000B583B002900091019244F201007146BD
:109324006A4600F003F803B000BD00BF30B58BB04F
:1093340007900691059272B600BFFDF79DFF00BF2E
:10934400FDF74AFD0346002BFAD1079B44F20202C3
:1093540093422FD0079B44F20202934269D8079BA1
:1093640044F20102934237D0079B44F20102934234
:109374005FD8079B012B05D0079B41F20102934262
:109384000CD056E0394A3A4BD31ADB081B0443F09D
:10939400010338491846FDF7C5FB57E0334A344BFF
:1093A400D31ADB081B0443F0010333491846FDF7C5
:1093B400B9FB4BE0059B09932C4A2D4BD31ADB08D0
:1093C4001B0443F00100099B5B681A46099B1B8838
:1093D4002A49FDF7C6FB39E0059B0893234A244B31
:1093E400D31ADB081B0443F00104089B9D68089B07
:1093F4009B68184602F0A8F903461846089B5B6868
:109404001946089B1B68069A029201930091034631
:109414002A461B492046FDF7E6FB144A144BD31A8F
:10942400DB081B0443F0010316491846FDF77AFBD9
:109434000CE00E4A0E4BD31ADB081B0443F0010365
:10944400069A11491846FDF77BFB00BF0F4B1B68BA
:1094540003F00103002B00D000BE059A069907987B
:10946400FFF708FF00BF0BB030BD00BFF0210700BD
:1094740098200700C0260700E026070004270700FD
:1094840020270700482707005C270700F0ED00E0CD
:1094940082B0EFF310830093009B019372B600BF78
:1094A400019B184602B0704762B600BF00BF704708
:1094B40000B585B00190FFF7EBFF0390164B9B6856
:1094C400002B1BD1144B01229A60144BD3F880203B
:1094D400134B1340104A1360104B114AC3F88020F9
:1094E4000E4BD3F884300C4A53600C4B4FF0FF32D0
:1094F400C3F88420019B00221A7002E0019B012220
:109504001A70039B002B01D1FFF7CEFF00231846EE
:1095140005B05DF804FB00BFC0B4002000E100E02A
:10952400FC06FFBD00B585B003468DF80730104B2F
:109534009B68002B16D09DF80730002B12D1FFF743
:10954400A7FF03900B4A0A4B1B681360094A084B98
:109554005B685360064B00229A60039B002B01D189
:10956400FFF7A2FF0023184605B05DF804FB00BF17
:10957400C0B4002000E100E000B583B0019000F029
:109584002BF80346012B03D00549432014F0A8FD12
:109594000198FFF78DFF00BF03B05DF804FB00BF27
:1095A4007427070000B583B003468DF8073000F038
:1095B40013F80346012B03D00649512014F090FD03
:1095C4009DF807301846FFF7ADFF00BF03B05DF804
:1095D40004FB00BF7427070084B0EFF305830193F5
:1095E400019BC3F308030393039B002B0DD1EFF3FB
:1095F40014830093009B0293029B03F00103002B4E
:109604000CBF01230023DBB200E00123184604B0A1
:10961400704700B58DB00190019BDB6A0993099BEB
:109624005B69099A926802FB03F31B0B0893099B7D
:109634005A69099B9B691344099A926802FB03F3D4
:109644001B0B0793099B1B6B089A9A4200F29E809E
:10965400099B1B6B079A9A42C0F09880099B1B6B6D
:10966400089A9A4234D1099B5B69099A92684FF42B
:109674008051B1FBF2F2B3FBF2F101FB02F29B1A4F
:109684000493099B9B684FF48052B2FBF3F2049B52
:10969400D31A0B93099B9A68049B02FB03F303936D
:1096A400099B9B690B9A9A4202D9099B9B690B936C
:1096B400099BD869099B03F13802039BD118099BC4
:1096C4009B680B9A02FB03F31A4640F029FA5EE00A
:1096D400099B1B6B079A9A423AD1099B5A69099BC9
:1096E4009B691344099A92684FF48051B1FBF2F2DA
:1096F400B3FBF2F101FB02F29B1A0A93099B1B6B69
:10970400099A92684FF48051B1FBF2F203FB02F222
:10971400099B5B69D31A099A926802FB03F30593C8
:10972400099B9B690A9A9A4202D9099B9B690A93ED
:10973400099BDA69059BD018099B03F13801099B41
:109744009B680A9A02FB03F31A4640F0E9F91EE00B
:10975400099B1B6B099A92684FF48051B1FBF2F29A
:1097640003FB02F2099B5B69D31A099A926802FB14
:1097740003F30693099BDA69069BD018099B3833D7
:109784004FF48052194640F0CBF900E000BF0DB011
:109794005DF804FB00B599B0034600918DF80730DD
:1097A4007B4B1B68009A9A4240F0EA80009B179317
:1097B400179BDB6A1693169B20331593169B1B7815
:1097C400DBB2052B00F3D680042B46DA022B02D041
:1097D400032B23D0CEE0169B93F82D30002B02D020
:1097E4001798FFF716FF169B01221A70169BDB6869
:1097F400002B00F0C78002238DF8183000238DF869
:109804001930169B14330793169B1B690893169BF8
:10981400DB68179A06A910469847B3E0159B1B68A6
:10982400169A926802FB03F31B0B0E93169B1B6B99
:109834000E9A9A4203D05749CF2014F051FC15993F
:10984400179800F010FB0D900D9B002B00F09C80EE
:109854005049D32014F044FC96E0169B5B6B0C93A8
:109864000C9B93FAA3F30B930B9BB3FA83F314931C
:10987400169B1B78DBB2052B08D1169B5A6B012172
:10988400149B01FA03F35A40169B5A63169B5B6BB5
:10989400002B44D1169B5B6A002B1AD0159B1B68C6
:1098A400169A926802FB03F31B0B1093169B109AF3
:1098B4001A63169B03221A70169B03F13800169B39
:1098C4001B6B1B031A464FF4805108F08DFD0F905B
:1098D4005BE0169B01221A70169BDB68002B19D0E3
:1098E400169B93F82C3083F00103DBB2002B11D0CC
:1098F40003238DF80C3000238DF80D30169B1433A0
:109904000493169B1B690593169BDB68179A03A99E
:1099140010469847169B002283F82C2035E0169BAE
:109924005B6B0A930A9B93FAA3F30993099BB3FA1B
:1099340083F31493169B1B6B1A03169B9B68149951
:1099440001FB03F313441393169B03F13802169B94
:109954009B68149901FB03F313441293169B05228D
:109964001A70169B9B68139A1946129808F0F0FC1B
:1099740011900AE0074940F2191014F0B1FB04E019
:1099840000BF02E000BF00E000BF19B05DF804FBB7
:10999400CCB40020B427070084B00190019BDB6A9B
:1099A400039301E030BF00BF039B1B78DBB2012BA4
:1099B400F8D100BF00BF04B07047000000B593B0F9
:1099C400039002910192039B002B04D16C4940F255
:1099D4002B1014F085FB039B0D930D9BDB6A0C93FA
:1099E4000D9B18330B9300230E930D9B1B69DBB265
:1099F400002B01D00623BEE00D9B1B694FF480525F
:109A0400B2FBF3F101FB03F3D31A002B01D00623BD
:109A1400B1E05C4B1B68002B01D01123ABE0039A2F
:109A240059490B9808F070FB0E900E9B002B01D047
:109A34000E9BA0E0554A09AB92E80300186004337A
:109A4400198009AB00220021184608F0E5FB0E90AE
:109A54000E9B002B01D00E9B8DE099238DF82430B2
:109A640009AB00220021184608F0D6FB0E900E9B8D
:109A7400002B01D00E9B7EE0454A08AB12681146CC
:109A840019800233120C1A709F238DF8243004239A
:109A94008DF8253008AA09AB0021184608F0BCFB54
:109AA4000E900E9B002B01D00E9B64E008AB184671
:109AB40000F07EFB1190119B002B01D106235AE08C
:109AC400119B9B68B3F5805F01D0062353E00D9B87
:109AD4001B691093119B5A680D9B1B69B2FBF3F32E
:109AE4000F930F9B002B0CD04FF48052109BB2FBB2
:109AF400F3F20F9BB3FBF2F101FB02F29B1A002B72
:109B040001D0062337E00C9B109A9A600C9B0F9AA5
:109B14005A600C9B019A1A610C9B029ADA600C9BA6
:109B240001221A700C9B4FF0FF321A630D9B5B6984
:109B340003F00103002B14BF01230023DAB20C9BB2
:109B440083F82D200F4A0D9B13600C9BDB68002BC0
:109B540010D000238DF8143000238DF81530002325
:109B640006930C9B1B6907930C9BDB6805AA1146A3
:109B7400039898470023184613B05DF804FB00BF10
:109B8400B4270700CCB4002099970200F4270700FB
:109B9400FC27070000B589B00190019B002B04D17C
:109BA4001F4940F2AB1014F09BFA019B0793079BEB
:109BB400DB6A06931B4B1B68079A9A4201D0112358
:109BC4002AE0069B1B78DBB2012B01D0112323E092
:109BD400069BDB68002B10D001238DF80C3000238A
:109BE4008DF80D3000230493069B1B690593069B97
:109BF400DB6803AA114601989847069B00221A7055
:109C040008F07EFB41F23802002106983FF0B1FFD4
:109C1400044B00221A600023184609B05DF804FBC7
:109C2400B4270700CCB4002000B587B001900091A0
:109C3400019B002B04D1384940F2D71014F050FA9C
:109C4400009B002B04D134494FF4EC7014F048FA13
:109C5400019B0393039BDB6A029300230593009B00
:109C64001A68009B5B681A44029B5B689A4201D99C
:109C740010234CE0294B1B68039A9A4201D011230C
:109C840045E0029B1B78DBB2012B01D011233EE09F
:109C9400029B009A203307CA83E80700029B009ABC
:109CA400143307CA83E80700029B20330493029B02
:109CB40002221A70049B9868049B5B68029A92685B
:109CC40002FB03F1049B1B68029A926802FB03F3F4
:109CD4001A4608F089FB0590059B002B04D0029BD3
:109CE40001221A70059B12E0049B00229A60049BD7
:109CF40000225A60029BDB68002B07D1029B1B7871
:109D0400DBB2012B02D00398FFF746FE059B1846F1
:109D140007B05DF804FB00BFB4270700CCB40020F3
:109D240000B589B00390029101920093009B03F067
:109D34000303002B04D0244940F2212014F0D0F96D
:109D4400039BDB6A0493049B03F13802029B1344D4
:109D54000793019B069300238DF81730009B9B0803
:109D64000093079B1A68069B1B689A4214D0079BB2
:109D74001B68B3F1FF3F02D001238DF81730049B19
:109D84005A6B049B9B680299B1FBF3F3012101FA1E
:109D940003F31A43049B5A63069A131D0693079B05
:109DA400191D079112681A60029B04330293009BE9
:109DB400013B0093009B002BD3D19DF8173018462C
:109DC40009B05DF804FB00BFB427070000B58BB0F1
:109DD4000190019BDB6A0993099B93F82E3083F071
:109DE4000103DBB2002B2AD0099B5B6B0493049B19
:109DF40093FAA3F30393039BB3FA83F30793099BA7
:109E04001B6B1A03099B9B68079901FB03F313441B
:109E14000693099B03F13802099B9B68079901FB90
:109E240003F313440593099B05221A70099B9B684D
:109E3400069A1946059808F08BFA03460FE0099B29
:109E44001B6B1B030893099B04221A70099B0022B5
:109E540083F82E200899002008F012FB03461846C8
:109E64000BB05DF804FB00B58DB001900091019B2F
:109E7400DB6A0A93009B1B680A9A92684FF480512C
:109E8400B1FBF2F2B3FBF2F101FB02F29B1A09936C
:109E94000A9B9B684FF48052B2FBF3F2099BD31ADE
:109EA4000B930A9B9A68099B02FB03F30893009B9C
:109EB4005B680B9A9A4202D9009B5B680B93009BE8
:109EC40099680A9B9B680B9A02FB03F30A4608995C
:109ED4000198FFF725FF03468DF81F309DF81F30CA
:109EE400002B03D00A9B012283F82E20009B5A6882
:109EF4000B9BD21A009B5A60009B1A680B9B1A4456
:109F0400009B1A60009B9A680A9B9B680B9901FB53
:109F140003F31A44009B9A600A9B93F82E30002B9B
:109F240010D00A9B9B6806930A9B5A6B4FF480518E
:109F3400069BB1FBF3F3012101FA03F3013B1A433E
:109F44000A9B5A630A9B5B6B002B04D00A9B93F811
:109F54002D30002B1ED00A9BDB68002B1AD0009BEF
:109F64005B68002B16D103238DF80C3000238DF889
:109F74000D300A9B143304930A9B1B6905930A9BB7
:109F840001221A700A9BDB68019A03A910469847BC
:109F9400002303E00198FFF719FF034618460DB0AC
:109FA4005DF804FB00B589B001900091019B002B82
:109FB40004D1414940F2962014F092F8009B002B02
:109FC40004D13D4940F2972014F08AF8019B05938F
:109FD400059BDB6A049300230693009B1A68009B8D
:109FE4005B681A44049B5B689A4201D910235FE0C2
:109FF400324B1B68059A9A4201D0112358E0049B06
:10A004001B78DBB2012B01D0112351E0049B009A91
:10A01400203307CA83E80700049B009A143307CA55
:10A0240083E80700049B20330393039B1B68049A73
:10A03400926802FB03F31B0B0793049B1B6B079AA9
:10A044009A4205D103990598FFF70DFF06901AE08F
:10A05400049B93F82D30002B04D00598FFF7B6FE2F
:10A06400069010E0049B079A1A63049B03221A705B
:10A07400049B03F13800079B1B031A464FF48051DD
:10A0840008F0B2F90690069B002B04D0049B012231
:10A094001A70069B0CE0049BDB68002B07D1049B21
:10A0A4001B78DBB2012B02D00598FFF775FC069BE9
:10A0B400184609B05DF804FBB4270700CCB40020AF
:10A0C40000B58BB003900B4601928DF80B30039BC7
:10A0D400002B04D1294940F2F12014F001F8039B2C
:10A0E4000993099BDB6A08939DF80B30002B04D07D
:10A0F400012B32D000BF06233BE0019B0693089B53
:10A104001B78DBB2012B01D0112332E0089B93F8BA
:10A114002D3083F00103DBB2002B03D1089B5B6B72
:10A12400002B07D1069B002B02D0069B00221A703D
:10A1340000231EE00998FFF749FE0590059B002BBC
:10A1440009D1069B002B02D0069B01221A70089BA2
:10A15400012283F82C20059B0BE0019B002B01D1ED
:10A16400072306E0019B0793099B1A1D079B1A60AE
:10A17400002318460BB05DF804FB00BFB4270700AA
:10A1840000B585B00190019B002B04D1074940F232
:10A194002B3013F0A5FF019B0393039BDB6A02930F
:10A1A400029B0433184605B05DF804FBB42707008E
:10A1B40000B585B001900023039313E0039B1B01BA
:10A1C4000C4A13440322019918463EF019FE034633
:10A1D400002B04D1039B1B01064A134406E0039B96
:10A1E40001330393039B002BE8D00023184605B0EA
:10A1F4005DF804FB1828070086B001900091019BCC
:10A2040053E8011F8AB2D88902449889824228BF40
:10A21400121A1889824202BFBFF32F8F002307E06E
:10A22400C2EA010243E801200028E9D14FF001030A
:10A234008DF80F30059002910492029A009B1A60E7
:10A244009DF80F30DBB2184606B0704784B0019019
:10A25400019951E8013FC3EA034341E80132002A6E
:10A26400F7D10392029300BF04B0704786B0019007
:10A274000091019B53E8021F1FFAA1F2D888824281
:10A2840002BFBFF32F8F00230DE0D88902449889C1
:10A29400824228BF121AC1EA024243E8022000287F
:10A2A400E8D14FF001038DF80F300590029104922C
:10A2B400029A009B1A609DF80F30DBB2184606B074
:10A2C400704784B00190019951E8023FC3EA2343E7
:10A2D40041E80232002AF7D10392029300BF04B08E
:10A2E400704786B00190019B53E8021FDA88B1EBF6
:10A2F400314F4FF0000017BF89B242EA024241EAEF
:10A30400024204E05968B1EB314F08BF012043E831
:10A3140002210029E8D18DF80F00059104929DF8DF
:10A324000F30DBB2184606B0704784B00390029138
:10A3340011461A460B46ADF806301346ADF8043004
:10A34400029B002B01D10E231FE0BDF80630BDF89F
:10A354000420B3FBF2F101FB02F29B1A9BB2002B27
:10A3640001D0092311E0039B029A1A60039B002287
:10A374005A60039B00229A60039BBDF806209A81D1
:10A38400039BBDF80420DA810023184604B070470B
:10A3940000B585B001900198FFF7A3FF03468DF83F
:10A3A4000F309DF80F30002B01D0002300E0112363
:10A3B400184605B05DF804FB00B585B00190009126
:10A3C400009B19460198FFF717FF0346002B07D09F
:10A3D400019B1B68009A128813440393039B00E0BB
:10A3E4000023184605B05DF804FB00B583B0019066
:10A3F4000091009B1A88009B5B889A4204D10198C3
:10A40400FFF724FF012300E00023184603B05DF8A2
:10A4140004FB00B585B001900091009B194601989A
:10A42400FFF724FF0346002B07D0019B1B68009A0B
:10A43400528813440393039B00E00023184605B09D
:10A444005DF804FB00B583B001900091009B1A886D
:10A45400009B5B889A4204D10198FFF732FF0123E5
:10A4640000E00023184603B05DF804FB00B585B096
:10A4740001900091009B5B099B00019A1A44009B88
:10A4840003F01F03012101FA03F31946104600F0FB
:10A49400D8F8039000BF05B05DF804FB00B583B0A5
:10A4A40001900091009B5B099B00019A1A44009B58
:10A4B40003F01F03012101FA03F31946104600F0CB
:10A4C400A8F80246009B03F01F0322FA03F303F0EB
:10A4D4000103002B14BF01230023DBB2184603B091
:10A4E4005DF804FB00B585B001900091009B5B0909
:10A4F4009B00019A1A44009B03F01F03012101FAF7
:10A5040003F3DB431946104600F0CBF8039000BF79
:10A5140005B05DF804FB82B001900091009B5B09DB
:10A524009B00019A13441A68009B03F01F0322FA4C
:10A5340003F303F00103002B14BF01230023DBB258
:10A54400184602B0704700B58BB00190009100230B
:10A5540009933BE0099B9B00019A13441B68DB436E
:10A564000693069B93FAA3F30593059BB3FA83F32F
:10A57400089323E0099B5B01089A13440793079A05
:10A58400009B9A421ED207990198FFF787FF034662
:10A5940083F00103DBB2002B01D0079B1EE0099B73
:10A5A4009B00019A13441B68DB430493049B93FAB6
:10A5B400A3F30393039BB3FA83F30893089B1F2B22
:10A5C400D8D900E000BF099B01330993009B013BEC
:10A5D4005B090133099A9A42BCD3009B18460BB01D
:10A5E4005DF804FB10B487B001900091019B009AC0
:10A5F40053E8004F104643E8000191F0000FF7D1F3
:10A60400059404900391059B184607B05DF8044B2C
:10A61400704710B487B001900091019B009A53E8F1
:10A62400004F44EA020043E8000191F0000FF6D124
:10A63400059404900391059B184607B05DF8044BFC
:10A64400704710B487B001900091019B009A53E8C1
:10A65400004F44EA020043E8000191F0000FF6D1F4
:10A66400059404900391049B184607B05DF8044BCD
:10A67400704710B487B001900091019B009A53E891
:10A68400004F04EA020043E8000191F0000FF6D104
:10A69400059404900391059B184607B05DF8044B9C
:10A6A400704710B487B001900091019B009A53E861
:10A6B400004F04EA020043E8000191F0000FF6D1D4
:10A6C400059404900391049B184607B05DF8044B6D
:10A6D400704710B487B001900091019B009A53E831
:10A6E400004F04EB020043E8000191F0000FF6D1A3
:10A6F400059404900391059B184607B05DF8044B3C
:10A70400704710B487B001900091019B009A53E800
:10A71400004F04EB020043E8000191F0000FF6D172
:10A72400059404900391049B184607B05DF8044B0C
:10A73400704710B487B001900091019B009A53E8D0
:10A74400004FA4EB020043E8000191F0000FF6D1A2
:10A75400059404900391049B184607B05DF8044BDC
:10A76400704700B583B0019001210198FFF751FFB4
:10A774000346184603B05DF804FB00B583B00190AE
:10A7840001210198FFF75DFF0346184603B05DF809
:10A7940004FB00B583B0019000210198FFF769FF25
:10A7A4000346184603B05DF804FB00B583B001907E
:10A7B40000210198FFF775FF0346184603B05DF8C2
:10A7C40004FB000000B583B001900B468DF8033004
:10A7D400019B002B03D10849E82013F081FC019B65
:10A7E400DA689DF803300199098A01FB03F31344E5
:10A7F400184603B05DF804FB2828070000B583B0B1
:10A8040001900091019B002B03D10849F52013F01E
:10A8140067FC009B019AD2689B1A019A128AB3FBC7
:10A82400F2F3DBB2184603B05DF804FB28280700F6
:10A8340000B585B00190019B002B01D10E234CE0A3
:10A84400019B1B68002B03D12649FF2013F048FC11
:10A85400019B5B68002B04D122494FF4807013F0F4
:10A864003FFC019B9B68002B04D11E4940F2011060
:10A8740013F036FC019BDB68002B04D119494FF41B
:10A88400817013F02DFC019B1B8A002B04D1154908
:10A8940040F2031013F024FC019B9A68019B5B684F
:10A8A400D31A8DF80F30019B1B68019A52681A6005
:10A8B40007E0019B1A681368591C11609DF80F206A
:10A8C4001A709DF80F305A1E8DF80F20002BF0D10E
:10A8D400019B1B6800221A710023184605B05DF81D
:10A8E40004FB00BF2828070000B585B00190019B38
:10A8F400002B04D11F494FF4927013F0F1FB002395
:10A90400039300238DF80A300DF10A031846FEF76D
:10A9140033FE019B1B681A68019B5B689A421FD92E
:10A92400019B1B681A68013A1A601B681B78194658
:10A934000198FFF747FF0390019B9A68019B1B68EE
:10A944001B68D31A8DF80B30019B1B681B799DF88B
:10A954000B209A4204D9019B1B689DF80B201A71A5
:10A964009DF80A301846FEF71DFE039B184605B0F5
:10A974005DF804FB2828070010B584B0019000910D
:10A98400019B002B04D1154940F2471013F0A8FB9A
:10A99400009B002B04D111494FF4A47013F0A0FBC9
:10A9A400009B039300238DF80B300DF10B03184625
:10A9B400FEF7E2FD019B1B681C68621C1A60039988
:10A9C4000198FFF71BFF034623709DF80B301846D0
:10A9D400FEF7E8FD00BF04B010BD00BF2828070043
:10A9E40000B583B00190019B002B03D10C493120A9
:10A9F40013F076FB019B9B68002B0CD0019B5B69D9
:10AA0400019A1069019A1168019A92689847019B0A
:10AA140000229A6000E000BF03B05DF804FB00BFB1
:10AA2400602807000EB400B584B00190019B002B90
:10AA340003D11849422013F053FB019B5B69002B9F
:10AA440003D11449432013F04BFB019B1B68002BDB
:10AA540003D11049442013F043FB019B5B68002B96
:10AA640003D10C49452013F03BFB059B002B0AD076
:10AA74000023039306AB039303AB1A46059901988D
:10AA840000F0B0F900E000BF04B05DF804EB03B0DF
:10AA9400704700BF6028070000B583B001900B46E3
:10AAA4008DF80330019B1A68019B9B68581C01991F
:10AAB400886013449DF803201A70019B9A68019BD7
:10AAC4005B689A4202D30198FFF78AFF00BF03B084
:10AAD4005DF804FB00B587B00390029101920093E6
:10AAE40000230593009B03F00103002B24D00BE00B
:10AAF400029B01330293059B013305939DF81330A8
:10AB040019460398FFF7C8FF029B1B788DF8133092
:10AB14009DF81330002BEBD106E0019B013B019320
:10AB240020210398FFF7B8FF019A059B9A422ED97A
:10AB3400019B002BF1D12AE0029B002B0BD0029841
:10AB44003FF04AF8059006E0019B013B0193202168
:10AB54000398FFF7A1FF019A059B9A420FD9019B25
:10AB6400002BF1D10BE0029B01330293059B0133CF
:10AB740005939DF8133019460398FFF78DFF029B48
:10AB84001B788DF813309DF81330002BEBD100BFE8
:10AB940007B05DF804FB000000B589B00390029192
:10ABA40001920093029B07930123069307E0079AFF
:10ABB400019BB2FBF3F30793069B01330693079AB9
:10ABC400019B9A42F3D2009A069B9A4201D9009BB8
:10ABD40006930B9B03F00103002B22D10A9B002B4D
:10ABE4001FD00B9B03F00203002B06D0009B002B0D
:10ABF40003D130238DF8173002E020238DF817306D
:10AC040008E00A9B013B0A939DF817301946039804
:10AC1400FFF742FF0A9B002B03D0069A0A9B9A4235
:10AC2400EFD301230793009B012B03D9009B013B26
:10AC3400009309E0029A079BB2FBF3F30493049A8E
:10AC4400019B9A4200D205E0079B019A02FB03F3A1
:10AC54000793E8E7029A079BB2FBF3F30493049B80
:10AC6400079A02FB03F3029AD31A0293154A049B30
:10AC740013441B7819460398FFF70EFF079A019BAC
:10AC8400B2FBF3F30793079B002BE3D10B9B03F079
:10AC94000103002B11D00A9B002B0ED006E00A9B67
:10ACA400013B0A9320210398FFF7F6FE0A9B002B31
:10ACB40003D0069A0A9B9A42F1D300BF09B05DF80B
:10ACC40004FB00BFDC28070000B589B0059004919F
:10ACD40003920293049B002BB8BF5B4206930123AB
:10ACE400079307E0039B069A92FBF3F30693079BF3
:10ACF40001330793039B069A9A42F3DA029A079B5D
:10AD04009A4201D9029B07930A9B002B0AD0049B09
:10AD1400002B04DB0B9B03F00403002B02D00A9BE3
:10AD2400013B0A930B9B03F00203002B02D0029B0E
:10AD3400002B16D00B9B03F00103002B11D10A9BAF
:10AD4400002B0ED006E00A9B013B0A9320210598B4
:10AD5400FFF7A2FE0A9B002B03D0079A0A9B9A4294
:10AD6400F1D3049B002B07DA049B5B4204932D214F
:10AD74000598FFF791FE08E00B9B03F00403002BFA
:10AD840003D02B210598FFF787FE0B9B03F00203EA
:10AD9400002B19D00B9B03F00103002B14D1029B51
:10ADA400002B11D10A9B002B0ED006E00A9B013B1D
:10ADB4000A9330210598FFF76FFE0A9B002B03D0FE
:10ADC400079A0A9B9A42F1D304990B9B01930A9B1D
:10ADD4000093029B039A0598FFF7DEFE00BF09B0BB
:10ADE4005DF804FB00B58FB0059004910392059BB8
:10ADF400002B04D1AD494FF4A27013F071F9059BF7
:10AE04005B69002B04D1A9494FF4A37013F068F9CE
:10AE1400059B1B68002B04D1A44940F2471013F092
:10AE24005FF9059B5B68002B04D1A0494FF4A47023
:10AE340013F056F9049B002B00F09381049B1B78BC
:10AE44008DF83730049B013304939DF83730002B81
:10AE540000F07E819DF83730252B40F06D81002372
:10AE64000A9301230C93049B1B788DF837309DF8CB
:10AE74003730302B0DD0302B1BDC2B2B11D02D2B4E
:10AE840017D10A9B43F001030A93049B01330493F3
:10AE940012E00A9B43F002030A93049B01330493D8
:10AEA4000AE00A9B43F004030A93049B01330493CE
:10AEB40002E000230C9300BF0C9B002BD3D1002392
:10AEC40009939DF837302A2B0CD1039B1B68191D5D
:10AED400039A11601B68099A13440993049B013374
:10AEE40004931AE0049B1B788DF837309DF83730B3
:10AEF4002F2B12D99DF83730392B0ED8049B0133F0
:10AF04000493099A13469B0013445B001A469DF868
:10AF140037301344303B0993D3E700230B93049B4E
:10AF24001B788DF837309DF837302E2B1DD1049BBC
:10AF340001330493049B1B788DF837309DF8373028
:10AF44002F2B12D99DF83730392B0ED8049B01339F
:10AF540004930B9A13469B0013445B001A469DF816
:10AF640037301344303B0B93E4E7049B1B788DF894
:10AF740037309DF837306C2B03D09DF83730682B71
:10AF840007D1049B01330493049B1B788DF837305D
:10AF9400EFE79DF83730252B00F0C480252BC0F255
:10AFA400C680782B00F3C380582BC0F2C080583B76
:10AFB400202B00F2BC8001A252F823F0B5B00200AD
:10AFC40033B1020033B1020033B1020033B10200E5
:10AFD40033B1020033B1020033B1020033B10200D5
:10AFE40033B1020033B1020045B0020067B0020081
:10AFF40033B1020033B1020033B1020033B10200B5
:10B0040067B0020033B1020033B1020033B1020071
:10B0140033B1020033B1020033B10200F5B00200D3
:10B0240033B1020033B10200D9B0020033B10200DF
:10B034008BB0020033B1020033B10200B5B002009C
:10B04400039B1B68191D039A11601B680C930C9BCE
:10B054008DF81F309DF81F3019460598FFF71CFD29
:10B0640066E0039B1B68191D039A11601B680C930F
:10B074000A9B0193099B00930B9B0A220C99059848
:10B08400FFF722FE54E0039B1B68191D039A11600D
:10B094001B680C930C990A9B0193099B00930B9BCF
:10B0A4000A220598FFF778FD42E000BF9C280700BC
:10B0B400039B1B68191D039A11601B680C930C9960
:10B0C4000A9B0193099B00930B9B10220598FFF7A1
:10B0D40063FD2DE0039B1B68191D039A11601B6817
:10B0E40008930A9B099A08990598FFF7F3FC1FE057
:10B0F400039B1B68191D039A11601B680C93302174
:10B104000598FFF7C9FC78210598FFF7C5FC0C9951
:10B114000023019308230093082310220598FFF7C6
:10B124003BFD05E025210598FFF7B6FC00E000BFD4
:10B13400049B0133049305E09DF8373019460598C4
:10B14400FFF7AAFC049B1B78002B7FF477AE00E08A
:10B1540000BF059B1B7B002B04D00598FFF740FC28
:10B1640000E000BF0FB05DF804FB00BF00B583B082
:10B1740001900198FFF75CFB0346184603B05DF8A5
:10B1840004FB00B58BB001900091019B1B8A043B2A
:10B194000793009A079B1344DA1C079BB2FBF3F353
:10B1A4008DF81B300198FFF79FFB0590059B002B42
:10B1B40001D1002338E0059B00221A71059B01226E
:10B1C4005A71079B9AB2059BDA80059B09939DF8F7
:10B1D4001B30013B0493099B019A1A6000230893D6
:10B1E4001DE00198FFF780FB0390039B002B0ED01A
:10B1F400059B5B790133DAB2059B5A71099B039A6B
:10B204001A60039B019A1A60039B099304E0059852
:10B2140000F00EF8002307E0089B01330893089A16
:10B22400049B9A42DDD3059B18460BB05DF804FBE2
:10B2340000B58BB00190019B0793079B5B798DF858
:10B244001B30019B08939DF81B30013B05930023A1
:10B25400099305E0089B1B680893099B0133099334
:10B26400099A059B9A42F5D3089B1B680493019B9A
:10B274000893002309930BE0089B1B680393089928
:10B284000498FFF779FB039B0893099B0133099307
:10B294009DF81B30099A9A42EED300BF00BF0BB051
:10B2A4005DF804FB00B585B00190019B0393039BFB
:10B2B400043301211846FFF724FA00BF05B05DF8F6
:10B2C40004FB00B587B00190019B0593059B0433F3
:10B2D40001211846FFF72DFA0346039303AB0493A9
:10B2E400049B1B78002B02D10198FFF7A1FF00BF3C
:10B2F40007B05DF804FB000000B591B00390029123
:10B3040001920093039B002B03D14349B62012F012
:10B31400E7FE039B0993039B0F93099BDB881A4663
:10B32400099B5B7902FB03F3043B0893009A089B97
:10B334009A4203D33849C42012F0D2FE099BDB8819
:10B344000793009B1A1D079BB2FBF3F30E93009B1C
:10B354000433079AB3FBF2F2079901FB02F29B1A3A
:10B364000D93019B1A68009B1344089A9A4203D2D6
:10B37400089A009BD31A01E0019B1B680C93019B64
:10B384000C9A1A6005E00F9B1B680F930E9B013B00
:10B394000E930E9B002BF6D100230B93079A0D9B63
:10B3A400D31A0A930A9A0C9B934228BF13460A9312
:10B3B4002AE0029A0B9B134406930F9A0D9B1344A5
:10B3C400043305939DF84830002B05D00A9A05995B
:10B3D40006983EF0A5FB04E00A9A069905983EF00B
:10B3E4009FFB00230D930F9B1B680F930C9A0A9BE2
:10B3F400D31A0C930B9A0A9B13440B93079A0C9B36
:10B40400934228BF13460A930C9B002BD1D100BF53
:10B4140000BF11B05DF804FBEC28070000B589B04B
:10B424000590049103920293039B079307AA0023B8
:10B434000093029B04990598FFF75EFF079B039A0C
:10B444009A4203D00349F62012F04AFE00BF09B025
:10B454005DF804FBEC28070000B589B00590049161
:10B4640003920293039B079307AA01230093029B71
:10B4740004990598FFF740FF079B039A9A4204D06A
:10B4840004494FF4807012F02BFE00BF09B05DF840
:10B4940004FB00BFEC28070082B00190019B9B686D
:10B4A40000229A60019B9B6800221A61019B9B68A1
:10B4B40000225A61019B9B680022DA60019B9B6811
:10B4C40000225A60019B9B6800221A6000BF02B0F0
:10B4D4007047000000B589B00390029101928DF885
:10B4E4000330029B002B03D139493B2012F0F8FDB5
:10B4F400019B002B03D136493C2012F0F1FD9DF84D
:10B504000330002B09D0039B9B681846FFF729F9E9
:10B514000346002B01D0112355E0039B9B68DA6896
:10B52400039B9B681B69D21A039B5B6801339A4295
:10B534000DD1019B00221A609DF80330002B04D02A
:10B54400039B9B681846FFF730F900233BE0039BFD
:10B554009B68DA68039B5B6813400793039B9B68B3
:10B564001A69039B5B6813400693079A069B9A42E9
:10B5740005D3039B5A68079BD31A01330AE0039B44
:10B584009B681A69039B5968039B9B68DB68CB1A09
:10B59400134401330593019B1A68059B9A4228BF03
:10B5A4001A46019B1A60039B1A68079B1A44029B64
:10B5B4001A60039B9B68D968019B1A68039B9B686C
:10B5C4000A44DA600023184609B05DF804FB00BFA2
:10B5D4002429070000B585B001900091019B5A68A9
:10B5E400019B9B681969019B9B689B68CB1A134458
:10B5F40001330393009A039B9A4201D9042318E070
:10B60400019B9B689968019B9B68009A0A449A6015
:10B61400019B9A68019B9B689268DA60019B9B6816
:10B624001846FFF7B6F80346002B01D1082300E0C3
:10B634000023184605B05DF804FB00B585B0019001
:10B644000091019B9B689A68019B9B681B69D31AB4
:10B654000393009A039B9A4201D9042314E0019BAB
:10B664009B681969019B9B68009A0A441A61019BB3
:10B674009A68019B9B6812695A61019B9B68043319
:10B684001846FFF792F80023184605B05DF804FB4E
:10B6940000B583B001900091019B002B03D11049A8
:10B6A400502012F01DFD009B002B03D10C495120AA
:10B6B40012F016FD019B009A1A60019B1B681A6820
:10B6C400019B5A60019B5A68019B1B685B689A4204
:10B6D40002D1019B00225A6000BF03B05DF804FB55
:10B6E4006029070000B583B00190019B002B03D1B2
:10B6F4001449632012F0F4FC019B1B68002B03D156
:10B704001049642012F0ECFC019B5B68002B14D000
:10B71400019B5B681A46019B1B689B6813441A468D
:10B72400019B5A60019B5A68019B1B685B689A42A3
:10B7340004D1019B00225A6000E000BF03B05DF811
:10B7440004FB00BF6029070000B585B00190019893
:10B7540000F00EF80390039B002B01D0039B00E044
:10B76400024B184605B05DF804FB00BFA029070092
:10B7740086B00190164B0593164B04931FE0049A70
:10B78400059BD31ADB10DA0F13445B10DB00059A18
:10B7940013440393039B1B680293029A019B9A42EE
:10B7A40002D9039B04930AE0029A019B9A4203D2B2
:10B7B400039B0833059302E0039B5B6804E0059A4E
:10B7C400049B9A42DBD30023184606B0704700BF9F
:10B7D400A02D0700C82E070082B003468DF807305D
:10B7E4009DF8073003F01F0205499DF907305B09F6
:10B7F400012000FA02F241F8232000BF02B0704792
:10B8040000E100E082B003468DF807309DF8073070
:10B8140003F01F0206499DF907305B09012000FA75
:10B8240002F2203341F8232000BF02B0704700BF6A
:10B8340000E100E082B003468DF807309DF8073040
:10B8440003F01F0206499DF907305B09012000FA45
:10B8540002F2403341F8232000BF02B0704700BF1A
:10B8640000E100E082B003468DF807309DF8073010
:10B8740003F01F0206499DF907305B09012000FA15
:10B8840002F2603341F8232000BF02B0704700BFCA
:10B8940000E100E082B0034600918DF807309DF985
:10B8A4000730002B0CDA009BDAB20C499DF8073004
:10B8B40003F00F03043B5201D2B20B441A7609E0A1
:10B8C400009BDAB206499DF907305201D2B20B440B
:10B8D40083F8002300BF02B0704700BF00ED00E012
:10B8E40000E100E000B585B00190019B002B0AD077
:10B8F400074B43F001030393019B9B010293039BBA
:10B904000298984700E000BF05B05DF804FB00BF53
:10B91400D02E070000B583B00190064A019BC2F8FF
:10B92400083506211120FFF7B5FF00BF03B05DF80D
:10B9340004FB00BF0010014008B50D4B4FF48032EA
:10B94400C3F844230A4B4FF48032C3F80423112074
:10B95400FFF788FF1120FFF73FFF054B01221A6014
:10B964002F20FFF7BFFF034B01221A7000BF08BD51
:10B9740000100140EEB5002008B51120FFF742FF8A
:10B984000E4B4FF48032C3F848230C4B4FF48032F3
:10B99400C3F80823094B01225A602F20FFF7A2FFA6
:10B9A400064B01229A60064B00221A602F20FFF7F3
:10B9B40099FF044B00221A7000BF08BD001001401B
:10B9C400E0B50020EEB50020024BD3F8043518464C
:10B9D400704700BF0010014082B001900091019AAD
:10B9E400009BD31A23F07F43184602B0704700002F
:10B9F40082B00190034A019BC2F8403500BF02B0F7
:10BA0400704700BF0010014086B00190284B1B68AE
:10BA1400002B03D1264A019B136045E0019B1A6861
:10BA2400234B1B681B689A4210D8214B1B6819686A
:10BA3400019B1A681E4B1B688A1A1A601C4B1A68F1
:10BA4400019BDA611A4A019B13602DE0019B1B687C
:10BA54000393174B1B680593154B1B68049309E06C
:10BA6400049B1B68039AD31A0393049B0593049BBA
:10BA7400DB690493049B002B04D0049B1B68039A8A
:10BA84009A42EDD8049B002B05D0049B1A68039BB3
:10BA9400D21A049B1A60019B039A1A60019B049AB0
:10BAA400DA61059B019ADA6100BF06B0704700BFF6
:10BAB400DCB5002000B587B001902A4B1B680393C6
:10BAC400284B1B680593059B049308E0049A019B8B
