:020000022000DC
:106000000000042019620200016202000362020023
:10601000056202000762020009620200000000003F
:106020000000000000000000000000000B62020001
:106030000D620200000000000F6202001162020007
:106040009DD1050013620200ADD10500791906004B
:10605000911906001362020061BF0500E1EF05001F
:1060600013620200190B06001362020013620200A1
:1060700013620200C1EB050013620200136202000A
:1060800013620200E129060013620200136202009B
:10609000212A060013620200852305001362020014
:1060A0001362020013620200136202001362020014
:1060B000E5DD0500136202000000000000000000A2
:1060C00013620200136202001362020095030600CD
:1060D00013620200ADCD0500EDAD060013620200B3
:1060E000136202006DE80500E5670500000000008E
:1060F000000000001362020000000000AD03060073
:10610000000000000000000000000000000000008F
:10611000000000000000000000000000000000007F
:10612000000000000000000000000000000000006F
:10613000000000000000000000000000000000005F
:10614000000000000000000000000000000000004F
:10615000000000000000000000000000000000003F
:10616000000000000000000000000000000000002F
:10617000000000000000000000000000000000001F
:10618000000000000000000000000000000000000F
:1061900000000000000000000000000000000000FF
:1061A00000000000000000000000000000000000EF
:1061B00000000000000000000000000000000000DF
:1061C00000000000000000000000000000000000CF
:1061D00000000000000000000000000000000000BF
:1061E00000000000000000000000000000000000AF
:1061F000000000000000000000000000000000009F
:10620000FEE7FEE7FEE7FEE7FEE7FEE7FEE7FEE766
:10621000FEE7FEE7704700BF1048804710484FF088
:106220000701884385460F4880470F48016841F4BD
:1062300070010160BFF34F8FBFF36F8F00F01CB888
:106240000A480B490B4A884207D0521A05D00378F6
:1062500001300B700131013AF9D17047156202002B
:10626000000004208128050088ED00E0D8360700F2
:10627000B82B0020CC2B0020354936480A1A02D012
:10628000072291438D46344934480A1A06D0072222
:10629000914381F30988022282F3148830483149FE
:1062A000314A00F044F831483149324A00F03FF8B1
:1062B00031483249324A00F03AF832483249334ADA
:1062C00000F035F832483349334A00F030F83348AB
:1062D0003349344A00F02BF833483449344A00F04B
:1062E00026F834483449002200F02CF83348344969
:1062F000002200F027F833483349091A082902DB45
:10630000002202604160314A90471F481F4988427D
:1063100005D00268043003B4904703BCF7E70020BF
:106320008646EC4600200021294A9047FEE7884235
:1063300007D0521A05D0037801300B700131013AB1
:10634000F9D17047884202D002700130FAE77047F5
:106350000000042000E003200000042000000420CE
:1063600078270800CC2B0020C4350020D46302001D
:10637000D4630200E033070078270800CC2B00200C
:10638000CC2B0020EC360700EC360700EC3607007B
:10639000EC360700EC360700EC360700EC36070059
:1063A000EC3607007827080070310800C43500205B
:1063B000C4350020C4350020FC330120FC3301200B
:1063C00008340120083401200854012041620200F1
:0463D000FDD10200F9
:1063D40084B003468DF80730084BB3F85630ADF857
:1063E4000E309DF80730002B03D0044B0022A3F895
:1063F4005620BDF80E30184604B07047C43500204E
:1064040082B00190019B002B06D0054BB3F85430A9
:10641400DAB2019B1A7100E000BF02B0704700BFFE
:10642400C435002030B587B003460A468DF80F30D6
:1064340013468DF80E30314BB3F85430ADF81630A6
:106444009DF80F30002B10D02C4BB3F854301AB2F7
:106454009DF80E30012101FA03F31BB213431BB262
:106464009AB2264BA3F8542011E0244BB3F85430CD
:106474001AB29DF80E30012101FA03F31BB2DB437B
:106484001BB213401BB29AB21C4BA3F854201B4BF3
:10649400B3F85620194BB3F8543013439AB2174B40
:1064A400A3F85620154BB3F85430BDF816209A4281
:1064B40021D0134A134BD31ADB081B0443F0030403
:1064C4009DF80E509DF80E30184600F085FE0346E8
:1064D40019469DF80F30002B01D00B4B00E00B4BFD
:1064E400064AB2F85420019200930B462A46084902
:1064F400204642F04AFC00BF07B030BDC43500203E
:1065040040350700D0340700F4360700F83607009A
:106514000037070000B5A3B0019002AB242200218C
:1065240018464CF00EF8019B1B78042B00F2E18214
:1065340001A252F823F000BF51650200E168020095
:106544006D660200F76A02007567020000238DF889
:106554008730019B04330D9302AB08330C93232340
:106564008DF8083000238DF80C3002AB184619F072
:10657400E7FC00238DF8863064E00023ADF8843016
:106584009DF886300D9A5B0013445B88ADF82E307D
:106594009DF88630924A5B0013445B88ADF82C303A
:1065A4008F4B1B789DF886209A421CD2BDF92E2071
:1065B400BDF92C309A4207DDBDF82E20BDF82C30F1
:1065C400D31A9BB21BB20CE0BDF82C209DF8863088
:1065D4000D995B000B44B3F902309BB2D31A9BB202
:1065E4001BB2ADF884300C9BB3F90030BDF92E20FA
:1065F4009A4206DB0C9BB3F9003047F6FF729342D4
:1066040018D10C9BB3F90230BDF92E209A4205DC57
:106614000C9BB3F9023013F5004F0BD1BDF9843054
:106624000C9A9288934208DD0C9B9B884FF6FF726C
:10663400934202D001238DF887309DF886300133D0
:106644008DF886300D9B1B789DF886209A4294D352
:106654009DF8873000211846FFF7E4FE16220D99B5
:106664005F484BF045FF45E200238DF88330019BE2
:106674000433169302AB0833159323238DF80830A3
:1066840002238DF80C3002AB184619F059FC002394
:106694008DF882305CE000231F939DF88230169AB7
:1066A4009B0013445B6814939DF882304C4A0A3370
:1066B4009B0013445B681393169B1B781A469DF842
:1066C400823042FA03F303F00103002B3AD0444B27
:1066D40093F828301A469DF8823042FA03F303F007
:1066E4000103002B0BD0149A139B9A4203DD149AD6
:1066F400139BD31A02E0139A149BD31A1F93159B6E
:106704001B68149A9A4205DB159B1B686FF00042C4
:10671400934213D1159B5B68149A9A4204DC159B2F
:106724005B68B3F1004F09D1159B9B681F9A9A428D
:1067340009D9159B9B68B3F1FF3F04D001238DF861
:10674400833000E000BF9DF8823001338DF8823041
:106754009DF88230022B9ED99DF883300221184681
:10676400FFF760FE102216991E484BF0C1FEC1E1EE
:1067740000238DF87B30019B04331A9302AB08335A
:106784001993174BDB8BADF862301A9B5B88ADF81D
:106794006030134B5B8CADF85E301A9BDB88ADF830
:1067A4005C3023238DF8083004238DF80C3002ABC1
:1067B400184619F0C5FB0023ADF87830BDF86230F7
:1067C400002B19D0BDF86220BDF860309A420BD975
:1067D400BDF86220BDF86030D31A9BB20AE000BF56
:1067E400C4350020EC350020BDF86020BDF86230CF
:1067F400D31A9BB2ADF87830199B1B88BDF8602082
:106804009A4203D2199B1B88002B17D1199B5B88D2
:10681400BDF860209A4205D9199B5B884FF6FF7238
:1068240093420BD1199B9B88BDF878209A4208D9D2
:10683400199B9B884FF6FF72934202D001238DF877
:106844007B300023ADF87630BDF85E30002B14D0D9
:10685400BDF85E20BDF85C309A4206D9BDF85E20D2
:10686400BDF85C30D31A9BB205E0BDF85C20BDF8DE
:106874005E30D31A9BB2ADF87630199B1B88BDF8F5
:106884005C209A4203D2199B1B88002B17D1199BB9
:106894005B88BDF85C209A4205D9199B5B884FF64A
:1068A400FF7293420BD1199B9B88BDF876209A42C4
:1068B40008D9199B9B884FF6FF72934202D001239B
:1068C4008DF87B309DF87B3004211846FFF7AAFD34
:1068D4000A221A9989484BF00BFE0BE100238DF82C
:1068E4007530019B0433129302AB083311932323B5
:1068F4008DF8083001238DF80C3002AB184619F0DE
:106904001FFB0023ADF87230129B5B88ADF8423058
:106914007B4B1B8BADF84030BDF94030002B14D0BD
:10692400BDF94020BDF942309A4206DDBDF8402051
:10693400BDF84230D31A9BB205E0BDF84220BDF841
:106944004030D31A9BB2ADF87230119BB3F90230C8
:10695400BDF942209A4205DA119BB3F9023013F5CE
:10696400004F1DD1119BB3F90030BDF942209A426A
:1069740006DD119BB3F9003047F6FF7293420FD145
:10698400119B9B88BDF872209A420CD9119B9B885D
:106994004FF6FF72934206D0119B9B88002B02D0C6
:1069A40001238DF875300023ADF87030129B1B88DD
:1069B400ADF83E30524BDB8AADF83C30BDF83C308C
:1069C400002B14D0BDF83C20BDF83E309A4206D9C5
:1069D400BDF83C20BDF83E30D31A9BB205E0BDF8AB
:1069E4003E20BDF83C30D31A9BB2ADF87030119BF9
:1069F4001B89BDF83E209A4203D2119B1B89002BB0
:106A04001BD1119BDB88BDF83E209A4205D9119B0E
:106A1400DB884FF6FF7293420FD1119B5B89BDF85F
:106A240070209A420CD9119B5B894FF6FF729342F6
:106A340006D0119B5B89002B02D001238DF87530A1
:106A44000023ADF86E30129B9B88ADF83A302C4B86
:106A54005B8BADF83830BDF83830002B14D0BDF85E
:106A64003820BDF83A309A4206D9BDF83820BDF82E
:106A74003A30D31A9BB205E0BDF83A20BDF838305D
:106A8400D31A9BB2ADF86E30119BDB89BDF83A2066
:106A94009A4203D2119BDB89002B1BD1119B9B894A
:106AA400BDF83A209A4205D9119B9B894FF6FF7293
:106AB40093420FD1119B1B8ABDF86E209A420CD9C8
:106AC400119B1B8A4FF6FF72934206D0119B1B8ABF
:106AD400002B02D001238DF875309DF8753001210B
:106AE4001846FFF79FFC0622129906484BF000FD5A
:106AF40000E000BF23B05DF804FB00BFE0350020D8
:106B0400C4350020DA350020044B1B78002B14BF59
:106B140001230023DBB21846704700BF68960020AB
:106B24000A4B1B78002B04D1094B1B78DBB2002BDA
:106B340005D0064B1B78022B01D0012300E0002373
:106B440003F00103DBB21846704700BF68960020CB
:106B54001C56002000B583B003468DF80730064A62
:106B64009DF8073013703CF017F80346024A53604F
:106B740000BF03B05DF804FB6896002000B587B041
:106B840001900091019B002B03D12149742004F052
:106B940001FE009B03F00103002B35D0019B1B6811
:106BA400002B11D11B4B02930023039302AB184615
:106BB40035F0EEFF0490049B002B26D0144A892163
:106BC40004983BF04FF920E0134B1B78DBB283F0C1
:106BD4000103DBB2002B0AD0019B1B684FF48052E7
:106BE40019460E484BF084FC0B4B01221A70019895
:106BF40035F0CEFF0590059B002B06D0044A9B215F
:106C040005983BF02FF900E000BF07B05DF804FBE6
:106C1400783707001C4600201C56002020860020E0
:106C240000B58BB00390029111461A460B46ADF89D
:106C340006301346ADF804302422002103984BF0AB
:106C440080FC039B08330693069B00221A70BDF850
:106C540004305B089BB2DAB2069B5A70BDF8303040
:106C64005B089BB2DAB2069B9A70039B03221A71EB
:106C7400BDF83420BDF806309A42C0F09380BDF8C8
:106C84003430002B00F08E80BDF806300C2B00F25F
:106C94008980BDF80630002B00F08480BDF8042004
:106CA400BDF830309A427DD2BDF83020BDF80430B2
:106CB400D31AADF81630BDF81620BDF80630B2FB75
:106CC400F3F3ADF82030BDF80630BDF8202003FB07
:106CD40002F2BDF816309A4204DABDF820300133CE
:106CE400ADF82030BDF80430ADF826300023ADF8FF
:106CF400243050E04FF0000307930023ADF8223016
:106D04001CE0BDF82620BDF830309A421DD2BDF8F3
:106D140026309B00029A1344D3ED007A9DED077A46
:106D240077EE277ACDED077ABDF826300133ADF83A
:106D34002630BDF822300133ADF82230BDF82220D0
:106D4400BDF820309A42DCD300E000BFDDED077AC5
:106D54009FED167AF4EEC77AF1EE10FA02DD4FF6E3
:106D6400FF7106E0DDED077AFCEEE77A17EE903A64
:106D740099B2BDF82430069A5B0013440A469A80FF
:106D8400069B1B780133DAB2069B1A70BDF82430D7
:106D94000133ADF82430BDF82420BDF806309A4202
:106DA400A8D300E000BF0BB05DF804FB00FF7F47F1
:106DB40000B585B0774B1B78042B00F2E38001A269
:106DC40052F823F0896F0200DD6D02006B6E020041
:106DD400636F02006B6F02006F4B0393032007F095
:106DE40041FC034683F00103DBB2002B0CD00321EA
:106DF400012007F07BFC18F0FDFE684B0B221A7093
:106E0400664819F09DF8BFE042F030FE0346022BBD
:106E14000ED042F035FE039B1B786149184642F0C0
:106E2400ABFE4FF480615F4842F07AFE0290ABE023
:106E3400039B1878039B93F90210039B5A78039BD6
:106E44009B7943F035FA0346002B00F09D8043F014
:106E5400DFFF0220FFF77EFE4E4B00221A81524BC9
:106E640000221A7090E0504B1B78DBB2002B5CD0F0
:106E7400484B1B899BB201339AB2464B1A81454B4E
:106E84001B899AB2434B5B899A420ED2414B5B8970
:106E9400002B0AD03F4B1B7B83F00103DBB2002B9A
:106EA40003D0414B00221A7071E04FF480623F49D5
:106EB4003F4843F0F7FD012300223D493D4849F096
:106EC40047F84FF480623C49394849F0BBF84FF425
:106ED4008061394843F040FF374B4FF000021A609D
:106EE4002E4BDB799AB22D4B1B7A9BB25B0099B285
:106EF4002A4B5B7A9BB25B009BB24FF4007001900B
:106F040000930B462C492D48FFF78AFE214B1B6941
:106F1400002B07D01F4B1A7D284B5A711D4B1B6940
:106F240027489847204B00221A701A4B1B899AB2A3
:106F3400184B5B899A4229D3164B1B7B83F00103C0
:106F4400DBB2002B22D042F00FFE42F0C9FD43F029
:106F54006CFF18F04FFE0320FFF7FCFD16E0042041
:106F6400FFF7F8FD13E0032007F07CFB0346002B3A
:106F740004D00321002007F0B9FB08E00020FFF74C
:106F8400E9FD04E000BF02E000BF00E000BF05B07F
:106F94005DF804FB68960020489600204496002083
:106FA400816B02001C3600201C5600202086002025
:106FB4002066002094F5070020560020209600202B
:106FC4002496002000B583B00190019B002B01D1D1
:106FD40007230DE02022002101984BF0B2FA202271
:106FE400054901984BF084FA044B03221A710023DB
:106FF400184603B05DF804FB249600202096002078
:1070040000B583B003460A468DF8073013468DF861
:1070140006309DF80730002B0ED00E4B1B78002B4A
:1070240008D10C4A9DF8063013750120FFF792FD34
:1070340000230BE0082309E0064B1B78002B04D047
:107044000420FFF787FD002300E00823184603B05F
:107054005DF804FB6896002000B583B00190002021
:10706400FFF778FD064B00221A73054A019B136152
:10707400034B02225A8100BF03B05DF804FB00BF3A
:107084006896002082B00190019B1B781B021AB203
:10709400019B01331B781BB213431BB29BB21846EE
:1070A40002B0704782B00190019B1B781A06019BC5
:1070B40001331B781B041A43019B02331B781B0208
:1070C4001343019A033212781343184602B07047EF
:1070D40082B003460091ADF80630BDF806301B0AB5
:1070E4009BB2DAB2009B1A70009B0133BDF80620F4
:1070F400D2B21A700223184602B0704782B0034617
:1071040000918DF80730009B9DF807201A70012329
:10711400184602B0704784B001900091019B03931C
:10712400039B1ABA009B1A600423184604B07047E4
:1071340082B001900091019B1B0CDAB2009B1A7083
:10714400019B1A0A009B0133D2B21A70009B0233CE
:10715400019AD2B21A700323184602B07047000095
:1071640084B003468DF80730074A02AB92E8030067
:1071740083E803009DF80730002B01D0029B00E058
:10718400039B184604B07047D83A070000B5A9B06D
:1071940003468DF807309DF8073003F07F038DF820
:1071A4009F300C4A03AB1146902218464BF0A0F9CD
:1071B4009DF89F302C2B01D9309B06E09DF89F3021
:1071C4009B0028AA134453F8943C184629B05DF850
:1071D40004FB00BFF03A070030B490B003468DF8CA
:1071E40007300E4B03AC1D460FCD0FC40FCD0FC49B
:1071F4000FCD0FC42B6823609DF807300A2B01D9EB
:107204000F9B06E09DF807309B0010AA134453F827
:10721400343C184610B030BC704700BF803B0700B8
:1072240086B00292019303468DF80F300B468DF819
:107234000E30092305939DF80F30A82B00F28982A4
:1072440001A252F823F000BFF17402003376020069
:107254003376020033760200337602005D77020053
:107264005777020033760200577702003376020024
:10727400337602003376020033760200337602005E
:10728400337602005D7702005D77020057770200D3
:107294005777020033760200337602003376020019
:1072A4003376020033760200577702005D770200DE
:1072B4005D770200337602005D77020033760200C8
:1072C40033760200337602004F76020081750200A5
:1072D40033760200817502003376020033760200B1
:1072E40033760200337602003376020033760200EE
:1072F4003376020033760200577702005777020094
:10730400337602005777020057770200577702005E
:107314005777020057770200577702005777020029
:107324005777020057770200577702005777020019
:107334005777020057770200577702005777020009
:1073440057770200577702005777020057770200F9
:1073540057770200577702005777020057770200E9
:1073640057770200577702005777020057770200D9
:1073740057770200577702005777020057770200C9
:1073840057770200577702005777020057770200B9
:1073940057770200577702005777020057770200A9
:1073A4005777020057770200577702005777020099
:1073B4005777020057770200577702005777020089
:1073C4005777020057770200577702005777020079
:1073D4005777020057770200577702005777020069
:1073E4005777020057770200577702005777020059
:1073F4005777020057770200577702005777020049
:107404005777020057770200577702005777020038
:107414005777020057770200577702005777020028
:107424005777020057770200577702005777020018
:107434005777020057770200577702005777020008
:1074440057770200577702005777020057770200F8
:107454005777020011750200817502005777020008
:107464005777020033760200577702002D75020029
:107474002D750200657502005777020057770200E8
:107484005777020057770200577702008175020090
:10749400A176020081750200817502006B760200FC
:1074A4006B760200877602009D7502005777020012
:1074B4005777020033760200577702002D750200D9
:1074C400E9750200577702005777020057770200E8
:1074D40057770200BB760200577702004975020015
:1074E40081750200817502004F7602009DF80E300E
:1074F400052B08D9019B1B780633DAB2019B1A705D
:107504000023059341E1092305933EE19DF80E30E4
:10751400012B40F22381019B1B780233DAB2019BD9
:107524001A700023059319E19DF80E30022B40F2E6
:107534001781019B1B780333DAB2019B1A70002375
:1075440005930DE19DF80E30042B40F20B81019B55
:107554001B780533DAB2019B1A700023059301E10D
:107564009DF80E30052B40F2FF80019B1B780633FB
:10757400DAB2019B1A7000230593F5E09DF80E30F2
:10758400012B40F2F380019B1B780233DAB2019B9A
:107594001A7000230593E9E000238DF811309DF85B
:1075A4000E30012B40F2E480019B1B780233DAB2E7
:1075B400019B1A70029B5B788DF811309DF8113095
:1075C4005A1C9DF80E309A4201DB0923DEE0019B30
:1075D4001A789DF811301344DAB2019B1A70002313
:1075E4000593C5E000238DF812309DF80E30012B71
:1075F40040F2C080029B5B788DF812309DF80E201B
:107604009DF812309A4203D39DF81230062B01D014
:107614000923BBE0019B1A789DF812301344DBB2B6
:107624000233DAB2019B1A7000230593A2E09DF89D
:107634000E30002B00F0A080019B1B780133DAB2DE
:10764400019B1A700023059396E09DF80E30042BDD
:1076540040F29480019B1B780533DAB2019B1A70C7
:10766400002305938AE09DF80E30082B40F28880B1
:10767400019B1B780933DAB2019B1A70002305932E
:107684007EE09DF80E30102B7CD9019B1B781133C2
:10769400DAB2019B1A700023059373E09DF80E3053
:1076A400072B71D9019B1B780833DAB2019B1A703E
:1076B4000023059368E0029B5B788DF813309DF8F6
:1076C4000E30012B05D9019B1B780233DAB2019BE2
:1076D4001A709DF81330042B33D801A252F823F00A
:1076E400F97602002D770200137702004777020033
:1076F400F97602009DF80E30072B24D9019B1B78E4
:107704000633DAB2019B1A70002305931BE09DF83F
:107714000E300D2B19D9019B1B780C33DAB2019B67
:107724001A700023059310E09DF80E30132B0ED928
:10773400019B1B781233DAB2019B1A700023059364
:1077440005E0072322E000BF1FE000BF1DE000BFEB
:107754001BE00523059318E000BF16E000BF14E00A
:1077640000BF12E000BF10E000BF0EE000BF0CE05D
:1077740000BF0AE000BF08E000BF06E000BF04E06D
:1077840000BF02E000BF00E000BF059B184606B042
:10779400704700BF2DE9F04395B00590059B002B81
:1077A40001D1072395E3059B1B78A52B00F28B835E
:1077B40001A252F823F000BF557A0200AD7A02000C
:1077C400F17A0200CF7E0200357B0200CF7E0200F8
:1077D400CB7E0200CB7E0200CB7E0200A37B0200A4
:1077E400ED7B0200CF7E0200CF7E0200A37C02006C
:1077F400CF7E0200CF7E0200CF7E0200CB7E02004D
:10780400CB7E0200CF7E0200C37D0200557D0200C4
:10781400557D0200557D0200CB7E0200CF7E020022
:10782400CF7E0200CF7E0200CF7E0200AB7E02003C
:10783400557D0200CB7E0200CB7E0200CB7E02008F
:10784400CB7E0200CF7E0200CB7E0200CF7E020000
:10785400CF7E0200CF7E0200CB7E0200CB7E0200F0
:10786400CB7E0200CB7E0200CB7E0200CB7E0200E8
:10787400CF7E0200CB7E0200CB7E0200CB7E0200D4
:10788400CB7E0200CB7E0200CB7E0200CB7E0200C8
:10789400CB7E0200CB7E0200CB7E0200CB7E0200B8
:1078A400CB7E0200CB7E0200CB7E0200CB7E0200A8
:1078B400CB7E0200CB7E0200CB7E0200CB7E020098
:1078C400CB7E0200CB7E0200CB7E0200CB7E020088
:1078D400CB7E0200CB7E0200CB7E0200CB7E020078
:1078E400CB7E0200CB7E0200CB7E0200CB7E020068
:1078F400CB7E0200CB7E0200CB7E0200CB7E020058
:10790400CB7E0200CB7E0200CB7E0200CB7E020047
:10791400CB7E0200CB7E0200CB7E0200CB7E020037
:10792400CB7E0200CB7E0200CB7E0200CB7E020027
:10793400CB7E0200CB7E0200CB7E0200CB7E020017
:10794400CB7E0200CB7E0200CB7E0200CB7E020007
:10795400CB7E0200CB7E0200CB7E0200CB7E0200F7
:10796400CB7E0200CB7E0200CB7E0200CB7E0200E7
:10797400CB7E0200CB7E0200CB7E0200CB7E0200D7
:10798400CB7E0200CB7E0200CB7E0200CB7E0200C7
:10799400CB7E0200CB7E0200CB7E0200CB7E0200B7
:1079A400CB7E0200CB7E0200CB7E0200CB7E0200A7
:1079B400CB7E0200CB7E0200CB7E0200CB7E020097
:1079C400CB7E0200837B0200CF7E0200CB7E0200CE
:1079D400CB7E0200CB7E0200CB7E0200C37B020082
:1079E400ED7B0200CB7E0200CB7E0200CB7E020048
:1079F400CB7E0200CB7E0200CB7E0200BB7C020069
:107A0400D77C0200CB7E0200C37D0200557D0200BC
:107A1400557D0200557D0200557D0200CB7E02009B
:107A2400CB7E0200CB7E0200CB7E0200AB7E020046
:107A3400557D0200CB7E0200CB7E0200CB7E02008D
:107A4400CB7E0200CF7E0200CB7E0200777E020056
:107A5400059B04330A93AF4AAF4BD31ADB081B04CC
:107A640043F003060A9B1B7898460A9B1B789946A9
:107A74000A9B1B781846FFF789FB03461F460A9B9F
:107A84005C680A9B5D680A9B5B68184640F09EFA36
:107A9400034603930295019400974B4642469F493F
:107AA400304641F0A4F913E2059B04330B93994A41
:107AB400994BD31ADB081B0443F00304059B1B7882
:107AC4001846FFF763FB034619460B9B1B881846B1
:107AD4000B9B5B881A460B9B9B8801930092034681
:107AE4000A468F49204641F050F9F1E1059B0433E1
:107AF4000C93884A884BD31ADB081B0443F0030415
:107B0400059B1B781846FFF741FB034619460C9B5F
:107B14001B8818460C9B5B881A460C9B9B68019338
:107B2400009203460A467F49204641F02EF9CFE1F0
:107B34004FF000030E93059B08330D9300238DF83B
:107B44004F3015E09DF84F300D9A5B001344B3F9A4
:107B5400023007EE903AB8EEE77ADFED736AC7EECB
:107B6400267ACDED0E7A9DF84F3001338DF84F30E3
:107B74000D9B1B789DF84F209A42E3D3A8E1654AF8
:107B8400654BD31ADB081B0443F00300059B1B79E8
:107B94001A46059B1B79654941F0CDF898E15D4A89
:107BA4005D4BD31ADB081B0443F00300059B1B79D0
:107BB4001A46059B1B795E4941F0BDF888E1554A98
:107BC400554BD31ADB081B0443F00300059B1B79B8
:107BD4001A46059B1B791946059BDB8800930B46C7
:107BE400544941F0BCF873E100238DF84D30524AFA
:107BF40007AB07CA83E80700059B08331093059B6E
:107C04001B788A2B10D1109B1B78002B0CD1414A76
:107C1400414BD31ADB081B0443F0030347491846BE
:107C240041F06AF800BF53E100238DF84E3031E093
:107C3400109B1B785AB29DF84E30012101FA03F3D0
:107C44005BB213405BB28DF83F309DF83F30002BA0
:107C54001BD0304A304BD31ADB081B0443F0030417
:107C64009DF83F30184601F071FC034619469DF813
:107C74004D305A1C8DF84D20109A9B0013445B68BC
:107C84000A462F49204641F056F89DF84E300133FC
:107C94008DF84E309DF84E30022BC9D918E11D4A9B
:107CA4001D4BD31ADB081B0443F003032549184674
:107CB40041F022F80CE1174A174BD31ADB081B04D6
:107CC40043F00300059B1B791A461F4941F022F833
:107CD400FEE0059B043312930E4A0F4BD31ADB08C4
:107CE4001B0443F00300129B1B781C46129B5B7819
:107CF4001D46129B9B881A46129B5B881946129B51
:107D0400DB880293019100922B4622460F4941F0F1
:107D140054F8DDE0F8340700D0340700B43B070022
:107D2400F83B0700083C07000000C842183C070065
:107D34002C3C0700483C0700083E07007C3C070039
:107D4400943C0700B43C0700D03C0700E83C070023
:107D5400059B04331193614A614BD31ADB081B045E
:107D640043F00304059B1B785BB2002B01DA5D4DE5
:107D740000E05D4D059B1B781846FFF707FA0346A4
:107D84001A46119B1B78009313462A4657492046EE
:107D940040F0E5FF119B1B78002B00F098804F4AC0
:107DA4004F4BD31ADB081B0443F00300119B591CEF
:107DB400119B1B789BB21A4641F036F887E0474A7C
:107DC400474BD31ADB081B0443F00304059B1B79C0
:107DD40003F01003002B14BF01230023DBB2184669
:107DE400FFF7BEF903461F46059B1B7903F0010309
:107DF400002B14BF01230023DBB21846FFF7B0F9B0
:107E040003469846059B1B7903F00203002B14BF1D
:107E140001230023DBB21846FFF7A2F903461D46EF
:107E2400059B1B7903F00403002B14BF01230023DB
:107E3400DBB21846FFF794F903461E46059B1B79EF
:107E440003F00803002B14BF01230023DBB2184600
:107E5400FFF786F903461A46059B1B7903930292A2
:107E64000196009543463A462149204640F0BFFF1B
:107E74002EE01A4A1A4BD31ADB081B0443F00304FE
:107E8400059B5B68184603F023FB03461A46059BD3
:107E94005B681946059B5B6800930B4615492046B1
:107EA40040F05DFF14E00D4A0D4BD31ADB081B04B0
:107EB40043F00300059BDB881A46059B1B790E499A
:107EC40040F039FF04E0052303E000BF00E000BFF9
:107ED4000923184615B0BDE8F08300BFF834070045
:107EE400D0340700343D07003C3D0700443D070003
:107EF400583D0700BC3D0700D83D070010B594B0BD
:107F040005900491029313468DF80F3006231393C2
:107F140000238DF81B30059B002B06D0049B002BFF
:107F240003D09DF80F30002B02D1072300F01EBCB4
:107F34002422002105984AF004FB049B1A78059B2F
:107F44001A70059B18780DF11B039DF80F10049A05
:107F5400FFF766F91190119B002B18D0E04AE14B12
:107F6400D31ADB081B0443F00300059B1B78194656
:107F7400059B1B781C469DF80F30119A01920093C3
:107F840023460A46D84940F000FF119BEEE3D44A49
:107F9400D44BD31ADB081B0443F00300059B1B7866
:107FA4001A46059B1B7819469DF80F3000930B4623
:107FB400CE4940F0D4FE029B1A789DF81B3013443E
:107FC400DAB2029B1A70059B1B78A82B00F2B783C8
:107FD40001A252F823F000BF8182020085820200D0
:107FE40085820200AF820200858202004787020078
:107FF40043870200858202004387020085820200D3
:108004008582020085820200858202008582020048
:1080140085820200478702004787020043870200E7
:108024004387020085820200858202008582020065
:10803400858202008582020043870200478702008E
:10804400478702008582020047870200858202007A
:10805400858202008582020099820200AF820200BA
:1080640085820200E7860200858202008582020082
:1080740085820200858202008582020085820200D8
:108084008582020085820200438702004387020042
:10809400858202004387020043870200438702006F
:1080A400438702004387020043870200438702009C
:1080B400438702004387020043870200438702008C
:1080C400438702004387020043870200438702007C
:1080D400438702004387020043870200438702006C
:1080E400438702004387020043870200438702005C
:1080F400438702004387020043870200438702004C
:10810400438702004387020043870200438702003B
:10811400438702004387020043870200438702002B
:10812400438702004387020043870200438702001B
:10813400438702004387020043870200438702000B
:1081440043870200438702004387020043870200FB
:1081540043870200438702004387020043870200EB
:1081640043870200438702004387020043870200DB
:1081740043870200438702004387020043870200CB
:1081840043870200438702004387020043870200BB
:1081940043870200438702004387020043870200AB
:1081A400438702004387020043870200438702009B
:1081B400438702004387020043870200438702008B
:1081C400438702004387020043870200438702007B
:1081D400438702004387020043870200438702006B
:1081E40043870200258402008B8202004387020039
:1081F4004387020085820200438702004D84020007
:10820400338402006784020043870200438702002C
:10821400438702004387020043870200458502002A
:10822400CD84020005870200AF8202003183020080
:108234003183020031830200C382020043870200BB
:10824400438702008582020043870200EF83020015
:1082540085830200438702004387020043870200AC
:108264004387020059850200438702002B870200DE
:1082740005870200F786020099820200062375E250
:10828400002313935EE2049B5A78059B1A72002321
:10829400139357E2049B01331846FEF703FF02468B
:1082A400059B5A60002313934CE2059B0433079308
:1082B400049B5A78079B1A700023139342E2059B90
:1082C40004330D93049B5A780D9B1A700D9B1B78F5
:1082D4005A1C9DF80F309A420ADB092346E200BF7C
:1082E400F8340700D0340700143E0700503E07005E
:1082F40000238DF84B3010E09DF84B300233049A84
:108304001A449DF84B3011780D9A13440A465A705A
:108314009DF84B3001338DF84B300D9B1B789DF845
:108324004B209A42E8D3002313930BE2059B0433BA
:108334000C93059B1B78972B01D1102200E0082297
:108344000C9B1A7000238DF84A3010E09DF84A30D7
:108354000133049A1A449DF84A3011780C9A134454
:108364000A465A709DF84A3001338DF84A300C9B06
:108374001B789DF84A209A42E8D300231393E1E145
:10838400059B04330E93049B5A780E9B1A700023AA
:108394008DF8493020E09DF849300233049A1A449C
:1083A4009DF8493011780E9A13440A465A709DF884
:1083B40049300E9A13445B782F2B06D99DF8493027
:1083C4000E9A13445B78392B01D90B23CEE19DF827
:1083D400493001338DF849300E9B1B789DF84920B4
:1083E4009A42D8D300231393ACE1049B5A78059B9B
:1083F4001A71049B02331846FEF744FE03461A46DC
:10840400059BDA80059BDB88002B04D0059BDB8869
:10841400B3F5B46F01D90723A8E10023139391E1C5
:10842400049B5A78059B1A71002313938AE1049BD9
:108434005A78059B1A72049B02331B789AB2059BE7
:108444005A81002313937DE1049B5A78059B1A718A
:10845400049B02331B789AB2059BDA8000231393A2
:1084640070E1059B04330893049B5A78089B1A70A7
:10847400049B02331B7803F07F03DAB2089B5A7023
:10848400049B02331B785BB2DB115BB203F0010384
:10849400002B14BF01230023DAB2089B9A71049BBA
:1084A40003331B785AB2089B9A70049B1A79089B71
:1084B400DA70049B5A79089B1A71049B9A79089B79
:1084C4005A71002313933DE1059B04330A93049BE3
:1084D4005A780A9B1A70049B9A780A9B5A70049BD8
:1084E40003331846FEF7CEFD03461A460A9B9A80CC
:1084F400049B05331846FEF7C5FD03461A460A9B3E
:108504005A80049B07331B789AB20A9BDA800A9B31
:108514001B78002B0FD00A9B5B78002B0BD00A9B97
:108524009B88002B07D00A9B5B88002B03D00A9BF7
:10853400DB88002B01D1072318E10023139301E109
:10854400059B04330993049B5A78099B1A700023F2
:108554001393F7E0059B04331093049B01331A78BB
:10856400109B1A70109B1B78042B00F2B58001A29B
:1085740052F823F08D85020033860200FD85020047
:10858400DD860200C5850200049B02331846FEF70F
:1085940079FD03461AB2109B9A80049B0433184653
:1085A400FEF770FD03461AB2109BDA80049B063373
:1085B4001846FEF767FD03461A46109B1A818DE0A4
:1085C400049B02331846FEF75DFD03461A46109BD2
:1085D400DA80049B04331846FEF754FD03461A461A
:1085E400109B9A80049B06331846FEF74BFD034606
:1085F4001A46109B1A8171E0049B02331846FEF759
:1086040051FD03461A46109B5A60049B06331846D4
:10861400FEF748FD03461A46109B9A60049B0A33F2
:108624001846FEF73FFD0246109BDA6056E0059BB4
:1086340008330F93049B02331846FEF723FD0346C9
:108644001AB20F9B1A80049B04331846FEF71AFDD6
:1086540003461AB20F9B5A80049B06331846FEF752
:1086640011FD03461A460F9B9A80049B0833184653
:10867400FEF708FD03461A460F9BDA80049B0A3373
:108684001846FEF7FFFC03461A460F9B1A81049B0B
:108694000C331846FEF7F6FC03461A460F9B5A8124
:1086A400049B0E331846FEF7EDFC03461A460F9B57
:1086B4009A81049B10331846FEF7E4FC03461A46DD
:1086C4000F9BDA81049B12331846FEF7DBFC03464A
:1086D4001A460F9B1A8201E0072347E000231393F5
:1086E40030E0049B01331A78059B1A71002313931D
:1086F40028E0049B5A78059B1A710023139321E008
:10870400049B5B788DF82F309DF82F3003F0010324
:10871400002B0CBF01230023DBB21A46059B1A7100
:10872400002313930EE0049B01331846FEF7BAFCB2
:1087340003461A46059B5A600023139302E005235F
:1087440014E000BF139B002B03D10598FFF722F818
:108754000BE0084A084BD31ADB081B0443F0030060
:10876400139B139A054940F0E6FA139B184614B07C
:1087740010BD00BFF8340700D03407007C3E07006A
:1087840000B5A3B002910192009303468DF80F3017
:108794000023049305AB2E220021184649F0D1FE94
:1087A40000238DF88730029B002B05D0019B002B02
:1087B40002D0009B002B02D1072300F0C3BE9DF81A
:1087C4000F30002B15D0029B1B788DF8103001233D
:1087D4008DF88730E74AE84BD31ADB081B0443F0D3
:1087E4000300029B1B781A46029B1B78E34940F066
:1087F400A2FAE04AE04BD31ADB081B0443F003005F
:10880400029B1B781A46029B1B78DC4940F093FAC2
:10881400029B1B78A82B00F26F8601A252F823F06A
:10882400C98A02000D8B0200858B0200EF8B0200C7
:10883400B38C020001950200FD940200F59302003E
:10884400FD940200DF8D02002B8D0200458E020094
:10885400378F020001950200B98D020001950200D4
:1088640001950200FD940200FD940200839402002D
:10887400E58F0200079002000790020007900200B3
:10888400FD94020001950200019502007D90020012
:1088940001950200138C02003F900200E590020053
:1088A400FD940200FD940200238E0200099102004F
:1088B400CD930200B59402008394020061940200F7
:1088C400238E0200238E020001950200238E0200F3
:1088D400FD940200FD940200D9940200FD9402006C
:1088E400FD940200FD940200FD940200FD94020038
:1088F400FD940200FD940200FD940200FD94020028
:10890400FD940200FD940200FD940200FD94020017
:10891400FD940200FD940200FD940200FD94020007
:10892400FD940200FD940200FD940200FD940200F7
:10893400FD940200FD940200FD940200FD940200E7
:10894400FD940200FD940200FD940200FD940200D7
:10895400FD940200FD940200FD940200FD940200C7
:10896400FD940200FD940200FD940200FD940200B7
:10897400FD940200FD940200FD940200FD940200A7
:10898400FD940200FD940200FD940200FD94020097
:10899400FD940200FD940200FD940200FD94020087
:1089A400FD940200FD940200FD940200FD94020077
:1089B400FD940200FD940200FD940200FD94020067
:1089C400FD940200FD940200FD940200FD94020057
:1089D400FD940200FD940200FD940200FD94020047
:1089E400FD940200FD940200FD940200FD94020037
:1089F400FD940200FD940200FD940200FD94020027
:108A0400FD940200FD940200FD940200FD94020016
:108A1400FD940200FD940200FD940200FD94020006
:108A2400FD940200FD940200FD940200FD940200F6
:108A3400578C0200FD940200FD940200FD94020094
:108A4400FD940200DF8D02002B8D0200458E020092
:108A5400FD940200FD940200FD940200FD940200C6
:108A6400FD940200FD940200FD9402008394020030
:108A7400FD940200FD940200FD940200FD940200A6
:108A8400FD940200FD940200FD9402007D9002001A
:108A9400FD940200FD940200FD940200E5900200A2
:108AA400FD940200FD940200FD940200FD94020076
:108AB400FD94020001950200839402006194020077
:108AC40001950200029B043311939DF88730119A9B
:108AD400127822A90B4403F8782C9DF887300133CF
:108AE4008DF88730119B58689DF8873004AA134489
:108AF4001946FEF710FB03461A469DF887301344C7
:108B04008DF8873000F0FBBC029B04331293129B58
:108B140018889DF8873004AA13441946FEF7D8FA3A
:108B240003461A469DF8873013448DF88730129B0C
:108B340058889DF8873004AA13441946FEF7C8FAEA
:108B440003461A469DF8873013448DF88730129BEC
:108B540098889DF8873004AA13441946FEF7B8FA9A
:108B640003461A469DF8873013448DF8873000F089
:108B7400C6BC00BFF8340700D0340700A43E070089
:108B8400029B04331393139B18889DF8873004AA1F
:108B940013441946FEF79CFA03461A469DF887309B
:108BA40013448DF88730139B58889DF8873004AAA6
:108BB40013441946FEF78CFA03461A469DF887308B
:108BC40013448DF88730139B98689DF8873004AA66
:108BD40013441946FEF79FFA03461A469DF8873058
:108BE40013448DF8873000F08ABC029B18799DF8F5
:108BF400873004AA13441946FEF780FA03461A463E
:108C04009DF8873013448DF8873000F078BC029BC0
:108C140018799DF8873004AA13441946FEF76EFAB2
:108C240003461A469DF8873013448DF88730029B1B
:108C3400D8889DF8873004AA13441946FEF748FAE9
:108C440003461A469DF8873013448DF8873000F0A8
:108C540056BC00238DF88230029B08331F931F9B60
:108C640018789DF8873004AA13441946FEF746FA8B
:108C740003461A469DF8873013448DF887301F9BAE
:108C84001B781F9A5B001344B3F9023098B29DF825
:108C9400873004AA13441946FEF71AFA03461A4603
:108CA4009DF8873013448DF8873000F028BC0023EA
:108CB4008DF88630029B08331493149B18789DF822
:108CC400873004AA13441946FEF718FA03461A46D5
:108CD4009DF8873013448DF8873000238DF8863053
:108CE4001AE09DF88630149A5B001344B3F90230FD
:108CF40098B29DF8873004AA13441946FEF7E8F9A0
:108D040003461A469DF8873013448DF887309DF842
:108D1400863001338DF88630149B1B789DF88620AD
:108D24009A42DED3EBE300238DF88430029B0833B0
:108D34001693169B18789DF8873004AA1344194695
:108D4400FEF7DCF903461A469DF8873013448DF884
:108D5400873000238DF8853027E0169B1B781A4650
:108D64009DF8853042FA03F303F00103002B17D07A
:108D74009DF884305A1C8DF88420169A9B00134465
:108D84005B6818469DF8873004AA13441946FEF719
:108D9400CFF903461A469DF8873013448DF887307F
:108DA4009DF8853001338DF885309DF88530022B90
:108DB400D3D9A4E300238DF86B309DF8873004AA3F
:108DC400D018029B04330922194649F091FB9DF8FF
:108DD400873009338DF8873091E3029B18799DF829
:108DE400873004AA13441946FEF788F903461A4645
:108DF4009DF8873013448DF88730029BDB88D8B206
:108E04009DF8873004AA13441946FEF777F9034600
:108E14001A469DF8873013448DF887306FE3029B20
:108E240058689DF8873004AA13441946FEF773F96D
:108E340003461A469DF8873013448DF887305EE365
:108E4400029B04331893189B5B785BB203F07F0397
:108E54005BB2189A9279002A02D06FF07F0200E088
:108E6400002213435BB28DF85F30189B18789DF88D
:108E7400873004AA13441946FEF740F903461A46FC
:108E84009DF8873013448DF887309DF8873004AA05
:108E94001A449DF85F3011461846FEF72FF9034631
:108EA4001A469DF8873013448DF88730189B93F940
:108EB4000230D8B29DF8873004AA13441946FEF74D
:108EC4001DF903461A469DF8873013448DF8873000
:108ED400189BD8789DF8873004AA13441946FEF7E6
:108EE4000DF903461A469DF8873013448DF88730F0
:108EF400189B18799DF8873004AA13441946FEF785
:108F0400FDF803461A469DF8873013448DF88730E0
:108F1400189B58799DF8873004AA13441946FEF724
:108F2400EDF803461A469DF8873013448DF88730D0
:108F3400E5E2029B08331993199B18789DF8873052
:108F440004AA13441946FEF7D9F803461A469DF8B5
:108F5400873013448DF88730199B58789DF88730F3
:108F640004AA13441946FEF7C9F803461A469DF8A5
:108F7400873013448DF88730199B98789DF8873093
:108F840004AA13441946FEF7B9F803461A469DF895
:108F9400873013448DF8873000238DF8833018E030
:108FA4009DF88330199A5B00134498889DF88730A4
:108FB40004AA13441946FEF78BF803461A469DF893
:108FC400873013448DF887309DF8833001338DF852
:108FD4008330199B1B789DF883209A42E0D38EE25C
:108FE400029B18799DF8873004AA13441946FEF7AA
:108FF40085F803461A469DF8873013448DF8873068
:109004007DE2029B1B78172B01D1102200E008227D
:10901400029B1A719DF8873004AAD018029B591D2F
:10902400029B1B791A4649F063FA029B1A799DF850
:10903400873013448DF8873061E29DF887305A1CDD
:109044008DF887201946029B1A7922AB0B4403F84A
:10905400782C9DF8873004AAD018029B591D029BD6
:109064001B791A4649F044FA029B1A799DF8873015
:1090740013448DF8873042E2029B08331B931B9BF9
:1090840058889DF8873004AA13441946FEF720F83F
:1090940003461A469DF8873013448DF887301B9B8E
:1090A400D8889DF8873004AA13441946FEF710F8AF
:1090B40003461A469DF8873013448DF887301B9B6E
:1090C400187A9DF8873004AA13441946FEF716F857
:1090D40003461A469DF8873013448DF887300EE214
:1090E400029BDB8818469DF8873004AA134419466E
:1090F400FEF711F803461A469DF8873013448DF89D
:109104008730FCE1029B04331D931D9B18789DF866
:10911400873004AA13441946FDF7F0FF03461A46A4
:109124009DF8873013448DF887301D9B1B78042BE2
:1091340000F23F8101A252F823F000BF55910200D2
:109144008792020021920200B7930200BF910200AD
:109154001D9BB3F9043098B29DF8873004AA1344D8
:109164001946FDF7B5FF03461A469DF887301344A8
:109174008DF887301D9BB3F9063098B29DF887307F
:1091840004AA13441946FDF7A3FF03461A469DF8A3
:10919400873013448DF887301D9B18899DF88730DC
:1091A40004AA13441946FDF793FF03461A469DF893
:1091B400873013448DF8873005E11D9BD8889DF8CE
:1091C400873004AA13441946FDF782FF03461A4662
:1091D4009DF8873013448DF887301D9B98889DF83F
:1091E400873004AA13441946FDF772FF03461A4652
:1091F4009DF8873013448DF887301D9B18899DF89E
:10920400873004AA13441946FDF762FF03461A4641
:109214009DF8873013448DF88730D4E01D9B5B683C
:1092240018469DF8873004AA13441946FDF773FFC6
:1092340003461A469DF8873013448DF887301D9BEA
:109244009B6818469DF8873004AA13441946FDF715
:1092540062FF03461A469DF8873013448DF8873021
:109264001D9BD8689DF8873004AA13441946FDF75E
:1092740052FF03461A469DF8873013448DF8873011
:10928400A1E0029B08331C931C9BB3F9003098B2F5
:109294009DF8873004AA13441946FDF719FF0346C5
:1092A4001A469DF8873013448DF887301C9BB3F918
:1092B400023098B29DF8873004AA13441946FDF78A
:1092C40007FF03461A469DF8873013448DF887300C
:1092D4001C9B98889DF8873004AA13441946FDF70F
:1092E400F7FE03461A469DF8873013448DF88730FD
:1092F4001C9BD8889DF8873004AA13441946FDF7AF
:10930400E7FE03461A469DF8873013448DF88730EC
:109314001C9B18899DF8873004AA13441946FDF74D
:10932400D7FE03461A469DF8873013448DF88730DC
:109334001C9B58899DF8873004AA13441946FDF7ED
:10934400C7FE03461A469DF8873013448DF88730CC
:109354001C9B98899DF8873004AA13441946FDF78D
:10936400B7FE03461A469DF8873013448DF88730BC
:109374001C9BD8899DF8873004AA13441946FDF72D
:10938400A7FE03461A469DF8873013448DF88730AC
:109394001C9B188A9DF8873004AA13441946FDF7CC
:1093A40097FE03461A469DF8873013448DF887309C
:1093B40009E0009B1A789DF887301344DAB2009BC9
:1093C4001A700723BEE09AE0029B04331E931E9B8F
:1093D40018789DF8873004AA13441946FDF78EFEC9
:1093E40003461A469DF8873013448DF8873086E08B
:1093F400029B08331593159BB3F9023098B29DF87C
:10940400873004AA13441946FDF762FE03461A4640
:109414009DF8873013448DF88730159B18889DF884
:10942400873004AA13441946FDF752FE03461A4630
:109434009DF8873013448DF88730159B98889DF8E4
:10944400873004AA13441946FDF742FE03461A4620
:109454009DF8873013448DF8873050E0029B1879CB
:109464009DF8873004AA13441946FDF747FE0346C6
:109474001A469DF8873013448DF887303FE0029BED
:109484001B7903F00103002B0CBF01230023DBB283
:1094940018469DF8873004AA13441946FDF72EFE9A
:1094A40003461A469DF8873013448DF8873026E02A
:1094B400029B5B6818469DF8873004AA134419463A
:1094C400FDF729FE03461A469DF8873013448DF8AC
:1094D400873014E0029B5B6818469DF8873004AA25
:1094E40013441946FDF717FE03461A469DF88730C4
:1094F40013448DF8873002E0052323E000BF009B6E
:109504001B781A469DF887301A449DF890309A4289
:1095140001DB092316E0009B1B781A46019B1344C8
:109524009DF8872004A9184648F0E2FF009B1A78AA
:109534009DF887301344DAB2009B1A700298FEF744
:1095440029F90023184623B05DF804FB10B487B052
:1095540003468DF807300E4B02AC0FCB84E80F00A6
:109564009DF80730042B0AD0042B0ADC012B02D00F
:10957400022B02D005E0029B04E0039B02E0049B63
:1095840000E0059B184607B05DF8044B704700BF28
:10959400BC3E070000B585B00190019B002B0AD0AA
:1095A400074B43F001030393019B9B010293039B2D
:1095B4000298984700E000BF05B05DF804FB00BFC7
:1095C400E03F070000B583B00190019B002B0AD057
:1095D4004FF47A70FFF7DEFF019B013B0193019B7F
:1095E400002BF5D100E000BF03B05DF804FB0000E0
:1095F400044B1B78002B14BF01230023DBB2184655
:10960400704700BF34970020F0B585B00190144B2B
:109614000093019B00221C4615464FF000024FF0B8
:109624000003EB0343EA5443E20312F5FA7643F1F1
:1096340000074FF47A724FF000033046394647F082
:10964400EBFE02460B46134600221946009839F0F9
:109654004FFA0390034B00221A7400BF05B0F0BD0B
:10966400149700203497002000B583B003468DF88A
:1096740007300D4A9DF80730137039F08DFA034610
:10968400094AD360094A0A4BD31ADB081B0443F086
:109694000303054A1278074918463FF03BFB00BF15
:1096A40003B05DF804FB00BF3497002010350700B9
:1096B400D0340700D43E070000B585B000921A46A6
:1096C40003468DF807300B468DF806301346ADF887
:1096D400043000230393BDF804309DF806109DF870
:1096E4000700009A43F0B6FE0390039B002B02D0C0
:1096F4006FF0030300E00023184605B05DF804FB97
:1097040000B585B000921A4603468DF807300B4623
:109714008DF806301346ADF8043000230393BDF8EA
:1097240004309DF806109DF80700009A43F054FE9B
:109734000390039B002B02D06FF0030300E000238F
:10974400184605B05DF804FB00B585B01A4B01223C
:1097540083F83A20184B052283F83820164B02224E
:1097640083F83920144B042283F83B200F238DF80F
:109774000F309DF80F301049184641F06FFC034636
:109784008DF80E309DF90E30002B0FD00B4A0C4B88
:10979400D31ADB081B0443F003009DF90E209DF946
:1097A4000E3008493FF0C7FA032300E000231846AF
:1097B40005B05DF804FB00BF80960020103507005B
:1097C400D0340700E43E070000B585B0794B1B7820
:1097D400032B00F2E68001A252F823F0A7990200BD
:1097E400F1970200D598020085990200724B01930B
:1097F400012004F037FF034683F00103DBB2002BA2
:109804000AD00121012004F071FF6C4B06221A706A
:109814006A4816F095FBC9E043F04EFE0346022B5E
:1098240002D043F053FEC1E0654B76225A70644B7C
:1098340001229A70624B634A5A60614B624A9A6091
:109844005F4B624ADA605E4841F0F8FA03468DF8ED
:109854000B309DF90B3013F1020F03D10320FFF7F6
:1098640003FFA3E09DF90B30002B40F09C80FFF731
:109874006BFF03468DF80B309DF90B30002B03D0A2
:109884000320FFF7F1FE91E04D49012041F045FC32
:1098940003468DF80B309DF90B30002B11D04C4A48
:1098A4004C4BD31ADB081B0443F003009DF90B2037
:1098B4009DF90B3048493FF03EFA0320FFF7D4FEF0
:1098C40074E02820FFF7A0FE0220FFF7CDFE6DE034
:1098D400384BDB68184639F072F90390354B1B7C22
:1098E40083F00103DBB2002B03D0039BB3F57A7F33
:1098F4005BD3334A3949072041F0C2FC03468DF853
:109904000B309DF90B30002B11D0314A314BD31A57
:10991400DB081B0443F003009DF90B209DF90B3079
:109924002F493FF008FA0320FFF79EFE3EE02B4B41
:109934005B681AB22B4B5A81284B9B68642202FB4A
:1099440003F39B0A9AB2274B1A81244B1B68264ABD
:10995400A2FB03235B0B9AB2224B9A81154B5B68E3
:10996400002B0AD01F4B01221A71124B1A7A1D4B7D
:109974005A71104B5B681D4898470320FFF774FE2B
:10998400012004F06FFE0346002B06D043F0CEFD09
:109994000121002004F0AAFE08E00020FFF764FE85
:1099A40004E000BF02E000BF00E000BF05B05DF8C6
:1099B40004FB00BF34970020F4960020F0960020AA
:1099C40080960020BD96020005970200C99502000A
:1099D40010350700D0340700383F0700C096002038
:1099E400603F0700CC9600205917B7D1D0960020CD
:1099F40000B583B00190019B002B01D107230DE03A
:109A040020220021019848F09CFD064B01221A7186
:109A140020220549019848F06BFD0023184603B045
:109A24005DF804FBCC960020D096002000B583B0EE
:109A340003460A468DF8073013468DF806309DF824
:109A44000730002B0ED00E4B1B78002B08D10C4A8C
:109A54009DF8063013720120FFF706FE00230BE089
:109A6400082309E0064B1B78002B04D00320FFF7E2
:109A7400FBFD002300E00823184603B05DF804FB57
:109A84003497002082B00190044B1B78022B02D142
:109A9400024B01221A7400BF02B0704734970020B1
:109AA40000B585B001900020FFF7DEFD0B4A019B55
:109AB40053600B4A00210B4838F0EAFF0390039BE4
:109AC4000293029B002B05D0074A40F25D110298D5
:109AD40038F0C8F900BF05B05DF804FB34970020E6
:109AE400899A0200D43F07008C3F070000B585B077
:109AF4000190019B002B0AD0074B43F00103039311
:109B0400019B9B010293039B0298984700E000BFCE
:109B140005B05DF804FB00BF3041070000B583B019
:109B24000190019B002B0AD04FF47A70FFF7DEFFFF
:109B3400019B013B0193019B002BF5D100E000BF89
:109B440003B05DF804FB000084B003468DF80730D1
:109B54009DF807305B1003F00703013B032B1BD870
:109B640001A252F823F000BF7D9B0200859B0200F6
:109B74008D9B0200959B02001F238DF80F300FE090
:109B84003F238DF80F300BE05F238DF80F3007E093
:109B94007F238DF80F3003E000238DF80F3000BFD2
:109BA4009DF80F30184604B0704700BF84B00346D8
:109BB4008DF8073000238DF80F309DF807307F2B88
:109BC40016D07F2B18DC5F2B0ED05F2B14DC1F2BE1
:109BD40002D03F2B04D00FE001238DF80F300FE0AB
:109BE40002238DF80F300BE003238DF80F3007E0CC
:109BF40004238DF80F3003E000238DF80F3000BFED
:109C04009DF80F305B00DBB2184604B070470000CB
:109C140010B584B0034600918DF80730009B002BEB
:109C240041D020220021009848F08BFC009B0022A8
:109C34001A70009B9DF807205A701C4BDA78009B21
:109C44001A710023ADF80E3025E0BDF80E20174937
:109C540013469B0013449B000B4418331B6818469F
:109C640047F054F94FF00002114B46F03BFF024617
:109C74000B46BDF80E401046194647F0EBF8034674
:109C840019B2009A630013440A46DA80BDF80E3014
:109C94000133ADF80E30054BDB789BB2BDF80E20D6
:109CA4009A42D2D300E000BF04B010BD68970020F0
:109CB4000000594000B583B0019001990020FFF7DE
:109CC400A7FF00BF03B05DF804FB000084B00346A7
:109CD4008DF807309DF80730092B18D900238DF82B
:109CE4000F300FE09DF80F200F4913469B001344DB
:109CF4009B000B441F3300221A709DF80F30013370
:109D04008DF80F309DF80F30092BEBD90AE09DF840
:109D14000720054913469B0013449B000B441F3343
:109D240000221A7004B070476897002000B583B011
:109D340003468DF80730084A9DF807309370FF20DA
:109D4400FFF7C4FF38F028FF0346034AC2F8E430A3
:109D540000BF03B05DF804FB6897002000B585B030
:109D64000190009100238DF80F3000238DF80E3000
:109D7400019B002B02D0009B002B01D10E231EE07F
:109D8400114B1B785AB29DF90F3013435BB28DF817
:109D94000F300D4B5B791846FFF708FF03461A4650
:109DA4009DF80F3013438DF80F30019B9DF80F2061
:109DB4001A70054B1B699AB2009B1A80002318463F
:109DC40005B05DF804FB00BF6897002000B58DB0B6
:109DD40003460A468DF807301346ADF804300023D5
:109DE4008DF82F309DF807301846FFF7ADFE034677
:109DF4008DF82F309DF82F30002B01D107233AE046
:109E04009DF8073003F00103002B14BF0123002346
:109E1400DAB21B4B1A701A4B5B799DF82F209A42C9
:109E240003D0174B1B78002B03D1154B1B78002B49
:109E340006D0144B01221A70114A9DF82F30537129
:109E44000F4B1B7883F00103DBB2002B03D00E4BC6
:109E5400184638F07FFE03238DF8083002AB9A1DB4
:109E640002AB043311461846FFF778FF02AB1846DD
:109E740016F0F0FA002318460DB05DF804FB00BF9D
:109E840068970020549800204897002000B583B0BC
:109E940001900B4B9B78072B0AD0094B002283F8C7
:109EA400E020074BFF221A730620FFF73FFF03E071
:109EB4000820FFF73BFF00BF00BF03B05DF804FBC1
:109EC4006897002000B585B003468DF807309DF8EB
:109ED4000730092B1CD900238DF80F3013E09DF8AF
:109EE4000F2013469B0013449B001033124A134463
:109EF400043314220021184648F023FB9DF80F3048
:109F040001338DF80F309DF80F30092BE7D90EE09F
:109F14009DF8072013469B0013449B001033064A08
:109F24001344043314220021184648F00AFB00BFEE
:109F340005B05DF804FB00BF6897002082B00346BB
:109F44000A468DF8073013468DF806309DF8073021
:109F5400092B2ED89DF80720184913469B0013445B
:109F64009B000B441F331B78DBB20133D8B2134977
:109F740013469B0013449B000B441F3302461A7084
:109F84009DF807200D4913469B0013449B000B4486
:109F94001F331B78DBB2052B0DD99DF80720074929
:109FA40013469B0013449B000B441833044A1A6065
:109FB40001E000BF00E000BF02B0704768970020D6
:109FC4000000C8C208B50A4B00221A70094B0022CF
:109FD400DA70084B01229A70064B00229A600A201C
:109FE400FFF770FF0021002004F080FB00BF08BDD4
:109FF4005498002068970020094B9B78002B09D0C7
:10A00400074B9B78052B05D0054B9B78072B01D07C
:10A01400012300E0002303F00103DBB2184670477C
:10A024006897002000B583B000230193194B1B7B74
:10A03400092B1ED8174B1B7B1946164A0B469B004F
:10A044000B449B00134414331B78DBB2002B10D059
:10A05400104B1B7B1A4613469B0013449B0018337A
:10A064000C4A1344083301930A4B1A7B094B1A71A7
:10A0740005E0084BFF221A73064B00221A7101985F
:10A0840042F04FFE03460093009B184603B05DF870
:10A0940004FB00BF689700202DE9F04FA9B0B24B34
:10A0A4001B78002B01D0FFF78DFFB04B9B78013B51
:10A0B400082B15D801A252F823F000BFFDA002001E
:10A0C4006BA102007FA202000BA40200F5A702000C
:10A0D4001BA502001DA6020069A60200E5A7020056
:10A0E400002004F0BFFA0346002B00F08383002114
:10A0F400002004F0FBFA7DE3002004F0B3FA0346E9
:10A104008DF866309DF8663083F00103DBB2002BD6
:10A1140007D00021012004F0E9FA0A20FFF7FEFC31
:10A1240079E344F090FF0346002B0DD09DF8663090
:10A13400002B09D08D4B002283F8E82042F0B6FBB7
:10A144000220FFF7F3FD66E30020FFF7EFFD884AE6
:10A15400884BD31ADB081B0443F0030386491846D3
:10A164003EF0CAFD57E300231793002318937F4B57
:10A17400D3F8E430184638F022FD1A901A9B40F6C2
:10A18400B732934240F2388317AB184642F0A8FB2B
:10A1940003468DF86730754B93F8E830DBB2013332
:10A1A400DAB2724B83F8E8209DF86730002B21D097
:10A1B4006E4BDB781A4613469B0013449B001833FE
:10A1C4006A4A1344083317A90822184648F090F93C
:10A1D400664BDB781946654A0B469B000B449B0093
:10A1E4001344143301221A70604BDB780133DAB262
:10A1F4005E4BDA709DF8673083F00103DBB2002B0D
:10A2040004D15A4BDB78092B40F2F882574BDB78A8
:10A21400002B17D1554B93F8E830DBB2042B11D83F
:10A224000220FFF783FD524A524BD31ADB081B046A
:10A2340043F003034D4A92F8E820D2B24F4918463E
:10A244003EF068FD494BDB78002B01D1002300E090
:10A2540003231846FFF76AFD444B00221A71444A4F
:10A26400444BD31ADB081B0443F003033F4AD27860
:10A27400434918463EF04EFDCDE20023149315AB3E
:10A2840000221A601A71394B1B79092B02D9374BFA
:10A2940009221A71354B1B791A4613469B00134445
:10A2A4009B001033314A134404331C931C9B1B78CA
:10A2B400002B00F091801C9BDB7A042B00F28C8035
:10A2C4001C9B0C3314AA1146184642F0E9FC0346C1
:10A2D4008DF86F309DF86F30002B74D19DF851309C
:10A2E4001B021AB29DF850301BB213431BB2ADF8D7
:10A2F4006C30BDF86C30184642F0C3FAF0EE407A88
:10A304001C9BC3ED017A9DF852201C9B5A729DF848
:10A3140053201C9B9A729DF854201C9B1A72002394
:10A324002793184B0FAC1D460FCD0FC42B68236029
:10A334001C9B1B7A7F2B13D07F2B25DC5F2B0CD02F
:10A344005F2B21DC1F2B02D03F2B03D01CE00F9B83
:10A3540027931CE0109B279319E0119B279316E089
:10A36400129B279313E000BF5498002068970020A5
:10A3740038350700D0340700184007005040070064
:10A384007040070010410700139B279300BFAF4A9A
:10A39400AF4BD31ADB081B0443F00300AD4B1B790E
:10A3A4001C461C9B1B7A1D46279B1C9A527A1146FD
:10A3B4001C9A927A0292019100932B462246A64956
:10A3C4003EF0FBFC08E0A34B1B799DF86F2011467F
:10A3D4001846FFF7B3FD1EE29E4B1B790133DAB238
:10A3E4009C4B1A719B4B1A799A4BDB789A42C0F0BA
:10A3F4000782984B00221A71964B00225A7004204F
:10A40400FFF794FC07E2934B1B79092B02D9914B7C
:10A4140009221A718F4B1B791A4613469B00134469
:10A424009B0010338B4A134404331E931E9B1B78EA
:10A43400002B51D01E9B1A7A864B5B799A424BD0E3
:10A444001E9BDB7A042B47D81E9B03F10C001E9B3A
:10A45400597A1E9B9A7A7F4B5B7942F087FB0346BD
:10A464008DF877309DF87730002B08D0794B1B7925
:10A474009DF8772011461846FFF760FDCBE11E9B3F
:10A484000C33184642F0ACFB03468DF877309DF848
:10A494007730002B08D06F4B1B799DF8772011463D
:10A4A4001846FFF74BFDB6E11E9B0C33184642F0ED
:10A4B400C7FB03468DF877309DF87730002B08D022
:10A4C400644B1B799DF8772011461846FFF736FD3B
:10A4D400A1E1604B01225A705E4B1B790133DAB261
:10A4E4005C4B1A715B4B1A795A4BDB789A42C0F079
:10A4F4008981584B00221A71564B5B78002B03D08C
:10A504000320FFF713FC7DE10520FFF70FFC00207B
:10A51400FFF7BCFC76E1002004F0A4F803468DF8B4
:10A524008730002326934B4B1B7883F00103DBB267
:10A53400002B07D00520FFF7F9FB0021002004F0D1
:10A54400D5F868E19DF8873083F00103DBB2002B76
:10A5540007D00021012004F0C9F80A20FFF7DEFA31
:10A5640059E1FFF75FFD2090209B002B07D00520C9
:10A57400FFF7DCFB0021002004F0B8F84BE1354B79
:10A584009B680133334A93600720FFF7CFFB314BBD
:10A594005B795F2B09D05F2B03DC1F2B0CD03F2B87
:10A5A40007D04FF44873269309E04FF4C8732693F9
:10A5B40005E0C823269302E06423269300BF274CBA
:10A5C400269B00221E4617464FF000024FF0000360
:10A5D400FB0343EA5643F20312F5FA7A43F1000B04
:10A5E4004FF47A724FF000035046594646F014FF78
:10A5F40002460B46134600221946204638F078FAE4
:10A604001F901F9B002B00F0FF80154A40F25E2133
:10A614001F9837F027FCF7E00E4BD3F8E4301846C8
:10A6240038F0CDFA2290229B40F6B832934205D8F6
:10A63400084BD3F8E430002B40F0E880054B0022AF
:10A64400C3F8E4200820FFF771FBDFE0383507008A
:10A65400D0340700689700208C40070048970020FA
:10A66400C440070000230C930DAB00221A601A713A
:10A674006A4B1B79092B02D9684B09221A71674B63
:10A684001B791A4613469B0013449B001033634AFC
:10A69400134404332593259B1B78002B38D0259B2A
:10A6A400DB7A042B34D8259B0C330CAA11461846AC
:10A6B40042F0F6FA03468DF893309DF89330002B60
:10A6C40015D19DF831301B021AB29DF830301BB2FF
:10A6D40013431BB2ADF89030BDF89030184642F0E9
:10A6E400D0F8F0EE407A259BC3ED017A10E04B4B95
:10A6F4001B799DF8932011461846FFF71FFC259BF4
:10A70400DB7A042B40F28480259B454A5A6082E020
:10A71400424B1B790133DAB2404B1A713F4B1B7B1E
:10A72400FF2B05D13D4B1A793C4BDB789A4209D279
:10A734003A4B1B7BFF2B6DD0384B1A7B374B1B7965
:10A744009A4267D0354B00221A71344BD3F8DC306F
:10A75400002B11D0314B93F8E03004AA114618466F
:10A76400FFF756FA2D4B002283F8E0202B4BD3F849
:10A77400DC3004AA104698472A4E284B1B694EF633
:10A78400602202FB03F300221C4615464FF0000230
:10A794004FF00003EB0343EA5443E20312F5FA7863
:10A7A40043F100094FF47A724FF0000340464946E2
:10A7B40046F032FE02460B46134600221946304646
:10A7C40038F096F92390239B002B05D0164A40F2CB
:10A7D400B521239837F046FB0920FFF7A7FA1AE0C2
:10A7E4000021002003F082FF0520FFF79FFA12E00A
:10A7F40000BF10E000BF0EE000BF0CE000BF0AE0A5
:10A8040000BF08E000BF06E000BF04E000BF02E0B4
:10A8140000BF00E000BF29B0BDE8F08F68970020BA
:10A824000000C84248970020C440070000B583B028
:10A8340003460A468DF8073013468DF80630194B47
:10A844009B78052B06D1174B1B7883F00103DBB2F1
:10A85400002B01D0082320E09DF80630092B0CD8EA
:10A86400104BDB789DF806209A4201D3072314E0AD
:10A874000C4A9DF80630137302E00A4BFF221A7348
:10A88400084A9DF8073082F8E030074B184638F044
:10A8940061F90620FFF74AFA0023184603B05DF871
:10A8A40004FB00BF689700204897002008B5064BBA
:10A8B4009B78052B01D1082303E00920FFF736FA22
:10A8C4000023184608BD00BF6897002000B58FB06C
:10A8D40003460092ADF806300B468DF8053003238D
:10A8E4008DF80C3003AB184615F02AFB9DF8103098
:10A8F40003F00103002B14BF01230023DAB2194B28
:10A904001A709DF810301846FFF71EF903461A46D0
:10A91400144B5A71134A009BC2F8DC30BDF8123054
:10A924001A46104B1A610F4B5B79002B02D10D4B69
:10A934007F225A71FFF746FB0B4A00210B4838F07F
:10A94400A7F80D900D9B0C930C9B002B05D0084A87
:10A9540040F20B310C9837F085FA00BF0FB05DF868
:10A9640004FB00BF68970020919E02002441070069
:10A97400C440070000B583B00190019B043318461E
:10A9840036F002FC00BF03B05DF804FB00B589B0EB
:10A99400059003921A460B468DF8133013468DF832
:10A9A400123000230793059B181D9DF812209DF873
:10A9B40013109DF8283000931346039A36F082FE54
:10A9C4000790079B184609B05DF804FB00B587B0F3
:10A9D400039001921A460B468DF80B3013468DF8FE
:10A9E4000A3000230593039B181D9DF80A309DF837
:10A9F4000B10019A36F08EFE0590059B184607B0A1
:10AA04005DF804FB10B586B0194B6C460FCB84E897
:10AA14000F00184A184BD31ADB081B0443F0030336
:10AA2400164918463EF068F900BF3EF0BFFA0346E7
:10AA3400002BFAD10121012003F058FE69460023BE
:10AA440000220F4830F0D8FA05900D48FFF792FF26
:10AA54000C4B01221A70059B0493049B002B04D019
:10AA6400094A5C21049837F0FDF900BF06B010BD17
:10AA7400E841070030350700D0340700744107006F
:10AA8400CC2B0020569800209C41070008B50348B1
:10AA940030F0A4FA0346184608BD00BFCC2B0020B2
:10AAA40084B000B585B00DF1180C8CE80F002D4B67
:10AAB40000221A70FFF7EAFF0346002B01D1FFF7CB
:10AAC400A1FF00238DF80830069BDBB2184600F086
:10AAD400B1F903468DF80930079BDBB2184600F044
:10AAE400A9F903468DF80A30089BDBB2184600F03A
:10AAF400A1F9034603F03F03DBB28DF80B300C9B46
:10AB0400DBB2184600F096F903468DF80C30099B29
:10AB1400DBB2184600F08EF9034603F03F03DBB2C4
:10AB24008DF80D300A9BDBB2184600F083F903461A
:10AB34008DF80E300B9BDBB2184600F07BF9034610
:10AB44008DF80F3002AA00230093082368210648D9
:10AB5400FFF71CFF00F00AF800BF05B05DF804EB36
:10AB640004B0704755980020CC2B002000B585B068
:10AB74000F238DF80B3000238DF80F309DF80B3028
:10AB84008DF80C309DF80F308DF80D3000238DF8C2
:10AB94000E3003AA00230093022368213748FFF7ED
:10ABA400F5FE0DF10B0200230093012368213348C5
:10ABB400FFF7ECFE0DF10E02012368212F48FFF789
:10ABC40005FF2F4A2F4BD31ADB081B0443F0030362
:10ABD4009DF80E202C4918463EF09CF800BF3EF02C
:10ABE400E5F90346002BFAD19DF80E300C2B10D159
:10ABF400234A244BD31ADB081B0443F003032349E1
:10AC040018463EF079F800BF3EF0D0F90346002B19
:10AC1400FAD10E238DF80B3000238DF80E3003AAE1
:10AC240000230093022368211448FFF7AFFE0DF1BF
:10AC34000E02012368211148FFF7C8FE104A114B88
:10AC4400D31ADB081B0443F003039DF80E201049BC
:10AC540018463EF05FF800BF3EF0A8F90346002B0B
:10AC6400FAD10DF10B02002300930123682103485C
:10AC7400FFF78CFE00BF05B05DF804FBCC2B002071
:10AC840030350700D03407001C4207003C4207005F
:10AC94005842070030B58FB0FFF7F8FE0346002B8B
:10ACA4001AD15E4A5E4BD31ADB081B0443F003043B
:10ACB400FFF7ECFE03461D46FFF7E8FE03462A466F
:10ACC400584920463EF037F800BF3EF06FF903467E
:10ACD400002BFAD1FFF796FE012003F0C3FC0346D4
:10ACE40083F00103DBB2002B14D04C4A4C4BD31A33
:10ACF400DB081B0443F003034B4918463DF0FCFFFB
:10AD040000BF3EF053F90346002BFAD10121012084
:10AD140003F0ECFC00238DF8333000230B930CABD1
:10AD240000210A461A800A469A7002AB24220021A6
:10AD3400184647F006FC0DF133020023009301236B
:10AD440068213A48FFF722FE0BAA072368213748F7
:10AD5400FFF73CFE9DF82C30184600F08FF80346B0
:10AD640002939DF82D30184600F088F803460393AB
:10AD74009DF82E3003F03F03DBB2184600F07EF856
:10AD8400034604939DF82F30184600F077F80346E5
:10AD9400013B08939DF83030184600F06FF80346E5
:10ADA40005939DF8313003F01F03DBB2184600F021
:10ADB40065F8034606939DF83230184600F05EF8B5
:10ADC4000346079300230A9302AB184646F084FF18
:10ADD4000D90124A124BD31ADB081B0443F00304F0
:10ADE4000D9800F075FB034619460D9A0D9B0093D0
:10ADF40013460A460E4920463DF0B1FF00BF3EF01F
:10AE0400D5F80346002BFAD10D9815F06BFE14F01B
:10AE1400BFFF0D9B18460FB030BD00BF3035070093
:10AE2400D034070078420700AC420700CC2B002046
:10AE3400D842070084B003468DF807309DF80730E8
:10AE44000D4AA2FB0323DB08DBB21B01D8B29DF839
:10AE54000720094BA3FB0213D9080B469B000B44A4
:10AE64005B00D31ADBB203448DF80F309DF80F302A
:10AE7400184604B0704700BFCDCCCCCC84B0034698
:10AE84008DF807309DF807301B09DBB21A46920093
:10AE940013445B00DAB29DF8073003F00F03DBB212
:10AEA40013448DF80F309DF80F30184604B07047E6
:10AEB40000B583B0FFF7EAFD0346002B01D1FFF78D
:10AEC400A1FD2D4A2D4BD31ADB081B0443F00303C9
:10AED4002B4918463DF010FF00BF3EF067F80346CB
:10AEE400002BFAD10DF10302012368212548FFF755
:10AEF4006DFD0190019B002B03D1234B01221A709D
:10AF040002E0214B00221A701F4B1B78002B16D134
:10AF1400194A1A4BD31ADB081B0443F003031B49D9
:10AF240018463DF0E9FE00BF3EF040F80346002B12
:10AF3400FAD10121002003F0D9FB002317E00E4AC7
:10AF44000E4BD31ADB081B0443F00303019A104988
:10AF540018463DF0DFFE00BF3EF028F80346002B04
:10AF6400FAD1094B01221A70FFF700FE012318469B
:10AF740003B05DF804FB00BF30350700D034070090
:10AF8400FC420700CC2B00205698002010430700F9
:10AF94003443070000B585B00190019B002B0AD013
:10AFA400074B43F001030393019B9B010293039B13
:10AFB4000298984700E000BF05B05DF804FB00BFAD
:10AFC4008043070000B583B00190019B002B0AD099
:10AFD4004FF47A70FFF7DEFF019B013B0193019B65
:10AFE400002BF5D100E000BF03B05DF804FB0000C6
:10AFF40008B510220021024847F0A3FA00BF08BD9B
:10B004006898002082B01B4B93F8293003F00103A9
:10B01400002B03D001238DF8073017E0154B93F86C
:10B02400293003F00203002B03D002238DF80730EC
:10B034000CE0104B93F8293003F00403002B03D0E9
:10B0440004238DF8073001E0FF230FE0094B93F848
:10B0540029305AB29DF90730DB435BB213405BB22F
:10B06400DAB2044B83F829209DF80730184602B061
:10B07400704700BF5898002082B003468DF807300F
:10B08400034A9DF8073082F8213000BF02B07047B0
:10B094005898002000B58DB0019000238DF82E3013
:10B0A400564B93F82130032B40F0A380534B5B881D
:10B0B4005A1C91B2514A5180002B03D14F4B0022AC
:10B0C4009A6097E04D4B5A884C4B9B889A4207D81C
:10B0D4004A4B9A68019B5B681344484A936089E031
:10B0E400464B9A68019B5B681344444A9360434B04
:10B0F4009B68424A928893FBF2F3404AD360002350
:10B104008DF82F3027E03D4B1B7C1A469DF82F30DD
:10B1140042FA03F303F00103002B12D1374B1A7CDC
:10B12400364B93F820301343DAB2344B1A749DF83B
:10B134002E30324AD268314904339B000B445A60A2
:10B144000DE09DF82E3001338DF82E309DF82F3010
:10B1540001338DF82F309DF82F30022BD3D9FFF710
:10B1640051FF03461A46254B83F82020234B93F8BE
:10B174002030FF2B0FD0214B93F82030184641F09C
:10B1840091FF1E4B00225A801C4B00229A601B4BDD
:10B194000022DA602EE0194BDB6A0133174AD362CE
:10B1A400002041F08DFF154B5B6A002B1DD003ABD3
:10B1B40020220021184647F0C4F903AB04331022BF
:10B1C4000F49184647F094F902238DF80C300B4BC5
:10B1D40093F828308DF80D30084B002283F828208E
:10B1E400064B5B6A03AA104698470420FFF744FF06
:10B1F40000E000BF0DB05DF804FB00BF58980020CC
:10B2040068980020084B93F82130002B06D0064B99
:10B2140093F82130012B01D0012300E0002303F037
:10B224000103DBB2184670475898002000B583B07C
:10B234002A4B93F82130013B032B49D801A252F841
:10B2440023F000BFD5B2020059B20200D5B2020009
:10B25400A3B20200022003F005FA03468DF806307B
:10B264009DF8063083F00103DBB2002B07D00221E6
:10B27400012003F03BFA0A20FFF7A4FE29E0174B54
:10B2840093F82030184641F00DFF012041F032FFC1
:10B29400012041F015FF0320FFF7EEFE19E0022024
:10B2A40003F0E0F903468DF807309DF80730002BD2
:10B2B4000AD0002041F01EFF002041F001FF0221CE
:10B2C400002003F013FA04E00120FFF7D5FE00E0AC
:10B2D40000BF00BF03B05DF804FB00BF5898002016
:10B2E40000B583B001900D4A019B53620B4B0122C0
:10B2F40083F82120094B0022DA6201220421084844
:10B3040041F012FF002041F0DBFE0221002003F097
:10B31400EDF900BF03B05DF804FB00BF58980020AE
:10B3240099B0020000B583B00190019B002B0FD0AF
:10B3340020220021019847F004F9019B04331022D4
:10B344000549184647F0D4F8019B02221A7000E020
:10B3540000BF03B05DF804FB6898002000B583B01B
:10B3640003468DF807300B46ADF8043013468DF8CC
:10B374000630BDF80430002B05D09DF8063003F0EC
:10B384000703002B01D107232BE0184B93F821303E
:10B39400012B01D0082324E0FFF72AFE134ABDF84D
:10B3A40004305382114ABDF8043093800F4B0022BD
:10B3B4005A800E4B00229A600C4A9DF8063082F89F
:10B3C4002930FFF71FFE03461A46084B83F8202056
:10B3D400064A9DF8073082F828300220FFF74CFE19
:10B3E4000023184603B05DF804FB00BF5898002002
:10B3F40008B5064B93F82130012B01D1082303E053
:10B404000420FFF739FE0023184608BD5898002091
:10B4140000B589B003468DF8073037F0BDFB0690C0
:10B424001D4B1B681946069837F0BCFB05901B4B57
:10B434001B680493049A059B13440393039BC3F36F
:10B444000E030493039A049BD31ADB0B0293144B4D
:10B454001B681A46029B13440793079B002B08DAC8
:10B464000F4B1B681A46029B9B1A03F10043013BD6
:10B4740007939DF80730002B08D0084A049B1360FB
:10B48400074A079B1360044A069B1360079B1846F0
:10B4940009B05DF804FB00BF8C9800209098002050
:10B4A4008898002008B5094B1B78012B03D1FFF7BE
:10B4B400F1FB034608E0054B1B78002B04D1002068
:10B4C400FFF7A6FF0346FFE7184608BD569800207D
:10B4D40030B583B0019001AB184646F0B9FC034681
:10B4E400094A14461D460FCD0FC40FCD0FC42B6857
:10B4F4002360054B054A5021054846F0EFFF044BF5
:10B50400184603B030BD00BFB89800209043070030
:10B51400DC98002010B586B003901D4B184637F018
:10B5240019FB05901B4B00221A601B4A039B1360F6
:10B5340037F032FB0346194A1360154B00224FF4CF
:10B54400F011184637F0D4FA0590059B0493049B38
:10B55400002B04D0124A5B21049836F083FC114A74
:10B56400114BD31ADB081B0443F003040398FFF7C1
:10B57400AFFF03461946039A039B009313460A46FA
:10B584000A4920463DF0EBFB00BF06B010BD00BFEA
:10B594009498002090980020889800208C9800208F
:10B5A40098430700F8350700D0340700E443070048
:10B5B40010B586B00390324B1B78002B24D10120A8
:10B5C400FFF726FF05902F4B1B68002B03D02D4B54
:10B5D4001B68059898472C4A2C4BD31ADB081B048C
:10B5E40043F003042A4B1B681846FFF771FF034618
:10B5F4001A46274B1B681946254B1B6800930B46BC
:10B60400244920463DF0ABFB1D4B1B78012B34D164
:10B61400FFF748FF05901C4A1C4BD31ADB081B0498
:10B6240043F003040598FFF753FF03461946059AB0
:10B63400059B009313460A46174920463DF08FFBAD
:10B64400104B1B68002B03D00E4B1B6805989847C2
:10B654000D4A0E4BD31ADB081B0443F00304059870
:10B66400FFF736FF03461946059A059B00931346D8
:10B674000A46084920463DF072FB00BF06B010BDE3
:10B6840056980020B4980020F8350700D0340700FD
:10B6940088980020FC4307001044070010B586B0CA
:10B6A4000390029100230593164A039B1360164AE4
:10B6B4000121164837F0ECF90590059B0493049B8F
:10B6C400002B04D0124AA821049836F0CBFB029830
:10B6D400FFF720FF0F4A104BD31ADB081B0443F07B
:10B6E40003040298FFF7F4FE03461946029A029BEC
:10B6F400009313460A46094920463DF030FB00BF3B
:10B7040006B010BDB4980020B5B502006C44070023
:10B7140098430700F8350700D03407004444070075
:10B7240000B585B00190019B002B0AD0074B43F074
:10B7340001030393019B9B010293039B0298984787
:10B7440000E000BF05B05DF804FB00BFC04907007E
:10B7540000B583B00190019B002B0AD04FF47A709E
:10B76400FFF7DEFF019B013B0193019B002BF5D109
:10B7740000E000BF03B05DF804FB82B003468DF81F
:10B7840007304FF080429DF80730C2F8203500BFE3
:10B7940002B0704700B583B003460091ADF806309F
:10B7A400BDF80630009A1946034836F05BFB00BF2B
:10B7B40003B05DF804FB00BFEFBEADDE00B583B09F
:10B7C40003468DF807309DF80730022B2DD1194A16
:10B7D400194BD31ADB081B0443F00303174918461B
:10B7E4003DF08AFA164B1B78042B01D0082B0CD1A0
:10B7F400104A114BD31ADB081B0443F0030311490D
:10B8040018463DF079FA012310E00A4A0A4BD31A8C
:10B81400DB081B0443F003030B4918463DF06CFAA4
:10B824000A4B01221A70002300E00123184603B0DA
:10B834005DF804FBB0350700D0340700604507000D
:10B84400DC2B002090450700C045070050990020DC
:10B8540000B583B0034600918DF807309DF807309A
:10B86400032B05D1A920FFF788FF00203BF024FF1C
:10B8740000BF03B05DF804FB00B583B003468DF848
:10B8840007309DF807300E2B13D10C4A0C4BD31AFA
:10B89400DB081B0443F003000A4B1B685A1C0949CC
:10B8A4000A601A4608493DF035FA012043F016FDB6
:10B8B40000E000BF03B05DF804FB00BFB035070033
:10B8C400D03407005C990020F445070000B593B01C
:10B8D400039003980FF088FD11900398FAF71AFE6D
:10B8E400039B5B78002B00F09380039B5B78022B17
:10B8F40000F28E8004AB24220021184646F021FE7B
:10B90400039B1B78042B00F2858001A252F823F0DC
:10B9140029B90200E3B9020053B902009FB9020039
:10B92400C1B90200039B191D04AB08331622184643
:10B9340046F0DEFD00238DF81430039B1B79FF2BAA
:10B9440001D1842300E004238DF8103058E0039BD8
:10B9540004330E93039B191D04AB083310221846BD
:10B9640046F0C6FD02238DF814308A238DF810307A
:10B974002A4A2B4BD31ADB081B0443F003000E9B0B
:10B984001B781A460E9B5B8819460E9B0433009362
:10B994000B4624493DF0E3F932E0039B04330F9353
:10B9A40004AB08331C220F99184646F0A1FD03236B
:10B9B4008DF814300C238DF8103021E0039B0433F0
:10B9C400109304AB08330A221099184646F090FDF0
:10B9D40004238DF814309B238DF8103010E0039B62
:10B9E40004330D9304AB083306220D99184646F030
:10B9F4007FFD01238DF8143007238DF8103000BF2C
:10BA0400039B5A7804AB1146184600F00DF802E087
:10BA140000BF00E000BF13B05DF804FBB0350700C1
:10BA2400D03407001846070000B583B001900B46D8
:10BA34008DF803309DF80330012B03D101980FF0EA
:10BA4400C5FC02E0019825F0ADFE00BF03B05DF82F
:10BA540004FB00B583B0034600928DF807300B4613
:10BA64008DF806309DF80730012B06D19DF806307D
:10BA7400009918460FF096FC05E09DF806300099F1
:10BA8400184625F0CFFE00BF03B05DF804FB00B5F7
:10BA94008BB06B4624220021184646F052FD262323
:10BAA4008DF800306B46184614F04AFA15F036F853
:10BAB40003468DF8273015F03FF803468DF82630FD
:10BAC4009DF82730184643F0B1FC9DF826301846FF
