:020000022000DC
:106000000000042019620200016202000362020023
:10601000056202000762020009620200000000003F
:106020000000000000000000000000000B62020001
:106030000D620200000000000F6202001162020007
:106040006D860500136202007D8605009DBF050078
:10605000B5BF0500136202000178050071A00500BC
:1060600013620200B9B2050013620200136202005B
:1060700013620200A59C0500136202001362020075
:106080001362020055CE0500136202001362020083
:1060900095CE05001362020021E0040013620200A5
:1060A0001362020013620200136202001362020014
:1060B000B99005001362020000000000000000001B
:1060C00013620200136202001362020061B1050054
:1060D000136202000D830500CD1E0600136202004C
:1060E00013620200E59905008D2105000000000003
:1060F00000000000136202000000000079B10500FA
:10610000000000000000000000000000000000008F
:10611000000000000000000000000000000000007F
:10612000000000000000000000000000000000006F
:10613000000000000000000000000000000000005F
:10614000000000000000000000000000000000004F
:10615000000000000000000000000000000000003F
:10616000000000000000000000000000000000002F
:10617000000000000000000000000000000000001F
:10618000000000000000000000000000000000000F
:1061900000000000000000000000000000000000FF
:1061A00000000000000000000000000000000000EF
:1061B00000000000000000000000000000000000DF
:1061C00000000000000000000000000000000000CF
:1061D00000000000000000000000000000000000BF
:1061E00000000000000000000000000000000000AF
:1061F000000000000000000000000000000000009F
:10620000FEE7FEE7FEE7FEE7FEE7FEE7FEE7FEE766
:10621000FEE7FEE7704700BF1048804710484FF088
:106220000701884385460F4880470F48016841F4BD
:1062300070010160BFF34F8FBFF36F8F00F01CB888
:106240000A480B490B4A884207D0521A05D00378F6
:1062500001300B700131013AF9D17047156202002B
:106260000000042031E3040088ED00E058920600AD
:10627000B82B0020CC2B0020354936480A1A02D012
:10628000072291438D46344934480A1A06D0072222
:10629000914381F30988022282F3148830483149FE
:1062A000314A00F044F831483149324A00F03FF8B1
:1062B00031483249324A00F03AF832483249334ADA
:1062C00000F035F832483349334A00F030F83348AB
:1062D0003349344A00F02BF833483449344A00F04B
:1062E00026F834483449002200F02CF83348344969
:1062F000002200F027F833483349091A082902DB45
:10630000002202604160314A90471F481F4988427D
:1063100005D00268043003B4904703BCF7E70020BF
:106320008646EC4600200021294A9047FEE7884235
:1063300007D0521A05D0037801300B700131013AB1
:10634000F9D17047884202D002700130FAE77047F5
:106350000000042000E003200000042000000420CE
:10636000C8F80600CC2B002084340020D46302003F
:10637000D46302007C910600C8F80600CC2B0020F4
:10638000CC2B00206C9206006C9206006C920600EA
:106390006C9206006C9206006C9206006C920600ED
:1063A0006C920600C8F806008001070084340020C3
:1063B00084340020843400207809012078090120E9
:1063C0007C0901207C0901207C2901204162020016
:0463D000FDB3020017
:1063D40084B003468DF80730084BB3F85630ADF857
:1063E4000E309DF80730002B03D0044B0022A3F895
:1063F4005620BDF80E30184604B07047843400208F
:1064040082B00190019B002B06D0054BB3F85430A9
:10641400DAB2019B1A7100E000BF02B0704700BFFE
:106424008434002084B003460A468DF807301346AE
:106434008DF806301C4BB3F85430ADF80E309DF88F
:106444000730002B10D0184BB3F854301AB29DF813
:106454000630012101FA03F31BB213431BB29AB2B3
:10646400114BA3F8542011E00F4BB3F854301AB277
:106474009DF80630012101FA03F31BB2DB431BB282
:1064840013401BB29AB2084BA3F85420064BB3F83E
:106494005620054BB3F8543013439AB2024BA3F879
:1064A400562000BF04B070478434002000B5A3B068
:1064B400019002AB24220021184641F032FF019BD7
:1064C4001B78042B00F2E18201A252F823F000BFF2
:1064D400E964020079680200056602008F6A02001E
:1064E4000D67020000238DF88730019B04330D9360
:1064F40002AB08330C9323238DF8083000238DF866
:106504000C3002AB184616F0FBF800238DF88630E9
:1065140064E00023ADF884309DF886300D9A5B006A
:1065240013445B88ADF82E309DF88630924A5B00A8
:1065340013445B88ADF82C308F4B1B789DF8862074
:106544009A421CD2BDF92E20BDF92C309A4207DDA7
:10655400BDF82E20BDF82C30D31A9BB21BB20CE030
:10656400BDF82C209DF886300D995B000B44B3F9DF
:1065740002309BB2D31A9BB21BB2ADF884300C9B91
:10658400B3F90030BDF92E209A4206DB0C9BB3F917
:10659400003047F6FF72934218D10C9BB3F90230D6
:1065A400BDF92E209A4205DC0C9BB3F9023013F599
:1065B400004F0BD1BDF984300C9A9288934208DDC8
:1065C4000C9B9B884FF6FF72934202D001238DF8F7
:1065D40087309DF8863001338DF886300D9B1B780B
:1065E4009DF886209A4294D39DF88730002118465E
:1065F400FFF718FF16220D995F4841F069FE45E246
:1066040000238DF88330019B0433169302AB0833C7
:10661400159323238DF8083002238DF80C3002AB38
:10662400184616F06DF800238DF882305CE00023E4
:106634001F939DF88230169A9B0013445B68149351
:106644009DF882304C4A0A339B0013445B681393D1
:10665400169B1B781A469DF8823042FA03F303F026
:106664000103002B3AD0444B93F828301A469DF886
:10667400823042FA03F303F00103002B0BD0149A87
:10668400139B9A4203DD149A139BD31A02E0139AC4
:10669400149BD31A1F93159B1B68149A9A4205DB0B
:1066A400159B1B686FF00042934213D1159B5B68E6
:1066B400149A9A4204DC159B5B68B3F1004F09D12C
:1066C400159B9B681F9A9A4209D9159B9B68B3F145
:1066D400FF3F04D001238DF8833000E000BF9DF814
:1066E400823001338DF882309DF88230022B9ED99E
:1066F4009DF8833002211846FFF794FE1022169964
:106704001E4841F0E5FDC1E100238DF87B30019B7B
:1067140004331A9302AB08331993174BDB8BADF890
:1067240062301A9B5B88ADF86030134B5B8CADF81C
:106734005E301A9BDB88ADF85C3023238DF808307B
:1067440004238DF80C3002AB184615F0D9FF002352
:10675400ADF87830BDF86230002B19D0BDF8622056
:10676400BDF860309A420BD9BDF86220BDF86030A4
:10677400D31A9BB20AE000BF84340020AC3400205A
:10678400BDF86020BDF86230D31A9BB2ADF8783002
:10679400199B1B88BDF860209A4203D2199B1B8861
:1067A400002B17D1199B5B88BDF860209A4205D94C
:1067B400199B5B884FF6FF7293420BD1199B9B8800
:1067C400BDF878209A4208D9199B9B884FF6FF722E
:1067D400934202D001238DF87B300023ADF876304C
:1067E400BDF85E30002B14D0BDF85E20BDF85C30DF
:1067F4009A4206D9BDF85E20BDF85C30D31A9BB22C
:1068040005E0BDF85C20BDF85E30D31A9BB2ADF84C
:106814007630199B1B88BDF85C209A4203D2199BE1
:106824001B88002B17D1199B5B88BDF85C209A420A
:1068340005D9199B5B884FF6FF7293420BD1199BC4
:106844009B88BDF876209A4208D9199B9B884FF6FD
:10685400FF72934202D001238DF87B309DF87B3088
:1068640004211846FFF7DEFD0A221A99894841F0EF
:106874002FFD0BE100238DF87530019B0433129337
:1068840002AB0833119323238DF8083001238DF8CC
:106894000C3002AB184615F033FF0023ADF872300C
:1068A400129B5B88ADF842307B4B1B8BADF84030BC
:1068B400BDF94030002B14D0BDF94020BDF9423061
:1068C4009A4206DDBDF84020BDF84230D31A9BB28F
:1068D40005E0BDF84220BDF84030D31A9BB2ADF8B4
:1068E4007230119BB3F90230BDF942209A4205DAA5
:1068F400119BB3F9023013F5004F1DD1119BB3F96D
:106904000030BDF942209A4206DD119BB3F90030F4
:1069140047F6FF7293420FD1119B9B88BDF87220FA
:106924009A420CD9119B9B884FF6FF72934206D072
:10693400119B9B88002B02D001238DF87530002316
:10694400ADF87030129B1B88ADF83E30524BDB8A99
:10695400ADF83C30BDF83C30002B14D0BDF83C20E1
:10696400BDF83E309A4206D9BDF83C20BDF83E3011
:10697400D31A9BB205E0BDF83E20BDF83C30D31AD3
:106984009BB2ADF87030119B1B89BDF83E209A4232
:1069940003D2119B1B89002B1BD1119BDB88BDF8F3
:1069A4003E209A4205D9119BDB884FF6FF72934231
:1069B4000FD1119B5B89BDF870209A420CD9119BB1
:1069C4005B894FF6FF72934206D0119B5B89002BC3
:1069D40002D001238DF875300023ADF86E30129B80
:1069E4009B88ADF83A302C4B5B8BADF83830BDF852
:1069F4003830002B14D0BDF83820BDF83A309A4214
:106A040006D9BDF83820BDF83A30D31A9BB205E058
:106A1400BDF83A20BDF83830D31A9BB2ADF86E30C9
:106A2400119BDB89BDF83A209A4203D2119BDB8982
:106A3400002B1BD1119B9B89BDF83A209A4205D9A2
:106A4400119B9B894FF6FF7293420FD1119B1B8AB6
:106A5400BDF86E209A420CD9119B1B8A4FF6FF7227
:106A6400934206D0119B1B8A002B02D001238DF880
:106A740075309DF8753001211846FFF7D3FC0622C6
:106A84001299064841F024FC00E000BF23B05DF8F1
:106A940004FB00BFA0340020843400209A3400207A
:106AA400044B1B78002B14BF01230023DBB21846D0
:106AB400704700BF289500200A4B1B78002B04D197
:106AC400094B1B78DBB2002B05D0064B1B78022B3D
:106AD40001D0012300E0002303F00103DBB21846D8
:106AE400704700BF28950020DC54002000B583B017
:106AF40003468DF80730064A9DF80730137036F0C8
:106B040085FA0346024A536000BF03B05DF804FBF4
:106B14002895002000B587B001900091009B03F0F8
:106B24000103002B31D0019B1B68002B0FD1194BA3
:106B340002930023039302AB184631F065FB0490E3
:106B4400049B002B22D0049835F046FC1EE0124B27
:106B54001B78DBB283F00103DBB2002B0AD0019B6C
:106B64001B684FF4805219460C4841F0B1FB0A4BA4
:106B740001221A70019831F047FB0590059B002B08
:106B840004D0059835F028FC00E000BF07B05DF89C
:106B940004FB00BFDC440020DC540020E08400201F
:106BA40000B58BB00390029111461A460B46ADF81E
:106BB40006301346ADF8043024220021039841F036
:106BC400B0FB039B08330693069B00221A70BDF8A2
:106BD40004305B089BB2DAB2069B5A70BDF83030C1
:106BE4005B089BB2DAB2069B9A70039B03221A716C
:106BF400BDF83420BDF806309A42C0F09380BDF849
:106C04003430002B00F08E80BDF806300C2B00F2DF
:106C14008980BDF80630002B00F08480BDF8042084
:106C2400BDF830309A427DD2BDF83020BDF8043032
:106C3400D31AADF81630BDF81620BDF80630B2FBF5
:106C4400F3F3ADF82030BDF80630BDF8202003FB87
:106C540002F2BDF816309A4204DABDF8203001334E
:106C6400ADF82030BDF80430ADF826300023ADF87F
:106C7400243050E04FF0000307930023ADF8223096
:106C84001CE0BDF82620BDF830309A421DD2BDF874
:106C940026309B00029A1344D3ED007A9DED077AC7
:106CA40077EE277ACDED077ABDF826300133ADF8BB
:106CB4002630BDF822300133ADF82230BDF8222051
:106CC400BDF820309A42DCD300E000BFDDED077A46
:106CD4009FED167AF4EEC77AF1EE10FA02DD4FF664
:106CE400FF7106E0DDED077AFCEEE77A17EE903AE5
:106CF40099B2BDF82430069A5B0013440A469A8080
:106D0400069B1B780133DAB2069B1A70BDF8243057
:106D14000133ADF82430BDF82420BDF806309A4282
:106D2400A8D300E000BF0BB05DF804FB00FF7F4771
:106D340000B585B0774B1B78042B00F2E38001A2E9
:106D440052F823F0096F02005D6D0200EB6D020042
:106D5400E36E0200EB6E02006F4B0393032005F019
:106D6400D7FB034683F00103DBB2002B0CD00321D5
:106D7400012005F011FC15F076FB684B0B221A700C
:106D8400664815F0BDFCBFE03AF0A2F90346022BB9
:106D94000ED03AF0A7F9039B1B78614918463AF0E4
:106DA40013FA4FF480615F483AF0E8F90290ABE0DF
:106DB400039B1878039B93F90210039B5A78039B57
:106DC4009B793AF009FC0346002B00F09D803BF0D0
:106DD4008FF80220FFF78AFE4E4B00221A81524B95
:106DE40000221A7090E0504B1B78DBB2002B5CD071
:106DF400484B1B899BB201339AB2464B1A81454BCF
:106E04001B899AB2434B5B899A420ED2414B5B89F0
:106E1400002B0AD03F4B1B7B83F00103DBB2002B1A
:106E240003D0414B00221A7071E04FF480623F4955
:106E34003F483AF0ABFF012300223D493D483FF073
:106E4400CFFB4FF480623C4939483FF043FC4FF498
:106E5400806139483AF0EFFF374B4FF000021A6077
:106E64002E4BDB799AB22D4B1B7A9BB25B0099B205
:106E74002A4B5B7A9BB25B009BB24FF4007001908B
:106E840000930B462C492D48FFF78AFE214B1B69C2
:106E9400002B07D01F4B1A7D284B5A711D4B1B69C1
:106EA40027489847204B00221A701A4B1B899AB224
:106EB400184B5B899A4229D3164B1B7B83F0010341
:106EC400DBB2002B22D03AF078F93AF037F93BF0F4
:106ED4001CF815F0C8FA0320FFF708FE16E004209A
:106EE400FFF704FE13E0032005F012FB0346002B1A
:106EF40004D00321002005F04FFB08E00020FFF739
:106F0400F5FD04E000BF02E000BF00E000BF05B0F3
:106F14005DF804FB289500200895002004950020C6
:106F2400196B0200DC340020DC540020E0840020D3
:106F3400E064002080C90600E0540020E0940020B2
:106F4400E494002000B583B00190019B002B01D193
:106F540007230DE020220021019841F0E2F92022CC
:106F64000549019841F0B4F9044B03221A71002336
:106F7400184603B05DF804FBE4940020E09400207C
:106F840000B583B003460A468DF8073013468DF8E2
:106F940006309DF80730002B0ED00E4B1B78002BCB
:106FA40008D10C4A9DF8063013750120FFF79EFDA9
:106FB40000230BE0082309E0064B1B78002B04D0C8
:106FC4000420FFF793FD002300E00823184603B0D4
:106FD4005DF804FB2895002000B583B001900020E3
:106FE400FFF784FD064B00221A73054A019B1361C7
:106FF400034B02225A8100BF03B05DF804FB00BFBB
:107004002895002082B00190019B1B781B021AB2C4
:10701400019B01331B781BB213431BB29BB218466E
:1070240002B0704782B00190019B1B781A06019B45
:1070340001331B781B041A43019B02331B781B0288
:107044001343019A033212781343184602B070476F
:1070540082B003460091ADF80630BDF806301B0A35
:107064009BB2DAB2009B1A70009B0133BDF8062074
:10707400D2B21A700223184602B0704782B0034697
:1070840000918DF80730009B9DF807201A700123AA
:10709400184602B0704784B001900091019B03939D
:1070A400039B1ABA009B1A600423184604B0704765
:1070B40082B001900091019B1B0CDAB2009B1A7004
:1070C400019B1A0A009B0133D2B21A70009B02334F
:1070D400019AD2B21A700323184602B07047000016
:1070E40086B00292019303468DF80F300B468DF85B
:1070F4000E30092305939DF80F30A82B00F28982E6
:1071040001A252F823F000BFB1730200F37402002D
:10711400F3740200F3740200F37402001D7602009B
:1071240017760200F374020017760200F37402006B
:10713400F3740200F3740200F3740200F3740200A7
:10714400F37402001D7602001D7602001776020019
:1071540017760200F3740200F3740200F374020061
:10716400F3740200F3740200177602001D76020025
:107174001D760200F37402001D760200F37402000F
:10718400F3740200F37402000F75020041740200EC
:10719400F374020041740200F3740200F3740200F9
:1071A400F3740200F3740200F3740200F374020037
:1071B400F3740200F37402001776020017760200DB
:1071C400F3740200177602001776020017760200A5
:1071D400177602001776020017760200177602006F
:1071E400177602001776020017760200177602005F
:1071F400177602001776020017760200177602004F
:10720400177602001776020017760200177602003E
:10721400177602001776020017760200177602002E
:10722400177602001776020017760200177602001E
:10723400177602001776020017760200177602000E
:1072440017760200177602001776020017760200FE
:1072540017760200177602001776020017760200EE
:1072640017760200177602001776020017760200DE
:1072740017760200177602001776020017760200CE
:1072840017760200177602001776020017760200BE
:1072940017760200177602001776020017760200AE
:1072A400177602001776020017760200177602009E
:1072B400177602001776020017760200177602008E
:1072C400177602001776020017760200177602007E
:1072D400177602001776020017760200177602006E
:1072E400177602001776020017760200177602005E
:1072F400177602001776020017760200177602004E
:10730400177602001776020017760200177602003D
:1073140017760200D173020041740200177602004E
:1073240017760200F374020017760200ED73020070
:10733400ED7302002574020017760200177602002E
:1073440017760200177602001776020041740200D5
:107354006175020041740200417402002B75020041
:107364002B750200477502005D7402001776020057
:1073740017760200F374020017760200ED73020020
:10738400A97402001776020017760200177602002D
:10739400177602007B75020017760200097402005A
:1073A40041740200417402000F7502009DF80E3012
:1073B400052B08D9019B1B780633DAB2019B1A709E
:1073C4000023059341E1092305933EE19DF80E3026
:1073D400012B40F22381019B1B780233DAB2019B1B
:1073E4001A700023059319E19DF80E30022B40F228
:1073F4001781019B1B780333DAB2019B1A700023B7
:1074040005930DE19DF80E30042B40F20B81019B96
:107414001B780533DAB2019B1A700023059301E14E
:107424009DF80E30052B40F2FF80019B1B7806333C
:10743400DAB2019B1A7000230593F5E09DF80E3033
:10744400012B40F2F380019B1B780233DAB2019BDB
:107454001A7000230593E9E000238DF811309DF89C
:107464000E30012B40F2E480019B1B780233DAB228
:10747400019B1A70029B5B788DF811309DF81130D6
:107484005A1C9DF80E309A4201DB0923DEE0019B71
:107494001A789DF811301344DAB2019B1A70002354
:1074A4000593C5E000238DF812309DF80E30012BB2
:1074B40040F2C080029B5B788DF812309DF80E205C
:1074C4009DF812309A4203D39DF81230062B01D056
:1074D4000923BBE0019B1A789DF812301344DBB2F8
:1074E4000233DAB2019B1A7000230593A2E09DF8DF
:1074F4000E30002B00F0A080019B1B780133DAB220
:10750400019B1A700023059396E09DF80E30042B1E
:1075140040F29480019B1B780533DAB2019B1A7008
:10752400002305938AE09DF80E30082B40F28880F2
:10753400019B1B780933DAB2019B1A70002305936F
:107544007EE09DF80E30102B7CD9019B1B78113303
:10755400DAB2019B1A700023059373E09DF80E3094
:10756400072B71D9019B1B780833DAB2019B1A707F
:107574000023059368E0029B5B788DF813309DF837
:107584000E30012B05D9019B1B780233DAB2019B23
:107594001A709DF81330042B33D801A252F823F04B
:1075A400B9750200ED750200D3750200077602007A
:1075B400B97502009DF80E30072B24D9019B1B7866
:1075C4000633DAB2019B1A70002305931BE09DF881
:1075D4000E300D2B19D9019B1B780C33DAB2019BA9
:1075E4001A700023059310E09DF80E30132B0ED96A
:1075F400019B1B781233DAB2019B1A7000230593A6
:1076040005E0072322E000BF1FE000BF1DE000BF2C
:107614001BE00523059318E000BF16E000BF14E04B
:1076240000BF12E000BF10E000BF0EE000BF0CE09E
:1076340000BF0AE000BF08E000BF06E000BF04E0AE
:1076440000BF02E000BF00E000BF059B184606B083
:10765400704700BF00B593B00390029100931346A6
:107664008DF807300623119300238DF81330039B04
:10767400002B06D0029B002B03D09DF80730002B73
:1076840001D10723D7E324220021039840F049FEC7
:10769400029B1A78039B1A70039B18780DF113034D
:1076A4009DF80710029AFFF71BFD0F900F9B002B0C
:1076B40001D00F9BBFE3009B1A789DF8133013444D
:1076C400DAB2009B1A70039B1B78A82B00F2AF83DD
:1076D40001A252F823F000BF8179020085790200EB
:1076E40085790200AF79020085790200377E0200B5
:1076F400337E020085790200337E02008579020020
:107704008579020085790200857902008579020075
:1077140085790200377E0200377E0200337E020044
:10772400337E0200857902008579020085790200A2
:107734008579020085790200337E0200377E0200DB
:10774400377E020085790200377E020085790200C7
:10775400857902008579020099790200AF790200E7
:1077640085790200D77D02008579020085790200BF
:107774008579020085790200857902008579020005
:107784008579020085790200337E0200337E02008F
:1077940085790200337E0200337E0200337E0200CC
:1077A400337E0200337E0200337E0200337E020009
:1077B400337E0200337E0200337E0200337E0200F9
:1077C400337E0200337E0200337E0200337E0200E9
:1077D400337E0200337E0200337E0200337E0200D9
:1077E400337E0200337E0200337E0200337E0200C9
:1077F400337E0200337E0200337E0200337E0200B9
:10780400337E0200337E0200337E0200337E0200A8
:10781400337E0200337E0200337E0200337E020098
:10782400337E0200337E0200337E0200337E020088
:10783400337E0200337E0200337E0200337E020078
:10784400337E0200337E0200337E0200337E020068
:10785400337E0200337E0200337E0200337E020058
:10786400337E0200337E0200337E0200337E020048
:10787400337E0200337E0200337E0200337E020038
:10788400337E0200337E0200337E0200337E020028
:10789400337E0200337E0200337E0200337E020018
:1078A400337E0200337E0200337E0200337E020008
:1078B400337E0200337E0200337E0200337E0200F8
:1078C400337E0200337E0200337E0200337E0200E8
:1078D400337E0200337E0200337E0200337E0200D8
:1078E400337E0200137B02008B790200337E020098
:1078F400337E020085790200337E02003B7B020066
:10790400217B0200557B0200337E0200337E02009D
:10791400337E0200337E0200337E0200337C020099
:10792400BB7B0200F57D0200AF7902001F7A0200E2
:107934001F7A02001F7A0200C3790200337E02001C
:10794400337E020085790200337E0200DD7A020074
:10795400737A0200337E0200337E0200337E02001B
:10796400337E0200477C0200337E02001B7E02004D
:10797400F57D0200E77D02009979020006235AE2B0
:107984000023119356E2029B5A78039B1A72002338
:1079940011934FE2029B01331846FFF743FB024663
:1079A400039B5A600023119344E2039B0433059321
:1079B400029B5A78059B1A70002311933AE2039BA9
:1079C40004330B93029B5A780B9B1A700B9B1B7806
:1079D4005A1C9DF807309A4201DB09232BE200234D
:1079E4008DF8433010E09DF843300233029A1A4474
:1079F4009DF8433011780B9A13440A465A709DF847
:107A0400433001338DF843300B9B1B789DF84320A2
:107A14009A42E8D3002311930CE2039B04330A93A4
:107A2400039B1B78972B01D1102200E008220A9BAC
:107A34001A7000238DF8423010E09DF84230013373
:107A4400029A1A449DF8423011780A9A13440A465D
:107A54005A709DF8423001338DF842300A9B1B78EE
:107A64009DF842209A42E8D300231193E2E1039B5C
:107A740004330C93029B5A780C9B1A7000238DF8E4
:107A8400413020E09DF841300233029A1A449DF8B7
:107A9400413011780C9A13440A465A709DF84130CB
:107AA4000C9A13445B782F2B06D99DF841300C9A1D
:107AB40013445B78392B01D90B23BCE19DF8413089
:107AC40001338DF841300C9B1B789DF841209A427C
:107AD400D8D300231193ADE1029B5A78039B1A710A
:107AE400029B02331846FFF78DFA03461A46039B9E
:107AF400DA80039BDB88002B04D0039BDB88B3F57F
:107B0400B46F01D9072396E10023119392E1029BFC
:107B14005A78039B1A71002311938BE1029B5A78C4
:107B2400039B1A72029B02331B789AB2039B5A81FD
:107B3400002311937EE1029B5A78039B1A71029BE6
:107B440002331B789AB2039BDA800023119371E10C
:107B5400039B04330693029B5A78069B1A70029B7C
:107B640002331B7803F07F03DAB2069B5A70029B40
:107B740002331B785BB2DB115BB203F00103002B11
:107B840014BF01230023DAB2069B9A71029B0333CC
:107B94001B785AB2069B9A70029B1A79069BDA707C
:107BA400029B5A79069B1A71029B9A79069B5A7119
:107BB400002311933EE1039B04330893029B5A78FC
:107BC400089B1A70029B9A78089B5A70029B033395
:107BD4001846FFF717FA03461A46089B9A80029B39
:107BE40005331846FFF70EFA03461A46089B5A80D7
:107BF400029B07331B789AB2089BDA80089B1B7898
:107C0400002B0FD0089B5B78002B0BD0089B9B8824
:107C1400002B07D0089B5B88002B03D0089BDB88D4
:107C2400002B01D1072306E10023119302E1039BFA
:107C340004330793029B5A78079B1A70002311930D
:107C4400F8E0039B04330E93029B01331A780E9BD6
:107C54001A700E9B1B78042B00F2B68001A252F816
:107C640023F000BF7D7C0200237D0200ED7C020036
:107C7400CD7D0200B57C0200029B02331846FFF75B
:107C8400C1F903461AB20E9B9A80029B043318462C
:107C9400FFF7B8F903461AB20E9BDA80029B06334B
:107CA4001846FFF7AFF903461A460E9B1A818DE07A
:107CB400029B02331846FFF7A5F903461A460E9BAA
:107CC400DA80029B04331846FFF79CF903461A46F0
:107CD4000E9B9A80029B06331846FFF793F90346DE
:107CE4001A460E9B1A8171E0029B02331846FFF775
:107CF40099F903461A460E9B5A60029B06331846AE
:107D0400FFF790F903461A460E9B9A60029B0A33CA
:107D14001846FFF787F902460E9BDA6056E0039B8C
:107D240008330D93029B02331846FFF76BF90346A1
:107D34001AB20D9B1A80029B04331846FFF762F9AE
:107D440003461AB20D9B5A80029B06331846FFF76E
:107D540059F903461A460D9B9A80029B083318462C
:107D6400FFF750F903461A460D9BDA80029B0A334B
:107D74001846FFF747F903461A460D9B1A81029BE2
:107D84000C331846FFF73EF903461A460D9B5A81F9
:107D9400029B0E331846FFF735F903461A460D9B2E
:107DA4009A81029B10331846FFF72CF903461A46B2
:107DB4000D9BDA81029B12331846FFF723F9034621
:107DC4001A460D9B1A8201E0072334E00023119325
:107DD40030E0029B01331A78039B1A71002311933C
:107DE40028E0029B5A78039B1A710023119321E027
:107DF400029B5B788DF827309DF8273003F0010350
:107E0400002B0CBF01230023DBB21A46039B1A711B
:107E1400002311930EE0029B01331846FFF702F989
:107E240003461A46039B5A600023119302E005237C
:107E340001E000BF119B184613B05DF804FB00BFBE
:107E440000B5A3B002910192009303468DF80F3060
:107E54000023049305AB2E220021184640F061FA5A
:107E640000238DF88730029B002B05D0019B002B4B
:107E740002D0009B002B02D1072300F09ABE9DF88C
:107E84000F30002B06D0029B1B788DF81030012395
:107E94008DF88730029B1B78A82B00F2678601A21D
:107EA40052F823F04D81020091810200FB8102000F
:107EB4006582020029830200758B0200718B020027
:107EC400698A0200718B020055840200A1830200BA
:107ED400BB840200AD850200758B02002F84020072
:107EE400758B0200758B0200718B0200718B02008E
:107EF400F78A02005B8602007D8602007D8602000E
:107F04007D860200718B0200758B0200758B020066
:107F1400F3860200758B020089820200B586020096
:107F24005B870200718B0200718B0200998402004E
:107F34007F870200418A0200298B0200F78A02002F
:107F4400D58A02009984020099840200758B02008C
:107F540099840200718B0200718B02004D8B020028
:107F6400718B0200718B0200718B0200718B020015
:107F7400718B0200718B0200718B0200718B020005
:107F8400718B0200718B0200718B0200718B0200F5
:107F9400718B0200718B0200718B0200718B0200E5
:107FA400718B0200718B0200718B0200718B0200D5
:107FB400718B0200718B0200718B0200718B0200C5
:107FC400718B0200718B0200718B0200718B0200B5
:107FD400718B0200718B0200718B0200718B0200A5
:107FE400718B0200718B0200718B0200718B020095
:107FF400718B0200718B0200718B0200718B020085
:10800400718B0200718B0200718B0200718B020074
:10801400718B0200718B0200718B0200718B020064
:10802400718B0200718B0200718B0200718B020054
:10803400718B0200718B0200718B0200718B020044
:10804400718B0200718B0200718B0200718B020034
:10805400718B0200718B0200718B0200718B020024
:10806400718B0200718B0200718B0200718B020014
:10807400718B0200718B0200718B0200718B020004
:10808400718B0200718B0200718B0200718B0200F4
:10809400718B0200718B0200718B0200718B0200E4
:1080A400718B0200718B0200718B0200718B0200D4
:1080B400718B0200CD820200718B0200718B020071
:1080C400718B0200718B020055840200A1830200AF
:1080D400BB840200718B0200718B0200718B020061
:1080E400718B0200718B0200718B0200718B020094
:1080F400F78A0200718B0200718B0200718B0200FF
:10810400718B0200718B0200718B0200718B020073
:10811400F3860200718B0200718B0200718B0200E6
:108124005B870200718B0200718B0200718B02006D
:10813400718B0200718B0200758B0200F78A0200BA
:10814400D58A0200758B0200029B043311939DF8BB
:108154008730119A127822A90B4403F8782C9DF8E1
:10816400873001338DF88730119B58689DF887302C
:1081740004AA13441946FEF78EFF03461A469DF8D7
:10818400873013448DF8873000F0F3BC029B04332E
:108194001293129B18889DF8873004AA1344194639
:1081A400FEF756FF03461A469DF8873013448DF8B0
:1081B4008730129B58889DF8873004AA13441946C7
:1081C400FEF746FF03461A469DF8873013448DF8A0
:1081D4008730129B98889DF8873004AA1344194667
:1081E400FEF736FF03461A469DF8873013448DF890
:1081F400873000F0BEBC029B04331393139B188892
:108204009DF8873004AA13441946FEF721FF03465C
:108214001A469DF8873013448DF88730139B58888D
:108224009DF8873004AA13441946FEF711FF03464C
:108234001A469DF8873013448DF88730139B98684D
:108244009DF8873004AA13441946FEF724FF034619
:108254001A469DF8873013448DF8873000F089BCA6
:10826400029B18799DF8873004AA13441946FEF737
:1082740005FF03461A469DF8873013448DF887306E
:1082840000F077BC029B18799DF8873004AA134448
:108294001946FEF7F3FE03461A469DF88730134449
:1082A4008DF88730029BD8889DF8873004AA134440
:1082B4001946FEF7CDFE03461A469DF8873013444F
:1082C4008DF8873000F055BC00238DF88230029B76
:1082D40008331F931F9B18789DF8873004AA134412
:1082E4001946FEF7CBFE03461A469DF88730134421
:1082F4008DF887301F9B1B781F9A5B001344B3F9DA
:10830400023098B29DF8873004AA13441946FEF748
:108314009FFE03461A469DF8873013448DF8873034
:1083240000F027BC00238DF88630029B0833149399
:10833400149B18789DF8873004AA13441946FEF755
:108344009DFE03461A469DF8873013448DF8873006
:1083540000238DF886301AE09DF88630149A5B006D
:108364001344B3F9023098B29DF8873004AA134439
:108374001946FEF76DFE03461A469DF887301344EE
:108384008DF887309DF8863001338DF88630149B44
:108394001B789DF886209A42DED3EAE300238DF809
:1083A4008430029B08331693169B18789DF8873007
:1083B40004AA13441946FEF761FE03461A469DF8C3
:1083C400873013448DF8873000238DF8853027E0FB
:1083D400169B1B781A469DF8853042FA03F303F086
:1083E4000103002B17D09DF884305A1C8DF884208B
:1083F400169A9B0013445B6818469DF8873004AABC
:1084040013441946FEF754FE03461A469DF8873076
:1084140013448DF887309DF8853001338DF885300D
:108424009DF88530022BD3D9A3E300238DF86B305C
:108434009DF8873004AAD018029B043309221946F8
:108444003FF046FF9DF8873009338DF8873090E37D
:10845400029B18799DF8873004AA13441946FEF745
:108464000DFE03461A469DF8873013448DF8873075
:10847400029BDB88D8B29DF8873004AA13441946BE
:10848400FEF7FCFD03461A469DF8873013448DF829
:1084940087306EE3029B58689DF8873004AA134422
:1084A4001946FEF7F8FD03461A469DF88730134433
:1084B4008DF887305DE3029B04331893189B5B7837
:1084C4005BB203F07F035BB2189A9279002A02D060
:1084D4006FF07F0200E0002213435BB28DF85F303F
:1084E400189B18789DF8873004AA13441946FEF7A0
:1084F400C5FD03461A469DF8873013448DF887302E
:108504009DF8873004AA1A449DF85F301146184636
:10851400FEF7B4FD03461A469DF8873013448DF8E0
:108524008730189B93F90230D8B29DF8873004AA9B
:1085340013441946FEF7A2FD03461A469DF88730F8
:1085440013448DF88730189BD8789DF8873004AA97
:1085540013441946FEF792FD03461A469DF88730E8
:1085640013448DF88730189B18799DF8873004AA36
:1085740013441946FEF782FD03461A469DF88730D8
:1085840013448DF88730189B58799DF8873004AAD6
:1085940013441946FEF772FD03461A469DF88730C8
:1085A40013448DF88730E4E2029B08331993199B36
:1085B40018789DF8873004AA13441946FEF75EFD27
:1085C40003461A469DF8873013448DF88730199B6B
:1085D40058789DF8873004AA13441946FEF74EFDD7
:1085E40003461A469DF8873013448DF88730199B4B
:1085F40098789DF8873004AA13441946FEF73EFD87
:1086040003461A469DF8873013448DF887300023BB
:108614008DF8833018E09DF88330199A5B00134479
:1086240098889DF8873004AA13441946FEF710FD74
:1086340003461A469DF8873013448DF887309DF819
:10864400833001338DF88330199B1B789DF8832088
:108654009A42E0D38DE2029B18799DF8873004AAF0
:1086640013441946FEF70AFD03461A469DF887305F
:1086740013448DF887307CE2029B1B78172B01D1C1
:10868400102200E00822029B1A719DF8873004AA88
:10869400D018029B591D029B1B791A463FF018FE05
:1086A400029B1A799DF8873013448DF8873060E275
:1086B4009DF887305A1C8DF887201946029B1A7939
:1086C40022AB0B4403F8782C9DF8873004AAD01809
:1086D400029B591D029B1B791A463FF0F9FD029B30
:1086E4001A799DF8873013448DF8873041E2029B54
:1086F40008331B931B9B58889DF8873004AA1344A6
:108704001946FEF7A5FC03461A469DF88730134424
:108714008DF887301B9BD8889DF8873004AA1344B2
:108724001946FEF795FC03461A469DF88730134414
:108734008DF887301B9B187A9DF8873004AA134460
:108744001946FEF79BFC03461A469DF887301344EE
:108754008DF887300DE2029BDB8818469DF8873040
:1087640004AA13441946FEF796FC03461A469DF8DC
:10877400873013448DF88730FBE1029B04331D934B
:108784001D9B18789DF8873004AA13441946FEF7F8
:1087940075FC03461A469DF8873013448DF88730DC
:1087A4001D9B1B78042B00F23E8101A252F823F09A
:1087B400C9870200FB880200958802002B8A020008
:1087C400338802001D9BB3F9043098B29DF88730BA
:1087D40004AA13441946FEF73BFC03461A469DF8C7
:1087E400873013448DF887301D9BB3F9063098B257
:1087F4009DF8873004AA13441946FEF729FC034662
:108804001A469DF8873013448DF887301D9B1889CC
:108814009DF8873004AA13441946FEF719FC034651
:108824001A469DF8873013448DF8873005E11D9B67
:10883400D8889DF8873004AA13441946FEF708FC2B
:1088440003461A469DF8873013448DF887301D9BE4
:1088540098889DF8873004AA13441946FEF7F8FB5C
:1088640003461A469DF8873013448DF887301D9BC4
:1088740018899DF8873004AA13441946FEF7E8FBCB
:1088840003461A469DF8873013448DF88730D4E0A8
:108894001D9B5B6818469DF8873004AA134419464B
:1088A400FEF7F9FB03461A469DF8873013448DF80A
:1088B40087301D9B9B6818469DF8873004AA134493
:1088C4001946FEF7E8FB03461A469DF88730134421
:1088D4008DF887301D9BD8689DF8873004AA13440F
:1088E4001946FEF7D8FB03461A469DF88730134411
:1088F4008DF88730A1E0029B08331C931C9BB3F9CD
:10890400003098B29DF8873004AA13441946FEF744
:108914009FFB03461A469DF8873013448DF8873031
:108924001C9BB3F9023098B29DF8873004AA134413
:108934001946FEF78DFB03461A469DF8873013440B
:108944008DF887301C9B98889DF8873004AA1344BF
:108954001946FEF77DFB03461A469DF887301344FB
:108964008DF887301C9BD8889DF8873004AA13445F
:108974001946FEF76DFB03461A469DF887301344EB
:108984008DF887301C9B18899DF8873004AA1344FE
:108994001946FEF75DFB03461A469DF887301344DB
:1089A4008DF887301C9B58899DF8873004AA13449E
:1089B4001946FEF74DFB03461A469DF887301344CB
:1089C4008DF887301C9B98899DF8873004AA13443E
:1089D4001946FEF73DFB03461A469DF887301344BB
:1089E4008DF887301C9BD8899DF8873004AA1344DE
:1089F4001946FEF72DFB03461A469DF887301344AB
:108A04008DF887301C9B188A9DF8873004AA13447C
:108A14001946FEF71DFB03461A469DF8873013449A
:108A24008DF8873009E0009B1A789DF8873013444D
:108A3400DAB2009B1A700723BBE09AE0029B04336E
:108A44001E931E9B18789DF8873004AA1344194678
:108A5400FEF714FB03461A469DF8873013448DF83D
:108A6400873086E0029B08331593159BB3F90230D7
:108A740098B29DF8873004AA13441946FEF7E8FA21
:108A840003461A469DF8873013448DF88730159BAA
:108A940018889DF8873004AA13441946FEF7D8FABB
:108AA40003461A469DF8873013448DF88730159B8A
:108AB40098889DF8873004AA13441946FEF7C8FA2B
:108AC40003461A469DF8873013448DF8873050E0EA
:108AD400029B18799DF8873004AA13441946FEF7BF
:108AE400CDFA03461A469DF8873013448DF8873033
:108AF4003FE0029B1B7903F00103002B0CBF012311
:108B04000023DBB218469DF8873004AA13441946A3
:108B1400FEF7B4FA03461A469DF8873013448DF8DD
:108B2400873026E0029B5B6818469DF8873004AACC
:108B340013441946FEF7AFFA03461A469DF88730E8
:108B440013448DF8873014E0029B5B6818469DF847
:108B5400873004AA13441946FEF79DFA03461A46C1
:108B64009DF8873013448DF8873002E0052320E018
:108B740000BF009B1B781A469DF887301A449DF865
:108B840090309A4201DB092313E0009B1B781A46BC
:108B9400019B13449DF8872004A918463FF098FBD5
:108BA400009B1A789DF887301344DAB2009B1A7040
:108BB4000023184623B05DF804FB00BF00B585B060
:108BC4000190019B002B0AD0074B43F00103039350
:108BD400019B9B010293039B0298984700E000BF0E
:108BE40005B05DF804FB00BF7092060000B583B0C9
:108BF4000190019B002B0AD04FF47A70FFF7DEFF3F
:108C0400019B013B0193019B002BF5D100E000BFC8
:108C140003B05DF804FB0000044B1B78002B14BF69
:108C240001230023DBB21846704700BFF4950020EF
:108C3400F0B585B00190144B0093019B00221C46B3
:108C440015464FF000024FF00003EB0343EA544390
:108C5400E20312F5FA7643F100074FF47A724FF00B
:108C64000003304639463EF01FFF02460B461346CA
:108C740000221946009834F075F90390034B002242
:108C84001A7400BF05B0F0BDD4950020F4950020FF
:108C940000B583B003468DF80730064A9DF80730C7
:108CA400137034F0B3F90346024AD36000BF03B033
:108CB4005DF804FBF495002000B585B000921A46D7
:108CC40003468DF807300B468DF806301346ADF891
:108CD400043000230393BDF804309DF806109DF87A
:108CE4000700009A3BF0AAFB0390039B002B02D0E1
:108CF4006FF0030300E00023184605B05DF804FBA1
:108D040000B585B000921A4603468DF807300B462D
:108D14008DF806301346ADF8043000230393BDF8F4
:108D240004309DF806109DF80700009A3BF048FBBC
:108D34000390039B002B02D06FF0030300E0002399
:108D4400184605B05DF804FB00B585B0134B01224D
:108D540083F83A20114B052283F838200F4B022266
:108D640083F839200D4B042283F83B200F238DF820
:108D74000F309DF80F300949184639F0DFF90346E2
:108D84008DF80E309DF90E30002B01D0032300E046
:108D94000023184605B05DF804FB00BF4095002091
:108DA40000B585B06A4B1B78032B00F2C98001A281
:108DB40052F823F0458F0200C98D02008F8E020005
:108DC400238F0200634B0193012003F0A1FB0346B0
:108DD40083F00103DBB2002B0AD00121012003F050
:108DE400DBFB5D4B06221A705B4813F089FCACE098
:108DF4003BF056FB0346022B02D03BF05BFBA4E0A6
:108E0400564B76225A70554B01229A70534B544A52
:108E14005A60524B534A9A60504B534ADA604F4857
:108E240039F07CF803468DF80B309DF90B3013F1C3
:108E3400020F03D10320FFF72BFF86E09DF90B30CF
:108E4400002B7FD1FFF780FF03468DF80B309DF98F
:108E54000B30002B03D00320FFF71AFF75E03F49C6
:108E6400012039F0CAF903468DF80B309DF90B3017
:108E7400002B03D00320FFF70BFF66E02820FFF749
:108E8400D7FE0220FFF704FF5FE0314BDB68184692
:108E940034F0CFF803902E4B1B7C83F00103DBB23C
:108EA400002B03D0039BB3F57A7F4DD32B4A2F4974
:108EB400072039F055FA03468DF80B309DF90B3035
:108EC400002B03D00320FFF7E3FE3EE0274B5B6853
:108ED4001AB2274B5A81254B9B68642202FB03F389
:108EE4009B0A9AB2224B1A81204B1B68214AA2FB8F
:108EF40003235B0B9AB21E4B9A81154B5B68002BC4
:108F04000AD01B4B01221A71114B1A7A184B5A7151
:108F14000F4B5B68184898470320FFF7B9FE012000
:108F240003F0F6FA0346002B06D03BF0EFFA0121DA
:108F3400002003F031FB08E00020FFF7A9FE04E065
:108F440000BF02E000BF00E000BF05B05DF804FB15
:108F5400F4950020B4950020B095002040950020A1
:108F6400BD8C0200058D0200F18B0200809500206B
:108F74008C9500205917B7D19095002000B583B087
:108F84000190019B002B01D107230DE02022002139
:108F940001983FF0C6F9064B01221A7120220549B7
:108FA40001983FF095F90023184603B05DF804FBDF
:108FB4008C9500209095002000B583B003460A46A6
:108FC4008DF8073013468DF806309DF80730002BD6
:108FD4000ED00E4B1B78002B08D10C4A9DF806309E
:108FE40013720120FFF754FE00230BE0082309E06D
:108FF400064B1B78002B04D00320FFF749FE002307
:1090040000E00823184603B05DF804FBF495002043
:1090140082B00190044B1B78022B02D1024B012237
:109024001A7400BF02B07047F495002000B585B0F3
:1090340001900020FFF72CFE0A4A019B53600A4A64
:1090440000210A4833F05EFF0390039B0293029BC6
:10905400002B02D0029833F0BFF900BF05B05DF8D1
:1090640004FB00BFF4950020159002006C920600EA
:1090740000B585B00190019B002B0AD0074B43F04B
:1090840001030393019B9B010293039B029898475E
:1090940000E000BF05B05DF804FB00BFC09206000D
:1090A40000B583B00190019B002B0AD04FF47A7075
:1090B400FFF7DEFF019B013B0193019B002BF5D1E0
:1090C40000E000BF03B05DF804FB000084B0034679
:1090D4008DF807309DF807305B1003F00703013B60
:1090E400032B1BD801A252F823F000BF0191020008
:1090F4000991020011910200199102001F238DF8B9
:109104000F300FE03F238DF80F300BE05F238DF815
:109114000F3007E07F238DF80F3003E000238DF834
:109124000F3000BF9DF80F30184604B0704700BFE1
:1091340084B003468DF8073000238DF80F309DF876
:1091440007307F2B16D07F2B18DC5F2B0ED05F2BC4
:1091540014DC1F2B02D03F2B04D00FE001238DF829
:109164000F300FE002238DF80F300BE003238DF84E
:109174000F3007E004238DF80F3003E000238DF84F
:109184000F3000BF9DF80F305B00DBB2184604B00F
:109194007047000010B584B0034600918DF8073085
:1091A400009B002B41D02022002100983FF0B9F809
:1091B400009B00221A70009B9DF807205A701C4BDC
:1091C400DA78009B1A710023ADF80E3025E0BDF863
:1091D4000E20174913469B0013449B000B4418337D
:1091E4001B6818463EF0DAF94FF00002114B3DF0CF
:1091F400C1FF02460B46BDF80E40104619463EF02C
:1092040071F9034619B2009A630013440A46DA80DE
:10921400BDF80E300133ADF80E30054BDB789BB250
:10922400BDF80E209A42D2D300E000BF04B010BDB6
:10923400289600200000594000B583B001900199A0
:109244000020FFF7A7FF00BF03B05DF804FB000098
:1092540084B003468DF807309DF80730092B18D9E0
:1092640000238DF80F300FE09DF80F200F491346AF
:109274009B0013449B000B441F3300221A709DF87B
:109284000F3001338DF80F309DF80F30092BEBD9D7
:109294000AE09DF80720054913469B0013449B00F0
:1092A4000B441F3300221A7004B070472896002024
:1092B40000B583B003468DF80730084A9DF807309F
:1092C4009370FF20FFF7C4FF33F0A0FE0346034A68
:1092D400C2F8E43000BF03B05DF804FB2896002018
:1092E40000B585B00190009100238DF80F30002364
:1092F4008DF80E30019B002B02D0009B002B01D176
:109304000E231EE0114B1B785AB29DF90F30134304
:109314005BB28DF80F300D4B5B791846FFF708FFF1
:1093240003461A469DF80F3013438DF80F30019B06
:109334009DF80F201A70054B1B699AB2009B1A8086
:109344000023184605B05DF804FB00BF28960020F2
:1093540000B58DB003460A468DF807301346ADF8C4
:10936400043000238DF82F309DF807301846FFF79E
:10937400ADFE03468DF82F309DF82F30002B01D120
:1093840007233AE09DF8073003F00103002B14BFD4
:1093940001230023DAB21B4B1A701A4B5B799DF838
:1093A4002F209A4203D0174B1B78002B03D1154B67
:1093B4001B78002B06D0144B01221A70114A9DF819
:1093C4002F3053710F4B1B7883F00103DBB2002B5A
:1093D40003D00E4B184633F0F7FD03238DF8083005
:1093E40002AB9A1D02AB043311461846FFF778FF0F
:1093F40002AB184613F012FC002318460DB05DF8BA
:1094040004FB00BF28960020149700200896002033
:1094140000B583B001900B4B9B78072B0AD0094B06
:10942400002283F8E020074BFF221A730620FFF77F
:109434003FFF03E00820FFF73BFF00BF00BF03B07E
:109444005DF804FB2896002000B585B003468DF82E
:1094540007309DF80730092B1CD900238DF80F30F5
:1094640013E09DF80F2013469B0013449B00103318
:10947400124A134404331422002118463EF051FFCB
:109484009DF80F3001338DF80F309DF80F30092B04
:10949400E7D90EE09DF8072013469B0013449B0078
:1094A4001033064A134404331422002118463EF0B4
:1094B40038FF00BF05B05DF804FB00BF289600200C
:1094C40082B003460A468DF8073013468DF80630FD
:1094D4009DF80730092B2ED89DF80720184913460C
:1094E4009B0013449B000B441F331B78DBB20133F6
:1094F400D8B2134913469B0013449B000B441F33FB
:1095040002461A709DF807200D4913469B00134428
:109514009B000B441F331B78DBB2052B0DD99DF840
:109524000720074913469B0013449B000B44183340
:10953400044A1A6001E000BF00E000BF02B07047B7
:10954400289600200000C8C208B50A4B00221A70F1
:10955400094B0022DA70084B01229A70064B002254
:109564009A600A20FFF770FF0021002003F014F82E
:1095740000BF08BD1497002028960020094B9B7853
:10958400002B09D0074B9B78052B05D0054B9B7806
:10959400072B01D0012300E0002303F00103DBB219
:1095A400184670472896002000B583B00023019325
:1095B400194B1B7B092B1ED8174B1B7B1946164ACC
:1095C4000B469B000B449B00134414331B78DBB203
:1095D400002B10D0104B1B7B1A4613469B001344E0
:1095E4009B0018330C4A1344083301930A4B1A7B2B
:1095F400094B1A7105E0084BFF221A73064B00222F
:109604001A7101983AF09FFB03460093009B184699
:1096140003B05DF804FB00BF289600202DE9F04F4D
:10962400A5B0AF4B1B78002B01D0FFF78DFFAD4BDE
:109634009B78013B082B15D801A252F823F000BFF8
:1096440081960200D9960200B5970200F1980200B3
:10965400C19C0200019A0200FD9A0200319B0200A3
:10966400B19C0200002002F053FF0346002B00F0DF
:1096740027830021002002F08FFF21E3002002F065
:1096840047FF03468DF856309DF8563083F00103AA
:10969400DBB2002B07D00021012002F07DFF0A205D
:1096A400FFF7FEFC1DE33CF092F80346002B0DD0BF
:1096B4009DF85630002B09D08A4B002283F8E8200D
:1096C4003AF024F90220FFF7F3FD0AE30020FFF744
:1096D400EFFD06E30023139300231493814BD3F887
:1096E400E430184633F0A5FC1690169B40F6B732CA
:1096F400934240F2E78213AB18463AF021F903464D
:109704008DF85730774B93F8E830DBB20133DAB297
:10971400744B83F8E8209DF85730002B21D0714B0F
:10972400DB781A4613469B0013449B0018336D4A9A
:109734001344083313A9082218463EF0C9FD694BA7
:10974400DB781946674A0B469B000B449B00134485
:10975400143301221A70634BDB780133DAB2614BA4
:10976400DA709DF8573083F00103DBB2002B04D18B
:109774005C4BDB78092B40F2A7825A4BDB78002B39
:1097840008D1584B93F8E830DBB2042B02D80220FE
:10979400FFF78EFD534BDB78002B01D1002300E053
:1097A40003231846FFF784FD4E4B00221A7198E2FA
:1097B4000023109311AB00221A601A71494B1B79D4
:1097C400092B02D9474B09221A71464B1B791A46B9
:1097D40013469B0013449B001033424A1344043342
:1097E4001993199B1B78002B62D0199BDB7A042BED
:1097F4005ED8199B0C3310AA114618463AF062FA47
:1098040003468DF863309DF86330002B47D19DF8F3
:1098140041301B021AB29DF840301BB213431BB2F5
:10982400ADF86030BDF8603018463AF05AF8F0EE02
:10983400407A199BC3ED017A9DF84220199B5A7214
:109844009DF84320199B9A729DF84420199B1A7223
:1098540000231793244B0BAC1D460FCD0FC42B686C
:109864002360199B1B7A7F2B13D07F2B14DC5F2B77
:109874000CD05F2B10DC1F2B02D03F2B03D00BE04E
:109884000B9B179314E00C9B179311E00D9B1793FC
:109894000EE00E9B17930BE00F9B179308E0114B00
:1098A4001B799DF8632011461846FFF709FE18E25C
:1098B4000C4B1B790133DAB20A4B1A71094B1A7932
:1098C400084BDB789A42C0F00182064B00221A71E1
:1098D400044B00225A700420FFF7EAFC01E200BFA7
:1098E4001497002028960020A0920600B24B1B7902
:1098F400092B02D9B04B09221A71AF4B1B791A46B6
:1099040013469B0013449B001033AB4A13440433A7
:109914001B931B9B1B78002B51D01B9B1A7AA64BC5
:109924005B799A424BD01B9BDB7A042B47D81B9B59
:1099340003F10C001B9B597A1B9B9A7A9E4B5B7913
:109944003AF026F903468DF86B309DF86B30002B06
:1099540008D0994B1B799DF86B2011461846FFF7E8
:10996400AFFDBEE11B9B0C3318463AF04BF903469E
:109974008DF86B309DF86B30002B08D08E4B1B7923
:109984009DF86B2011461846FFF79AFDA9E11B9B31
:109994000C3318463AF066F903468DF86B309DF89F
:1099A4006B30002B08D0844B1B799DF86B2011463B
:1099B4001846FFF785FD94E17F4B01225A707E4BD8
:1099C4001B790133DAB27C4B1A717B4B1A797A4BCF
:1099D400DB789A42C0F07C81774B00221A71764B77
:1099E4005B78002B03D00320FFF762FC70E10520B5
:1099F400FFF75EFC0020FFF70BFD69E1002002F099
:109A040087FD03468DF87B30002323936A4B1B7834
:109A140083F00103DBB2002B07D00520FFF748FCDD
:109A24000021002002F0B8FD5BE19DF87B3083F05B
:109A34000103DBB2002B07D00021012002F0ACFDB2
:109A44000A20FFF72DFB4CE1FFF7AEFD1D901D9B97
:109A5400002B07D00520FFF72BFC0021002002F08B
:109A64009BFD3EE1544B9B680133534A93600720AE
:109A7400FFF71EFC504B5B795F2B09D05F2B03DC97
:109A84001F2B0CD03F2B07D04FF44873239309E0CE
:109A94004FF4C873239305E0C823239302E064239F
:109AA400239300BF454C239B00221E4617464FF0CC
:109AB40000024FF00003FB0343EA5643F20312F59E
:109AC400FA7A43F1000B4FF47A724FF000035046D8
:109AD40059463DF0E9FF02460B461346002219465B
:109AE400204633F03FFA1C901C9B002B00F0F280C0
:109AF4001C9832F071FCEDE02F4BD3F8E43018469B
:109B040033F097FA1F901F9B40F6B832934205D862
:109B1400294BD3F8E430002B40F0DE80264B0022A2
:109B2400C3F8E4200820FFF7C3FBD5E00023089323
:109B340009AB00221A601A711F4B1B79092B02D939
:109B44001D4B09221A711C4B1B791A4613469B00A4
:109B540013449B001033184A134404332293229B6A
:109B64001B78002B3DD0229BDB7A042B39D8229B17
:109B74000C3308AA114618463AF0A4F803468DF8A7
:109B840087309DF88730002B1AD19DF821301B02B5
:109B94001AB29DF820301BB213431BB2ADF88430C7
:109BA400BDF88430184639F09CFEF0EE407A229BD2
:109BB400C3ED017A15E000BF289600200896002026
:109BC400494B1B799DF8872011461846FFF778FC0E
:109BD400229BDB7A042B40F28180229B434A5A6009
:109BE4007FE0414B1B790133DAB23F4B1A713E4B94
:109BF4001B7BFF2B05D13C4B1A793B4BDB789A42FC
:109C040009D2394B1B7BFF2B6AD0374B1A7B364B5F
:109C14001B799A4264D0344B00221A71324BD3F828
:109C2400DC30002B11D0304B93F8E0306A461146FB
:109C34001846FFF7AFFA2C4B002283F8E0202A4B9A
:109C4400D3F8DC306A4610469847294E264B1B69E8
:109C54004EF6602202FB03F300221C4615464FF029
:109C640000024FF00003EB0343EA5443E20312F50E
:109C7400FA7843F100094FF47A724FF0000340463A
:109C840049463DF011FF02460B4613460022194691
:109C9400304633F067F92090209B002B02D02098A7
:109CA40032F09AFB0920FFF703FB1AE000210020A1
:109CB40002F072FC0520FFF7FBFA12E000BF10E08F
:109CC40000BF0EE000BF0CE000BF0AE000BF08E0E8
:109CD40000BF06E000BF04E000BF02E000BF00E0F8
:109CE40000BF25B0BDE8F08F289600200000C842D0
:109CF4000896002000B583B003460A468DF8073065
:109D040013468DF80630194B9B78052B06D1174B5B
:109D14001B7883F00103DBB2002B01D0082320E081
:109D24009DF80630092B0CD8104BDB789DF80620E3
:109D34009A4201D3072314E00C4A9DF806301373AA
:109D440002E00A4BFF221A73084A9DF8073082F892
:109D5400E030074B184633F037F90620FFF7A8FA2E
:109D64000023184603B05DF804FB00BF28960020CA
:109D74000896002008B5064B9B78052B01D10823D3
:109D840003E00920FFF794FA0023184608BD00BF3A
:109D94002896002000B58FB003460092ADF8063037
:109DA4000B468DF8053003238DF80C3003AB1846B1
:109DB40012F0A6FC9DF8103003F00103002B14BF31
:109DC40001230023DAB2174B1A709DF8103018469D
:109DD400FFF77CF903461A46124B5A71114A009B4D
:109DE400C2F8DC30BDF812301A460E4B1A610D4B26
:109DF4005B79002B02D10B4B7F225A71FFF7A4FB36
:109E0400094A0021094833F07DF80D900D9B0C930D
:109E14000C9B002B02D00C9832F0DEFA00BF0FB07E
:109E24005DF804FB2896002015940200B492060005
:109E340000B583B00190019B0433184631F036FD20
:109E440000BF03B05DF804FB00B589B00590039230
:109E54001A460B468DF8133013468DF81230002342
:109E64000793059B181D9DF812209DF813109DF86B
:109E7400283000931346039A31F042FF0790079B62
:109E8400184609B05DF804FB00B587B00390019251
:109E94001A460B468DF80B3013468DF80A30002312
:109EA4000593039B181D9DF80A309DF80B10019A29
:109EB40031F04EFF0590059B184607B05DF804FB92
:109EC40010B586B0104B6C460FCB84E80F0001210F
:109ED400012002F061FB6946002300220B482CF0AC
:109EE400DBFC05900948FFF7A3FF094B01221A7018
:109EF400059B0493049B002B02D0049832F06CFA67
:109F040000BF06B010BD00BFC8920600CC2B0020D5
:109F14001697002008B503482CF0B0FC03461846F9
:109F240008BD00BFCC2B002084B000B585B00DF176
:109F3400180C8CE80F002D4B00221A70FFF7EAFF73
:109F44000346002B01D1FFF7BBFF00238DF8083037
:109F5400069BDBB2184600F01FF903468DF8093062
:109F6400079BDBB2184600F017F903468DF80A3058
:109F7400089BDBB2184600F00FF9034603F03F03D9
:109F8400DBB28DF80B300C9BDBB2184600F004F901
:109F940003468DF80C30099BDBB2184600F0FCF840
:109FA400034603F03F03DBB28DF80D300A9BDBB2AE
:109FB400184600F0F1F803468DF80E300B9BDBB227
:109FC400184600F0E9F803468DF80F3002AA002382
:109FD4000093082368210648FFF736FF00F00AF8CB
:109FE40000BF05B05DF804EB04B07047159700207E
:109FF400CC2B002000B585B00F238DF80B30002347
:10A004008DF80F309DF80B308DF80C309DF80F3023
:10A014008DF80D3000238DF80E3003AA0023009331
:10A02400022368211A48FFF70FFF0DF10B020023EA
:10A034000093012368211648FFF706FF0DF10E0275
:10A04400012368211248FFF71FFF0E238DF80B3000
:10A0540000238DF80E3003AA002300930223682105
:10A064000B48FFF7F1FE0DF10E02012368210848A9
:10A07400FFF70AFF0DF10B0200230093012368216F
:10A084000348FFF7E1FE00BF05B05DF804FB00BF25
:10A09400CC2B002000B58FB0FFF73CFF0346002B0C
:10A0A40001D1FFF70DFF012002F032FA034683F0DD
:10A0B4000103DBB2002B03D00121012002F06CFA72
:10A0C40000238DF8333000230B930CAB00210A4698
:10A0D4001A800A469A7002AB2422002118463EF0E8
:10A0E40020F90DF13302002300930123682129484C
:10A0F400FFF7AAFE0BAA072368212648FFF7C4FE30
:10A104009DF82C30184600F06BF8034602939DF836
:10A114002D30184600F064F8034603939DF82E3062
:10A1240003F03F03DBB2184600F05AF803460493E9
:10A134009DF82F30184600F053F80346013B08936E
:10A144009DF83030184600F04BF8034605939DF80F
:10A15400313003F01F03DBB2184600F041F8034628
:10A1640006939DF83230184600F03AF803460793F8
:10A1740000230A9302AB18463DF0E4FF0D900D98BE
:10A1840013F078F812F026FA0D9B18460FB05DF81C
:10A1940004FB00BFCC2B002084B003468DF80730AD
:10A1A4009DF807300D4AA2FB0323DB08DBB21B0139
:10A1B400D8B29DF80720094BA3FB0213D9080B461C
:10A1C4009B000B445B00D31ADBB203448DF80F30C1
:10A1D4009DF80F30184604B0704700BFCDCCCCCCEE
:10A1E40084B003468DF807309DF807301B09DBB2B5
:10A1F4001A46920013445B00DAB29DF8073003F06C
:10A204000F03DBB213448DF80F309DF80F3018465E
:10A2140004B0704700B583B0FFF77CFE0346002B03
:10A2240001D1FFF74DFE0DF103020123682111480E
:10A23400FFF72AFE0190019B002B03D10E4B012254
:10A244001A7002E00C4B00221A700B4B1B78002B87
:10A2540005D10121002002F09FF9002305E0064BFF
:10A2640001221A70FFF7C6FE0123184603B05DF8F9
:10A2740004FB00BFCC2B00201697002000B585B04E
:10A284000190019B002B0AD0074B43F00103039379
:10A29400019B9B010293039B0298984700E000BF37
:10A2A40005B05DF804FB00BFE092060000B583B082
:10A2B4000190019B002B0AD04FF47A70FFF7DEFF68
:10A2C400019B013B0193019B002BF5D100E000BFF2
:10A2D40003B05DF804FB000008B510220021024819
:10A2E4003EF01FF800BF08BD2897002082B01B4B2A
:10A2F40093F8293003F00103002B03D001238DF8D8
:10A30400073017E0154B93F8293003F00203002BB4
:10A3140003D002238DF807300CE0104B93F829305A
:10A3240003F00403002B03D004238DF8073001E06D
:10A33400FF230FE0094B93F829305AB29DF90730F7
:10A34400DB435BB213405BB2DAB2044B83F82920DF
:10A354009DF80730184602B0704700BF18970020D8
:10A3640082B003468DF80730034A9DF8073082F81F
:10A37400213000BF02B070471897002000B58DB09F
:10A38400019000238DF82E30564B93F82130032B87
:10A3940040F0A380534B5B885A1C91B2514A5180C0
:10A3A400002B03D14F4B00229A6097E04D4B5A8803
:10A3B4004C4B9B889A4207D84A4B9A68019B5B682E
:10A3C4001344484A936089E0464B9A68019B5B6852
:10A3D4001344444A9360434B9B68424A928893FBDC
:10A3E400F2F3404AD36000238DF82F3027E03D4B31
:10A3F4001B7C1A469DF82F3042FA03F303F0010345
:10A40400002B12D1374B1A7C364B93F82030134370
:10A41400DAB2344B1A749DF82E30324AD26831497C
:10A4240004339B000B445A600DE09DF82E30013339
:10A434008DF82E309DF82F3001338DF82F309DF894
:10A444002F30022BD3D9FFF751FF03461A46254B71
:10A4540083F82020234B93F82030FF2B0FD0214B7F
:10A4640093F82030184639F01FFE1E4B00225A8004
:10A474001C4B00229A601B4B0022DA602EE0194B21
:10A48400DB6A0133174AD362002039F01BFE154BF7
:10A494005B6A002B1DD003AB2022002118463DF03F
:10A4A40040FF03AB043310220F4918463DF010FF60
:10A4B40002238DF80C300B4B93F828308DF80D30B7
:10A4C400084B002283F82820064B5B6A03AA104637
:10A4D40098470420FFF744FF00E000BF0DB05DF88B
:10A4E40004FB00BF1897002028970020084B93F81E
:10A4F4002130002B06D0064B93F82130012B01D0DC
:10A50400012300E0002303F00103DBB21846704787
:10A514001897002000B583B02A4B93F82130013BF3
:10A52400032B49D801A252F823F000BFBDA50200B5
:10A5340041A50200BDA502008BA50200022001F086
:10A54400E7FF03468DF806309DF8063083F00103DB
:10A55400DBB2002B07D00221012002F01DF80A20F3
:10A56400FFF7A4FE29E0174B93F82030184639F082
:10A574009BFD012039F0C0FD012039F0A3FD03202B
:10A58400FFF7EEFE19E0022001F0C2FF03468DF84A
:10A5940007309DF80730002B0AD0002039F0ACFDBD
:10A5A400002039F08FFD0221002001F0F5FF04E0C6
:10A5B4000120FFF7D5FE00E000BF00BF03B05DF847
:10A5C40004FB00BF1897002000B583B001900D4A2A
:10A5D400019B53620B4B012283F82120094B00227B
:10A5E400DA6201220421084839F0A0FD002039F084
:10A5F40069FD0221002001F0CFFF00BF03B05DF828
:10A6040004FB00BF1897002081A3020000B583B0AB
:10A614000190019B002B0FD02022002101983DF0D6
:10A6240080FE019B04331022054918463DF050FE7C
:10A63400019B02221A7000E000BF03B05DF804FB26
:10A644002897002000B583B003468DF807300B46E9
:10A65400ADF8043013468DF80630BDF80430002BF5
:10A6640005D09DF8063003F00703002B01D1072322
:10A674002BE0184B93F82130012B01D0082324E060
:10A68400FFF72AFE134ABDF804305382114ABDF87D
:10A69400043093800F4B00225A800E4B00229A60A4
:10A6A4000C4A9DF8063082F82930FFF71FFE034656
:10A6B4001A46084B83F82020064A9DF8073082F892
:10A6C40028300220FFF74CFE0023184603B05DF843
:10A6D40004FB00BF1897002008B5064B93F82130FF
:10A6E400012B01D1082303E00420FFF739FE0023E6
:10A6F400184608BD1897002000B589B003468DF8A8
:10A70400073032F083FC06901D4B1B6819460698EF
:10A7140032F082FC05901B4B1B680493049A059B42
:10A7240013440393039BC3F30E030493039A049B00
:10A73400D31ADB0B0293144B1B681A46029B134477
:10A744000793079B002B08DA0F4B1B681A46029BE2
:10A754009B1A03F10043013B07939DF80730002B3C
:10A7640008D0084A049B1360074A079B1360044AF5
:10A77400069B1360079B184609B05DF804FB00BFF5
:10A784004C970020509700204897002008B5094BAB
:10A794001B78012B03D1FFF77DFC034608E0054B32
:10A7A4001B78002B04D10020FFF7A6FF0346FFE728
:10A7B400184608BD1697002000B585B00190124BCD
:10A7C400184632F001FC0390104B00221A60104A24
:10A7D400019B136032F01AFC03460E4A13600A4BC5
:10A7E40000224FF4F011184632F0BCFB0390039B97
:10A7F4000293029B002B02D0029831F0EDFD00BFC2
:10A8040005B05DF804FB00BF54970020509700206A
:10A81400489700204C97002000B585B00190114B5B
:10A824001B78002B0BD10120FFF766FF03900E4B22
:10A834001B68002B03D00C4B1B6803989847094BEB
:10A844001B78012B0AD1FFF7A1FF0390064B1B686D
:10A85400002B03D0044B1B680398984700BF05B036
:10A864005DF804FB169700207497002000B585B0AE
:10A8740001900091002303930B4A019B13600B4A40
:10A8840001210B4832F03EFB0390039B0293029B91
:10A89400002B02D0029831F09FFD0098FFF78CFF47
:10A8A40000BF05B05DF804FB749700201DA80200EA
:10A8B400E892060010B58AB024220021044601A8BB
:10A8C4003DF02FFD003C4FF0A70318BF012401A861
:10A8D4008DF804308DF8084012F0A0F90AB010BDCC
:10A8E40012F0C8BC30B58BB02422002101A83DF081
:10A8F40018FD262301A88DF8043011F001FF12F091
:10A90400D5FC054612F0E0FC044628463BF020F94D
:10A9140020463BF0C7FA0BB030BD000010B58EB036
:10A92400D8B10378032B18D8DFE803F0024D22488E
:10A93400446812F08BFC90B10B2C0ED86FF06301BD
:10A9440004FB01F101F6340114BF01230323009336
:10A9540064220A23322038F07DFE0EB010BD042C90
:10A96400FBD84FF4967104FB01F101F57A71EBE722
:10A97400012038F0DFFE1E4B18689A8803909B79FB
:10A98400ADF810200021242205A88DF812303DF0E6
:10A99400C8FC9E23062203A90DF119008DF814307A
:10A9A4008DF818203DF094FC05A812F037F9002822
:10A9B400D3D10DF0A3F80DF03BF9CEE70EB0BDE80E
:10A9C400104012F027BC0B4B1C78022C07D0062C2D
:10A9D400C3D100200EB0BDE810400DF087B90020AF
:10A9E4000DF084F920460EB0BDE8104038F0A2BE48
:10A9F400EC920600DC2B002002280BD1064B1B78BE
:10AA0400042B4FF0010006D0082B04D0034B187020
:10AA14000020704701207047DC2B0020789700202D
:10AA2400064B1A78022A07D11A7B2AB901221A7313
:10AA3400034A138801331380704700BFDC2B0020C6
:10AA4400A4970020032807D14FF08043A922C3F81C
:10AA54002025002035F03CBF7047000070B58AB057
:10AA64001D2301A88DF8043011F04AFEBDF80A2018
:10AA7400134B9DF808109A60B2F5B46F24BF4FF4DD
:10AA8400B4629A609C6819750021597500254EF6C8
:10AA940060230C485C434FF4004632F095FA294693
:10AAA4004FF4FA7000234FF47A72E4FB06013CF091
:10AAB400FBFF2A460146034832F054FA0AB070BD3F
:10AAC400DC2B0020849700200E2802D101203AF0CC
:10AAD400B9BF7047012901D10DF05CB922F05ABD0C
:10AAE40010B504468AB00DF063F92046FBF7DEFC8E
:10AAF4006378013B012B1FD82422002101A83DF0DB
:10AB040010FC2378042B17D8DFE803F0033618224F
:10AB14002C001622211D03A83DF0DAFB00238DF83A
:10AB240008302379FF2B0CBF8423042361788DF82C
:10AB3400043001A8FFF7CEFF0AB010BD1022211D7A
:10AB440003A83DF0C5FB02238DF808308A23EDE706
:10AB54001C22211D03A83DF0BBFB03238DF8083004
:10AB64000C23E3E70A22211D03A83DF0B1FB0423D3
:10AB74008DF808309B23D9E70622211D03A83DF058
:10AB8400A7FB01238DF808300723CFE70346012BE9
:10AB94000846114601D10DF0E9B822F021BD0000AC
:10ABA4002DE9F0410C469AB005462422002108A85C
:10ABB4003DF0B7FB23788DF82030A82B00F2ED8010
:10ABC400DFE813F0AC00A900A900B900BF00AC0095
:10ABD400EB006A01AC00A900CB00A9004F015601AB
:10ABE400A900AC00AC00EB00EB005E01D500A900AD
:10ABF400A900A900EB00AC00AC000001AC00A90066
:10AC0400A900A9002F01450148015B0166017401F7
:10AC14005E015E0137013A013D014B01BE01EB00CB
:10AC24007401EB00EB00EB00EB00EB00EB00EB003E
:10AC3400EB00EB00EB00EB00EB00EB00EB00EB00B8
:10AC4400EB00EB00EB00EB00EB00EB00EB00EB00A8
:10AC5400EB00EB00EB00EB00EB00EB00EB00EB0098
:10AC6400EB00EB00EB00EB00EB00EB00EB00EB0088
:10AC7400EB00EB00EB00EB00EB00EB00EB00EB0078
:10AC8400EB00EB00EB00EB00EB00EB00EB00EB0068
:10AC9400EB00EB00EB00EB00EB00EB00EB00EB0058
:10ACA400EB00EB00EB00EB00EB00EB00EB00EB0048
:10ACB400EB00EB00EB00EB00EB00EB00EB00EB0038
:10ACC400EB00EB00EB00EB00EB00B300C300EB0088
:10ACD400EB006F01EB001C01CF001C01EB00EB004B
:10ACE400EB00EB00EB002B012001B401DA00EE00D5
:10ACF400EE00EE00E000EB00EB00FC00EB000401D2
:10AD04001301EB00EB00EB00EB001C01EB007801FE
:10AD1400B4011C01420108A811F0F2FC012D40F01D
:10AD2400178108A80DF036F837E0E1882079FEF79E
:10AD34000FFB024624E00DF1260109A8FEF7D0FA24
:10AD4400ECE709A8FEF778FAE8E7217A2846FEF747
:10AD5400D1FF022D024669D012E009A8FFF756FC84
:10AD6400DCE7227A61892846FFF76CFCF1E722F0E0
:10AD7400B3FB8DF82400D1E7207922F06BFB00228D
:10AD84002178BCE0611D2279052021F0EBFF012D23
:10AD9400014602D120780CF0E9FF1AB0BDE8F08139
:10ADA400204611F03BFF217800222846FFF7EEFEF3
:10ADB4002378952BF1D10CF08BFFEEE728463AF07F
:10ADC400FBFAEAE709A83AF0CDF8A7E7204611F024
:10ADD40025FF9D21044602462846FFF7D7FE002C96
:10ADE400DBD15D4B01229A75D7E7204611F016FF9F
:10ADF400064608B90CF082FE3246C1E7204611F03F
:10AE04000DFF96E7607963890093642141432389A8
:10AE1400E288207938F01EFC8BE7207938F08AFC30
:10AE240087E72146002000F09DFD0246002AB4D0A9
:10AE3400A6E721460C20F6E721460E20F3E721463B
:10AE4400102000F08FFD74E721460D20F9E721461C
:10AE54000120E8E721460B20E5E7404B1B680993F6
:10AE64005CE709A8FCF76EF80C238DF8203055E751
:10AE740029460120FCF784F86BE723798DF8243008
:10AE840008A811F03DFC024600283FF447AF77E7DD
:10AE940008A8FBF7B5FA41E709A8FEF76FF80723FE
:10AEA400E3E729460120FEF787F852E7FFF76EFC37
:10AEB400099033E72A4B1E78012E24D16368079347
:10AEC40007A83DF0FBF90DF1440801462422404651
:10AED40015AF3DF0FDF90FCF6E460FC63B683360EA
:10AEE40098E80F00FFF720F81E4B4FF47A4043F028
:10AEF40001039847606812F0BDF900222621284614
:10AF0400FFF744FE49E7002E7FF408AFFFF73EFC4D
:10AF140007466068FFF750FC6168384600F066FC3D
:10AF2400606812F0A7F911F055FB65E7204611F0AF
:10AF340075FE064600287FF45FAFFFF7D3FC5BE79E
:10AF4400002D7FF4EBAE044CE57532F05FF8A061A0
:10AF540008A822F01FFB20E7DC2B002080970020AC
:10AF6400169700200093060010B5034C207032F0B1
:10AF74004DF8606010BD00BFDC2B002008B532F036
:10AF840045F8054B5B68834234BFC31A1B1A4FF460
:10AF94007A705843C00B08BDDC2B00202DE9F04328
:10AFA400B7B012F053F9B74C074639F0F1FF2378E4
:10AFB4000646082B00F21A82DFE813F009004C0061
:10AFC4007200B3011802A401D901E001E901FFF7FD
:10AFD400D5FF04463AF004FE074639F0DFFF804609
:10AFE40012F064F9064612F06FF905463AF098FE3D
:10AFF40041F28732944206D8B8F1000F00F0F6818E
:10B0040036B96DB90FE036B14EF65F22944202D8DC
:10B01400002F40F0EB8135B142F20F72944202D816
:10B02400002840F0E38139F0B3FF044612F00EF932
:10B0340028B9082037B0BDE8F043FFF795BF002CCE
:10B0440000F09A810120FFF78FFF37B0BDE8F0438D
:10B0540000F058BBFFF792FF8B4E0546307830B9AD
:10B064000123337037B0BDE8F04338F063BB38F0E8
:10B074009DFA20B142F20F739D4240F2B781002540
:10B08400284635700CF032FE012022F0D1FB2573E6
:10B09400FFF7E4FC31F0BAFF7C4B18600220C9E7EB
:10B0A400237B013B042B04D8DFE803F03E64808C4F
:10B0B400C000A37D23B10023A3752373FFF7CEFC47
:10B0C40022F0C2F908B394F81780B8F1000F1CD12C
:10B0D400DFF8B891D9F8000031F0ABFF0546A0695C
:10B0E40031F0A7FF4EF65F2398420ED941F2873321
:10B0F4009D420AD931F08AFF4146C9F80000022076
:10B1040021F07CFC08B90123E375614B1B78002B0B
:10B1140000F0F380002022F08BFB00235D482373B2
:10B1240031F052FF032085E722F076FB0028C7D1D7
:10B1340000F0E8FC05460028C2D1092368468DF8D2
:10B14400003011F0DDFA0223284623733AF034F973
:10B154009DF80420BDF806102846FFF773FAFF2176
:10B164002846FEF7C7FD29460120FDF725FF31F0EB
:10B174004DFF2061206931F05CFF632805469FD9AB
:10B18400FEF7FCF900285BD1FFF7B0F9002857D18E
:10B19400FDF742FD8046002852D10323237331F08A
:10B1A40035FF414620610120FBF7EAFE206931F0BA
:10B1B40040FF6328054683D9FBF772FC00286DD154
:10B1C400042323731B2301A88DF8003039F0CAFE31
:10B1D4000A230AA88DF82430FFF718FA042313A8C9
:10B1E4008DF84830FEF728F80C231CA88DF86C3035
:10B1F400FBF7A8FE072325A88DF89030FDF7BEFEC7
:10B20400242200212DA83DF08CF8234B1B78002B21
:10B2140054D125238DF8B430FFF7B8FA06222E90C6
:10B224006946032000F056FB0523237322F0A6F998
:10B23400054622F009F9002844D1002323733FE78F
:10B2440041F287339D427FF63BAF0323237331F0F2
:10B25400DDFE002120610120FBF792FEFEF78EF94E
:10B2640008B1FEF787FDFFF741F908B1FFF734FA9B
:10B27400FDF7D2FC002899D000210846FDF79CFE7A
:10B2840094E700BFDC2B0020A6970020A89700209D
:10B2940078970020849700201697002041F2873386
:10B2A4009D427FF60DAF04232373FBF7F9FB0028BF
:10B2B40088D000210846FBF763FE83E7012BABD15E
:10B2C4002E23A7E7637D227D0133DBB285F00105E0
:10B2D4009A42EDB2637501D9002DAED0002060759D
:10B2E400FBF776F838B9002D14BF0620032000219F
:10B2F40021F084FBA1E70420F9E70FB1002E75D1FA
:10B30400052097E6002022F093FA0CF007FD0023B5
:10B314003848237331F058FE0CF00CFD66BB062050
:10B3240088E6FFF72BFE044622F076FA804638F0D2
:10B334003DF90746FEF722F90646FFF7D7F805461A
:10B3440011F0B2F9B8F1000F4CD1002F4AD1002E00
:10B3540048D1002D46D1002844D1082001F0D8F866
:10B3640018B10821002001F017F9042062E610B199
:10B374000120FFF7F9FDCFBB07205BE639F008FE9B
:10B3840000283FF456AE012038F0D4F951E622F0FB
:10B3940043FA054638F00AF90446FFF7EFFD06467E
:10B3A4003AF040FB10BB3AF01BFCF8B940F6B73357
:10B3B4009E4201D8D5B9CCB9082001F0A9F818B13A
:10B3C4000821002001F0E8F811F082F911F07CFF67
:10B3D40004463AF0BDFD0146204637B0BDE8F043CF
:10B3E40010F03ABC40F6B7339C42B6D837B0BDE84B
:10B3F400F08300BF849700204FF0804310B5D3F84A
:10B404000024444B1A6010F064FF10F016FE10F094
:10B4140001FC35F0F5F908B130F0DEFF11F0DAF88F
:10B424003D4822F0FDF83D48FFF7CEF83B4A7F2126
:10B434004FF49670FEF7AEFC002038F0BFF8384A9F
:10B444003848012131F05EFD08B130F0C5FF3648BF
:10B454003AF00AFD35483AF0A5FB36F0E7FA08B9A8
:10B4640011F042FF39F038FD2C48314CFBF7B4FDA4
:10B4740029480CF064FC0020FFF776FD27490020E2
:10B4840039F0B6FF36F034FD2448FDF7CFFDFFF761
:10B4940029FAFEF7BFFE60B12378012B09D1FEF72C
:10B4A400A9FD11F0DFFEFEF7F5FD11F0E3FE11F04A
:10B4B40091F823782BB911F0D5FE01461D48FFF70A
:10B4C400D5F91D4CFEF7AAF8FFF724F822F0D2F9BB
:10B4D400FFF764FD00F03EFCFBF72AFCFDF760FC7F
:10B4E400FEF74CF808B911F0F3F806F02BF92060D8
:10B4F40008B130F071FF22F08FF90028E2D1FEF795
:10B504003DF80028DED1FBF7D7FA0028DAD110F095
:10B51400D5FBD7E780970020A5AB0200E5AA02007F
:10B5240025AA020008930600B9A8020021A9020076
:10B5340016970020E5A802007C97002000B585B08E
:10B544000190019B002B0AD0074B43F001030393A6
:10B55400019B9B010293039B0298984700E000BF64
:10B5640005B05DF804FB00BF2093060000B583B06E
:10B574000190019B002B0AD04FF47A70FFF7DEFF95
:10B58400019B013B0193019B002BF5D100E000BF1F
:10B5940003B05DF804FB000008B5F2220021054861
:10B5A4003CF0BFFE044B00225A70034B00221A7079
:10B5B40000BF08BDAF970020AC97002000B583B052
:10B5C40003468DF807300E4B1B78002B01D0002367
:10B5D40012E0FFF7E1FF0A4B01221A70084A9DF8B6
:10B5E4000730D370064B00221A71054B02225A70A1
:10B5F400034B00229A700123184603B05DF804FB44
:10B60400AC97002000B587B00390124B1B7883F0F1
:10B614000103DBB2002B05D00E4B5B78F12B01D874
:10B62400002313E00B4B5B781A460A4B1344DA1CD5
:10B63400F2230093084B03990120FCF701FC0590C9
:10B64400059B002B01D0002300E00123184607B01E
:10B654005DF804FBAC970020AE97002000B583B0E2
:10B66400254B1B7883F00103DBB2002B01D00023B0
:10B674003EE0224B1B78DBB2FF2B09D01F4B1B781B
:10B68400DBB20F2B04D01C4B00221A7000232FE0D6
:10B69400194B9A78184B1A71174B5A78164B9B789A
:10B6A4001344DAB2144B5A70134B5B785A1CD1B260
:10B6B400114A51701A46104B13440A22DA700E4B89
:10B6C4005B7819460E4839F03DF801900A4B5B78D7
:10B6D4001A46019B934204D0074B00221A700023A0
:10B6E40006E00A20FFF742FF034B00221A700123F1
:10B6F400184603B05DF804FBAC970020FC2B002037
:10B70400AF97002000B5C3B042ABA3F58473354AAC
:10B7140092E8030018600433198000238DF8073180
:10B724002EE09DF8072102A91346DB0013449B0079
:10B734000B442422002118463CF0F3FD9DF8073108
:10B744009DF8072142A9A1F58471C85C42ABA3F519
:10B7540080711346DB0013449B000B4402461A70AD
:10B764009DF8072102A91346DB0013449B000B44F8
:10B77400184610F0C5FF9DF8073101338DF80731E5
:10B784009DF80731052BCCD902ABD83324220021F4
:10B7940018463CF0C6FD144B1B78002B05D142AB78
:10B7A400A3F58073252283F8D8200F4B1B78012B37
:10B7B40005D142ABA3F580732E2283F8D820FEF77F
:10B7C400E5FF024642ABA3F58073C3F8DC2002AB6D
:10B7D40007221946022000F07DF80346184643B0BC
:10B7E4005DF804FB0C9306001697002082B00190CC
:10B7F4000091064A019B1360054A009B1360054BA8
:10B8040001221A7000BF02B0704700BF4CA600208E
:10B8140050A6002048A6002000B595B001900091E4
:10B8240002AB4822002118463CF07BFD134B1B78E9
:10B83400012B09D12E238DF80830019B03932E236D
:10B844008DF82C30009B0C930C4B1B78002B09D1EA
:10B8540025238DF80830019B039325238DF82C3084
:10B86400009B0C9302AB02221946072000F032F829
:10B874000346184615B05DF804FB00BF1697002078
:10B8840000B585B00190019B002B01D1132308E082
:10B89400019906480FF069FB03468DF80F309DF8B7
:10B8A4000F30184605B05DF804FB00BF002C0020E3
:10B8B40000B589B001AB194605480FF056FB0346A5
:10B8C4008DF81F30019B184609B05DF804FB00BFDA
:10B8D400002C002000B585B0034600918DF8073098
:10B8E40013468DF8063000F00DF90346002B01D005
:10B8F400002333E038F06EFE9DF807301846FFF75A
:10B904005DFE034683F00103DBB2002B03D039F064
:10B91400F5FA002322E000238DF80F3013E09DF8A0
:10B924000F201346DB0013449B001A46009B13446C
:10B934001846FFF767FE03468DF80E309DF80F306A
:10B9440001338DF80F309DF80F209DF806309A4290
:10B95400E5D3FFF783FE39F0D1FA0123184605B089
:10B964005DF804FB00B583B0034600918DF8073001
:10B974005B4B1B78DBB2FF2B05D09DF80730102BF7
:10B9840001D01123A7E09DF80730102B00F2A0800E
:10B9940001A252F823F000BFE1B9020017BA020075
:10B9A400D5BA0200D5BA0200D5BA0200D5BA02004F
:10B9B40049BA020061BA020069BA020051BA02002F
:10B9C40059BA020039BA020071BA0200BBBA0200C5
:10B9D40083BA0200D5BA02009BBA02000CF01AFA2C
:10B9E40003461A463F4B1A703E4B1B78DBB2002BC2
:10B9F4000DD00CF019FA3A4B00221A70009B5A78B9
:10BA0400394B1A70009B5B68384A136062E0082364
:10BA140061E0009B5A78344B1A70009B1B79002B11
:10BA240001D0022200E005222D4B1A70304B002277
:10BA34001A604FE0009B5A782B4B1A70284B0B224C
:10BA44001A7047E02B4B01221A7043E02A4B002264
:10BA54001A703FE0284B01221A703BE0214B01226F
:10BA64001A7037E01F4B00221A7033E0009B5A789B
:10BA74001D4B1A701A4A9DF8073013702AE0009B78
:10BA84005A78194B1A70164A9DF8073013701B4BDD
:10BA940000221A701EE0124B1B78DBB20E2B06D06C
:10BAA4000F4B1B78DBB20F2B01D0082313E0134B91
:10BAB40001221A700EE0009B5A780B4B1A70084A48
:10BAC4009DF807301370009B5B680D4A136001E01A
