:040FF80000100F00D6
:040FFC0000E00F0002
:02000002F0000C
:10100000000004205D130F0045130F0047130F006D
:1010100049130F004B130F004D130F000000000089
:10102000000000000000000000000000654E0F00FE
:1010300051130F000000000053130F0055130F0051
:1010400057130F0057130F0057130F0057130F00BC
:1010500057130F0057130F0051480F0057130F007D
:1010600057130F0057130F0057130F0057130F009C
:1010700057130F0057130F0057130F0057130F008C
:10108000D95C0F0057130F0057130F0057130F00B1
:1010900057130F0057130F00F1410F0057130F00A4
:1010A00057130F0057130F0057130F0057130F005C
:1010B00057130F0057130F0000000000000000003E
:1010C00057130F0057130F0057130F0057130F003C
:1010D00079560F0057130F0057130F0057130F00C7
:1010E00057130F0057130F008D9E0F0000000000D4
:1010F0000000000057130F000000000057130F00FE
:1011000000000000000000000000000000000000DF
:1011100000000000000000000000000000000000CF
:1011200000000000000000000000000000000000BF
:1011300000000000000000000000000000000000AF
:10114000000000000000000000000000000000009F
:10115000000000000000000000000000000000008F
:10116000000000000000000000000000000000007F
:10117000000000000000000000000000000000006F
:10118000000000000000000000000000000000005F
:10119000000000000000000000000000000000004F
:1011A000000000000000000000000000000000003F
:1011B000000000000000000000000000000000002F
:1011C000000000000000000000000000000000001F
:1011D000000000000000000000000000000000000F
:1011E00000000000000000000000000000000000FF
:1011F00000000000000000000000000000000000EF
:10120000314932480A1A02D0072291438D463049AB
:1012100030480A1A06D00722914381F30988022236
:1012200082F314882C482D492D4A00F03CF82D48B3
:101230002D492E4A00F037F82D482E492E4A00F04D
:1012400032F82E482E492F4A00F02DF82E482F490B
:101250002F4A00F028F82F482F49304A00F023F891
:101260002F483049304A00F01EF8304830490022FB
:1012700000F024F82F483049002200F01FF82F4AD0
:1012800090471F481F49884205D00268043003B4C4
:10129000904703BCF7E700208646EC46002000217B
:1012A000274A9047FEE7884207D0521A05D00378B4
:1012B00001300B700131013AF9D17047884202D0F8
:1012C00002700130FAE770470000042000F80320A4
:1012D00000000420000004201CDC0F00CC5700207C
:1012E00020580020BC130F00BC130F0034A10F00C6
:1012F0001CDC0F00CC570020CC57002044A20F006C
:1013000044A20F0044A20F0044A20F0044A20F0009
:1013100044A20F0044A20F0044A20F001ADC0F00E9
:1013200070DC0F002058002020580020205800209A
:10133000C4B00020C4B00020C4B0002085130F004A
:10134000014D0F00FEE7FEE7FEE7FEE7FEE7FEE7E2
:10135000FEE7FEE7FEE7FEE7704700BF1048804764
:1013600010484FF00701884385460F4880470F48D3
:10137000016841F470010160BFF34F8FBFF36F8FBD
:10138000FFF73EBF0A480B490B4A884207D0521A62
:1013900005D0037801300B700131013AF9D1704763
:1013A00059130F0000000420BD5D0F0088ED00E020
:0C13B00030A20F00B8570020CC570020DE
:1013BC007047000007B5044B0093044A402300F02B
:1013CC0032F803B05DF804FBDD130F002158002048
:1013DC002DE9F84388461446B2B10F4B0F4E032546
:1013EC00002743F00109224608EB0701002003F017
:1013FC00BBFD0744241A48B933782BB14FF47A401B
:10140C00C847013D02D13570BDE8F8830123337024
:10141C00002CE8D1F8E700BF50A20F0020580020A4
:10142C00704703F0D1BDF0B595B01D461646084681
:10143C000C4601F04CFD1A9B0D93CDE90865002577
:10144C002B46082205A920460A958DF82C500C95A0
:10145C0001F064FD079B0293069B03939DF81430E7
:10146C008DF8115003F00302012A1DD1BDF8142090
:10147C00059DC3F3C203C2F383168DF81030B2007E
:10148C0008230EA9204601F049FDC5F3952508ABAC
:10149C000093324602AB0EA9284600F009FC204608
:1014AC0001F019FD15B0F0BD022AF8D1BDF81650A7
:1014BC00C3F3C203C5F389158DF810300827082D26
:1014CC002E4628BF08263B4632460EA9204601F080
:1014DC0025FDAD1B08AB02AA31460EA8374400F01F
:1014EC004BFC002DEBD1DAE708B5FFF79AFF074864
:1014FC00042100F049FB002803DA0549412000F0E3
:10150C00CBFD044B01225A7108BD00BFF8A10F009E
:10151C0064A20F00CC570020037813F0040216D0FD
:10152C0003F00303012B03D0022B09D001207047D9
:10153C000A6800880232C0F3831002440A60F5E79F
:10154C000B684288023303EB92130B60EEE71046F4
:10155C00704700002DE9F04FDFF844A189B00F4629
:10156C0000230446861C0DF10F0015468DF80F3034
:10157C0000F026FDDAF800103960DAE90132464F46
:10158C00134401335B1AA7F10409A7F10808B3420D
:10159C001CD30020002D7BD004F00F039B0143F0E3
:1015AC00050363F30F00DAF80020DAF80830134073
:1015BC00033332444AF823009DF80F00CAF8002088
:1015CC0000F02EFD012009B0BDE8F08F0121384656
:1015DC0000F054FE484600F06CFE404600F069FEF8
:1015EC00DAF80400DAF808B0049000EA0B000330D3
:1015FC000AEB800004A9FFF78FFF049B0246F8B9A1
:10160C000BEA03010AEB810103F1020CC868059097
:10161C00013303EA0B0B0AEB8B0B00F003000128E0
:10162C00DBF80C10CDF810C02AD002280BD01B49C7
:10163C0001924FF4BF7000F02FFD019A93460CE01D
:10164C000BEA0300D3E7BDF81630C3F38913033359
:10165C004FEA114B0CEB93030493404600F02CFE25
:10166C0010B1049BCAF804305946384600F006FE07
:10167C00DAE901231344DAF8002001339B1A86E7D8
:10168C00BDF81430C3F383134FEA114B6344E3E703
:10169C00A40544F0060086E750690020F0A20F0074
:1016AC00345900200B4B0C4840F2FF3210B59A60B5
:1016BC000022C3E9002203F580539A6183F82020AD
:1016CC005A6101F0BDFB044610B9044801F03AFC24
:1016DC00204610BD34590020C8A10F007CA30F0078
:1016EC0030B50A4C71B10A4A0A49121BD2080023C0
:1016FC009A4201D1002030BD31F82350854202D0EE
:10170C000133F5E7034654F83300F4E750A10F001A
:10171C00C8A10F00B8570020094B013903EBC000DA
:10172C00032909D8DFE801F00A02040604207047F7
:10173C00007970474079704700207047022070474D
:10174C0050A10F00034BD3E90030C31A5842584143
:10175C00704700BF345900202DE9F04786B0FFF7E1
:10176C00F1FF0746002840F0FF80804C04F58056BE
:10177C00B061BFF34F8F6368A56802932B400333AE
:10178C0004EB830002A9FFF7C7FE029B10B1B269FC
:10179C00002A62D005EA0302991C013304EB820291
:1017AC002B4004EB8303D268DB68049302F0030341
:1017BC00022B0392029163D1BDF80E306C48C3F337
:1017CC008918B8F1500FC14628BF4FF0500909F1E4
:1017DC00080169F38F13C1F30901ADF80E3001F064
:1017EC0047FB0746002800F0AB8001F070FB00239C
:1017FC00082203A9384601F07DFB029925EA010273
:10180C000132B9EB820F4FEA820332D95FFA89F9C0
:10181C005BB32940DDB2A9EB050903315FFA89FA04
:10182C00A946544D04EB810108234A46384601F081
:10183C0061FB3DB109F10803DBB25246294638463B
:10184C0001F058FB029B08F1030803EB9803029389
:10185C00B369002B4DD135695EE022689A428DD870
:10186C006260384606B0BDE8F08742491D469A468C
:10187C00DAE72940033108234A4604EB8101DEE70D
:10188C00012B5DD1BDF80C303948C3F38311062907
:10189C0028BF062161F38913023101F00F01890081
:1018AC00ADF80C3001F0E4FA0746002848D001F0FE
:1018BC000EFB0023082203A9384601F01BFB4FF056
:1018CC000008BDF80C20C2F383124FEA8803904540
:1018DC0003F10803BCD202994A1C2940033102923D
:1018EC0004EB81010422384601F004FB08F10108E5
:1018FC00E7E7384601F0EFFAFFF724FF80F001002C
:10190C00C7B2AEE7EB685B7923B12B6839461B682D
:10191C0028469847EB681D68002DF3D1384601F036
:10192C00DAFA0DF107008DF8075000F049FBB369A6
:10193C000BB9029B63609DF8070000F071FBDBE7BD
:10194C00346954B90C4B0D480D49C01AC008000439
:10195C0040F0020000F076F8CEE7236820469B6842
:10196C009847E3681C68ECE700277AE734590020B5
:10197C00C8A10F004059002050A10F0058A10F0022
:10198C0064A30F002DE9F74F284E04460F469146ED
:10199C0001A901221846D6F808A09846FFF7DAFDEF
:1019AC0078B3019D0023A81C434503EB000233D1FF
:1019BC001F48002100F027FC80F3100B1D4B1E4A22
:1019CC004FEA14499B1AB9EBD30F04D31B4940F2CD
:1019DC00A31000F061FB6B1C03EA0A03E40006EBA6
:1019EC00830304F0380449EA0B4005EA0A0544F085
:1019FC000104D860033544EA881343EA872346F888
:101A0C0025300F4B93F820301BB1FFF7A5FE0028B3
:101A1C00FBD103B0BDE8F08F0AEA020206EB8202AA
:101A2C0059F82310D1600133BEE700BF34590020B0
:101A3C0050690020C8A10F0050A10F00F0A20F00A8
:101A4C003469002000231A46FFF79CBF07B5012319
:101A5C00019201AAFFF796FF03B05DF804FB07B5EE
:101A6C00CDE9002302236A46FFF78CFF03B05DF833
:101A7C0004FB1FB5CDE90123069B039301AA0323A5
:101A8C00FFF780FF05B05DF804FB1FB5CDE900231F
:101A9C00069B0293079B03936A460423FFF772FF8E
:101AAC0005B05DF804FB7FB5CDE90123089B0393DA
:101ABC00099B04930A9B059301AA0523FFF762FF78
:101ACC0007B05DF804FB00002DE9F3472B4D0446ED
:101ADC00D01C8946164601A900228008AF68FFF782
:101AEC0039FDA8B3DDF80480AB6808F10200019061
:101AFC00013338401B1AB6EB830F00F103004FEA99
:101B0C00830A05EB80002ED83246494608F05EFA6F
:101B1C001B48002100F077FB80F3100008F1010353
:101B2C003B4007EA0807220C05EB8303033742EA24
:101B3C000040E400D86004F0380455F8273044F035
:101B4C00020444EA865203F47C131A4345F8272016
:101B5C000C4B93F820301BB1FFF7FEFD0028FBD196
:101B6C0002B0BDE8F0875246494608F02FFAA6EBC2
:101B7C000A0209EB0A0105F10C00C7E734590020F1
:101B8C00506900203469002030B50E4C22690346A0
:101B9C000020114629B9D968087142B923610A603D
:101BAC0030BDC9680D79854206D00968F2E7D26864
:101BBC0014680C601360F3E701300A28E9D14FF088
:101BCC00FF30EDE73469002038B5084B01251C695E
:101BDC0083F8205004B938BDE3685D712368204652
:101BEC005B689847E3681C68F4E700BF3469002021
:101BFC0030B5C38885B004460D4633B1144A009203
:101C0C001449154A284600F001FC217A05291DD0FB
:101C1C00637A4BB1A088FFF77FFD104B104953F846
:101C2C002020284600F0F2FB227A0E4BA08853F8B5
:101C3C00222003920021FFF753FD039A0A49034621
:101C4C00284605B0BDE8304000F0E0BB05B030BD23
:101C5C00A8A30F0090A30F0088A30F0018A40F00D7
:101C6C00C3D50F003CA40F00ADA30F0007B503466E
:101C7C000846197A052911D05B7A2BB1094A0A4911
:101C8C00019000F0C3FB01980849019000F0BEFBE5
:101C9C00019803B05DF804EB00F0A6BB002AF8D065
:101CAC00F2E700BFA8A30F00C3D50F00A5A30F0038
:101CBC002DE9F04385B01F460C9D002395F80C9040
:101CCC002B7306460C46904629463846FFF790FF84
:101CDC00B8F1060F09D8DFE808F00412181F2833F2
:101CEC0040003146284600F091FB00222946384638
:101CFC00FFF7BCFF85F80C9005B0BDE8F0832268B7
:101D0C003146284600F082FBEFE7D4E90023314648
:101D1C00284600F07BFBE8E7A36800933146D4E942
:101D2C000023284600F072FBDFE7E3680193A36809
:101D3C0000933146D4E90023284600F067FBD4E732
:101D4C0023690293E3680193A36800933146D4E9B5
:101D5C000023284600F05AFBC7E763690393236905
:101D6C000293E3680193A36800933146D4E90023FE
:101D7C00284600F04BFBB8E708292DE9F74F8046C1
:101D8C000E4617461C463CD8002593F80C901D7344
:101D9C0019461046FFF72CFFDFF888A0DFF888B053
:101DAC00AE4231D918F805205946204600F02EFBDA
:101DBC000135082DF4D11949194DDFF870A02046D2
:101DCC0000F024FB4FF0000B5E4522D918F80B20D5
:101DDC007E2A05D81046019208F0BCF8019A00B989
:101DEC002E225146204600F011FB0BF1010BBBF1EA
:101DFC00080FE9D1012221463846FFF737FF84F856
:101E0C000C9003B0BDE8F08F5146204600F0FEFA6E
:101E1C00CEE72946204600F0F9FAE6E7C1A30F0009
:101E2C00BFA30F00BDA30F00B7A30F00C3A30F00E8
:101E3C004B1C30B5DB00044612F003009BB20DD1F5
:101E4C00074D2A601A44074B1A60074B1870074B52
:101E5C001870074B1C80074B198030BD0720FCE71E
:101E6C00F8690020F4690020F0690020006A002065
:101E7C00FC690020FE6900202DE9F347DFF8C080E3
:101E8C00B8F800308B4206460D4617464CD300245A
:101E9C000DF107008DF8074000F092F8244B254A0D
:101EAC0025481B78008892F800C084455FFA8CF1B5
:101EBC0038BF4C1CDBB238BFE4B2A3422ED014782E
:101ECC001178CBB2884286BF0133DBB2002313708A
:101EDC009DF8070000F0A4F84FF6FF739C4225D044
:101EEC00DFF86090D9F800204FEAC40A42F8347049
:101EFC0002EBC403AEB1A5B1104BB8F800001B68DF
:101F0C002A4604FB0030314608F060F8D9F800305E
:101F1C00534400209D8002B0BDE8F0874FF6FF745B
:101F2C00D6E700209880F6E70920F4E70420F2E7D2
:101F3C00006A0020F0690020FE690020F46900208E
:101F4C00FC690020F869002070B5104C104D227807
:101F5C002B789A4200D170BD0E480F4A2378126834
:101F6C0006880E4802EBC301006852F833208988BA
:101F7C0003FB060090470A4922780988D3B29142A4
:101F8C0086BF0133DBB200232370E0E7006A002038
:101F9C00F0690020FC690020F8690020F469002039
:101FAC00FE690020EFF30583C3F308032BB9EFF3AD
:101FBC001480C04300F001007047012070470000FE
:101FCC0070B50446FFF7EEFF012803D010494320FB
:101FDC0000F062F8EFF3108672B60E4A9068012397
:101FEC0098B993600C4B0D4DD3F8801029401160BB
:101FFC00C3F88050D3F8841051604FF0FF32C3F80F
:10200C008420207006B962B670BD2370FAE700BF59
:10201C0050A40F00046A002000E100E0FC06FFBDA4
:10202C0010B50446FFF7BEFF012803D00949512023
:10203C0000F032F8084B9A685AB154B9EFF310819A
:10204C0072B6064A18681060586850609C6001B9F6
:10205C0062B610BD50A40F00046A002000E100E03D
:10206C0030B53AB11368DB430A4D0144814204D1C7
:10207C00D84330BD4FF0FF33F6E710F8012B534037
:10208C00082213F0010418BF2C46013A84EA5303CA
:10209C00F7D1EBE72083B8ED07B5ADF8000001915F
:1020AC006A46002144F2020002F00EFE03B05DF815
:1020BC0004FB10B561B1B2FBF3F403FB1424A4B21E
:1020CC0044B9C0E9001484608281C381204610BDEC
:1020DC000E20FCE70920FAE782B050E8022FC188F5
:1020EC00B2EB324F4FF0000317BF92B241EA0141FD
:1020FC0042EA014104E04268B2EB324F08BF0123CF
:10210C0040E80212002AE8D18DF807309DF807301C
:10211C00002B0CBF1120002002B0704737B550E8DF
:10212C00013F9DB2C48925448489A54228BF2D1B3B
:10213C000489A54202BFBFF32F8F002207E0C5EA36
:10214C00030540E80154002CE9D14FF001028DF851
:10215C0003200193019A0A609DF8031001F0FF031C
:10216C0021B1006810FA82F003B030BD1846FBE7CD
:10217C000A884B889A4209D150E8012FC2EA0242E0
:10218C0040E80123002BF7D1012070470020704755
:10219C0037B550E8023F1FFAA3F5C488A54202BF29
:1021AC00BFF32F8F00220DE0C48925448489A542FA
:1021BC0028BF2D1BC3EA054540E80254002CE8D18A
:1021CC004FF001028DF803200193019A0A609DF8EB
:1021DC00031001F0FF0321B1006800EB124003B0C3
:1021EC0030BD1846FBE70A884B889A4209D150E863
:1021FC00022FC2EA224240E80223002BF7D1012031
:10220C0070470020704710B5034653E8000F0A468C
:10221C0043E8002494F0000FF7D110BD10B503462D
:10222C0053E8000F40EA010243E8002494F0000F49
:10223C00F6D110BD10B5034653E8002F42EA010059
:10224C0043E8000494F0000FF6D110BD10B503461E
:10225C0053E8000F00EA010243E8002494F0000F59
:10226C00F6D110BD10B5034653E8002F02EA010069
:10227C0043E8000494F0000FF6D110BD10B50346EE
:10228C0053E8002F02EB010043E8000494F0000F28
:10229C00F6D110BD10B5034653E8002FA2EB010098
:1022AC0043E8000494F0000FF6D110BD0121FFF7B4
:1022BC00B5BF0121FFF7BEBF0021FFF7C7BF00214B
:1022CC00FFF7D0BF10B50446002834D003681BB903
:1022DC001A49FF20FFF7E0FE636823B917494FF452
:1022EC008070FFF7D9FEA36823B9144940F201109E
:1022FC00FFF7D2FEE36823B910494FF48170FFF762
:10230C00CBFE238A23B90D4940F20310FFF7C4FE1C
:10231C00D4E9012321689B1ADBB20A60013BDBB2D2
:10232C00FF2B226802D10020107110BD1168481CCF
:10233C0010600B70F2E70E20F7E700BFCBA40F0084
:10234C0037B5044620B913494FF49270FFF7A4FE39
:10235C0000250DF107008DF80750FFF731FE2268BC
:10236C006368116899420ED9481E106011F8013C3F
:10237C00E568218A01FB0355A36811791B1ADBB2AE
:10238C00994238BF13719DF80700FFF749FE2846A4
:10239C0003B030BDCBA40F0037B50C46054620B9B1
:1023AC00104940F24710FFF777FE24B90D494FF45E
:1023BC00A470FFF771FE00230DF107008DF80730B4
:1023CC00FFF7FEFD2A681368591C1160E968641A4E
:1023DC00298AB4FBF1F41C709DF80700FFF720FE6E
:1023EC0003B030BDCBA40F0010B5044618B9064994
:1023FC003120FFF751FEA2682AB163692168206978
:10240C0098470023A36010BD38A50F000EB433B558
:10241C00059D044618B911494220FFF73DFE63693A
:10242C001BB90E494320FFF737FE23681BB90B4934
:10243C004420FFF731FE63681BB908494520FFF7BC
:10244C002BFE35B106AB01AA29462046019300F0BC
:10245C0071F802B0BDE8304003B0704738A50F00EA
:10246C00826830B40468551C8560A154D0E90132EF
:10247C009A4202D330BCFFF7B7BF30BC70470000A4
:10248C002DE9F84F9846DDE90A43154682460F467A
:10249C000A464FF00109AA420FD2C14538BFC146C6
:1024AC0013F0010B01D16CB900240126B8F1010F16
:1024BC001BD908F1FF386E43F8E709F10109B2FBAB
:1024CC00F5F2E8E79B070ED5B8F1000F0CBF3026EC
:1024DC002026A145E9D2013C31465046FFF7C0FF0A
:1024EC00002CF6D1E0E72026F3E7B7FBF6F39D428C
:1024FC00E1D9DFF83C80B7FBF6F3504618F803102F
:10250C0006FB1377FFF7ACFF3346AB42B6FBF5F691
:10251C00F1D2BBF1000F02D00CB1A14501D3BDE843
:10252C00F88F20215046013CFFF79AFFF4E700BFDB
:10253C0005A60F002DE9F74F88461746054620B92A
:10254C00AF494FF4A270FFF7A7FD6B6923B9AC49F3
:10255C004FF4A370FFF7A0FD2B6823B9A84940F2F4
:10256C004710FFF799FD6B6823B9A5494FF4A47088
:10257C00FFF792FDB8F1000F00F03E8118F8011B37
:10258C0049B92B7B002B00F03781284603B0BDE8FE
:10259C00F04FFFF729BF252940F0B780002698F8A7
:1025AC0000302D2B424608F1010823D0302B24D0CB
:1025BC002B2B25D000242A2B02F1010123D13B68BF
:1025CC001A1D1B683A601C440A4613782E2B26D120
:1025DC0001324FF0000A104610F8011BA1F1300C2B
:1025EC00BCF1090F1DD80A2303FB0A13A3F1300A0F
:1025FC000246F0E746F00106D1E746F00206CEE7C8
:10260C0046F00406CBE711F8013CA3F13000092891
:10261C00DBD80A2202FB0434303C0A46CBE74FF0ED
:10262C00000A12F8011B01F0FB0068289046F8D054
:10263C00782909D86F290CD8632962D022D825298A
:10264C0063D0582900F0888098F80030002B95D181
:10265C0097E770390829F7D801A353F821F000BF88
:10266C00DF270F0055260F0055260F0075270F008A
:10267C0055260F0053270F0055260F0055260F0027
:10268C0065270F00642901D06929DDD13A68D2F899
:10269C000090111D89EAE9723960A2EBE9724FF0E2
:1026AC00010B092A35DCD34538BFD3462CB1B9F11F
:1026BC00000F01DB720700D5013CB30702D5BAF15C
:1026CC00000F03D0F00701D44CBB0024B9F1000F6C
:1026DC002DDAC9F100092D212846FFF7C1FE06F0BD
:1026EC000302022A04D1BAF1000F01D11CBB002451
:1026FC00CDE9004653460A2249462846FFF7C0FE5C
:10270C00A2E73B681A1D19783A602846FFF7A8FE25
:10271C009AE70A230BF1010BB2FBF3F2C1E7A345D5
:10272C00D4D220212846013CFFF79AFECCE7710752
:10273C00D5D52B21D0E7A345DAD230212846013C50
:10274C00FFF78EFED2E73968CDE900460A1D3A60E4
:10275C0053460A220968D0E739680A1D3A60CDE968
:10276C00004653461022F5E73B681A1D3A6016F0F6
:10277C000106D3F8009024D1B9F1000F03D04846DC
:10278C0007F0A2FC0646B4421DD809F1FF3919F82E
:10279C00011F00293FF458AF2846FFF761FEF6E70A
:1027AC0028460136FFF75CFE19F806100029F7D110
:1027BC00A642BFF449AF20212846013CFFF750FE4A
:1027CC00F6E70026F0E720212846013CFFF748FEFB
:1027DC00D9E73B681A1D3A60302128461C68FFF780
:1027EC003FFE78212846FFF73BFE00220823CDE967
:1027FC0000322146102280E703B0BDE8F08F00BF05
:10280C009BA50F0070B50D461646044618B908492D
:10281C005520FFF741FC1DB905495620FFF73CFC3C
:10282C002B68256031462046BDE87040184700BF34
:10283C0015A60F002DE9F041DDF818800E4617465D
:10284C001D46044618B922498820FFF725FC1FB9FC
:10285C001F498920FFF720FC23681BB91C498A20DB
:10286C00FFF71AFC45BB1A498B20FFF715FCB20782
:10287C0003D017499120FFF70FFCBB0703D0144975
:10288C009220FFF709FCE3689E4204D322696B1E79
:10289C003344934203D90E499320FFF7FDFB236881
:1028AC00CDF81880D3F80CE03A462B46314620463A
:1028BC00F446BDE8F041604763685A68B5FBF2F333
:1028CC0002FB1353002BD2D001498E20CDE700BF61
:1028DC0015A60F002DE9F0410D4616461F4604467D
:1028EC0018B919499E20FFF7D7FB23681BB9164965
:1028FC009F20FFF7D1FB1EB91349A020FFF7CCFB9B
:10290C0063681B68013B2B4203D00F49A320FFF7E0
:10291C00C3FBE3689D4207D363681A686B1E02FB16
:10292C0006332269934203D90749A520FFF7B4FB6C
:10293C002368D3F810E032463B4629462046F4463D
:10294C00BDE8F041604700BF15A60F0070B550B947
:10295C000E4D0F4C0026641B1423B4FBF3F4B4424D
:10296C0008D1002010E00368002BF1D0BDE87040C6
:10297C00DB6918472B6813B901361435EFE7DB69AF
:10298C00284698470028F7D070BD00BFB8570020E4
:10299C00CC570020014B43600020704794A60F00D9
:1029AC000846704700207047024B1868003818BF63
:1029BC0001207047106A002008B50248FFF77FFC21
:1029CC00002008BD106A002008B510461A4607F012
:1029DC00FDFA002008BD00002DE9F041804686B0CC
:1029EC0011480F4616461D46FFF760FC0446C8B951
:1029FC00AA083146384601F0A1FD0B48FFF75FFCF1
:102A0C00D8F8083053B101228DF800200C9A0592A9
:102A1C00CDE90147CDE9036568469847204606B0E5
:102A2C00BDE8F0811124F9E7106A00202DE9F0438C
:102A3C00814687B014480E4615469846FFF736FC7B
:102A4C000446F0B90746BD4215D10F48FFF737FCD5
:102A5C00D9F808305BB102228DF800200022CDE9B4
:102A6C000126CDE90325CDF8148068469847204609
:102A7C0007B0BDE8F08306EB073001F047FD0137E6
:102A8C00E1E71124F3E700BF106A002029DF70474B
:102A9C0028DF704770B503689E6886B004460D4603
:102AAC006EB114220021684607F0B9FAA3680593A9
:102ABC00237901952BB1012B0DD06846B04706B098
:102ACC0070BD01238DF8003023690293E3680393F2
:102ADC0063690493F1E702238DF80030E3681B036C
:102AEC000293F5E70846704700207047024B187AAE
:102AFC00003818BF01207047006C0020034B187A77
:102B0C000122B0FA80F05A7440097047006C002022
:102B1C0008B510461A4607F059FA002008BD000007
:102B2C0008B514220021044807F079FA0348FFF78E
:102B3C00D3FA002008BD00BF006C0020F06B002011
:102B4C0010B5094C094B43602046FFF7AFFB48B961
:102B5C0001F02EFB064920741C2306484FF4EE723C
:102B6C00FFF7A7FA002010BD006C0020C0A60F00D4
:102B7C00146A0020F06B002038B5224D224C2B7AC1
:102B8C003BB922492248FFF703FB206008B9686073
:102B9C0038BD022324682B72237973B1012B22D008
:102BAC0020460321FFF776FF00232B726B60174939
:102BBC001748BDE83840FFF716BBD4E90523D21AF5
:102BCC00142AD4E9031028BF14229208012A38BF12
:102BDC00012219441844FFF759FF50B11128DFD1D5
:102BEC0001232B72D4E7D4E903031844FFF750FFF9
:102BFC00F3E72B7C002BCBD1BDE83840022000F052
:102C0C0009B800BF006C0020186C0020146C002068
:102C1C00F06B002038B5224C237A002B3FD0022BCE
:102C2C0009D103282ED01F4B00221B68E2601A79B1
:102C3C003AB1012A20D0637C6BBBBDE83840FFF76A
:102C4C009BBFD3E905128D1A142D94BF521914325F
:102C5C009A619142EFD102284FF0000308BF194648
:102C6C002372104B18BF0D211868FFF713FF0E4984
:102C7C000E48FFF7B8FADEE71A6901321A615B6990
:102C8C009A42E7E7E3680133082B01D8E360D2E707
:102C9C000023E360DFE7BDE8384001F079BA38BDC6
:102CAC00006C0020186C0020146C0020F06B0020CD
:102CBC00831E012B01D8FFF7ADBF704700F0FD0359
:102CCC00012B08D1044B00225A74421E5042504131
:102CDC001874FFF751BF7047006C002010B5064CFC
:102CEC00201DFFF7E3FA28B9637C1BB9BDE810403F
:102CFC00FFF742BF10BD00BF006C00202DE9F3416F
:102D0C0080460D460F4801A916461F46FFF706FAE6
:102D1C000446A8B11C22002107F081F92D0B0123D8
:102D2C00237101A90748C4F80080A760E5606661BB
:102D3C00FFF71EFAFFF7D2FF002002B0BDE8F081CA
:102D4C000420FAE7F06B00202DE9F7438146884612
:102D5C00104801A917461E46FFF7E0F90446B0B12A
:102D6C001C22002107F05BF900250A9BA36001A936
:102D7C00C4E9037807482571C4F800906661FFF731
:102D8C00F7F9FFF7ABFF284603B0BDE8F08304204A
:102D9C00FAE700BFF06B00202DE9F74F99469DF83C
:102DAC003030009388469346064618B92349B6201E
:102DBC00FFF772F9F28871794A43043A4A4505D80B
:102DCC001E490192C420FFF767F9019ADBF80070E5
:102DDC00B6F806A007EB0901914209F1040488BF7B
:102DEC00A2EB0907B4FBFAF5CBF800700AFB15440B
:102DFC0045B9AAEB040BBB4528BFBB462FB903B0A2
:102E0C00BDE8F08F3668013DF2E7009B043408EB17
:102E1C00050034445A466BB12146A7EB0B0707F06B
:102E2C00D5F8BA455D443668D3464FF0000428BF48
:102E3C00BB46E3E701462046EFE700BFECA60F00D8
:102E4C00FFF740BAF8B546790146721E05460023D5
:102E5C0093422D6803D30024A64202D8F8BD013357
:102E6C00F6E70F682846FFF797FA01343946F3E77F
:102E7C002DE9F843068ACD1C0746FFF761FA043E9C
:102E8C0035440446B5FBF6F5F0B14FF48073EDB262
:102E9C008380C680013D076081464FF00008A8453D
:102EAC0012D23846FFF74CFA064648B16379013323
:102EBC00637108F10108C9F8000007608146EEE76C
:102ECC002046FFF7BFFF34462046BDE8F8830121BA
:102EDC000430FFF7D3B910B5012104460430FFF7D5
:102EEC00D9F9C0B220B92046BDE81040FFF7AABFFF
:102EFC0010BD00001FB5144603920022009203AAD5
:102F0C00FFF74AFF039BA34203D00349F620FFF7C8
:102F1C00C3F804B010BD00BFECA60F001FB51446DB
:102F2C0003920122009203AAFFF736FF039BA342F0
:102F3C0004D003494FF48070FFF7AEF804B010BD15
:102F4C00ECA60F00836800225A60C3E904229A6041
:102F5C00DA601A607047000038B50D46044618B99F
:102F6C0009495020FFF798F81DB907495120FFF780
:102F7C0093F82B686A686360934208BF002325604E
:102F8C0008BF636038BD00BF59A70F0010B50446D9
:102F9C0018B90B496320FFF77FF823681BB9084960
:102FAC006420FFF779F8636843B12268916852682E
:102FBC000B449342636004BF0023636010BD00BFE9
:102FCC0059A70F0010B50D49A1F59472914201D883
:102FDC0000200FE08C1AE30F03EBE4035B1002EB11
:102FEC00C30452F83330834205D802D204F10802EC
:102FFC00ECE7606810BD2146E8E700BFD4AC0F00D9
:10300C0008B5FFF7DFFF024B002808BF184608BDC4
:10301C0099AB0F000023C0E902328B881A44B1F936
:10302C00063002611A44C0E9001142610888003878
:10303C0018BF012070474268118838B50346002933
:10304C0037D0148A02F1100141602CB9C2680168B2
:10305C00FFF7E0FF204638BD9078118900F030056D
:10306C00302D14D1947C04F03004302C1BD190887A
:10307C001969091A19610021908AB2F916200844BD
:10308C00196901441961114459610120E3E700F009
:10309C00F004202C07D150894143002DECD19868C5
:1030AC0001309860E8E700F0C000802808BF0421D8
:1030BC00F3E70846CFE770B5466804460D466368EB
:1030CC001A88AA4204D19B7803F00F03082B07D16E
:1030DC002046FFF7B0FF6368B342F0D1002070BD0B
:1030EC000120FCE743681A44426011B101399A424D
:1030FC0001D10120704713F8010B01F8010FF6E71D
:10310C0070B54568AA7802F00F06082E86B0034603
:10311C001FD103691C6800260CB906B070BD23686A
:10312C0062689D68267329466846FFF773FF6368DB
:10313C00049304F10C030593AB7803F0C003802BCC
:10314C0008BF231D684608BF0493FFF7D9FFA46886
:10315C00E2E712F0C00122D102F0300010280CD1AD
:10316C005A691170072EEC6818690BD1014620467C
:10317C0006B0BDE8704000F01AB89006F2D55B6955
:10318C001980CAE72A89214624B106B0BDE87040EF
:10319C0006F01CBF06B0BDE8704006F040BF8029A9
:1031AC00BBD10069002192060160B6D5E7E77FB577
:1031BC000A4601466846FFF72DFF30B16846FFF717
:1031CC009FFF6846FFF737FFF7E707B05DF804FB92
:1031DC00836810B504460BB9002010BD03680122AA
:1031EC0098470028F8D0A368013BA360F5E72DE9C8
:1031FC00F3410F460DF107018046FFF7E9FF054645
:10320C0020B90025284602B0BDE8F0819DF90730B1
:10321C009DF80740002B13DA04F07F0407260DF10C
:10322C0007014046FFF7D4FF0028EAD09DF807209D
:10323C0002F07F03B3401C43130606F1070601D4CA
:10324C003C60DFE7232EEAD1DBE7000030B5044613
:10325C0085B01546A9B90268114B9A4211D0102DB0
:10326C0006D82A4669462046FFF7F0FF05B030BD68
:10327C00102269462046FFF7E9FF0028F6D0103DE2
:10328C00EDE7A368AB4201D20020EFE723682A46A2
:10329C00204698470028F7D0A268521BA260E5E7A9
:1032AC00F1300F00F7B50E4601A907461546FFF79A
:1032BC009EFFA0B1019A511C4FF0000404D2B378C8
:1032CC0003F0C003802B01D1204608E033898B42E8
:1032DC00FAD329463846FFF7B9FF019BEC5403B0EB
:1032EC00F0BD73B50D4601A906461446FFF77FFFE6
:1032FC0098B1019AB2F5803F11D2AB7803F0C003BC
:10330C00802B02F102010AD02B898B4207D3214674
:10331C00304621F8022BFFF799FF02B070BD002058
:10332C00FBE7000010B5034C82600022C0E90041AD
:10333C00C26010BDF1300F002DE9F341002580462D
:10334C000E462F462C460DF107014046FFF740FF75
:10335C00C0B19DF807C0A4F120030CF07F02C4F1AA
:10336C00200102FA03F322FA01F10B43A2401CF0F4
:10337C00800F45EA020547EA030704F1070404D16C
:10338C00C6E9005702B0BDE8F081462CDBD1002025
:10339C00F8E737B50D4669461446FFF7CDFF70B117
:1033AC002B89082B0DD1DDE90032C4E90032DDE9AF
:1033BC000001914208BF98420CBF0120002003B0CD
:1033CC0030BD042B03D1009B23600022EFE7022BBE
:1033DC0003D1009B23809BB2F7E7012B04D1009B08
:1033EC00237003F0FF03F0E70020E8E737B50D4644
:1033FC0069461446FFF7A0FF30B12B89082BDDE995
:10340C00001203D1C4E9001203B030BD042B4FEA03
:10341C00E17009D121600B460246824208BF8B4203
:10342C000CBF01200020EFE7022B03D10BB223804D
:10343C00DA17F2E7012B02D14BB22370F8E7002028
:10344C00E2E7F7B51F4600233B700D460B70136087
:10345C0001A904461646FFF7CAFE30B9A36813B992
:10346C0001233B70002003B0F0BD019C002CF7D071
:10347C00E30804F0070433602C70F4E713B504463A
:10348C00052925D8DFE801F0030F17242422012297
:10349C0001A92046FFF7DAFE18B19DF90430002B84
:1034AC00F5DB02B010BD08220021204602B0BDE8B9
:1034BC001040FFF7CBBE01A9FFF799FE0028F0D012
:1034CC00019A00212046FFF7C1FEEAE70422EBE750
:1034DC000020E6E773B50D4601A90446FFF787FE09
:1034EC00064618B90026304602B070BD94E80F00AD
:1034FC0085E80F0001998A42F4D3A960A3685B1A8E
:10350C00A360F0E72DE9F0435668B37813F0C004DC
:10351C0089B007468C46154603D0402C69D0002450
:10352C000CE003F00F02604903F03003202B51F83C
:10353C00228025D006D8E3B1102B17D0204609B035
:10354C00BDE8F083302BF9D16B6931881980072ADB
:10355C0009D121463289286906F061FD6B68296919
:10356C00D868FFF724FE2A69696840E06B6901227C
:10357C001A702A693146434609B0BDE8F043184732
:10358C00BCF1020FD5F8149024D1042A22D804A936
:10359C00FFF7A0FF04460028C1D0069B2BB1696839
:1035AC00B9F800304A899A4205D8059B7B60069B86
:1035BC00002BC3D0B3E708892A6903FB002204A8B7
:1035CC00C04728B1B9F800300133A9F80030E4E75E
:1035DC000446EAE7B9F8003072899A429FD93189DA
:1035EC002A69581C03FB0122A9F800003146384611
:1035FC00C1E7D2F81080464656F8043B23B909B00F
:10360C00BDE8F043FFF73ABF022914D104A9FFF734
:10361C0061FF002883D0D8F800306968324604A8CE
:10362C009847044600283FF47AAF069B002BF2D152
:10363C00059B7B6082E7012926D005292CD0002927
:10364C007FF46DAF0C460DF1040901340B2C3FF4E3
:10365C0066AF012249463846FFF7F8FD00283FF4D3
:10366C005EAF19F9013B002BEFDB104B049301AB60
:10367C00CDE90534002307936968D8F80030324649
:10368C0004A89847044659E7082201A9FFF7DEFD74
:10369C0008240028E9D142E704220DEB0201FFF7D0
:1036AC00D5FD0424F5E700BFD4AC0F00F1300F00BA
:1036BC002DE9F04F91B00446002604A8CDE902662E
:1036CC00FFF7A8FCA3683BBBDDE9053404A89D7893
:1036DC00FFF7B1FC0028F7D115F0300F03D1059B93
:1036EC001B8803B10134002C00F0A980630902A9E6
:1036FC000022934240F09C8010AA02EB830304F05A
:10370C001F0453F8383CC4F120044FF0FF30E04064
:10371C00C31A584258410DE00DF1030301AA0DF1F3
:10372C0002012046FFF78DFE38B99DF80330002BBF
:10373C00CAD1002011B0BDE8F08F019904A8FFF7A1
:10374C00BAFC002850D1019BB3427DD3059D059A4C
:10375C00937803F00F03082B7FD004A8FFF76BFCC2
:10376C00059B9D42F3D14FF0FF36019FB7426BD3BF
:10377C00089B9DF802A0D4F808801D684FF0010941
:10378C00A368002D5DD098459CD12B68D3F800B070
:10379C00BBF1000F08D053463A4629462046D8477D
:1037AC000028C6D0AD68EBE7D3F808B0BBF8003002
:1037BC009F42F7D16A6859460AA8FFF72BFC6B6841
:1037CC000E9305F10C030F939BF8023003F0C0032A
:1037DC00802B04BF2B1D0E930AAA85F80C90514622
:1037EC002046FFF78FFEDBE7059B9B7813F0300F2D
:1037FC000FD1069A3F2A0CD8510910AB03EB81016B
:10380C0002F01F020123934051F8382C134341F866
:10381C00383CE5682DB19DF80220019904AB204697
:10382C00A8479DF8021004AA2046FFF76BFE10E093
:10383C0051F8045B01357FF47DAF013259E701206B
:10384C0078E798457FF43EAF9DF802102046FFF7CD
:10385C0015FE00287FF436AF6BE7168885E737B581
:10386C000C460546114620460192FFF7A0FC019A32
:10387C002146284603B0BDE83040FFF719BF70B5AC
:10388C0086B0CE6801920C4602A90546FFF722FECF
:10389C0068B1E06858B1A378019A03F03003202B8B
:1038AC00314602A805D1FFF7DAFF039B6B6006B027
:1038BC0070BDFFF7FDFEF8E713B50C466946FFF740
:1038CC003BFD60B1DDE900134A0842EAC372C90747
:1038DC004FEA530344BFD243DB43C4E9002302B095
:1038EC0010BD37B50D4669461446FFF7E5FF70B1BC
:1038FC002B89082B0DD1DDE90032C4E90032DDE95A
:10390C000001914208BF98420CBF0120002003B077
:10391C0030BD042B03D1009B2360DA17EFE7022B99
:10392C0003D1BDF900302380F7E7012B03D19DF9BA
:10393C0000302370F1E70020E9E713B504220C46B0
:10394C000DEB0201FFF782FC08B1019B236002B072
:10395C0010BD1146FFF7F1BF13B508220C4669469E
:10396C00FFF774FC18B1DDE90023C4E9002302B0B1
:10397C0010BD1146FFF7F0BF38B5202204460830C1
:10398C000D4606F023FB2022A91804F1280006F0AE
:10399C001DFB002038BD00002DE9F3411B4D98465E
:1039AC001B4B036004460E46284601211746FEF7C2
:1039BC002AFCBFF35F8F30BB00F0F6F83B46089A49
:1039CC00CDF8008006F10801204605F007F9044601
:1039DC0000F0F8F82B68012B03D00E499320FEF76A
:1039EC005BFBBFF35F8F00232B6044B10A4948F2A5
:1039FC00165248F242538C4214BF14461C462046C1
:103A0C0002B0BDE8F08148F20454F8E71C7C0020B9
:103A1C00DD55AABB04AD0F008408F0000E4B984294
:103A2C0014D00AD8B8B10D4948F2165248F20153D5
:103A3C00884214BF104618467047094B984208D06C
:103A4C00084948F2165248F20353F1E748F2035082
:103A5C00704748F2025070470102F0000002F0007B
:103A6C000202F0000F02F00008B5083005F020F952
:103A7C00BDE80840FFF7D2BF10B5064C2368012BF8
:103A8C0003D005499320FEF707FBBFF35F8F00239C
:103A9C00236010BD1C7C002004AD0F0013681F2B8D
:103AAC0073B505460E4614461AD901210F48FEF788
:103ABC00AAFBBFF35F8FB0B900F076F8314605F181
:103ACC00080005F067F9019000F07CF8FFF7D4FFCF
:103ADC000198FFF7A3FF08B92023236002B070BD43
:103AEC0048F21450FAE748F20450F7E71C7C002027
:103AFC002DE9F04105460E46184801211446FEF703
:103B0C0082FBBFF35F8F20BB00F04EF8DFF85080D4
:103B1C000835B4F5805F274628BF4FF480573146EF
:103B2C003A46404606F052FA3A464146284605F0D7
:103B3C00D9F8E41B3E4450B9002CEAD100F042F80D
:103B4C00FFF79AFF2046BDE8F041FFF767BF044638
:103B5C00F4E748F20450BDE8F08100BF1C7C002063
:103B6C001C6C0020024B0020C3F80005704700BFFE
:103B7C0000A0025038B50A4B00251D60BFF35F8FC3
:103B8C00084C0123C4F8003505F034F9C4F800558D
:103B9C0020B1052848F2035018BF032038BD00BFE0
:103BAC001C7C002000A00250044B0122C3F800250D
:103BBC00034B4FF480625A60704700BF00A0025064
:103BCC0000E100E0044B0022C3F80025034B4FF446
:103BDC008062C3F88420704700A0025000E100E02E
:103BEC0003682F2B10B5044604D907494FF4F37022
:103BFC00FEF752FA23681F2B83BF03F01F03034801
:103C0C0023604FF0A04010BD58AD0F0000030050D2
:103C1C0007B5019001A8FFF7E3FF019A0123934038
:103C2C00C0F80C3503B05DF804FB07B5019001A892
:103C3C00FFF7D6FF019A01239340C0F8083503B073
:103C4C005DF804FB37B50446019001A80D46FFF75B
:103C5C00C7FF019B03F5E073032240F823202046A5
:103C6C0025B103B0BDE83040FFF7DFBF03B0BDE8BE
:103C7C003040FFF7CDBF0000024B800143F0010341
:103C8C00184700BF90AD0F0010B504464FF47A7082
:103C9C00FFF7F2FF013CF9D110BD13B5019001A85B
:103CAC000C46FFF79DFF019B03F5E073A40040F861
:103CBC00234002B010BD2DE9F34180460E46102082
:103CCC0000211746FFF7E9FF00210F20FFF7BAFF8D
:103CDC0000210E20FFF7B6FF0D20FFF7A6FF642092
:103CEC00FFF7CAFF0E20FFF793FF0D20FFF790FFA1
:103CFC000024A74209D10D20FFF797FF01210F20C7
:103D0C0002B0BDE8F041FFF79DBF072518F804305D
:103D1C002B41DB074FF00F0020D5FFF786FF0A2061
:103D2C00FFF7AAFF0E20FFF780FF0A20FFF7A4FF82
:103D3C00102301A80193FFF753FF019AD0F8103517
:103D4C00D34003F00103325DAB40134333550E20D7
:103D5C00FFF75EFF013DD9D20134CAE7FFF758FFE8
:103D6C00DDE707B58123ADF80030022200238DF882
:103D7C00010001A96846ADF80430FFF79CFF03B0C1
:103D8C005DF804FB07B560F07F0000238DF80000A0
:103D9C008DF80110022201A96846ADF80430FFF736
:103DAC008AFF03B05DF804FB08B52F20FFF730FF46
:103DBC000A20FFF769FF2F20FFF737FFBDE8084007
:103DCC000A20FFF761BF08B5FFF7EEFF00210120C5
:103DDC00FFF7D8FF0A20FFF757FF80210120FFF7DC
:103DEC00D1FF0A20FFF750FF8120FFF7BAFF0A200E
:103DFC00FFF74AFF00214020FFF7C4FF00214120BC
:103E0C00FFF7C0FF8020FFF7ACFF0A20FFF73CFF55
:103E1C00BDE8084000211020FFF714BF08B51120A1
:103E2C00FFF703FF6420FFF727FF1120FFF7F0FED9
:103E3C006420FFF721FF1120FFF7F7FEBDE80840D3
:103E4C006420FFF719BF38B505461320FFF7E0FED5
:103E5C001420FFF7DDFE1120FFF7DAFEFFF7DEFF7F
:103E6C001120FFF7D5FE072445FA04F3DB074FF0CA
:103E7C00140014D5FFF7D9FE0A20FFF7FDFE13201E
:103E8C00FFF7D3FE0A20FFF7F7FE1320FFF7C0FE63
:103E9C00013CE9D2BDE838401120FFF7C6BEFFF760
:103EAC00B7FEE9E7B920FFF7CEBF07B5002119200F
:103EBC00FFF7C8FE00212520FFF7C4FE00211C20BF
:103ECC00FFF7EBFE00212220FFF7BCFE0021212092
:103EDC00FFF7B8FE00212020FFF7B4FE00212420BC
:103EEC00FFF7B0FE00212320FFF7ACFE00212E20AF
:103EFC00FFF7A8FE00210E20FFF7A4FE00210F20E3
:103F0C00FFF7A0FE00211020FFF79CFE00210D20E2
:103F1C00FFF798FE00212F20FFF794FEFFF744FFD8
:103F2C0003210B20FFF7B9FE00211820FFF78AFEB2
:103F3C0000212C20FFF786FE0C2301A80193FFF72C
:103F4C004FFE019B00EB83000021D0F8003743F0BB
:103F5C000203C0F800372920FFF774FE0021282047
:103F6C00FFF770FE00211A20FFF76CFE00211B20CA
:103F7C00FFF768FE00212D20FFF764FE00210620CC
:103F8C00FFF760FE00210720FFF75CFE00210820F0
:103F9C00FFF758FE00210920FFF754FE00210420F2
:103FAC00FFF750FE00210520FFF74CFE00210A20F0
:103FBC00FFF748FE00211320FFF744FE01211120DA
:103FCC00FFF740FE00211420FFF73CFE00211520D6
:103FDC00FFF763FE01211620FFF734FE01211720A5
:103FEC00FFF730FEFFF75EFF03B05DF804FB10DF58
:103FFC00704711DF7047000013B504460949684645
:10400C00FEF7AAFF019808B902B010BDD0E9002153
:10401C002046904718B16846FEF7B8FFF2E711202A
:10402C00F2E700BF10AE0F0013B50446074968460F
:10403C00FEF792FF019B0BB902B010BD2046D3E9ED
:10404C00002190476846FEF7A1FFF3E728AE0F006A
:10405C00064B9A6822B11A6822F480021A607047E3
:10406C00034B4FF48002C3F880207047046A002091
:10407C0000E100E00C4991F816335A09EC23134186
:10408C00DB0706D5094B9A684AB94FF480030B60DD
:10409C007047074AA12142F2020000F001BE1A68E3
:1040AC0042F480021A60704700E100E0046A0020CC
:1040BC0096AD0F00F7B5194F3C7864BB184E01252F
:1040CC0020463570FFF798FF112821D02046FFF7C6
:1040DC00ABFF144B8DF80340186801900DF10300F1
:1040EC00FDF76EFF104901A8FFF781FF0446B0FAF7
:1040FC0080F0400938709DF80300FDF791FF3CB942
:10410C000A4B34701C70FFF7B5FF2846FFF78CFF85
:10411C00204603B0F0BD0824FAE700BF217C002044
:10412C00207C002009AE0F00D54C0F00227C002013
:10413C00F7B5154F3B781BB3144E01203070FFF7C9
:10414C005BFF11284FF000051CD00220FFF76CFF1D
:10415C000DF107008DF80750FDF732FFFFF749FF0F
:10416C0004469DF807003D70FDF75AFF2CB903205B
:10417C003470FFF76DFFFFF757FF204603B0F0BD1B
:10418C000824FAE72C46F8E7217C0020207C00204C
:10419C00054B1B7833B1054B1B780BB1FFF7C8BF30
:1041AC00FFF788BF08207047207C0020217C00206E
:1041BC00014B1878704700BF217C002007B50849D7
:1041CC006846FEF7C9FE019B13B903B05DF804FB0A
:1041DC00D3E9002090476846FEF7D8FEF3E700BF0E
:1041EC001CAE0F00FFF7EABF60DF704769DF704756
:1041FC0061DF704730B5154DADF5017D4FF4FA74A4
:10420C000DF1020103A8ADF80240FFF7F1FF70B900
:10421C00294601A8FEF7A0FE029B002BF0D003A8B4
:10422C00D3E90021904701A8FEF7B0FEF4E705287A
:10423C0008D0074A40F239110DF5017DBDE8304038
:10424C0000F02EBD0DF5017D30BD00BF20B10F007B
:10425C0034AE0F00024B1B780BB1FFF7CBBF70478E
:10426C00237C002018B1034B0360002070470E2004
:10427C00704700BFB857002030B5054685B00C46D6
:10428C00002900F0B5805B4B0B600C22002101A8CB
:10429C0005F0C5FE01238DF8063022688DF8045018
:1042AC00062301A92020ADF80830FFF79FFF60B16D
:1042BC00FEF7A6FE504B5149024651481B1ADB082B
:1042CC001B0443F00100FDF7C1FB0C22002101A8E7
:1042DC0005F0A5FE01238DF805302268002301A905
:1042EC004020ADF80630FFF781FF60B1FEF788FE85
:1042FC00414B4449024642481B1ADB081B0443F05D
:10430C000100FDF7A3FB0C22002101A805F087FE9C
:10431C00F72322688DF8045001A92320ADF806304C
:10432C00FFF764FF60B1FEF76BFE334B3649024674
:10433C0033481B1ADB081B0443F00100FDF786FB16
:10434C000C22002101A805F06AFE012022688DF8DC
:10435C00040001A9FFF74AFF60B1FEF751FE264B9E
:10436C002A49024626481B1ADB081B0443F00100AD
:10437C00FDF76CFB0C22002101A805F050FE4FF458
:10438C00B0632268019301A9A120FFF72FFF60B150
:10439C00FEF736FE184B1E49024619481B1ADB085D
:1043AC001B0443F00100FDF751FB0C22002101A876
:1043BC0005F035FE9DF8043022686FF3000301A967
:1043CC00A0208DF80430FFF711FF034668B1FEF70B
:1043DC0017FE094B0F49024609481B1ADB081B0440
:1043EC0043F00100FDF732FB0023184605B030BD49
:1043FC000E23FAE7B8570020B8A10F00A3AE0F00A8
:10440C0050A10F00E9AE0F0035AF0F007CAF0F00CD
:10441C00C8AF0F0019B00F0073B505460668FFF75B
:10442C00E3FE2B68B34204461DD91A481A4B1B49AC
:10443C001B1ADB081B0443F002000190FDF702FB82
:10444C002B68174901983246FDF709FB4FF0805352
:10445C002A68D3F80C31134901989B0203F10053DD
:10446C009A1AFDF7F3FA2CB90F4B01221A70204659
:10447C0002B070BD2046FEF7C3FD074B0B49024648
:10448C0004481B1ADB081B0443F00100FDF7DEFA9D
:10449C00EDE700BF50A10F00B8A10F006CB00F00EA
:1044AC009BB00F00CCB00F00237C0020F6B00F00A7
:1044BC004BDF70471FB50F4C01A8FFF7F9FF70B920
:1044CC00214602A8FEF748FD039B002BF4D001986F
:1044DC00D3E90021904702A8FEF758FDF4E7052820
:1044EC0006D0054A6B2104B0BDE8104000F0D8BBE3
:1044FC0004B010BDA8B10F002CB10F00024AD2F8C5
:10450C000034002BFBD0704700E001400A4908B58D
:10451C000223C1F80435BFF36F8FBFF34F8FC1F87F
:10452C000805FFF7EBFF0023C1F80435BFF36F8FCD
:10453C00BFF34F8F08BD00BF00E0014070B50E4EB9
:10454C0001231546C6F80435BFF36F8FBFF34F8FA9
:10455C000024AC4207D10023C6F80435BFF36F8F9B
:10456C00BFF34F8F70BD51F8243040F82430FFF763
:10457C00C5FF0134EDE700BF00E0014000F18040D1
:10458C0000F5C040002382B0036003680193019BD7
:10459C0002B07047C208012300F0070003FA00F0D4
:1045AC008B5C184388547047054B4FF0FF3207283B
:1045BC0043F8202084BFC01880F87020704700BFDB
:1045CC00247C002003682F2B10B5044604D907491E
:1045DC004FF4F370FDF760FD23681F2B83BF03F0CE
:1045EC001F03034823604FF0A04010BD58AD0F00CF
:1045FC000003005013B5019001A80C46FFF7E2FF31
:10460C00019B00EB8300D0F8003723F44033C0F853
:10461C000037D0F8003743EA0443C0F8003702B043
:10462C0010BD0000C208054900F0070001238340BB
:10463C00885C20EA03008854704700BFA67C0020E9
:10464C004FF0A043D3F810350360024BD3F810356C
:10465C0043607047000300502F2837B5044604D937
:10466C001F494FF4B470FDF717FD1E4D2B1993F92C
:10467C004830013304D11A4940F26910FDF70CFDA2
:10468C00291991F84800072809D8FFF78DFF91F9EF
:10469C004830154A03F5A273002142F823102B1958
:1046AC00FF2205EBD40583F8482095F8822004F00E
:1046BC00070101238B401A420FD001A80194FFF788
:1046CC0081FF019B03F5E073022240F82320204672
:1046DC0003B0BDE83040FFF7A5BF03B030BD00BF4D
:1046EC00B4B10F00247C0020006000402F2838B5A6
:1046FC00044604D917494FF41970FDF7CDFC164D3B
:10470C002B1993F94830002B04DA124940F265203A
:10471C00FDF7C2FC254495F94820072A05DD204603
:10472C000021BDE83840FFF765BFD3B2072B10D886
:10473C00930003F1804303F5C043D3F8101521F027
:10474C000101C3F81015012303FA02F2034BC3F85D
:10475C00082338BDB4B10F00247C00200060004059
:10476C002F2837B5044604D9204940F27520FDF7AF
:10477C0093FC1F4D2B1993F94830002B04DA1B497D
:10478C0040F27620FDF788FC2046FFF7AFFF2A1990
:10479C0092F9483092F84820072A9FBF154A03F532
:1047AC00A273002142F8231005EBD40304F0070197
:1047BC0093F8822001238B401A420CD001A801945B
:1047CC00FFF700FF019B03F5E073022240F8232062
:1047DC002046FFF727FF2C4494F84800FFF7E4FE2F
:1047EC00FF2384F8483003B030BD00BFB4B10F00D4
:1047FC00247C00200060004070B50F4D95F8883087
:10480C0023B90E494FF48B70FDF746FC0C4E002477
:10481C0016F9013B9A1C09D12046FFF71DFF013404
:10482C00302CF5D1002385F8883070BD002BF6DBD9
:10483C002046FFF795FFF2E7247C0020B4B10F006F
:10484C006C7C00202DE9F04F00248BB0CDE90244A4
:10485C005F4D4FF48072012102F1804303F5C04398
:10486C0090B21B68012B06D1D5F804330B4202D051
:10487C00FFF784FE0C430432B2F5907F4FEA4101FE
:10488C00EAD1534BD3F87C31012B08D14FF4BE70D5
:10489C00FFF774FE02A844F00044FFF7D1FEE3B228
:1048AC00D3B14C4F00250126344210D0AB0003F19C
:1048BC00804303F5C043D3F81005D3F8101557F80F
:1048CC00253023B1C1F30141C0F3052098470135D0
:1048DC00082D4FEA4606E7D1002C76DA0023CDE905
:1048EC0004334FF0FF33CDE90633DFF8E8A03A4B41
:1048FC00019300263546019B13F9014B0193631C70
:10490C004DD0C4F3C2070122E3B204F03F0B04F014
:10491C00070402FA04F40AAA174417F8101C2142DF
:10492C003DD00AEB0B014FEA931991F948105AF854
:10493C002180B8F1000F07D1B9F1030F2FD104A9D1
:10494C005846FFF727FE02E0B9F1030FF7D008A88D
:10495C00CDF820B0FFF736FE089901F5E07150F85C
:10496C00211017F8200C2042C1F3014106D0022976
:10497C0015D1B9F1030F0CD1494605E003290ED12D
:10498C00B9F1030F05D102215846FFF733FE01356B
:10499C00EDB2B8F1000F02D049465846C047013677
:1049AC000A2EA8D18DB108A8FFF74AFE029B089ADF
:1049BC009A42099B02D103998B4206D0029203932F
:1049CC00049A059B0692079391E70BB0BDE8F08F14
:1049DC0000600040247C00209C7C002028B139B170
:1049EC000023C1E900301846704748F21050704758
:1049FC0048F21350704730B1036848F240508B4274
:104A0C0008BF0020704748F21050704728B148F298
:104A1C001150914208BF0020704748F21050704767
:104A2C0070B506460C461D46FFF7D8FF50B9B37952
:104A3C004AB1AB420AD111462046FEF79DFF08B998
:104A4C00044B236070BD48F21050FBE748F2115044
:104A5C00F8E700BF7052464D2DE9F04383B00D4688
:104A6C0002AF04461149D7F82080284616469946CD
:104A7C00FFF7C1FF98B96B68796A5A7940465200C2
:104A8C00FFF7C4FF58B976B10CB9AAB002ACCDF897
:104A9C0000804B46324629462046FEF77DFF043700
:104AAC00BD46BDE8F08348F21050F8E77052464D11
:104ABC0010B5044638B149B10B684160984708B944
:104ACC00044B236010BD48F20150FBE748F2105034
:104ADC00F8E700BF6E524648F0B4134648B1076879
:104AEC00094EB7420AD161B12AB14368F0BC5B6888
:104AFC00184748F201531846F0BC704748F202536D
:104B0C00F9E748F21053F6E76E524648F0B460B13C
:104B1C0007680C4EB7420CD171B143681568DC685C
:104B2C00A5420CD3F0BC9B68184748F20150F0BC6E
:104B3C00704748F20250FAE748F21350F7E748F290
:104B4C001450F4E76E524648F7B50446DDE90867A1
:104B5C0015460193FFF7ACFF68B9019A2946204628
:104B6C00FFF7BAFF38B93A463146204603B0BDE8E4
:104B7C00F040FFF7CBBF03B0F0BD0000F8B50A4F13
:104B8C000A4C0B4EE41B0123E40833700025A542AC
:104B9C0003D1022333700020F8BD57F83530984705
:104BAC000028F9D10135F2E734A10F003CA10F0028
:104BBC00B07C002038B50D46044618B9084933209E
:104BCC00FDF76AFA691E21442046814200D238BDA5
:104BDC0003780A7800F8012B01F80139F5E700BFDA
:104BEC0026B20F0070B50D461446064618B90A4990
:104BFC004520FDF751FA1DB907494620FDF74CFA3F
:104C0C00621E3244013DB24200D270BD15F8013F24
:104C1C0002F80139F7E700BF26B20F0070B516464F
:104C2C0004460D46FFF7DEFF3246A919A019BDE870
:104C3C007040FFF7D7BF38B50D460446FFF7BAFFF3
:104C4C0029466019BDE83840FFF7B4BF7047000033
:104C5C0008B5FCF7B9FFFCF77FFD0028FBD10D4D23
:104C6C00642445F001054FF47A40A847013CFAD181
:104C7C00094BD3F8F020D20700D500BEBFF34F8FFD
:104C8C00D968064A01F4E0610A43DA60BFF34F8F3A
:104C9C0000BFFDE780B30F0000ED00E00400FA0553
:104CAC0008B506480B460649401AC00800040549D9
:104CBC0040F00100FCF7D3FEFFF7CAFF58A10F002C
:104CCC0050A10F00DCB20F0007B50B46064C07498C
:104CDC000092641AE40824040246054944F00100D9
:104CEC00FCF7C7FEFFF7B4FF58A10F0050A10F004F
:104CFC00E2B20F000022104638B54FF4805100F09C
:104D0C0077FB024618B1174A7F21FFF7C9FF1648F7
:104D1C00C0F57E2100F06CFB014610B1114A8121D7
:104D2C00F3E71248124CFCF7BDFCFCF7DDFB114B12
:104D3C001149E41AE408240444F003042046FCF767
:104D4C0081FE0E4800F062FA054610B1054A892131
:104D5C00DBE700F00FFB20460949FCF773FE284601
:104D6C0038BD00BF19B30F0000100F00B9570F006A
:104D7C0058A10F0050A10F005CB30F00594C0F004D
:104D8C0068B30F0038B1054B0360054B436001233A
:104D9C000372002070470E20704700BFD74D0F00E4
:104DAC00B14D0F0069B10B78022B0CD1022804D045
:104DBC00032814BF08201120704703230B70002018
:104DCC0070470E2070470820704710B50C4681B113
:104DDC000B78012B06D00ED9033B012B94BF082076
:104DEC00112010BD02F04EFD0028FAD102232370D1
:104DFC00F7E70E20F5E70820F3E7000070B5144B39
:104E0C00144A0C21D21AB2FBF1F2816911F8025C3E
:104E1C00044635B900690021914205D10123236074
:104E2C000EE04FF0FF30F6E71E68AE420CD1461C88
:104E3C0007D19D68D4E90001D4E90223A84720607A
:104E4C0070BD5E688642F4D001310C33E4E700BFDC
:104E5C0044A10F0050A10F001EF0040F0CBFEFF384
:104E6C000880EFF30980FFF7C9BF00BF0369C26870
:104E7C0093429CBF80681B18013B981A70472DE920
:104E8C00F843D0E902940546A9EB04084068904524
:104E9C0020440F46144404D905F098F8EC60BDE8A2
:104EAC00F8834246A4EB090405F090F868682246A2
:104EBC0007EB0801F0E72DE9F843C568064689467B
:104ECC0017464FF000083469B3687068A54228BFD4
:104EDC00E418013C621B5C1BBC4228BF3C4694425C
:104EEC0028BF144649462844224605F06FF8B3689B
:104EFC002544AB4208BF00253F1BA044A144F560EC
:104F0C00E1D14046BDE8F88310B5114C114AA261BD
:104F1C000223C4E90433104BE361A2644FF48053C1
:104F2C000E4A0F492362E26400231022E01DA362A3
:104F3C006362E362A3656365E365226505F0A2F82D
:104F4C000849204605F09EF82023A37110BD00BF30
:104F5C00B47C002086B30F003C7D00202C7D00200B
:104F6C008FB30F0093B30F0070B5164B182400FBD2
:104F7C0004451D4404FB00331646DC6A012C0ED09C
:104F8C00022C18D0E4B92846FFF770FF864204D8EB
:104F9C0032462846FFF773FF3446204670BD28463C
:104FAC00FFF764FF8642344628BF04462246284653
:104FBC00FFF765FFF1E72846BDE87040FFF77BBFC0
:104FCC000024EAE7B47C0020FFF79EBF33DF704774
:104FDC0041DF7047014B01221A7070475C91002031
:104FEC004FF08043D3F8000410F4803005D04FF418
:104FFC008032C3F8002400207047D3F8202502F03B
:10500C00F802A82A0AD1D3F82025D20706D5D3F85E
:10501C00202502F05602C3F8202570470120704766
:10502C0008B50948094B0A49C01AC008000440F0E9
:10503C000400FCF707FD074B074800221A70BDE877
:10504C00084002F043BB00BF58A10F0050A10F0055
:10505C009AB30F005C910020A5500F00042810B5E6
:10506C00044607D8022808D909494FF4702000F0EB
:10507C005DFB02E0831F012B06D9064B1B6833B185
:10508C002046BDE810401847FFF7CAFFF5E710BDF2
:10509C0099510F006091002008B5FCF795FDFCF7C5
:1050AC005BFB0028FBD10B4D642445F001054FF44C
:1050BC007A40A847013CFAD1BFF34F8F0649074B02
:1050CC00CA6802F4E0621343CB60BFF34F8F00BF9A
:1050DC00FDE700BF90B50F0000ED00E00400FA05FD
:1050EC00F8B5204B204C214FE41A3B6AE408240409
:1050FC00012B064644F0040406D01D492046FCF75B
:10510C00A1FC35462846F8BD4FF440535A68194B5C
:10511C009A4211D17A6B18B997F86032012B0BD0E7
:10512C0015484FF4805103F0D7F9054620B91349BF
:10513C002046FCF787FCE5E702F084FCBA690146DF
:10514C001EB997F8A132012B06D00D4803F0C4F913
:10515C00054608B90B49EBE70B492046FCF772FCF6
:10516C000125CFE750A10F0058A10F0034A9002052
:10517C00B0B30F00DBE5B15194AB0020DEB30F00F0
:10518C00D5AB002019B40F0041B40F0008B510487E
:10519C00104B1149C01AC008000440F00300FCF782
:1051AC0051FCFFF71DFFFFF79BFF68B9FFF724FBCE
:1051BC004FF0A043094AC3F82C27FFF707FF18B19B
:1051CC00074AAA21FFF76CFDBDE80840FFF728BF8E
:1051DC0058A10F0050A10F004EB40F000C0003009B
:1051EC0062B40F0008B50648064B0749C01AC00840
:1051FC00000440F00400FCF725FC002008BD00BFB3
:10520C0058A10F0050A10F00D7B40F0070B5494B37
:10521C00494C4A49E41AE408240444F004050646BF
:10522C002846FCF70FFC464B1E60FEF73EFEFEF7D1
:10523C00CAFD002002F060FA002876D100F024FCB0
:10524C00012867D0022872D000286ED13D4928462B
:10525C00FCF7F8FBFFF7C4FEFFF742FF00283ED136
:10526C0039492846FCF7EEFB4FF4702400F042FD60
:10527C00364A20211820FCF7DBFD18B1344AD32123
:10528C00FFF70EFD4FF08043D3F81C2502F0F80217
:10529C00B02A09D1D3F81C25D20742BFD3F81C255C
:1052AC0002F04E02C3F81C25FFF79CFF00283CD1EE
:1052BC002046284900F03AFA274800F069FEA0BBC6
:1052CC0026492846FCF7BEFB00F05AFDFCF73CFED5
:1052DC00FCF742FA0028F7D1FFF77AFEF4E74FF01B
:1052EC008043D3F81C3513F0B10F01D01C49B8E73B
:1052FC0002F000FBC8B91B4D28701B4802F0E6F900
:10530C002B7823B9124940F22E20FCF7C5FE00F091
:10531C0031F805E015492846FCF794FBFFF780FEB1
:10532C00134944F00100FCF78DFB032070BD4FF4D2
:10533C00A0249BE750A10F0058A10F00F1B40F005F
:10534C006091002008B50F0018B50F003C8D0020AF
:10535C0062B40F0099510F0069500F007BB50F001C
:10536C003BB50F005C910020E14F0F005CB50F00C6
:10537C006FB50F0037B5184B184C194D1949E41A75
:10538C00E408240444F004004FF480520190FCF72C
:10539C005DFBD5F8802014490198FCF757FB4FF0C2
:1053AC00FF33C5F88030C5F88031C5F88430C5F8B6
:1053BC00843101F055FD20B10C4944F00100FCF79B
:1053CC0041FBFCF7C9F90028FBD14FF4805003B026
:1053DC00BDE8304000F04CB850A10F0058A10F00B0
:1053EC0000E100E096B50F00CCB50F00F6B50F004C
:1053FC002DE9F0410546C1F30B0090BBB5F57F2FAD
:10540C002FD8194EDFF864E03368002A14BF062742
:10541C0002278446072B06D9BCF1000F00D033605D
:10542C000420BDE8F0811C0104F1804202F5F03249
:10543C007444C2F80058C2F80418C4F80878D2F8BA
:10544C000088454503F101034FF0010CE2D1D2F87D
:10545C0004289142DED1D4F808289742DAD133607F
:10546C00DFE70720DDE700BF6491002000E001408A
:10547C0030B504462C4889B00022C0F57F21FFF7D7
:10548C00B7FF50B1294A2A4B2A499B1ADB081B0447
:10549C00024643F00100FCF7D9FA02F0D3FA264B8E
:1054AC009969002201441046FFF7A2FF50B11F4A30
:1054BC001F4B22499B1ADB081B04024643F00100D8
:1054CC00FCF7C4FAEFF305810023D4E9002083F341
:1054DC00148883F3108883F3118883F31388C1F342
:1054EC00080139B982F308884FF0FF339E46004714
:1054FC0009B030BDA2F120044FF0FF35CDE90033E7
:10550C00CDE90233CDE90550049320224FF080738E
:10551C0069462046079304F059FD84F30888AE468B
:10552C006FF006031847E3E700100F0050A10F00BF
:10553C0058A10F002BB60F0034A9002062B60F0043
:10554C0073B5274B064627481B1ADB081B040C4671
:10555C003246254943F00400FCF778FAB4F1807F19
:10556C0039D322498F20FCF797FD6FF07F41A14280
:10557C0028BF21461E4B641AD3F80455631E942B86
:10558C0096BF9634746074600D44347B25F07F456F
:10559C0098BF963D032C03D914497720FCF77CFD6A
:1055AC00134E04F5A8734FF4F86046F82350114BD2
:1055BC0043F001039847104BA200134400221A60D9
:1055CC001B680193019B4FF4803303FA04F4C6F873
:1055DC00044302B070BD952CC7D804499020C2E793
:1055EC0058A10F0050A10F0096B60F00ACB60F00DB
:1055FC000040024050B70F00404102401FB518490F
:10560C000B7853BB4FF08043A024D3F81824D2035B
:10561C005CBF01229A60134B0022C3F80021D3F81F
:10562C00000103900398C3F84021D3F84001029085
:10563C000298C3F84421D3F84401019001980A4818
:10564C0080F8244310244460C3F80825022001226A
:10565C009A601A60C3F804030A7004B010BD00BF4E
:10566C006C9100200040024000E100E0264B2DE947
:10567C00F743D3F8042152B124490A6801320A6075
:10568C000022C3F80421D3F804310093009B204D71
:10569C00204B214C214EDFF89080DFF86C90204F8E
:1056AC00ED1AED082D0445F004053368CBB1002349
:1056BC00336033680193224641462846019BFCF730
:1056CC00C5F9227B17494FF480339340C9F808334E
:1056DC0022462846FCF7BAF9616851B12046FFF71B
:1056EC002FFF0436BE4204F11004DED103B0BDE836
:1056FC00F083A16811B12046FFF722FF2368002B2D
:10570C00EFD09847EDE700BF0040024068910020C1
:10571C0058A10F0050A10F00D45700204041024067
:10572C00484102403EB70F002CB70F00F8B5114BA3
:10573C00114E0446114837681B1ADB081B043A4605
:10574C0043F004000D460E49FCF780F93A7B4FF408
:10575C00803393400B4AC2F808334CB13668FFF7DC
:10576C004DFF356021463046BDE8F840FFF7E8BEF6
:10577C00F8BD00BF58A10F00F457002050A10F0036
:10578C002CB70F000040024070B5074B1D68044653
:10579C000E46A860FFF732FF2E6021462846BDE872
:1057AC007040FFF7CDBE00BFF8570020034A044BF2
:1057BC001068D3F8043503EB006070476891002043
:1057CC0000400240014B01221A7070476D9100207D
:1057DC00224BDA6AAC2A2DE9F3415F6A9D6C1FD12A
:1057EC005B6B1D44FF1A1E4B1E4E1F4A1F49009730
:1057FC00F61AF608360446F004082B464046FCF729
:10580C0038F919483A46294604F0A9FB044668B908
:10581C0017494046FCF716F9204602B0BDE8F08166
:10582C00002DE0D102F022F90546DCE711493B4698
:10583C002A464046FCF713F9FBF78EFF0028FBD1F4
:10584C0000F09EFA3946284601F0ECFA044600288E
:10585C00E2D0094946F00100DCE700BF34A9002082
:10586C0050A10F0058A10F0000100F0056B70F00E9
:10587C008BB70F00C2B70F00EFB70F002DE9F04F39
:10588C003C4B16463C4A9B1A87B0DB081B048142F2
:10589C0005460F46049343F0040B08D1374958468C
:1058AC00FCF7D0F80024204607B0BDE8F08F03D2F7
:1058BC0033494F20FCF7F0FBC5F30B031BB1304908
:1058CC005120FCF7E9FB7B1BB3F5805F4FEA1334E7
:1058DC0003D22B495420FCF7DFFB00F00BFA082C09
:1058EC0028BF082406F6FF7923034FEA19390394DD
:1058FC0005930EB93446D6E7039B4B453ABFDDF80A
:10590C000CA0DDF81480CA464FF000025146284620
:10591C0028BFB04601F040FA04460028C3D119490B
:10592C00CDF800802B463A465846FCF7A2F808F111
:10593C000302234622F003023946284601F0EEF911
:10594C0004460028AFD1104A136B4344136301F093
:10595C00C3FEA9EB0A09A6EB0806454447440446D6
:10596C000028C6D0049B094943F00100FCF76AF8F3
:10597C0099E700BF58A10F0050A10F0009B80F0004
:10598C0018B80F009BB80F0034A90020BCB80F004A
:10599C002DE9F74302F07CF8314C324BDFF8E49000
:1059AC003149D9F84860D9F83080D9F83450E41A24
:1059BC00E4082404074644F004000190FCF742F884
:1059CC0006F5005301985A68284B9A4209D0284989
:1059DC0044F00100FCF736F80325284603B0BDE877
:1059EC00F083D9F83030AB421E4404D12149FCF786
:1059FC0029F80025F1E7C3B94FF440521178142966
:105A0C0082BF1D495269B2FBF1F206F5005198BFF5
:105A1C001A4691F800C0BCF1140F82BF4969164BAD
:105A2C00B1FBF3F31549FCF71AF8A5EB080202F6E3
:105A3C00FF7222F47F6222F00F02314607EB08005E
:105A4C00FFF71CFF054628B10D4944F00100FBF798
:105A5C00F9FFC2E703B0BDE8F04301F03DBE00BF63
:105A6C0058A10F0050A10F00F5B80F00DBE5B151A4
:105A7C001AB90F004EB90F0040420F0060B90F0069
:105A8C0089B90F0034A900202DE9F0475F4B604D18
:105A9C00604F6149ED1AED082D0445F004063046BF
:105AAC00FBF7D0FFFB6AAA2B00F098800CD8012BD7
:105ABC0020D0A52B00F0888045F003005749FBF758
:105ACC00C1FF0020BDE8F087AC2BF5D1544930461E
:105ADC00FBF7B8FF53493046FBF7B4FFFFF758FF0D
:105AEC000446002800F082804F4945F00100FBF786
:105AFC00A9FF70E04D493046FBF7A4FFD7F824907E
:105B0C00D7F848A001F09EFF3C6B494900EB040814
:105B1C003046FBF797FF396B5144884514BFA9EB0E
:105B2C00040200224046FFF7A9FE044688B341490F
:105B3C003046FBF787FF4FF000082246FB6A3E49D0
:105B4C00DFF824913046FBF78AFF3C4801F06EFFEA
:105B5C0000233B4889F8003001F0BEFD99F8003075
:105B6C00044623B9374940F2A310FCF795FA36499D
:105B7C003046FBF767FF002C3FD1B8F1000F43D044
:105B8C003B6A012B40D130463049FBF75BFF0220CA
:105B9C0098E701F057FF22464946FCF761FABA6ACA
:105BAC009042804609D12A493046FBF74BFF01232E
:105BBC00C7E90783C7F81890BDE70346254945F0A8
:105BCC000100FBF74CFFB6E723493046FBF73AFFE1
:105BDC00FFF7DEFE04464FF00108AEE71F493046E2
:105BEC00FBF730FFFFF7F4FD0446A4E7FFF7F0FDE9
:105BFC0004460028EFD01A4977E745F0010019490F
:105C0C00FBF720FF03205DE701205BE750A10F00AD
:105C1C0058A10F0034A90020A2B90F00AEBA0F0092
:105C2C0057BA0F0065BA0F0082BA0F00C3B90F0044
:105C3C00CDB90F0089B90F00C3BA0F0058A90020C5
:105C4C00D1570F0018B80F00F8BA0F001FBB0F0088
:105C5C00E8B90F00FDB90F0045BA0F004EBA0F009E
:105C6C0098BA0F007BBB0F006D9100200A4AD2F846
:105C7C0000347BB109480023D2F80815D940C90774
:105C8C0048BF03F5C07103F1010348BF42F821007E
:105C9C00072BF1D1704700BF000001403546526E12
:105CAC0008B50748074B0849C01AC008000440F063
:105CBC000300FBF7C7FEBDE80840FFF7D7BF00BFE6
:105CCC0068A10F0050A10F0095BB0F0007B5084B42
:105CDC000022C3F80021D3F800310193019BFBF79C
:105CEC0073FFFBF739FD0028FBD103B05DF804FB13
:105CFC000000014037B5194D2B784BBB184819499A
:105D0C00194B401AC008D3F80024000440F00300DB
:105D1C0002B3D3F80445154901902246FBF796FED1
:105D2C0040F616529442B8BF1446A4F54864FFF7E7
:105D3C009DFF22460E490198FBF788FE0D4920462F
:105D4C00FFF722FD0C4B4FF480321A6001232B70AD
:105D5C0003B030BD0949FBF775FEF7E76E910020E3
:105D6C0068A10F0050A10F0000000140A3BB0F0061
:105D7C00BCBB0F00AD5C0F0000E100E0EEBB0F0000
:105D8C00034BD3F800340BB1FFF770BF704700BF63
:105D9C00000001404FF08053D3F83021082A03BF94
:105DAC00D3F83401B0FA80F04009002070470000AD
:105DBC0008B54FF080430022C3F80C21C3F8102122
:105DCC00C3F838254FF0805203F54043D2F8041441
:105DDC00C3F82015D2F80814C3F82415D2F80C1403
:105DEC00C3F82815D2F81014C3F82C15D2F81414D3
:105DFC00C3F83015D2F81814C3F83415D2F81C14A3
:105E0C00C3F84015D2F82014C3F84415D2F8241462
:105E1C00C3F84815D2F82814C3F84C15D2F82C1432
:105E2C00C3F85015D2F83014C3F85415D2F8341402
:105E3C00C3F86015D2F83814C3F86415D2F83C14C2
:105E4C00C3F86815D2F84014C3F86C15D2F8442482
:105E5C00C3F87025FFF79EFF18B13B4B3B4AC3F8C4
:105E6C008C26FFF797FF18B1394BFB22C3F8182586
:105E7C00FFF790FF70B14FF080414FF08053D1F895
:105E8C00E42ED3F8583222F00F0203F00F03134321
:105E9C00C1F8E43EFFF77EFF20B12E4B4FF40072A9
:105EAC00C3F840264FF08043D3F80024D20744BFF8
:105EBC006FF00102C3F80024274AD2F8883043F46B
:105ECC007003C2F88830BFF34F8FBFF36F8F4FF062
:105EDC001023D3F80022002A03DBD3F80432002B62
:105EEC002EDA1E4B0122C3F80425D3F80024002A15
:105EFC00FBD04FF010221221C2F80012D3F800246C
:105F0C00002AFBD04FF010231222C3F80422134BAB
:105F1C00D3F80024002AFBD00022C3F80425D3F8C0
:105F2C000024002AFBD0BFF34F8F0B490C4BCA68DF
:105F3C0002F4E0621343CB60BFF34F8F00BFFDE769
:105F4C00084B094A1A6008BD005000404881030004
:105F5C0000F000400090024000ED00E000E0014045
:105F6C000400FA05FC5700200090D003062810B559
:105F7C00044602D1002001F01FFD044B1B681BB12D
:105F8C002046BDE81040184710BD00BF709100209E
:105F9C0038B5104B104C1860104B1149E41AE4083A
:105FAC00240444F00300FBF74DFD0020FFF7DEFF57
:105FBC000C4801F0C7FC054620B9BDE8384009483B
:105FCC0001F0A4BA0246084944F00100FBF73EFD7B
:105FDC00284638BD7091002058A10F0050A10F0029
:105FEC00C8BD0F00795F0F00DBBD0F006CDF704781
:105FFC006DDF704772DF704773DF704774DF704777
:10600C0075DF704776DF70477ADF70477CDF70474B
:10601C007DDF70477FDF704786DF70478FDF70470B
:10602C0090DF7047A8DF7047AADF7047ADDF70477D
:10603C00AEDF7047B0DF7047B1DF7047B5DF704738
:10604C0062DF704766DF704713DF704710B5094B8E
:10605C000949044609481B1ADB081B04224643F075
:10606C000400FBF7F3FC21460548BDE81040FCF7A3
:10607C0093B900BF70A10F0005BE0F0050A10F0017
:10608C00DCA10F0070B518228CB00DEB02000021C2
:10609C0003F0C5FF282308932348244B2449254C9F
:1060AC00C01AC0080004012540F004008DF81850F7
:1060BC008DF82D50FBF7C6FC1623ADF806300023E7
:1060CC00CDE9033305930223062223702371592350
:1060DC000926A27063710322FE236570E270A3711E
:1060EC000DF10601A0190294ADF80C60FFF790FFBA
:1060FC00B8B9BDF8063026725A19E271BDF80C20F9
:10610C000D4C134402A906AA2046ADF80C30FFF73B
:10611C0071FF30B92078FFF771FF20782946FFF71F
:10612C006BFF0CB070BD00BF70A10F0050A10F0031
:10613C0017BE0F00F2A1002000580020F0B5038814
:10614C00242B8FB0044651D80BB90FB0F0BD013BD6
:10615C00232BFAD801A252F823F000BF99650F0047
:10616C0057610F0057610F0057610F0057610F0007
:10617C0057610F0057610F0057610F0057610F00F7
:10618C0057610F0057610F0057610F0057610F00E7
:10619C0057610F0057610F0029620F006D620F00ED
:1061AC003D640F00DF630F00B5660F0057610F00F1
:1061BC0057610F0057610F0057610F0057610F00B7
:1061CC00E3660F0057610F0057610F0057610F0016
:1061DC0057610F0079640F0057610F0045650F0080
:1061EC00B7640F008D630F00C1630F00503B9AB270
:1061FC00062AAAD8062BA8D801A252F823F000BF71
:10620C00A1620F00B1650F00E3660F0057610F002C
:10621C0057610F0027630F0079650F00AA4BAB4D38
:10622C00AB49AC4EED1AED082D0445F00400FBF71C
:10623C0009FCA3883380A84B1B680BB1012098473D
:10624C00A6493088FFF7DCFE024600283FF47DAFFC
:10625C00A34945F001000FB0BDE8F040FBF7F6BBD9
:10626C009C4B4FF6FF721A809E4B1B685A0707D443
:10627C00FFF708FF20B19C4A40F29D21FEF710FD6C
:10628C00954B1B68002B3FF460AF02200FB0BDE8AC
:10629C00F0401847954FE288BB889A427FF455AF7F
:1062AC0093488A4DFCF74CF8874BED1AED082D04FA
:1062BC00064638B98F4945F002000FB0BDE8F040F2
:1062CC00FBF7C0BBF4230093238A8B49024645F0AD
:1062DC000400FBF7CEFB228A04F11201304603F0D6
:1062EC0075FE1822002108A803F099FE08238DF8EA
:1062FC002030824B0A93824B0997CDE90B3608A8C4
:10630C00238AADF8343001F0E1F800283FF41DAFDA
:10631C0077483146FCF740F817E7E288F62A2BD885
:10632C00D31E9B072AD0D31F9BB2013B594201F0CD
:10633C00030103F0030302F1FF3458BF4B42E31A8D
:10634C009CB2614B61486F49C01AC00800042346D7
:10635C0040F00400FBF783FB5E4B21461888FFF7E7
:10636C006DFE00283FF4F1AE5F4A40F2CF210FB032
:10637C00BDE8F040FEF794BCF724E2E71446E0E7F2
:10638C00514B52486049C01AC008000440F0040048
:10639C00FBF758FB0022A08808A9CDE90822FFF7DB
:1063AC003FFE00283FF4D1AE4F4A40F2DE21FEF70B
:1063BC0077FCCAE6444B454862895449C01AC00868
:1063CC00E389000440F004000FB0BDE8F040FBF797
:1063DC0046BB3D4B3D4C4E493E4DE41AE40824046B
:1063EC0044F004042046FBF72DFB02230893288875
:1063FC0006AB08AA42F605210993FFF717FE20B158
:10640C00394A40F2F721FEF74BFCBDF81820414900
:10641C002046FBF71BFB002328881A468521FFF733
:10642C00F9FD00283FF491AE2F4A40F2FF21BEE760
:10643C00254B26483849C01AC008000440F0040017
:10644C000390FBF7FFFA628934490398FBF7FEFAD5
:10645C00228933490398FBF7F9FAA2893149039849
:10646C00FBF7F4FAE28930490398F4E6164B174D22
:10647C002E49ED1AED082D0445F00400FBF7E2FA65
:10648C00144B04F108011888FFF7BAFD04460028E4
:10649C003FF45BAE0246264945F00100FBF7D6FA05
:1064AC00114A4FF44771204661E7074B07482149D1
:1064BC00C01AC008237A00930004637AA27A40F0D1
:1064CC000400FBF7D6FA40E650A10F0070A10F00B4
:1064DC0026BE0F000258002018A2002096C30F0001
:1064EC0030BE0F0014A200205EBE0F00DEA1002003
:1064FC00DCA10F00D8BE0F00F7BE0F0031680F00F3
:10650C0059600F0017BF0F005DBF0F008EBF0F004B
:10651C00CCBF0F00F4BF0F0017C00F003EC00F0020
:10652C0054C00F006AC00F007CC00F0091C00F0058
:10653C00C0C00F00F5C00F00714B72487249C01AF1
:10654C00C008000440F00400FBF77CFA0023A0888C
:10655C008DF8203008A98DF82130FFF75FFD002859
:10656C003FF4F3AD694A4FF44D7120E7A379002B4A
:10657C007FF4EBAD664B13211888FFF743FD002821
:10658C003FF4E3AD614A40F23D31F0E6604B00214F
:10659C001888FFF757FD00283FF4D7AD5B4A4FF43E
:1065AC005171E4E6A379002B3FF4CFAD022B7FF4BD
:1065BC00CCAD584D2189AA8991427FF4C6ADA27BFE
:1065CC00012A7FF4C2AD4FF480320992228A504ED8
:1065DC00ADF82820628AADF82A2004F114020B923F
:1065EC0005AF298A3088089306AA06930797FFF708
:1065FC001DFD60B9384602F003FA40B940F2FD13B4
:10660C003088ADF8243008A9FFF714FD9DE5002370
:10661C0008A93088ADF82430FFF70CFD014600289E
:10662C007FF493AD182208A803F0F9FC237D3A4AB5
:10663C008DF82030022B09950A9224D0062B10D00D
:10664C00012B10D1354B1A88354B1A80637DD4F849
:10665C0016200C93012B0D9205D1324801F0ACF9A8
:10666C0001E0637D0C9308A800F030FF00283FF494
:10667C006CAD234A234B2C499B1ADB081B040246A6
:10668C0043F00100E7E51E4B1E482849C01AC0081C
:10669C00000440F00400FBF7D5F9204AB4F815309B
:1066AC0013801F4A1380DEE7154B16482049C01A89
:1066BC00C008000440F00400FBF7C4F90023A088D4
:1066CC001A461946FFF7A8FC00283FF43EAD0F4AC6
:1066DC0040F26B314BE60023A0881A461946FFF7AF
:1066EC00ABFC20B1094A40F27631FEF7D9FA0548E5
:1066FC00034B1049C01AC008000440F00400DCE54C
:10670C0050A10F0070A10F002FC10F005EBE0F0033
:10671C0002580020DEA1002031680F001CA20020CE
:10672C001EA200203CA10F006AC10F0058C10F002F
:10673C009EC10F00C4C10F0070B5204E346814F018
:10674C00010432D01E4B984236D01E4B1E4D1F4CAE
:10675C001F49ED1AED082D0445F004052846FBF7FA
:10676C0071F922884FF6FF739A4220D019492846B6
:10677C00FBF768F93368208843F004031321336076
:10678C00FFF740FC044680B9134EC82446F00106BE
:10679C004FF47A40B047013CFAD1FDF7C9FC0446EE
:1067AC0018B90E492846FBF74DF9204670BD0C4B25
:1067BC001878FFF723FCF0E70024F6E714A200207A
:1067CC003CA10F0050A10F0070A10F000258002037
:1067DC00E6C10F0003C20F0090C30F0012C20F00DE
:1067EC00005800207FB50023CDF80B308DF80F300A
:1067FC000A4BADF806109B89ADF8083001238DF8D3
:10680C000A300DF10603CDE90430054B02A91888B6
:10681C00FFF70EFC07B05DF804FB00BFDEA1002003
:10682C000258002030B50D4687B0044620B94649C1
:10683C0040F28710FBF730FC25B943494FF4C47084
:10684C00FBF72AFC00210D2202A8019103F0E7FBC3
:10685C002378082B0BD13D4A3D4913880988013B0D
:10686C009BB2138031B32BBB03231180237063784D
:10687C0022788DF805206021012B8DF804108DF8FD
:10688C00063019D033493448401AC0080004334943
:10689C0040F00200FBF7E3F863780B2B12D100F009
:1068AC00B7FA8DF80700002000F0ACFA042101A81B
:1068BC00FFF798FF07B030BD062A05D0082A29D06B
:1068CC00032A27D00321F2E7E1688DF80710D4E9F9
:1068DC000123080A8DF80800080C090E8DF80A101F
:1068EC00110A8DF80B208DF80C10110C120E8DF86E
:1068FC000E201A0A8DF80F308DF810201A0C1B0E72
:10690C008DF80D108DF809008DF811208DF81230CE
:10691C000F21CCE7D4E90123110A8DF807208DF85B
:10692C000810110C120E8DF80A201A0A8DF80B3073
:10693C008DF80C201A0C1B0E8DF809108DF80D20FB
:10694C008DF80E300B21B2E75EBE0F001EA20020A8
:10695C001CA2002050A10F0070A10F002BC20F0031
:10696C002DE9F041054694B020B9404940F257401A
:10697C00FBF792FB3E4B4FF6FF721A8001204FF64D
:10698C0059632A4602A98DF80A00ADF80830FFF7C2
:10699C0049FB0446002865D1364B04AA03F11007C5
:1069AC00164618685968144603C40833BB4222467D
:1069BC00F7D1A91C3046FFF743FB0446002851D100
:1069CC0001461C220DA803F02AFB9DF834308DF8EB
:1069DC00044043F004038DF834300223ADF80C303E
:1069EC00AB788DF80E3003238DF80630F423CDE907
:1069FC000A44ADF82C302B464FF0110833F8040B39
:106A0C000C9403AF01AE08AA0DA98DF80580089768
:106A1C000996FFF709FB044620BB01461C220DA872
:106A2C0003F0FDFA18238DF834300123ADF80C3047
:106A3C00AB788DF80E3013238DF806301723CDE983
:106A4C000A44ADF82C302B4608AA33F80C0B8DF801
:106A5C0004400DA90C94CDE908768DF80580FFF75C
:106A6C00E3FA0446204614B0BDE8F0815EBE0F0088
:106A7C00025800207FC30F002DE9F0415D4E3368B2
:106A8C0013F0010486B0804640F0B1805A485B4F49
:106A9C005B493F1AFF083F0447F004052846FAF704
:106AAC00D1FF584B5848C3F80080FBF70BFC0494FB
:106ABC0000F0C9F90446002840F08680534A544936
