:020000040000FA
:080FF80000100F0000E00F00E3
:02000004000FEB
:10100000000004205D130F0045130F0047130F006D
:1010100049130F004B130F004D130F000000000089
:1010200000000000000000000000000065370F0015
:1010300051130F000000000053130F0055130F0051
:1010400057130F0057130F0057130F0057130F00BC
:1010500057130F0057130F0039320F0057130F00AB
:1010600057130F0057130F0057130F0057130F009C
:1010700057130F0057130F0057130F0057130F008C
:10108000E53E0F0057130F0057130F0057130F00C3
:1010900057130F0057130F001D2E0F0057130F008B
:1010A00057130F0057130F0057130F0057130F005C
:1010B00057130F0057130F0000000000000000003E
:1010C00057130F0057130F0057130F0057130F003C
:1010D000E13B0F0057130F0057130F0057130F007A
:1010E00057130F0057130F00F16E0F0000000000A0
:1010F0000000000057130F000000000057130F00FE
:1011000000000000000000000000000000000000DF
:1011100000000000000000000000000000000000CF
:1011200000000000000000000000000000000000BF
:1011300000000000000000000000000000000000AF
:10114000000000000000000000000000000000009F
:10115000000000000000000000000000000000008F
:10116000000000000000000000000000000000007F
:10117000000000000000000000000000000000006F
:10118000000000000000000000000000000000005F
:10119000000000000000000000000000000000004F
:1011A000000000000000000000000000000000003F
:1011B000000000000000000000000000000000002F
:1011C000000000000000000000000000000000001F
:1011D000000000000000000000000000000000000F
:1011E00000000000000000000000000000000000FF
:1011F00000000000000000000000000000000000EF
:10120000314932480A1A02D0072291438D463049AB
:1012100030480A1A06D00722914381F30988022236
:1012200082F314882C482D492D4A00F03CF82D48B3
:101230002D492E4A00F037F82D482E492E4A00F04D
:1012400032F82E482E492F4A00F02DF82E482F490B
:101250002F4A00F028F82F482F49304A00F023F891
:101260002F483049304A00F01EF8304830490022FB
:1012700000F024F82F483049002200F01FF82F4AD0
:1012800090471F481F49884205D00268043003B4C4
:10129000904703BCF7E700208646EC46002000217B
:1012A000274A9047FEE7884207D0521A05D00378B4
:1012B00001300B700131013AF9D17047884202D0F8
:1012C00002700130FAE770470000042000F80320A4
:1012D00000000420000004202C750F00CC570020D3
:1012E00004580020BC130F00BC130F009A700F00AD
:1012F0002C750F00CC570020CC57002010710F0028
:1013000010710F0010710F0010710F0010710F009D
:1013100010710F0010710F0010710F002C750F006D
:1013200064750F0004580020045800200458002061
:101330004C8E00204C8E00204C8E002085130F0018
:1013400051360F00FEE7FEE7FEE7FEE7FEE7FEE7A9
:10135000FEE7FEE7FEE7FEE7704700BF1048804764
:1013600010484FF00701884385460F4880470F48D3
:10137000016841F470010160BFF34F8FBFF36F8FBD
:10138000FFF73EBF0A480B490B4A884207D0521A62
:1013900005D0037801300B700131013AF9D1704763
:1013A00059130F00000004207D3F0F0088ED00E07E
:1013B000FC700F00B8570020CC5700204B1C30B5F4
:1013C000DB00044612F003009BB20DD1074D2A60EA
:1013D0001A44074B1A60074B1870074B1870074BDD
:1013E0001C80074B198030BD0720FCE70C580020FB
:1013F00008580020045800201458002010580020DD
:10140000125800202DE9F347DFF8C080B8F800300B
:101410008B4206460D4617464CD300240DF10700BB
:101420008DF8074000F084F8244B254A25481B78A6
:10143000008892F800C084455FFA8CF138BF4C1CDC
:10144000DBB238BFE4B2A3422ED014781178CBB20D
:10145000884286BF0133DBB2002313709DF807007A
:1014600000F08AF84FF6FF739C4225D0DFF86090B9
:10147000D9F800204FEAC40A42F8347002EBC403E2
:10148000AEB1A5B1104BB8F800001B682A4604FBAA
:101490000030314605F075FDD9F800305344002086
:1014A0009D8002B0BDE8F0874FF6FF74D6E70020BC
:1014B0009880F6E70920F4E70420F2E714580020AA
:1014C000045800201258002008580020105800200E
:1014D0000C58002070B5104C104D22782B789A4291
:1014E00000D170BD0E480F4A2378126806880E4856
:1014F00002EBC301006852F83320898803FB060021
:1015000090470A4922780988D3B2914286BF0133B5
:10151000DBB200232370E0E71458002004580020B9
:10152000105800200C5800200858002012580020A5
:1015300070B5EFF3108672B60C4A946801239CB91B
:1015400093600B4B0B4DD3F8801029401160C3F80A
:101550008050D3F8841051604FF0FF32C3F88420DC
:10156000047006B962B670BD0370FAE7185800201F
:1015700000E100E0FC06FFBD084B9A6810B55AB1C7
:1015800050B9EFF3108172B6054A1C6814605C68AC
:101590005460986001B962B610BD00BF18580020B1
:1015A00000E100E030B53AB11368DB430A4D014475
:1015B000814204D1D84330BD4FF0FF33F6E710F835
:1015C000012B5340082213F0010418BF2C46013AA6
:1015D00084EA5303F7D1EBE72083B8ED10B561B18E
:1015E000B2FBF3F403FB1424A4B244B9C0E9001421
:1015F00084608281C381204610BD0E20FCE7092053
:10160000FAE782B050E8022FC188B2EB324F4FF0B8
:10161000000317BF92B241EA014142EA014104E0EE
:101620004268B2EB324F08BF012340E80212002AA1
:10163000E8D18DF807309DF80730002B0CBF112042
:10164000002002B0704737B550E8013F9DB2C48911
:1016500025448489A54228BF2D1B0489A54202BFC9
:10166000BFF32F8F002207E0C5EA030540E80154CD
:10167000002CE9D14FF001028DF803200193019A6B
:101680000A609DF8031001F0FF0321B1006810FA11
:1016900082F003B030BD1846FBE70A884B889A42B7
:1016A00009D150E8012FC2EA024240E80123002B91
:1016B000F7D1012070470020704737B550E8023F4E
:1016C0001FFAA3F5C488A54202BFBFF32F8F0022E3
:1016D0000DE0C48925448489A54228BF2D1BC3EA97
:1016E000054540E80254002CE8D14FF001028DF886
:1016F00003200193019A0A609DF8031001F0FF0393
:1017000021B1006800EB124003B030BD1846FBE782
:101710000A884B889A4209D150E8022FC2EA224235
:1017200040E80223002BF7D10120704700207047CA
:1017300010B5034653E8000F0A4643E8002494F02E
:10174000000FF7D110BD10B5034653E8000F40EA73
:10175000010243E8002494F0000FF6D110BD10B54B
:10176000034653E8002F02EA010043E8000494F026
:10177000000FF6D110BD0121FFF7E5BF0021FFF7F3
:10178000EEBF10B590B1D0E9012301689B1ADBB21E
:101790000A60013BDBB2FF2B026802D1002010710E
:1017A00010BD11684C1C14600B70F2E70E20F7E7B7
:1017B00037B5054600240DF107008DF80740FFF707
:1017C000B7FE2A686B68116899420ED9481E1060EE
:1017D00011F8013CEC68298A01FB0344AB681179DC
:1017E0001B1ADBB2994238BF13719DF80700FFF74F
:1017F000C3FE204603B030BD37B5054600230DF1CA
:1018000007000C468DF80730FFF792FE2A68136830
:10181000591C1160E968641A298AB4FBF1F41C7040
:101820009DF80700FFF7A8FE03B030BD0B6801600C
:101830001146184710B40468E468A4465DF8044BE8
:10184000604710B404682469A4465DF8044B6047FF
:1018500070B550B90E4D0F4C0026641B1423B4FB19
:10186000F3F4B44208D1002010E00368002BF1D05B
:10187000BDE87040DB6918472B6813B90136143591
:10188000EFE7DB69284698470028F7D070BD00BF16
:10189000B8570020CC570020014B43600020704710
:1018A00010710F000846704700207047024B1868FF
:1018B000003818BF012070472458002008B502489E
:1018C000FFF75CFF002008BD2458002008B5104633
:1018D0001A4605F056FB002008BD00002DE9F04136
:1018E000804686B011480F4616461D46FFF743FF57
:1018F0000446C8B9AA083146384601F087FB0B48B0
:10190000FFF73CFFD8F8083053B101228DF80020D2
:101910000C9A0592CDE90147CDE9036568469847E1
:10192000204606B0BDE8F0811124F9E724580020D4
:101930002DE9F043814687B014480E461546984677
:10194000FFF719FF0446F0B90746BD4215D10F480D
:10195000FFF714FFD9F808305BB102228DF80020A0
:101960000022CDE90126CDE90325CDF81480684693
:101970009847204607B0BDE8F08306EB073001F03A
:101980002DFB0137E1E71124F3E700BF24580020C5
:1019900029DF704728DF704770B503689E6886B0FE
:1019A00004460D466EB114220021684605F012FB74
:1019B000A3680593237901952BB1012B0DD06846BF
:1019C000B04706B070BD01238DF800302369029343
:1019D000E368039363690493F1E702238DF8003011
:1019E000E3681B030293F5E7084670470020704741
:1019F000024B187A003818BF01207047145A002093
:101A0000034B187A0122B0FA80F05A7440097047EB
:101A1000145A002008B510461A4605F0B2FA002004
:101A200008BD000008B514220021044805F0D2FAD0
:101A30000348FFF7E6FD002008BD00BF145A002050
:101A4000045A002010B5094C094B43602046FFF7AB
:101A500092FE48B901F0C8F9064920741C230648D3
:101A60004FF4EE72FFF7BAFD002010BD145A0020AB
:101A70003C710F0028580020045A002038B5224D30
:101A8000224C2B7A3BB922492248FFF716FE2060F0
:101A900008B9686038BD022324682B72237973B1BA
:101AA000012B22D020460321FFF776FF00232B7263
:101AB0006B6017491748BDE83840FFF729BED4E9E5
:101AC0000523D21A142AD4E9031028BF142292083D
:101AD000012A38BF012219441844FFF759FF50B1B9
:101AE0001128DFD101232B72D4E7D4E90303184472
:101AF000FFF750FFF3E72B7C002BCBD1BDE838403C
:101B0000022000F009B800BF145A00202C5A00200F
:101B1000285A0020045A002038B5224C237A002B82
:101B20003FD0022B09D103282ED01F4B00221B6867
:101B3000E2601A793AB1012A20D0637C6BBBBDE820
:101B40003840FFF79BBFD3E905128D1A142D94BFBF
:101B5000521914329A619142EFD102284FF00003DA
:101B600008BF19462372104B18BF0D211868FFF7E4
:101B700013FF0E490E48FFF7CBFDDEE71A6901326D
:101B80001A615B699A42E7E7E3680133082B01D8E1
:101B9000E360D2E70023E360DFE7BDE8384001F00F
:101BA00013B938BD145A00202C5A0020285A00209E
:101BB000045A0020831E012B01D8FFF7ADBF7047E8
:101BC00000F0FD03012B08D1044B00225A74421E81
:101BD000504250411874FFF751BF7047145A00200B
:101BE00010B5064C201DFFF7C6FD28B9637C1BB954
:101BF000BDE81040FFF742BF10BD00BF145A0020DF
:101C00002DE9F34180460D460F4801A916461F46AF
:101C1000FFF719FD0446A8B11C22002105F0DAF9EE
:101C20002D0B0123237101A90748C4F80080A76088
:101C3000E5606661FFF731FDFFF7D2FF002002B0DB
:101C4000BDE8F0810420FAE7045A00202DE9F743AB
:101C500081468846104801A917461E46FFF7F3FC47
:101C60000446B0B11C22002105F0B4F900250A9BFE
:101C7000A36001A9C4E9037807482571C4F800905E
:101C80006661FFF70AFDFFF7ABFF284603B0BDE82A
:101C9000F0830420FAE700BF045A00200B684A686A
:101CA0004360934208BF0023016008BF4360704750
:101CB000436843B10268916852680B4493424360A1
:101CC00004BF0023436070470023C0E902328B88C1
:101CD0001A44B1F9063002611A44C0E900114261A8
:101CE0000888003818BF012070474268118838B54D
:101CF0000346002937D0148A02F1100141602CB943
:101D0000C2680168FFF7E0FF204638BD907811896E
:101D100000F03005302D14D1947C04F03004302CC8
:101D20001BD190881969091A19610021908AB2F9AA
:101D300016200844196901441961114459610120B0
:101D4000E3E700F0F004202C07D150894143002D37
:101D5000ECD1986801309860E8E700F0C000802876
:101D600008BF0421F3E70846CFE770B5466804468C
:101D70000D4663681A88AA4204D19B7803F00F03CA
:101D8000082B07D12046FFF7B0FF6368B342F0D1BC
:101D9000002070BD0120FCE743681A44426011B185
:101DA00001399A4201D10120704713F8010B01F863
:101DB000010FF6E770B54568AA7802F00F06082E05
:101DC00086B003461FD103691C6800260CB906B013
:101DD00070BD236862689D68267329466846FFF7D0
:101DE00073FF6368049304F10C030593AB7803F06D
:101DF000C003802B08BF231D684608BF0493FFF76C
:101E0000D9FFA468E2E712F0C00122D102F030004D
:101E100010280CD15A691170072EEC6818690BD183
:101E20000146204606B0BDE8704000F01AB89006A2
:101E3000F2D55B691980CAE72A89214624B106B028
:101E4000BDE8704005F09DB806B0BDE8704005F0F3
:101E5000C1B88029BBD10069002192060160B6D5C6
:101E6000E7E77FB50A4601466846FFF72DFF30B128
:101E70006846FFF79FFF6846FFF737FFF7E707B0B1
:101E80005DF804FB836810B504460BB9002010BD53
:101E90000368012298470028F8D0A368013BA3609B
:101EA000F5E72DE9F3410F460DF107018046FFF7F5
:101EB000E9FF054620B90025284602B0BDE8F081BB
:101EC0009DF907309DF80740002B13DA04F07F04DA
:101ED00007260DF107014046FFF7D4FF0028EAD09E
:101EE0009DF8072002F07F03B3401C43130606F160
:101EF000070601D43C60DFE7232EEAD1DBE70000D0
:101F000030B5044685B01546A9B90268114B9A420E
:101F100011D0102D06D82A4669462046FFF7F0FF5B
:101F200005B030BD102269462046FFF7E9FF0028C2
:101F3000F6D0103DEDE7A368AB4201D20020EFE7F9
:101F400023682A46204698470028F7D0A268521BEB
:101F5000A260E5E7991D0F00F7B50E4601A90746F7
:101F60001546FFF79EFFA0B1019A511C4FF00004E7
:101F700004D2B37803F0C003802B01D1204608E0DF
:101F800033898B42FAD329463846FFF7B9FF019BC4
:101F9000EC5403B0F0BD73B50D4601A906461446D6
:101FA000FFF77FFF98B1019AB2F5803F11D2AB786D
:101FB00003F0C003802B02F102010AD02B898B426F
:101FC00007D32146304621F8022BFFF799FF02B0D4
:101FD00070BD0020FBE7000010B5034C82600022BA
:101FE000C0E90041C26010BD991D0F002DE9F34109
:101FF000002580460E462F462C460DF1070140462F
:10200000FFF740FFC0B19DF807C0A4F120030CF01A
:102010007F02C4F1200102FA03F322FA01F10B431B
:10202000A2401CF0800F45EA020547EA030704F1CD
:10203000070404D1C6E9005702B0BDE8F081462C80
:10204000DBD10020F8E737B50D4669461446FFF7A7
:10205000CDFF70B12B89082B0DD1DDE90032C4E929
:102060000032DDE90001914208BF98420CBF012017
:10207000002003B030BD042B03D1009B236000225D
:10208000EFE7022B03D1009B23809BB2F7E7012BE4
:1020900004D1009B237003F0FF03F0E70020E8E782
:1020A00037B50D4669461446FFF7A0FF30B12B89BE
:1020B000082BDDE9001203D1C4E9001203B030BDE2
:1020C000042B4FEAE17009D121600B46024682429F
:1020D00008BF8B420CBF01200020EFE7022B03D189
:1020E0000BB22380DA17F2E7012B02D14BB2237037
:1020F000F8E70020E2E7F7B51F4600233B700D46E6
:102100000B70136001A904461646FFF7CAFE30B9EA
:10211000A36813B901233B70002003B0F0BD019CFC
:10212000002CF7D0E30804F0070433602C70F4E7C8
:1021300013B50446052925D8DFE801F0030F17245D
:102140002422012201A92046FFF7DAFE18B19DF9E9
:102150000430002BF5DB02B010BD08220021204620
:1021600002B0BDE81040FFF7CBBE01A9FFF799FE12
:102170000028F0D0019A00212046FFF7C1FEEAE7CF
:102180000422EBE70020E6E773B50D4601A90446FB
:10219000FFF787FE064618B90026304602B070BD2C
:1021A00094E80F0085E80F0001998A42F4D3A960F2
:1021B000A3685B1AA360F0E72DE9F0435668B37893
:1021C00013F0C00489B007468C46154603D0402C56
:1021D00069D000240CE003F00F02604903F03003E3
:1021E000202B51F8228025D006D8E3B1102B17D030
:1021F000204609B0BDE8F083302BF9D16B693188F6
:102200001980072A09D121463289286904F0E2FEA3
:102210006B682969D868FFF724FE2A69696840E07D
:102220006B6901221A702A693146434609B0BDE83C
:10223000F0431847BCF1020FD5F8149024D1042ABA
:1022400022D804A9FFF7A0FF04460028C1D0069BAE
:102250002BB16968B9F800304A899A4205D8059BC4
:102260007B60069B002BC3D0B3E708892A6903FB78
:10227000002204A8C04728B1B9F800300133A9F8FA
:102280000030E4E70446EAE7B9F8003072899A4280
:102290009FD931892A69581C03FB0122A9F8000043
:1022A00031463846C1E7D2F81080464656F8043B1E
:1022B00023B909B0BDE8F043FFF73ABF022914D1B2
:1022C00004A9FFF761FF002883D0D8F800306968BF
:1022D000324604A89847044600283FF47AAF069B8C
:1022E000002BF2D1059B7B6082E7012926D00529CE
:1022F0002CD000297FF46DAF0C460DF10409013498
:102300000B2C3FF466AF012249463846FFF7F8FD33
:1023100000283FF45EAF19F9013B002BEFDB104BB7
:10232000049301ABCDE90534002307936968D8F81D
:102330000030324604A89847044659E7082201A90C
:10234000FFF7DEFD08240028E9D142E704220DEB67
:102350000201FFF7D5FD0424F5E700BF68710F0007
:10236000991D0F002DE9F04F91B00446002604A8F6
:10237000CDE90266FFF7A8FCA3683BBBDDE90534A5
:1023800004A89D78FFF7B1FC0028F7D115F0300FB5
:1023900003D1059B1B8803B10134002C00F0A980F8
:1023A000630902A90022934240F09C8010AA02EB2C
:1023B000830304F01F0453F8383CC4F120044FF0A9
:1023C000FF30E040C31A584258410DE00DF10303BD
:1023D00001AA0DF102012046FFF78DFE38B99DF8E4
:1023E0000330002BCAD1002011B0BDE8F08F019955
:1023F00004A8FFF7BAFC002850D1019BB3427DD35B
:10240000059D059A937803F00F03082B7FD004A84D
:10241000FFF76BFC059B9D42F3D14FF0FF36019F08
:10242000B7426BD3089B9DF802A0D4F808801D68C2
:102430004FF00109A368002D5DD098459CD12B6811
:10244000D3F800B0BBF1000F08D053463A462946F6
:102450002046D8470028C6D0AD68EBE7D3F808B0CF
:10246000BBF800309F42F7D16A6859460AA8FFF7C7
:102470002BFC6B680E9305F10C030F939BF8023055
:1024800003F0C003802B04BF2B1D0E930AAA85F80E
:102490000C9051462046FFF78FFEDBE7059B9B78AB
:1024A00013F0300F0FD1069A3F2A0CD8510910AB08
:1024B00003EB810102F01F020123934051F8382CF5
:1024C000134341F8383CE5682DB19DF8022001998D
:1024D00004AB2046A8479DF8021004AA2046FFF747
:1024E0006BFE10E051F8045B01357FF47DAF0132E3
:1024F00059E7012078E798457FF43EAF9DF8021038
:102500002046FFF715FE00287FF436AF6BE71688EC
:1025100085E737B50C460546114620460192FFF780
:10252000A0FC019A2146284603B0BDE83040FFF7E1
:1025300019BF70B586B0CE6801920C4602A9054657
:10254000FFF722FE68B1E06858B1A378019A03F062
:102550003003202B314602A805D1FFF7DAFF039B99
:102560006B6006B070BDFFF7FDFEF8E713B50C46D3
:102570006946FFF73BFD60B1DDE900134A0842EA16
:10258000C372C9074FEA530344BFD243DB43C4E9D4
:10259000002302B010BD37B50D4669461446FFF75B
:1025A000E5FF70B12B89082B0DD1DDE90032C4E9BC
:1025B0000032DDE90001914208BF98420CBF0120C2
:1025C000002003B030BD042B03D1009B2360DA1739
:1025D000EFE7022B03D1BDF900302380F7E7012B91
:1025E00003D19DF900302370F1E70020E9E713B52E
:1025F00004220C460DEB0201FFF782FC08B1019B9F
:10260000236002B010BD1146FFF7F1BF13B50822D9
:102610000C466946FFF774FC18B1DDE90023C4E9F4
:10262000002302B010BD1146FFF7F0BF38B52022DD
:10263000044608300D4604F0A4FC2022A91804F139
:10264000280004F09EFC002038BD00002DE9F7436F
:10265000DFF86C809946184B036004460E464046EE
:1026600001211746FFF764F80546BFF35F8FF8B9FD
:1026700000F0E6F80A9ACDF800903B4606F1080112
:10268000204603F0E3FA044600F0E8F8BFF35F8F5A
:10269000C8F8005044B1094948F2165248F2425372
:1026A0008C4214BF14461C46204603B0BDE8F0839C
:1026B00048F20454F8E700BFDD55AABB8408F000D7
:1026C000306A00200E4B984214D00AD8B8B10D4998
:1026D00048F2165248F20153884214BF1046184679
:1026E0007047094B984208D0084948F2165248F200
:1026F0000353F1E748F20350704748F20250704725
:102700000102F0000002F0000202F0000F02F000EF
:1027100008B5083003F004FBBDE80840FFF7D2BF5E
:1027200013681F2B2DE9F34106460F46144620D9A6
:10273000DFF84C8001214046FEF7FAFF0546BFF363
:102740005F8FC8B900F07CF8394606F1080003F045
:1027500059FB019000F082F8BFF35F8F0198C8F831
:102760000050FFF7AFFF08B92023236002B0BDE897
:10277000F08148F21450F9E748F20450F6E700BF40
:10278000306A00202DE9F04105460E461948012126
:102790001446FEF7CDFFBFF35F8F38BB00F050F853
:1027A000DFF854800835B4F5805F274628BF4FF422
:1027B000805731463A46404604F0E3FB3A464146EC
:1027C000284603F0C7FAE41B3E4468B9002CEAD15E
:1027D00000F044F8BFF35F8F064B00222046BDE8AF
:1027E000F0411A60FFF76EBF0446F1E748F204506B
:1027F000BDE8F081306A0020305A0020024B0020F2
:10280000C3F80005704700BF00A0025038B50A4B5E
:1028100000251D60BFF35F8F084C0123C4F800350D
:1028200003F020FBC4F8005520B1052848F20350FE
:1028300018BF032038BD00BF306A002000A002503E
:10284000044B0122C3F80025034B4FF480625A6009
:10285000704700BF00A0025000E100E0044B0022DE
:10286000C3F80025034B4FF48062C3F884207047FF
:1028700000A0025000E100E003681F2B83BF03F0BB
:102880001F03036001484FF0A04070470003005051
:1028900007B5019001A8FFF7EFFF019A01239340CC
:1028A000C0F8083503B05DF804FB07B5019001A836
:1028B000FFF7E2FF019A01239340C0F80C3503B003
:1028C0005DF804FB13B50246019001A8FFF7D4FFA1
:1028D000019B03F5E073032440F82340104621B127
:1028E00002B0BDE81040FFF7D3BF02B0BDE8104012
:1028F000FFF7DBBF024B800143F00103184700BF25
:10290000B0710F0010B504464FF47A70FFF7F2FF74
:10291000013CF9D110BD07B5019001A8FFF7ACFF4C
:10292000019B03F5E073890040F8231003B05DF8C4
:1029300004FB2DE9F34180460E4610200021FFF7ED
:10294000EAFF00210F201746FFF7BCFF0E20FFF71C
:10295000B9FF0D20FFF79CFF6420FFF7CBFF0E208F
:10296000FFF7A3FF0D20FFF7A0FF0024A74209D126
:102970000D20FFF78DFF01210F2002B0BDE8F041CF
:10298000FFF7A0BF072518F804302B41DB074FF0F5
:102990000F0020D5FFF77CFF0A20FFF7ABFF0E20CA
:1029A000FFF776FF0A20FFF7A5FF102301A8019388
:1029B000FFF762FF019AD0F81035D34003F001030E
:1029C000325DAB40134333550E20FFF76EFF013DE0
:1029D000D9D20134CAE7FFF768FFDDE707B58123E5
:1029E000ADF80030022200238DF8010001A96846ED
:1029F000ADF80430FFF79DFF03B05DF804FB07B5A9
:102A000060F07F0000238DF800008DF80110022295
:102A100001A96846ADF80430FFF78BFF03B05DF8FD
:102A200004FB08B52F20FFF740FF0A20FFF76AFFDD
:102A30002F20FFF72DFFBDE808400A20FFF762BFF7
:102A400008B5FFF7EEFF00210120FFF7D8FF0A20AD
:102A5000FFF758FF80210120FFF7D1FF0A20FFF781
:102A600051FF8120FFF7BAFF0A20FFF74BFF00213B
:102A70004020FFF7C4FF00214120FFF7C0FF802066
:102A8000FFF7ACFF0A20FFF73DFFBDE8084000213B
:102A90001020FFF717BF08B51120FFF7F9FE6420DB
:102AA000FFF728FF1120FFF700FF6420FFF722FF48
:102AB0001120FFF7EDFEBDE808406420FFF71ABFC4
:102AC00038B505461320FFF7F0FE1420FFF7EDFEA2
:102AD0001120FFF7EAFEFFF7DEFF1120FFF7E5FE0A
:102AE000072445FA04F3DB074FF0140014D5FFF771
:102AF000CFFE0A20FFF7FEFE1320FFF7C9FE0A20D3
:102B0000FFF7F8FE1320FFF7D0FE013CE9D2BDE845
:102B100038401120FFF7BCBEFFF7C7FEE9E7B92038
:102B2000FFF7CEBF07B500211920FFF7CBFE252008
:102B3000FFF7C8FE1C20FFF7EEFE00212220FFF762
:102B4000C1FE2120FFF7BEFE2020FFF7BBFE2420A0
:102B5000FFF7B8FE2320FFF7B5FE2E20FFF7B2FEE9
:102B60000E20FFF7AFFE0F20FFF7ACFE1020FFF79F
:102B7000A9FE0D20FFF7A6FE2F20FFF7A3FEFFF70B
:102B800050FF03210B20FFF7C6FE00211820FFF79E
:102B900099FE2C20FFF796FE0C2301A80193FFF766
:102BA0006BFE019B00EB8300D0F8003743F002037B
:102BB000C0F800372920FFF785FE2820FFF782FEA6
:102BC0001A20FFF77FFE1B20FFF77CFE2D20FFF76A
:102BD00079FE0620FFF776FE0720FFF773FE082038
:102BE000FFF770FE0920FFF76DFE0420FFF76AFE75
:102BF0000520FFF767FE0A20FFF764FE1320FFF7AA
:102C000061FE01211120FFF75DFE00211420FFF776
:102C100059FE1520FFF77FFE01211620FFF752FE17
:102C20001720FFF74FFEFFF77AFF03B05DF804FBB4
:102C300010DF704711DF704713B504460949684635
:102C4000FFF72CF8019808B902B010BDD0E90021B7
:102C50002046904718B16846FFF72AF8F2E711209E
:102C6000F2E700BFBC710F0013B504460749684680
:102C7000FFF714F8019B0BB902B010BD2046D3E951
:102C8000002190476846FFF713F8F3E7D4710F006F
:102C9000064B9A6822B11A6822F480021A607047C3
:102CA000034B4FF48002C3F880207047185800206F
:102CB00000E100E00B4991F816335A09EC23134167
:102CC000DB0706D5084B9A683AB94FF480030B60CE
:102CD000704742F2020000F0B7BC1A6842F480026A
:102CE0001A60704700E100E018580020F7B5194F4E
:102CF0003C7864BB184E012520463570FFF79CFFD9
:102D0000112821D02046FFF7AFFF144B8DF8034068
:102D1000186801900DF10300FEF70AFC104901A8A4
:102D2000FFF786FF0446B0FA80F0400938709DF83E
:102D30000300FEF721FC3CB90A4B34701C70FFF70E
:102D4000B9FF2846FFF790FF204603B0F0BD0824E6
:102D5000FAE700BF356A0020346A0020B6710F0020
:102D600043360F00366A0020F7B5154F3B781BB38A
:102D7000144E01203070FFF75FFF11284FF000055F
:102D80001CD00220FFF770FF0DF107008DF80750EF
:102D9000FEF7CEFBFFF74EFF04469DF807003D709F
:102DA000FEF7EAFB2CB903203470FFF771FFFFF741
:102DB0005BFF204603B0F0BD0824FAE72C46F8E795
:102DC000356A0020346A0020054B1B7833B1054B6F
:102DD0001B780BB1FFF7C8BFFFF788BF082070470B
:102DE000346A0020356A0020014B1878704700BF14
:102DF000356A002007B508496846FEF74FFF019B7A
:102E000013B903B05DF804FBD3E90020904768468E
:102E1000FEF74EFFF3E700BFC8710F00FFF7EABFF0
:102E200060DF704769DF704761DF704730B5134D71
:102E3000ADF5017D4FF4FA740DF1020103A8ADF870
:102E40000240FFF7F1FF70B9294601A8FEF726FFFF
:102E5000029B002BF0D003A8D3E90021904701A8E2
:102E6000FEF726FFF4E7052805D00DF5017DBDE846
:102E7000304000F0E9BB0DF5017D30BDE0710F0081
:102E8000024B1B780BB1FFF7D1BF7047376A0020A8
:102E900018B1034B0360002070470E20704700BF3D
:102EA000B8570020F0B5074685B00D4600295DD023
:102EB0002F4B0B600C22002101A804F08BF8012697
:102EC00006232A68ADF8083001A920208DF8047087
:102ED0008DF80660FFF7A6FF0C22002101A804F080
:102EE00079F800242A688DF8056001A94020ADF822
:102EF0000640FFF797FF0C22214601A804F06AF86C
:102F0000F7232A68ADF8063001A923208DF8047054
:102F1000FFF788FF0C22214601A804F05BF82A681D
:102F20008DF8046001A93046FFF77CFF0C22214692
:102F300001A804F04FF84FF4B0632A68019301A987
:102F4000A120FFF76FFF0C22214601A804F042F8F0
:102F50009DF804302A6864F3000301A9A0208DF8CD
:102F60000430FFF75FFF204605B0F0BD0E20FBE701
:102F7000B857002008B5FFF753FF10B9014B0122E5
:102F80001A7008BD376A00204BDF70471FB50E4C22
:102F900001A8FFF7F9FF70B9214602A8FEF77EFEEF
:102FA000039B002BF4D00198D3E90021904702A89D
:102FB000FEF77EFEF4E7052804D004B0BDE810401B
:102FC00000F042BB04B010BDEC710F00024AD2F811
:102FD0000034002BFBD0704700E001400A4908B5DF
:102FE0000223C1F80435BFF36F8FBFF34F8FC1F8D1
:102FF0000805FFF7EBFF0023C1F80435BFF36F8F1F
:10300000BFF34F8F08BD00BF00E0014070B50E4E0A
:1030100001231546C6F80435BFF36F8FBFF34F8FFA
:103020000024AC4207D10023C6F80435BFF36F8FEC
:10303000BFF34F8F70BD51F8243040F82430FFF7B4
:10304000C5FF0134EDE700BF00E0014000F1804022
:1030500000F5C040002382B0036003680193019B28
:1030600002B0704703681F2B83BF03F01F03036088
:1030700001484FF0A04070470003005007B5019091
:1030800001A8FFF7EFFF019B00EB8300D0F80037AA
:1030900023F44033C0F80037D0F8003743EA014149
:1030A000C0F8001703B05DF804FBC208012300F06C
:1030B000070003FA00F08B5C184388547047000047
:1030C000054B4FF0FF32072843F8202084BFC0187B
:1030D00080F87020704700BF386A002037B5174C61
:1030E0002518014695F84800072809D8FFF7E8FF9A
:1030F00095F94830124A03F5A273002042F82300E4
:103100000C44FF2384F848300E4DCC0801F007032F
:1031100001229A402B5D13420DD001A80191FFF7C7
:10312000A1FF019B03F5E073022140F823102B5D02
:1031300023EA02022A5503B030BD00BF386A0020DE
:1031400000600040BA6A00200E4B034493F9482007
:10315000072A02DD0021FFF791BFD3B2072B10D859
:10316000930003F1804303F5C043D3F8101521F019
:103170000101C3F81015012303FA02F2024BC3F850
:1031800008237047386A002000600040F7B5044605
:10319000FFF7DAFF174A184E1119E50891F9483080
:1031A00091F8481007299FBF144903F5A273002026
:1031B00041F8230004F0070301219940735D0B429D
:1031C0000DD001A80194FFF74DFF019B03F5E073BB
:1031D000022740F82370735D23EA010171551444FE
:1031E00094F84800FFF76CFFFF2384F8483003B0E1
:1031F000F0BD00BF386A0020BA6A002000600040BD
:1032000038B50B4D002415F9013B9A1C0AD1204614
:10321000FFF764FF0134302CF5D1064B002283F810
:10322000882038BD002BF5DB2046FFF7AFFFF1E724
:10323000806A0020386A00202DE9F04F00248BB00E
:10324000CDE90444644D4FF48072012102F18043C2
:1032500003F5C04390B21B68012B06D1D5F80433A7
:103260000B4202D0FFF7F2FE0C430432B2F5907F1E
:103270004FEA4101EAD1584BD3F87C31012B0ED1F2
:103280004FF4BE70FFF7E2FE4FF0A04344F000445D
:10329000D3F810350493514BD3F810350593E3B2AE
:1032A000D3B14F4F01260025344210D0AB0003F1BB
:1032B000804303F5C043D3F81005D3F8101557F831
:1032C000253023B1C1F30141C0F3052098470135F2
:1032D000082D4FEA4606E7D1002C79DA0023CDE924
:1032E00006334FF0FF33CDE90833DFF8F4A03D4B50
:1032F000019300252F46019B13F9014B0193631C99
:103300004DD0C4F3C2060122E3B204F03F0B04F037
:10331000070402FA04F40AAA164416F8081C21420B
:103320003DD00AEB0B014FEA931991F948105AF876
:103330002180B8F1000F07D1B9F1030F2FD106A9F1
:103340005846FFF7B2FE02E0B9F1030FF7D003A829
:10335000CDF80CB0FFF786FE039901F5E07150F847
:10336000211016F8180C2042C1F3014106D00229A1
:1033700015D1B9F1030F0CD1494605E003290ED14F
:10338000B9F1030F05D102215846FFF777FE013549
:10339000EDB2B8F1000F02D049465846C047013798
:1033A0000A2FA8D1A5B14FF0A0430499D3F8102556
:1033B00003F540739142D3F8103502D10599994233
:1033C00006D004920593069A079B089209938EE70C
:1033D0000BB0BDE8F08F00BF00600040000300505C
:1033E000386A0020B06A002028B139B10023C1E951
:1033F00000301846704748F21050704748F213509A
:10340000704730B1036848F240508B4208BF00203B
:10341000704748F21050704728B148F2115091425D
:1034200008BF0020704748F21050704770B506463C
:103430000C461D46FFF7D8FF50B9B3794AB1AB42ED
:103440000AD111462046FFF7F1F808B9044B236072
:1034500070BD48F21050FBE748F21150F8E700BF8A
:103460007052464D2DE9F04383B00D4602AF04463D
:103470001149D7F82080284616469946FFF7C1FF24
:1034800098B96B68796A5A7940465200FFF7C4FFD1
:1034900058B976B10CB9AAB002ACCDF800804B4651
:1034A000324629462046FFF7D1F80437BD46BDE82D
:1034B000F08348F21050F8E77052464D10B50446BC
:1034C00038B149B10B684160984708B9044B236093
:1034D00010BD48F20150FBE748F21050F8E700BF7A
:1034E0006E524648F0B4134648B10768094EB742D9
:1034F0000AD161B12AB14368F0BC5B68184748F251
:1035000001531846F0BC704748F20253F9E748F2FD
:103510001053F6E76E524648F0B460B107680C4E9F
:10352000B7420CD171B143681568DC68A5420CD371
:10353000F0BC9B68184748F20150F0BC704748F255
:103540000250FAE748F21350F7E748F21450F4E754
:103550006E524648F7B50446DDE908671546019303
:10356000FFF7ACFF68B9019A29462046FFF7BAFF7A
:1035700038B93A463146204603B0BDE8F040FFF77F
:10358000CBBF03B0F0BD0000F8B50A4F0A4C0B4E9C
:10359000E41B0123E40833700025A54203D1022374
:1035A00033700020F8BD57F8353098470028F9D11E
:1035B0000135F2E79C700F00A4700F00C46A002070
:1035C00001390144814200D2704703780A7800F83B
:1035D000012B01F80139F5E7013A02440139824231
:1035E00000D2704711F8013F02F80139F7E770B5D2
:1035F00016460D46FFF7F0FF3246A9193044BDE8E4
:103600007040FFF7E9BF38B50D460446FFF7D8FF15
:1036100029466019BDE83840FFF7D2BFBFF34F8F8E
:103620000549064BCA6802F4E0621343CB60BFF35E
:103630004F8F00BFFDE700BF00ED00E00400FA057A
:10364000704708B5FFF7EAFF08B5FFF7E7FF00008E
:103650000022104610B54FF4805100F0CDF902461B
:1036600008B1FFF7DBFF0848C0F57E2100F0C4F980
:103670000028F6D1054800F037F904460028F0D1BB
:1036800000F0A8F9204610BD00100F0041360F00D1
:1036900038B1054B0360054B4360012303720020E2
:1036A00070470E20704700BFD7360F00B1360F00AD
:1036B00069B10B78022B0CD1022804D0032814BF67
:1036C00008201120704703230B70002070470E2044
:1036D00070470820704710B50C4681B10B78012B5C
:1036E00006D00ED9033B012B94BF0820112010BD3A
:1036F00001F0ACFC0028FAD102232370F7E70E207A
:10370000F5E70820F3E7000070B5144B144A0C21CC
:10371000D21AB2FBF1F2816911F8025C044635B9A4
:1037200000690021914205D1012323600EE04FF092
:10373000FF30F6E71E68AE420CD1461C07D19D68EB
:10374000D4E90001D4E90223A847206070BD5E6877
:103750008642F4D001310C33E4E700BFAC700F00B7
:10376000B8700F001EF0040F0CBFEFF30880EFF3EA
:103770000980FFF7C9BF00BF33DF704741DF7047E3
:10378000014B01221A707047E86E0020BFF34F8F83
:103790000549064BCA6802F4E0621343CB60BFF3ED
:1037A0004F8F00BFFDE700BF00ED00E00400FA0509
:1037B0004FF08043D3F8000410F4803005D04FF46C
:1037C0008032C3F8002400207047D3F8202502F08F
:1037D000F802A82A0AD1D3F82025D20706D5D3F8B3
:1037E000202502F05602C3F82025704701207047BB
:1037F000042810B5044607D8022808D90B494FF40D
:10380000702000F031FA02E0831F012B06D9084B2B
:103810001B6853B12046BDE810401847054B0648C9
:1038200000221A7001F066FBF1E710BDA5380F0009
:10383000EC6E0020E86E00208D370F0038B5154C77
:10384000236A012B054601D0012038BD4FF44053B7
:103850005A68114B9A4209D001F084FCA2690146D2
:1038600095B1BDE838400D4801F06EBF626B18B9E4
:1038700094F86032012BEFD009484FF4805101F0E9
:1038800063FF0028E8D1E0E794F8A132012BE8D1EA
:10389000DAE700BFBC860020DBE5B1515D8900207E
:1038A0001C89002008B5FFF783FFFFF7C7FF58B951
:1038B000FFF7A6FC4FF0A043074AC3F82C27FFF7F9
:1038C0005BFF08B1FFF7C0FE044B054800221A70E9
:1038D000BDE8084001F00EBB0C000300E86E0020BC
:1038E0008D370F0000207047334B10B51860FFF77D
:1038F00019F9FFF7A5F8002001F012FB044618BBE8
:1039000000F07EFA01281AD002281FD0E0B9FFF794
:103910004FFFFFF793FF00284AD04FF08043D3F8C2
:103920001C3513F0B10F43D101F0C8FB60B9234B34
:103930001870234801F0DEFA00F04CF804E01F4B49
:1039400020481C7001F0D6FA032010BD4FF4A024CB
:1039500000F0D6FA1C4A20211820FDF72FFD08B1EF
:10396000FFF772FE4FF08043D3F81C2502F0F802F7
:10397000B02A09D1D3F81C25D20742BFD3F81C25A1
:1039800002F04E02C3F81C25FFF7ACFF0028DBD184
:1039900020460E4900F068F90D4800F0DFFB0028D2
:1039A000D2D100F0D3FAFDF795FDFFF7E7FEF8E777
:1039B0004FF47024CCE700BFEC6E0020E86E0020CE
:1039C00081370F008D370F00C86A0020A5380F001F
:1039D000F1370F0008B5074B4FF0FF32C3F88020D6
:1039E000C3F8802101F016F8BDE808404FF480507C
:1039F00000F042B800E100E02DE9F0410546C1F3D6
:103A00000B0090BBB5F57F2F2FD8194EDFF864E07F
:103A10003368002A14BF062702278446072B06D9DD
:103A2000BCF1000F00D033600420BDE8F0811C0120
:103A300004F1804202F5F0327444C2F80058C2F832
:103A40000418C4F80878D2F80088454503F101034A
:103A50004FF0010CE2D1D2F804289142DED1D4F823
:103A600008289742DAD13360DFE70720DDE700BF9F
:103A7000F06E002000E0014030B50546204889B0D6
:103A80000022C0F57F21FFF7B7FF01F06BFB1D4B54
:103A90009969002201441046FFF7AEFFEFF305825B
:103AA0000023D5E9004183F3148883F3108883F35E
:103AB000118883F31388C2F308023AB984F30888A3
:103AC0004FF0FF339E46084709B030BD4FF0FF3539
:103AD000203CCDE90033CDE90233CDE90551049313
:103AE00020224FF0807369462046079303F049FA7D
:103AF00084F30888AE466FF006031847E4E700BF7A
:103B000000100F00BC8600201FB518490B7853BB6E
:103B10004FF08043A024D3F81824D2035CBF0122C5
:103B20009A60134B0022C3F80021D3F800010390E0
:103B30000398C3F84021D3F8400102900298C3F8DB
:103B40004421D3F84401019001980A4880F82443A5
:103B500010244460C3F80825022001229A601A60EC
:103B6000C3F804030A7004B010BD00BFF86E002053
:103B70000040024000E100E037B56FF07F42154C95
:103B8000057BD4F804358A4228BF0A46891A1344B3
:103B90004A1E942A23F07F4305F5A8729BBF963BEB
:103BA00096314160416044F822300B4B4FF4F8608D
:103BB00043F001039847094BAA00134400221A60FE
:103BC0001B680193019B4FF48033AB40C4F804336E
:103BD00003B030BD0040024040720F00404102403F
:103BE0001C4BD3F804212DE9F34152B11A490A685C
:103BF00001320A600022C3F80421D3F80431009393
:103C0000009B164C164DDFF84C80164E00272B6893
:103C100073B12F602B68227B0193019B4FF480339B
:103C20009340C8F80833616851B12046FFF7A4FFFC
:103C30000435B54204F11004E9D102B0BDE8F081C9
:103C4000A16811B12046FFF797FF2368002BEFD042
:103C50009847EDE700400240F46E0020CC5700206A
:103C6000404102404841024070B50B4B1D682A7B21
:103C70004FF480339340094A0E46C2F80833044695
:103C800040B1FFF741FF2E6021462846BDE8704055
:103C9000FFF772BF70BD00BFEC570020004002402C
:103CA00070B5074B1D6804460E46A860FFF72CFF51
:103CB0002E6021462846BDE87040FFF75DBF00BF7B
:103CC000F0570020014B01221A707047F96E002056
:103CD0002DE9F74F06468846A8EB06052D0B02F6A0
:103CE000FF77144600F00CF9082D28BF08252B0398
:103CF000DFF868B001933F0B0CB9234629E0BD42C1
:103D00002CBFBA46AA464FF000025146304634BF97
:103D1000DDF80490A14600F047FE0346C8B909F15A
:103D2000030222F003024146304600F02FFE034614
:103D300078B9DBF830304B44CBF8303001F0E0F8A4
:103D4000A7EB0A07A4EB09044E44C8440346002825
:103D5000D2D0184603B0BDE8F08F00BFBC8600206B
:103D600010B501F025FA124A916C01F500535C6818
:103D7000104B9C4218D1D2E90C32934216D08842A3
:103D800004D1BDE81040002001F0BAB8D21A02F602
:103D9000FF7222F47F6222F00F0219441844FFF7E9
:103DA00097FF0028EDD010BD0320FCE70020FAE7C4
:103DB000BC860020DBE5B15138B50F4BDA6A5D6A8D
:103DC0009C6CAC2A10D15B6B1C44ED1A0B482A4644
:103DD000214603F09FF868B100F0B8F82946204664
:103DE000BDE8384000F0F8BD002CEFD101F0CEF96D
:103DF0000446EBE738BD00BFBC86002000100F0072
:103E000070B5264CE36AAA2B37D005D8012B0BD00E
:103E1000A52B2ED0002070BDAC2BFBD1FFF7A0FF4F
:103E200048BBFFF7C9FF26E0A66C656A01F09AF966
:103E3000864229D101F096F900222946FDF7B2FB0E
:103E4000A36A984202BF0123C4E90703A5610025C4
:103E5000134801F07BF9134B134800221A7001F04C
:103E60004FF868B975B1236A012B14BF01200220F5
:103E7000D1E7FFF775FF0125EAE7FFF79DFFE6E7CA
:103E80000320C8E70120C6E7236BEA1AF11818449B
:103E9000FFF71EFF0028DAD1CCE700BFBC86002068
:103EA000E0860020F96E0020C53C0F000A4AD2F8D7
:103EB00000347BB109480023D2F80815D940C9075E
:103EC00048BF03F5C07103F1010348BF42F8210068
:103ED000072BF1D1704700BF000001403546526EFC
:103EE000FFF7E4BF054B002282B0C3F80021D3F8EE
:103EF00000310193019B02B0704700BF00000140F8
:103F000038B50E4D2B78BBB90D4BD3F800248AB1D0
:103F1000D3F80445FFF7CAFF40F61650A042B8BFD9
:103F200020460849A0F54860FFF7BAFE064B4FF45B
:103F300080321A6001232B7038BD00BFFA6E00205A
:103F400000000140E13E0F0000E100E0034BD3F828
:103F500000340BB1FFF7AABF704700BF000001405B
:103F60004FF08053D3F83021082A03BFD3F834012F
:103F7000B0FA80F0400900207047000008B54FF00B
:103F800080430022C3F80C21C3F81021C3F8382560
:103F90004FF0805203F54043D2F80414C3F82015C3
:103FA000D2F80814C3F82415D2F80C14C3F8281555
:103FB000D2F81014C3F82C15D2F81414C3F8301525
:103FC000D2F81814C3F83415D2F81C14C3F84015ED
:103FD000D2F82014C3F84415D2F82414C3F84815B5
:103FE000D2F82814C3F84C15D2F82C14C3F8501585
:103FF000D2F83014C3F85415D2F83414C3F860154D
:10400000D2F83814C3F86415D2F83C14C3F8681514
:10401000D2F84014C3F86C15D2F84424C3F87025C4
:10402000FFF79EFF18B13B4B3B4AC3F88C26FFF7C6
:1040300097FF18B1394BFB22C3F81825FFF790FF03
:1040400070B14FF080414FF08053D1F8E42ED3F897
:10405000583222F00F0203F00F031343C1F8E43E7D
:10406000FFF77EFF20B12E4B4FF40072C3F84026BD
:104070004FF08043D3F80024D20744BF6FF0010211
:10408000C3F80024274AD2F8883043F47003C2F8FA
:104090008830BFF34F8FBFF36F8F4FF01023D3F8EB
:1040A0000022002A03DBD3F80432002B2EDA1E4B49
:1040B0000122C3F80425D3F80024002AFBD04FF0D6
:1040C00010221221C2F80012D3F80024002AFBD0DB
:1040D0004FF010231222C3F80422134BD3F800240C
:1040E000002AFBD00022C3F80425D3F80024002ABC
:1040F000FBD0BFF34F8F0B490C4BCA6802F4E06250
:104100001343CB60BFF34F8F00BFFDE7084B094A55
:104110001A6008BD005000404881030000F00040D4
:104120000090024000ED00E000E001400400FA05CC
:10413000F45700200090D003062810B5044602D1A1
:10414000002000F0EBFF044B1B681BB12046BDE8CC
:104150001040184710BD00BFFC6E002008B5074B8B
:1041600018600020FFF7E8FF054800F0BFFF20B906
:10417000BDE80840024800F047BE08BDFC6E0020C4
:1041800039410F006CDF70476DDF704772DF704799
:1041900073DF704774DF704775DF704776DF7047F5
:1041A0007ADF70477CDF70477DDF70477FDF7047C5
:1041B00086DF70478FDF704790DF7047A8DF70475A
:1041C000AADF7047ADDF7047AEDF7047B0DF7047E2
:1041D000B1DF7047B5DF704762DF704766DF704759
:1041E00013DF704701460148FDF706BBB8700F00AA
:1041F00070B518228CB000210DEB020002F0EAFE2F
:104200002823089316231E4CADF806300023CDE971
:1042100003330593022306222370237159230125BA
:104220000926A27063710322FE236570E270A371F8
:104230000DF10601A0198DF818508DF82D5002943B
:10424000ADF80C60FFF7B0FFB8B9BDF806302672C4
:104250005A19E271BDF80C200A4C134402A906AAAF
:104260002046ADF80C30FFF791FF30B92078FFF70A
:1042700091FF20782946FFF78BFF0CB070BD00BF7F
:104280007E7F0020F8570020154938B50B6802469C
:1042900013F0010022D0134882421ED0124A108827
:1042A0004FF6FF72904213D043F004030B601321CA
:1042B000FFF774FF90B90D4DC82445F001054FF488
:1042C0007A40A847013CFAD1BDE83840FEF74CBD22
:1042D000074B1878FFF75EFFF6E7002038BD00BFF8
:1042E000A07F0020A4700F00FA57002020740F0058
:1042F000F8570020F0B50388232B8BB0044635D83F
:104300000F2B04D8012B00F0F9800BB0F0BD103B4F
:10431000132BFAD801A252F823F000BF9D430F00DF
:10432000BB430F000B430F009D440F00E1450F00FE
:104330000B430F000B430F000B430F000B430F0009
:104340000B430F00EF450F000B430F000B430F0013
:104350000B430F000B430F00C7440F000B430F002C
:10436000D5440F000B430F0083440F00503B9AB21B
:10437000062ACAD8062BC8D801A252F823F000BFDB
:10438000E7430F0009450F00EF450F000B430F00F7
:104390000B430F003F440F00E9440F00974D838803
:1043A0002B80974B1B680BB10120984795492888B3
:1043B0000BB0BDE8F040FFF7EFBE904B4FF6FF7239
:1043C0001A80914B1B685A0704D4FFF711FF08B1FC
:1043D000FFF73AF98A4B1B68002B96D002200BB0EE
:1043E000BDE8F0401847894EE288B3889A428CD1E4
:1043F0008748FDF7DDF90546002886D0228A04F1BA
:10440000120102F0BEFD1822002104A802F0E2FD14
:1044100008238DF810307F4B06937F4B0596CDE92E
:10442000073504A8238AADF8243000F0E3FC002807
:104430003FF46BAF76482946FDF7DEF965E7E18882
:10444000F6291CD8CB1E9B070DD0CB1F9BB2013B7E
:104450005A4202F0030203F0030301F1FF3158BF97
:104460005342C91A89B2654B1888FFF7B3FE00287A
:104470003FF44BAF0BB0BDE8F040FFF7E5B8F721D4
:10448000F1E70022808804A9CDE90422FFF794FE19
:1044900000283FF43AAFFFF7D7F836E7574C02232E
:1044A0000493208802AB04AA42F605210593FFF786
:1044B00089FE08B1FFF7C8F8002320881A46852135
:1044C000FFF774FEE4E74D4B00F108011888FFF791
:1044D00063FECCE7002304A980888DF810308DF8A6
:1044E0001130FFF767FED3E7A379002B7FF40DAF00
:1044F000424B13211888FFF751FEB8E73F4B0021CC
:104500001888FFF76BFEB2E7A379002B3FF4FDAEEE
:10451000022B7FF4FAAE3D4D2189AA8991427FF4A6
:10452000F4AEA27B012A7FF4F0AE4FF48032059204
:10453000228A324EADF81820628AADF81A2004F1B2
:104540001402079201AF298A3088049302AA0293C9
:104550000397FFF737FE60B9384601F089FA40B992
:1045600040F2FD133088ADF8143004A9FFF72EFE99
:10457000CBE6002304A93088ADF81430FFF726FEFF
:10458000014600287FF4C1AE182204A802F022FDE3
:10459000237D204A8DF81030022B0595069218D005
:1045A000062B10D0012B10D11C4B1A881C4B1A80E3
:1045B000637DD4F816200893012B099205D1194880
:1045C00000F0ACFD01E0637D089304A800F012FC4C
:1045D0009BE6124AB4F815301380114A1380F4E7B1
:1045E00000231A4619468088FFF7E2FD3FE70023C3
:1045F000A0881A461946FFF7EBFD38E7FA57002066
:10460000A47F002026740F00A07F00206A7F002076
:10461000B8700F0069460F00E5410F00A87F002029
:10462000AA7F0020A4700F007FB50023CDF80B30C7
:104630008DF80F300A4BADF806109B89ADF80830A5
:1046400001238DF80A300DF10603CDE90430054B46
:1046500002A91888FFF7B8FD07B05DF804FB00BF9A
:104660006A7F0020FA57002010B5044686B000216A
:104670000D2202A8019102F0ADFC2378082B0BD18A
:10468000364A374913880988013B9BB21380D9B158
:10469000D3B9032311802370627823788DF8053015
:1046A0006021012A8DF804108DF806200ED00B2A07
:1046B00012D100F087F98DF80700002000F07CF996
:1046C000042101A8FFF7B0FF06B010BD062B05D0EE
:1046D000082B29D0032B27D00321F2E7E1688DF8BE
:1046E0000710D4E90123080A8DF80800080C090E08
:1046F0008DF80A10110A8DF80B208DF80C10110C92
:10470000120E8DF80E201A0A8DF80F308DF8102039
:104710001A0C1B0E8DF80D108DF809008DF8112064
:104720008DF812300F21CCE7D4E90123110A8DF85E
:1047300007208DF80810110C120E8DF80A201A0AA5
:104740008DF80B308DF80C201A0C1B0E8DF809100B
:104750008DF80D208DF80E300B21B2E7AA7F0020D6
:10476000A87F00202DE9F0413E4B94B005464FF65E
:10477000FF721A8001204FF659632A4602A98DF86C
:104780000A00ADF80830FFF719FD0446002865D18E
:10479000354B04AA03F110071646186859681446E9
:1047A00003C40833BB422246F7D1A91C3046FFF7A9
:1047B00013FD0446002851D101461C220DA802F029
:1047C00009FC9DF834308DF8044043F004038DF863
:1047D00034300223ADF80C30AB788DF80E30032363
:1047E0008DF80630F423CDE90A44ADF82C302B4681
:1047F0004FF0110833F8040B0C9403AF01AE08AA74
:104800000DA98DF8058008970996FFF7D9FC044695
:1048100020BB01461C220DA802F0DCFB18238DF8FA
:1048200034300123ADF80C30AB788DF80E30132303
:104830008DF806301723CDE90A44ADF82C302B460D
:1048400008AA33F80C0B8DF804400DA90C94CDE99F
:1048500008768DF80580FFF7B3FC0446204614B0B7
:10486000BDE8F081FA57002007740F0030B5334CD3
:10487000236813F0010585B05DD1314B18603148D4
:10488000FCF77FFF029500F0B8F800284CD12E48C5
:10489000FFF7A6FC002847D1FEF728FA002843D1ED
:1048A00002A8FEF7F5FA00283ED102A90120FEF782
:1048B000F9FA002838D102A8FEF75CFB002833D1B2
:1048C00000F0ECFB30B1214800F0DCFB236843F042
:1048D00002032360112302A88DF80430FFF754FC73
:1048E00010BB9DF8093002A801338DF80930FFF79D
:1048F00049FCC8B923689B0718D514498869043155
:1049000082B201A8FFF74EFC70B91148FFF748FCCE
:1049100050B91048FFF726FF30B9FFF769FC18B906
:10492000236843F00103236005B030BD0A4802F05C
:1049300084FB0949E4E70020F6E700BFA07F0020E0
:10494000A47F0020B8700F0000100F00006F00203F
:1049500026740F006A7F0020FC730F0043690BB1BF
:10496000C06818477047000010B40549054C002284
:10497000904218BF214604485DF8044BFCF756BF2F
:104980001C710F0048710F00B857002007B5009345
:1049900013460A4601460348FCF74CFF03B05DF896
:1049A00004FB00BFB857002013460A4601460148E1
:1049B000FCF747BFB8570020014B18700B20704719
:1049C000AC7F0020024B002218781A70704700BF9D
:1049D000AC7F002018DF704730B585B00546102247
:1049E0000C466846002102F0F5FAA40868460195D5
:1049F0000294FFF7EFFF05B030BD1FB50023CDE9EE
:104A000001330393684602230093FFF7E3FF05B0E9
:104A10005DF804FB4FF000534FF480521A60002001
:104A200070470000014B06201B681847B87F002024
:104A30000A2803D90B38C0B2FFF7BEBF7047000089
:104A400010B5044686B00020FCF702FF014638B1DD
:104A5000174A1821204606B0BDE81040FCF7D2BC2A
:104A60001822684602F0B6FA0423124A8DF8003084
:104A7000114B116D1B68994212D1104B186800F050
:104A8000A5FF8DF80100FFF7D3FFD4E901138DF8DE
:104A90000100684698470A4800F032FA06B010BD97
:104AA00001238DF801306846D4E901139847F5E7F2
:104AB000414A0F00BC860020B07F0020B47F002058
:104AC000254A0F00F0B5044687B018220021684639
:104AD00002F080FA23788DF8003001228DF8012051
:104AE0000C2B00F28181DFE813F00D0077000F003E
:104AF000770077007F0177006E0077006C001C0064
:104B00002F0072008DF80420D4E9011368469847FD
:104B10009DF80130012B00F05C819D4B05201B6846
:104B200056E14FF08053D3F800210192D3F80421CD
:104B30000292D3F80C2192020492D3F8102192022F
:104B400003921B690593DFE74FF44053914D58687A
:104B500091492E6A227C884214BF01230223012E30
:104B600008BF013352B902238DF80430EB68029379
:104B70008A4B0393C3F57E230493C5E7012A10D122
:104B800088420ED14FF440531A78142A8CBF5B69C7
:104B9000002302934FF4805303934FF440539B68D8
:104BA000EAE79A4209D201238DF80430AB680293F8
:104BB00000F0FCFAAB690390DEE7FF238DF80430C8
:104BC000A2E7237CFAE7238AADF804309CE7704B18
:104BD00007201B68984797E7062B714A01D0012BE5
:104BE00001D1216911701178012904D0022957D00F
:104BF000002313709AE0013B072B85D801A252F8DD
:104C000023F000BF254C0F00094B0F00954C0F00FF
:104C1000654C0F00094B0F008F4C0F00094B0F0024
:104C20003D4C0F005A4B03201B689847606900F009
:104C3000D9FCFFF7FDFE8DF8010065E7A18A206928
:104C400000F0E8FCFFF7F4FE524B8DF80100DA6B40
:104C50001B6C0293E3680192002B3FF455AF20696F
:104C6000984751E74F49504800F022FDFFF7E0FE1A
:104C700001288DF801007FF447AF002000F040F9D3
:104C800000283FF441AF0A238DF801303CE74FF490
:104C9000007303933F4BDA6B1B6C0192029333E773
:104CA000013B072B3FF630AF01A252F823F000BFC3
:104CB000D14C0F00094B0F00874D0F00AD4D0F0079
:104CC000094B0F00D74D0F00094B0F00314D0F005E
:104CD00000F0C0FC08B90823D6E762690AB90323CB
:104CE000D2E7C2F30B0333B12A4B2E495B6D09683F
:104CF00013448B42F3D1B2F5805F01D90423C3E79B
:104D0000244B2849586D096815188D42E3D85A6418
:104D1000DA6C9A6418651863234B1B680022012122
:104D20001844FFF741FE00283FF4EEAE0523ABE741
:104D300000F090FC0028CED0164DA18AD5E914329F
:104D40009B1A6A6C0B449342C9D8174B2F6B1B6894
:104D5000206905F148021F44FCF724FCE368A28A9D
:104D6000216906463846FFF711FE08B1E36876E789
:104D7000A38A2A6BAE641A442A632A6D02961344EE
:104D80002B650193C0E6034B9A6C02921B6DF8E70A
:104D9000B87F0020BC860020DBE5B15100100F0079
:104DA000FC570020B07F0020B47F00200F4BD3E9D8
:104DB0001402596C821A8A428DD19A6C586500216E
:104DC00020465964DA64FFF73BFE094B1B68042058
:104DD000984707B0F0BD054B9A6C1B6D01934FF4DB
:104DE0008053029203938FE602234DE7BC86002096
:104DF000B87F002083681BB1024A1821FCF702BB70
:104E000007207047C54A0F0038B50546C0B10120DC
:104E1000FFF7AAFD044648B900F0D6FB00F01AFCE3
:104E200030B9084B00201D60FFF7C6FD204638BD95
:104E30000549064800F03CFC0128F2D00324F5E7C0
:104E40000724F3E7B87F0020B07F0020B47F002064
:104E50002DE9F04115464FF46072064688461F461C
:104E600002F058F828B915B90020BDE8F081A8472C
:104E7000FAE7002201213046FFF796FD70B94FF4A2
:104E800060724146384602F07CF82B464FF460725F
:104E900039463046FFF77AFD0028E5D00320E4E7E5
:104EA00070B50C4C054600225821201DFCF77AFBFA
:104EB00000222060C32104F51870FCF773FB2A461A
:104EC000C4F85C022146044B0448BDE87040FFF77B
:104ED000BFBF00BFBC8600203C83002000F00F0055
:104EE00002460248024B0068FFF7B2BF005800209C
:104EF000BC7F00200149FFF7F3BF00BF00F00F00A7
:104F000038B505460020FFF7CBFF044618B9034922
:104F10002846FFF7E5FF204638BD00BFBC860020CD
:104F20002DE9F041FFF720FD0246002874D13E4DE7
:104F30002B68013359D05821281DFCF733FB2C680E
:104F4000221A54425441DFF8FC80384FD8F80060F0
:104F50003368013363D000225821301DFCF722FB57
:104F60003368834243D17568012D0AD00022C321E2
:104F700006F51870FCF716FBD6F85C522B1A5D424A
:104F80005D41B4B3284929484FF4607201F0F9FF3C
:104F900075B1D8F8001026485422043101F0F1FF11
:104FA000D8F8001023484FF432725C3101F0E9FF69
:104FB0007C68012C2CD12049402201F5E47001F0DD
:104FC000E0FF1E491C2201F5E47001F0DAFF1C49E4
:104FD00087F8A1420023042201F2862087F860327C
:104FE00087F8E23201F0CDFF10E00446ABE7002580
:104FF000C7E72DB1D8F800100C484FF46072D5E720
:105000000A484FF46072002101F0E4FF02237B6044
:105010000020FFF775FF00B10320BDE8F081002CF0
:10502000EED00025AEE700BF00F00F00BC860020E8
:10503000C08600201887002018880020588800208B
:10504000D88600200058002029DF704738B50C4D65
:105050000446D5F8643378B101330FD1002218210A
:105060000430FCF79FFA21462060072205F55970AD
:10507000BDE83840FFF7E8BF0E2038BD0820FCE748
:1050800000F00F0008B528B103491C2201F079FF98
:10509000002008BD0E20FCE764F30F0010B5064C9D
:1050A000002218212046FCF77DFA54F8043C1B1A14
:1050B0005842584110BD00BF68F30F0010B50A4CAC
:1050C000D4F82433D4F864231340013309D04FF4C7
:1050D0007F20FDF783FFC92221464FF47F20FDF793
:1050E00095FF002010BD00BFBC860020F8B5094F19
:1050F000094CE41B0646E4080025A54201D1002026
:10510000F8BD57F83530304698470028F8D10135BA
:10511000F3E700BFA4700F00AC700F00F8B5094EA4
:10512000094CA41B0746E40800250436A54201D11A
:105130000020F8BD56F83530384698470028F8D199
:105140000135F3E7A4700F00AC700F0008B50C2216
:10515000002101F03FFF024B00221A6308BD00BF8F
:10516000BC8600204FF44053074A5968914201BF62
:10517000986800F6FF7020F47F6020F00F0018BFE1
:105180004FF48050704700BFDBE5B15108B5FFF721
:10519000E9FF054B9B69184400F6FF7020F47F601F
:1051A00020F00F0008BD00BFBC860020FFF7DABF6B
:1051B0004FF48050704700002DE9F74F1F46244BF5
:1051C000DFF894B01B6ADFF894900191044615460D
:1051D00000934FF000084FF4405AB8F1010F5FFA06
:1051E00088F61AD0022E24D0FFF7D0FF9DB1009B85
:1051F000013B59425941A9EB0000A04201D3019B58
:10520000EBB1D1B908F10108B8F1030FE5D1A04223
:1052100016D2042018E02946EDE7FFF7A3FF37B9BF
:10522000DAF80410B1EB0B0118BF0121E3E74146A6
:10523000E1E701214FF48050DDE7A042E9D316B148
:105240000448FFF783FF002003B0BDE8F08F00BFE4
:10525000BC860020D4860020DBE5B15100E00E00C2
:1052600090F8552012F0FB0F07D190F8643023B16D
:10527000836ECBB10B600120704712F0010303D0A5
:1052800090F8563003B1836D9207F2D590F85C2008
:10529000002AEED0054A006EC2F57E22904201D867
:1052A0000344E6E7042070470F20704700100F000A
:1052B00010B5084C4FF40072FF21204601F08AFE21
:1052C00020220021A4F1240001F084FE002344F8F0
:1052D0002C3C10BD188700202DE9FF472F49304D89
:1052E0008A6B304C304FDFF8D490DFF8D4A06E4694
:1052F0005C313046FCF770FE96E80F0085E80F0041
:1053000000212A4B39704FF447722046C9F800102B
:10531000CAF80010EB6001F05DFE254922462846E0
:10532000FDF7F7F820B90027384604B0BDE8F0874C
:105330003F78002FF7D094F86C3194F800801BB3BD
:10534000B8F1000FEFD194F87231002BEBD0DAF8FE
:105350000020D9F800103046FCF73EFE96E80F001A
:1053600085E80F004FF4B272414604F5BA7001F0BF
:1053700031FE104904F5BA722846FDF7CAF8002834
:10538000D1D004F5BA7406E0B8F1000FCBD0A37900
:10539000002BC8D00834084B1C60C5E7BC86002031
:1053A000888D00206C8A0020688A0020C5530F0079
:1053B0008C730F00D8720F00448E0020648A002086
:1053C000608A00205B68DA680D4B9A4230B508D1DC
:1053D0000C4C236813B90C490B681BB10B4B002212
:1053E0001A7030BDD0E901321A4413F9015B002D67
:1053F000A2EB0300F9DB23600860044B0122EFE716
:10540000D8720F00648A0020608A0020688A002019
:105410004FF4405310B55968154CA142024624D0B0
:1054200000F500535B68181B43424341A1421846F4
:105430001AD102F500535A688A4215D14FF44052EE
:105440001178142982BF50690A4AB0FBF2F01A7829
:1054500098BF0020142A83BF5B69064AB3FBF2F3AE
:105460000023C01A18BF012010BD0023DEE700BFD3
:10547000DBE5B15140420F0000B591B0FEF784F872
:10548000684608492022FEF7B2F86A4606490748EE
:105490004023FDF7CBFF064B01221A7011B05DF8D7
:1054A00004FB00BFF8710F00988D00208C710F0075
:1054B0003C8A00202DE9F041CCB003AE80460D4679
:1054C000144600217C221F4604A82023336001F0EB
:1054D00081FDA422002123A801F07CFD1A4B1B783A
:1054E0000BB9FFF7C9FF4DB3B8F1000F28D1DFF8B2
:1054F0006880529B15490196CDF800803A4604A871
:10550000FEF728F8F0B9402C1CD1114F224629464D
:10551000384601F036FD20213846FEF774F8CDE913
:1055200000740C493368424623A8FDF79BFF00280E
:105530000CBF012005204CB0BDE8F0811320FAE734
:105540001620F8E70A20F6E73C8A002098710F0041
:10555000008E0020988D0020E08D0020F0B5ABB0CB
:1055600004460D4616461F467C22202300210BA828
:10557000029301F02FFD114B1B780BB9FFF77CFF55
:105580002FB12146202203A8FEF726F803AC02AB78
:105590000B4F01930B49009733462A460BA8FDF7A2
:1055A000D9FF48B920222146384601F0B3FCB0FAB1
:1055B00080F040092BB0F0BD0020FBE73C8A0020C2
:1055C0003D8A002098710F0008B5044B986B08B114
:1055D000FFF782FE024B187008BD00BFBC8600209A
:1055E000408E002010B5044658B1B0F5007F0AD8AF
:1055F000064B00221A70FFF75BFE054B01209C63EF
:1056000010BD0320FCE70420FAE700BF408E002015
:10561000BC86002070B50E4C0646E06BA36B4218AA
:105620009A420D4611D85C300A462044314601F0BA
:10563000A8FCE36B04F140022B4429463046E363A7
:10564000FBF7B0FF2064012070BD0320FCE700BF22
:10565000BC860020014B1878704700BF408E0020A8
:1056600013B5104C94F86C21B2B194F8D802B4F888
:10567000DA2204F5377104F5B8740B4B1B680093FC
:105680000A4B1B68FFF716FF012809D1201D02B045
:10569000BDE8104000F09EB9114610460434ECE716
:1056A00002B010BD6C8A0020608A0020648A00204D
:1056B000204BD3E90E329A422DE9F04106460D46C1
:1056C00033D1DFF8788098F800704FB1FFF75EFDB6
:1056D000194B306029461868BDE8F041FFF7C0BD9E
:1056E000FFF7FAFD18B3FFF7BBFF01283760044648
:1056F0002F6017D1104B29461868FFF7B1FD01281C
:1057000004460FD10346024639462868FFF754FD88
:1057100038B9FFF73BFD88F8004030602046BDE80F
:10572000F0810424FFF7C4FDF8E70824F6E7052418
:10573000F4E700BFBC860020448E0020408E00208D
:1057400001237230FFF70ABF13B5044608462378D9
:105750001146032B03D8DFE803F021050F180020C2
:1057600002B010BD0022D4F80140FBF71BFF8442B9
:1057700014BF00200120F3E70A4600230146601C05
:1057800002B0BDE81040FFF7E9BE00910346402299
:10579000611C0020FFF78EFE0128E9E70120DFE70A
:1057A0002DE9F041A2B004460D46164600217C22A8
:1057B0001F4603A8202302939DF8A08001F00AFC55
:1057C00041220021204601F005FCB5F894300BB1D0
:1057D00095F8968084F80080B8F1030F1ED8DFE8B2
:1057E00008F00902111F002239463046FBF7DAFEA5
:1057F000C4F801003A4631462046FFF7A5FF22B023
:10580000BDE8F08102AB0193631C009308493B465D
:10581000324603A8FDF79EFE0028EBD00020EEE7FD
:10582000B5F8982005F19A01601C01F0AAFBE1E7A8
:1058300098710F002DE9F0475D4B1D68A4B0044638
:105840000F4690460A4601462846FFF779FF002892
:1058500000F0A38095F855601EBB4FF00109CDF80C
:1058600000903B462246294613A8FFF799FF0028DF
:105870005FD0B8F1000F4DD041224E4813A901F07E
:1058800080FB4D4B6A68C3F82C901E629A60002220
:1058900039462046FBF786FE474B0125C3E90970D0
:1058A00076E04122002102A801F094FB06F00109F4
:1058B0004122002113A806F0020601F08BFBB9F18A
:1058C000000F2BD004F500513C4B4A689A4230D16E
:1058D000D5F858A00AF5FF520AF6FF73C3F30B037D
:1058E0001F32D21A8B68934223D32046FFF790FDD4
:1058F00000B1F6B10123009322465346294602A87F
:10590000FFF74EFFA8B1AB6DE218FB1A4EB9B8F124
:10591000000F10D1284B01255D6144E03B46224633
:10592000F4E70021009113A82946FFF739FF00286A
:10593000EDD1052532E0DFF88080B9F1000F20D0ED
:105940002046FFF765FD18B108F11800FFF7FEFBD0
:105950001B48412202A901F014FB002E14BFAC2306
:10596000A523C8F82C30AB6DC8F83430002E8ED08B
:105970001448412213A901F004FB6B68C8F80C30ED
:1059800085E7AA23C8F82C30F0E70F48FFF7DEFBC5
:10599000FFF78EFC084B9C6405E01725B8F1000F5B
:1059A000F3D1FFF785FC284624B0BDE8F08700BF9F
:1059B000448E00205D890020BC860020DBE5B151CB
:1059C0001C8900209E890020E08600200122FFF72C
:1059D00031BF000090F85430F0B5002B3FD090F864
:1059E0005530032B3BD890F86E20032A35D1027A2C
:1059F000002A34D0C268342A33D14FF440551B49B1
:105A00006C68028A8C421ED142B14169B1B1D2B2F6
:105A100000F114040021CEB2B24201D812200CE0F1
:105A200054F8047BAE89B74201F10101F3D1027849
:105A3000CAB9012B8CBF0F200120F0BD002BF6D07E
:105A4000012BF4D1EAE712B14269002AE6D1012B19
:105A5000EDD10278002AEAD1E0E71420EDE70F202B
:105A6000EBE71120E9E70120E7E700BFDBE5B151F3
:105A7000008800F00100704730B10268034B044811
:105A80009A4208BF0020704702487047DD55AABB04
:105A90008208F0007108F00038B50D460446B0B138
:105AA000A0220021043000F041FD95B108222946D2
:105AB00004F1640000F040FD082205F1200104F12A
:105AC000840000F039FD044B2360002038BD0348FA
:105AD000FCE70348FAE700BFDD55AABB7108F000F8
:105AE0008308F0002DE9F74305460E469946114616
:105AF000FFF7C2FF0446002840F08480002E00F02B
:105B00008580002900F08480B9F1200F40F0828068
:105B100005F14404082205F10408204600F00CFDBC
:105B200005F1240708223146404600F005FD06F144
:105B300020010822384600F0FFFC02A94FF48070D3
:105B400041F8049D00F0A4FA002865D1334A4FF4CF
:105B500080731360012193600823314A00F046FBF3
:105B60000121084605232F4A00F040FB0823424646
:105B700001211C2000F03AFB08233A4601210320B2
:105B800000F034FB224608230121022000F02EFB06
:105B90000823254A01211A2000F028FB0523234A67
:105BA00001211B2000F022FB0823214A012114209F
:105BB00000F01CFB08231F4A0121152000F016FBF2
:105BC000082305F164020121162000F00FFB0823D1
:105BD00005F184020121172000F008FB0823164A72
:105BE00001210B2000F002FB00F05CFB0446019851
:105BF00000F0EAFA114B002C18BF1C46A4212846DD
:105C000000F096FC204603B0BDE8F0830C4CF9E7A9
:105C10000C4CF7E70C4CF5E7084CEFE790B002505E
:105C200070740F00E8740F0030740F00D4740F000C
:105C300094740F00B4740F0050740F008408F000C7
:105C40007608F0008008F0008108F0002DE9F041AE
:105C5000069F044615461E46FFF71EFF38B93B4611
:105C6000324629462046BDE8F041FFF73BBFBDE87C
:105C7000F08100000C4BC2691A60826943F8042C61
:105C8000426943F8082C026943F80C2CC26843F8B7
:105C9000102C826843F8142C426843F8182C0268D0
:105CA00043F81C2C704700BF5CB602500C4B1B68BD
:105CB000C3610C4B1B6883610B4B1B6843610B4B2F
:105CC0001B6803610A4B1B68C3600A4B1B68836037
:105CD000094B1B684360094B1B680360704700BF9A
:105CE0005CB6025058B6025054B6025050B602503C
:105CF0004CB6025048B6025044B6025040B602506C
:105D000030B10268034B04489A4208BF0020704734
:105D100002487047DD55AABB0202F0000002F00005
:105D200038B5044668B1051D7021284600F000FC16
:105D300028462022044900F0F7FB044B2360002092
:105D400038BD0348FCE700BF0C750F00DD55AABB4A
:105D50000002F0002DE9F043284B04460E4615469C
:105D60000FCB85B06F4687E80F002DB94FF00009C3
:105D7000484605B0BDE8F0832046FFF7C1FF8146E5
:105D80000028F5D1231D0193636AA3BB236F8BB158
:105D9000C3F14008A84528BFA84604F130003146A9
:105DA0001844424600F0C0FB236F43444644236737
:105DB000A5EB0805226F402A06D104F130013846D0
:105DC00000F0C8FB0023236705F03F0835F03F05CE
:105DD00005D031462A46384600F0BCFB2E44B8F1C7
:105DE000000FC3D04246314604F1300000F09CFB66
:105DF000C4F87080BCE7DFF80890B9E7FC740F00C6
:105E00000C02F0002DE9FF41144B04460E460FCB67
:105E10006F4687E80F002046FFF772FF8046B0B953
:105E2000CEB1636A251D01953BB901236362226FE0
:105E300004F13001384600F08DFB2B46043E24343B
:105E400053F8042B12BAA34246F8042FF8D1404667
:105E500004B0BDE8F081DFF80880F8E7FC740F00BB
:105E60000502F000084B1B681B0EF02B08D1074BF6
:105E70001A68074B9A4205D1064B002018607047FC
:105E8000052070470620704728B9025024BA0250F6
:105E90000000E0200CBA0250002230B54900134641
:105EA000023840F6FC7502F1A05404F52C44A4001D
:105EB000904202F10102CABF236025605B181E2ACE
:105EC000F1D1044A13600B445360034B034A1A6038
:105ED00030BD00BF78B0025084B0025020F80F00EF
:105EE00030B51E4B85B01A46196800910099CC0751
:105EF000FAD500F1A05000F52C408000016813682D
:105F00000193019BD807FAD5154B164C1868164D0E
:105F10001F30202390FBF3F00138002810DA002313
:105F20000130400153B1A0F120014FF00042134273
:105F300004D1013888424FEA5202F8D105B030BD91
:105F400013680393039BDB07FAD5431823602B6880
:105F50000293029B002BE3D10138DEE7B4B002507C
:105F6000ACB00250E4B00250DCB00250F0B51D6895
:105F700085B001F01F040DB91F2C25D1154D2E46FB
:105F80002F680197019FFF07FAD500F1A05000F597
:105F90002C408000006835680395039DED07FAD515
:105FA0000D4D00EB611028600C48006802901F2C1A
:105FB00018BFC94302980FBF106001F01F0100FA1B
:105FC00001F111600021196010684300C00F1360D7
:105FD00005B0F0BDB4B00250E4B00250DCB00250E5
:105FE0000C4B18603F3020F03F0089014030586072
:105FF0009960D9601961596199611C33064819602B
:1060000082B002680192019AD207FAD5196002B0F3
:10601000704700BF90B00250B4B0025038B5A0F144
:106020002003B3F5426F05462CD88F2826D800F1FF
:10603000470300F16604DB064FEA541400D0013434
:1060400064013F34A409013411B1A1421AD30C46B2
:10605000E3004FF48050B0FBF3F0202828BF20204D
:1060600002B11060084B01221A602146FFF714FFAD
:1060700028462146FFF7B4FF002038BD00F11F0479
:106080006409DDE70148F8E71CB802502221F0005E
:106090000A460021FFF7C2BFF0B5454B89B01D4647
:1060A0001C680194019CE407FAD5424BDFF80CE12F
:1060B000DFF80CC113449B0000241A680B181E2B38
:1060C00088BFC0F11E011F320B1852095343B3F5AC
:1060D000806F82BF4FF48061B1FBF2F1091A00F1C9
:1060E000A05000F52C402746A14233DC2B680493D6
:1060F000049BDB07FAD5304B1B682968059105998D
:10610000CF07FAD52D4C2E49236000231E4693421B
:1061100003F1010040D120F0010229481946002670
:106120008A423CD8296806910699CE07FAD52549B6
:106130000968286807900798C007FAD521602048A9
:1061400000210C468B422DD11D4900209A422CD8AB
:1061500009B0F0BD2B680293029BDB07FAD5031947
:106160009B001B682E680396039EF607FAD5CEF8AF
:1061700000300023934203F1010306D1164623F0B9
:106180000103B34204D80134AEE7CCF80070F1E764
:10619000CCF800700136F4E70E600346B7E70660FE
:1061A0000131BDE704600131CCE708600133CDE780
:1061B000B4B0025024AC00147CB00250D4B00250F1
:1061C000D8B0025078B0025008B540B1202801463E
:1061D0004FF0070228BF20210020FFF75DFF024B90
:1061E00000221A6008BD00BF1CB80250F0B5294D4E
:1061F00085B02C462E680096009EF607FAD500F171
:10620000A05000F52C40800005682068019001989E
:10621000C707FAD52048214F056002EB8306B2423A
:1062200029D15A1C1D4E22F0010200279A4227D87C
:1062300023680293029BDE07FAD5194B0B449B009F
:106240001B681F335B099A4213D22168039103999B
:10625000C907FAD5154400219B1A104A0560084663
:106260008B4210D85A1C0D4922F0010200209A429C
:106270000CD805B0F0BD52F804CBC7F800C0CEE78B
:1062800037600133D2E710600131E9E7086001337C
:10629000EDE700BFB4B00250D4B00250D8B0025005
:1062A00024AC00142DE9F041814B1D68986820331F
:1062B000A0B01E461A680192019AD707FAD57D4B05
:1062C0007D4A1A6032680292029AD407FAD57B4A54
:1062D0001A607B4A1446116803910399C907FAD5DD
:1062E000784A1168C1F3402137680497049FFF077B
:1062F000FAD5754F1F6027680597059FFF07FAD5E8
:106300001768002900F0CF80B90540F1CC803168D2
:1063100006910699CF07FAD56C4919602168079153
:106320000799C907FAD51168C1F340213768089762
:10633000089FFF07FAD5664F1F6027680997099FD6
:10634000FF07FAD51268002900F0AF80910540F1EF
:10635000AC8032680A920A9AD207FAD5564A1A6075
:1063600032680B920B9AD707FAD55A4A1A603168ED
:106370000C910C99CC07FAD55749196031680D91E9
:106380000D99C907FAD55549196031680E910E99D2
:10639000CF07FAD55249196031680F910F99CC0790
:1063A000FAD550491960504B1E4619681091109942
:1063B000C907FAD53F4C4D4B236033681193119BAD
:1063C000DB07FAD54A4B236033681293129BDF0731
:1063D000FAD5484B23603A4B9846196813911399A4
:1063E000C907FAD5324F386033681493149BDB0722
:1063F000FAD5226033681593159BD807FAD53E4B22
:10640000236033681693169BD907FAD53B4B23605C
:1064100033681793179BDA07FAD5394B2360336833
:106420001893189BDB07FAD5364B23603368199312
:10643000199BD807FAD5344B236033681A931A9BFB
:10644000D907FAD5314B236033681B931B9BDA07BE
:10645000FAD52F4B236000F033FC08BBD8F800308E
:106460001C931C9BDB07F9D53D6033681D931D9B76
:10647000D907FAD5274B236033681E931E9BDA0792
:10648000FAD5254B2360D8F800301F931F9BDB07FC
:10649000F9D50C4B1B6813F4805F204B08BF1846DE
:1064A00020B0BDE8F0811E48FAE71E48F8E700BFBB
:1064B00090B0025080B0025000100251C01F7229EB
:1064C000B4B0025088B00250C0CF0129C01F0E29BD
:1064D000C03F002940010249003184A8000016494C
:1064E000400108A180440888B0B00250C0447088C0
:1064F00080077A41C0077E4100006A49800616493C
:1065000040006E49000200210082202140822021AB
:106510008082242140A161A100C861510308F100DB
:106520000108F1000208F10000F02BBD00F052BD9F
:106530000A46002100F04EBD01EB820204388A4277
:1065400001D10020704752F8043D1BBA40F8043FC7
:10655000F5E700002DE9F74F314B4468804692463D
:1065600099461A68002AFCD12E4B9B461A68002ACD
:10657000FCD14FF0FF30019100F094FC802000F03E
:1065800097FC294D294A2A4F2A4E012307202B60C8
:10659000A2F59E72C2F83C011360636A3B60A36A75
:1065A0003360D8F8003042F8043CD8F80830204670
:1065B00098470199D9F80030002BFBD1BAF1000FB0
:1065C00020D11D4B04221A60D9F80030002BFBD1DA
:1065D000DBF800A0BAF1000FFAD1D8F80C30204651
:1065E00098473B6863623368A362144BC3F800A00A
:1065F000C3F844A1D9F80030002BFBD12B6003B0C5
:10660000BDE8F08F236A012B04BF0C4A13600C4BCA
:1066100040201960C3F804A000F050FCD4E700BF8C
:1066200010B9025020BC025018B8025000B90250F4
:10663000CCB70250D0B70250C8B7025084B602504F
:1066400028BC025010B5544B98B019461A680192F4
:10665000019AD207FAD5514B514A1A600A68029240
:10666000029AD407FAD54F4A1A600A680392039A2D
:10667000D007FAD54C4818600A680492049AD207E9
:10668000FAD54A4A1A600A680592059AD407FAD5DB
:10669000474A1A600A680692069AD207FAD5454A0E
:1066A0001A600A680792079AD407FAD5424A1A6014
:1066B0000A680892089AD207FAD5404A1A600A680E
:1066C0000992099AD407FAD53D4A1A600A680A92D3
:1066D0000A9AD207FAD53B4A1A600A680B920B9ABB
:1066E000D407FAD5384A1A600A680C920C9AD20775
:1066F000FAD5364A1A600A680D920D9AD407FAD56F
:10670000334A1A600A680E920E9AD207FAD5314AB5
:106710001A600A680F920F9AD407FAD52E4A1A60A7
:106720000A681092109AD207FAD52C4A1A601A4BAE
:1067300019461C681194119CE407FAD5174B186090
:10674000086812901298C407FAD51A600A68139262
:10675000139AD007FAD5124A1A600A681492149A4A
:10676000D207FAD51E4A1A600A681592159AD407FC
:10677000FAD51C4A1A600A681692169AD007FAD5FA
:10678000194A1A600A681792179AD207FAD5174A57
:106790001A6018B010BD00BFB0B0025080B00250F7
:1067A000009365210004319040966590008361213B
:1067B00000C3302100C36490008161900046102125
:1067C000008111210041442100C320290C4610C83A
:1067D0000086312100C3602140C1282940966521EF
:1067E0000013319040962529594614C84004324977
:1067F00010B5494B94B019461A680092009AD20716
:10680000FAD5464B464A1A600A680192019AD407A3
:10681000FAD5444A1A600A680292029AD007FAD559
:10682000414818600A680392039AD207FAD53F4A92
:106830001A600A680492049AD407FAD53C4A1A608E
:106840000A680592059AD207FAD53A4A1A600A6888
:106850000692069AD407FAD5374A1A600A68079250
:10686000079AD207FAD5354A1A600A680892089A38
:10687000D407FAD5324A1A600A680992099AD207EF
:10688000FAD5304A1A600A680A920A9AD407FAD5E9
:106890002D4A1A600A680B920B9AD207FAD52B4A36
:1068A0001A600A680C920C9AD407FAD5284A1A6022
:1068B0000A680D920D9AD207FAD5264A1A600A681C
:1068C0000E920E9AD407FAD5234A1A600A680F92DC
:1068D0000F9AD207FAD5214A1A600F4B19461C6845
:1068E0001094109CE407FAD50C4B186008681190BE
:1068F0001198C407FAD51A600A681292129AD00742
:10690000FAD5174A1A600A681392139AD207FAD571
:10691000144A1A6014B010BDB0B0025080B00250DA
:1069200080906521000409904096659080806121E7
:106930008020082180206490008161900046102111
:10694000008111210041442180202029024610C8E5
:106950000086092180206021402128294096652158
:1069600040962529594614C810B5504B96B01C4680
:106970001A680192019AD207FAD54D4B4D4A1A6016
:1069800022680292029AD207FAD54B4A1A604B4A01
:1069900042EA804022680392039AD207FAD518602F
:1069A00022680492049AD007FAD5454A1A60A2F5E3
:1069B000800242EA814122680592059AD207FAD5FF
:1069C000196022680692069AD007FAD53D4A1A60E5
:1069D00022680792079AD107FAD53B4A1A602268C3
:1069E0000892089AD207FAD5384A1A6022680992A2
:1069F000099AD007FAD5364A1A6022680A920A9A8A
:106A0000D107FAD5334A1A6022680B920B9AD20743
:106A1000FAD5314A1A6022680C920C9AD007FAD53E
:106A20002E4A1A6022680D920D9AD107FAD52C4A87
:106A30001A6022680E920E9AD207FAD5294A1A6075
:106A400022680F920F9AD007FAD5274A1A60216858
:106A500010911099C907FAD51A60144B1A46196893
:106A600011911199C807FAD5114B20491960116885
:106A700012911299C907FAD51D491960116813912D
:106A80001399CC07FAD50B49196011681491149920
:106A9000C807FAD517491960116815911599C907E2
:106AA000FAD5154A1A6016B010BD00BFB0B002503A
:106AB00080B002504004419000862929D81001C8B6
:106AC0004014419040142129401465210034409025
