:020000040000FA
:080FF80000100F0000E00F00E3
:02000004000FEB
:10100000000004205D130F0045130F0047130F006D
:1010100049130F004B130F004D130F000000000089
:10102000000000000000000000000000715F0F00E1
:1010300051130F000000000053130F0055130F0051
:1010400057130F0057130F0057130F0057130F00BC
:1010500057130F0057130F0021550F0057130F00A0
:1010600057130F0057130F0057130F0057130F009C
:1010700057130F0057130F0057130F0057130F008C
:10108000E1700F0057130F0057130F0057130F0095
:1010900057130F0057130F00294B0F0057130F0062
:1010A00057130F0057130F0057130F0057130F005C
:1010B00057130F0057130F0000000000000000003E
:1010C00057130F0057130F0057130F0057130F003C
:1010D000F56A0F0057130F0057130F0057130F0037
:1010E00057130F0057130F00D1BE0F000000000070
:1010F0000000000057130F000000000057130F00FE
:1011000000000000000000000000000000000000DF
:1011100000000000000000000000000000000000CF
:1011200000000000000000000000000000000000BF
:1011300000000000000000000000000000000000AF
:10114000000000000000000000000000000000009F
:10115000000000000000000000000000000000008F
:10116000000000000000000000000000000000007F
:10117000000000000000000000000000000000006F
:10118000000000000000000000000000000000005F
:10119000000000000000000000000000000000004F
:1011A000000000000000000000000000000000003F
:1011B000000000000000000000000000000000002F
:1011C000000000000000000000000000000000001F
:1011D000000000000000000000000000000000000F
:1011E00000000000000000000000000000000000FF
:1011F00000000000000000000000000000000000EF
:10120000314932480A1A02D0072291438D463049AB
:1012100030480A1A06D00722914381F30988022236
:1012200082F314882C482D492D4A00F03CF82D48B3
:101230002D492E4A00F037F82D482E492E4A00F04D
:1012400032F82E482E492F4A00F02DF82E482F490B
:101250002F4A00F028F82F482F49304A00F023F891
:101260002F483049304A00F01EF8304830490022FB
:1012700000F024F82F483049002200F01FF82F4AD0
:1012800090471F481F49884205D00268043003B4C4
:10129000904703BCF7E700208646EC46002000217B
:1012A000274A9047FEE7884207D0521A05D00378B4
:1012B00001300B700131013AF9D17047884202D0F8
:1012C00002700130FAE770470000042000F80320A4
:1012D0000000042000000420B4C40F00CC570020FC
:1012E00000580020BC130F00BC130F0020C00F00DB
:1012F000B4C40F00CC570020CC57002094C00F007E
:1013000094C00F0094C00F0094C00F0094C00F0051
:1013100094C00F0094C00F0094C00F00B4C40F001D
:10132000E8C40F000058002000580020005800209A
:101330003C8E00203C8E00203C8E002085130F0048
:10134000415D0F00FEE7FEE7FEE7FEE7FEE7FEE792
:10135000FEE7FEE7FEE7FEE7704700BF1048804764
:1013600010484FF00701884385460F4880470F48D3
:10137000016841F470010160BFF34F8FBFF36F8FBD
:10138000FFF73EBF0A480B490B4A884207D0521A62
:1013900005D0037801300B700131013AF9D1704763
:1013A00059130F00000004209D710F0088ED00E02C
:1013B00080C00F00B8570020CC57002082B00190A9
:1013C000019B03F00303002B0CBF01230023DBB2BE
:1013D000184602B07047000082B003468DF807300F
:1013E0009DF807309AB2064B1B889A4204D29DF8AA
:1013F00007300133DBB200E00023184602B070472B
:101400000C58002000B583B00B4B1B788DF80730CB
:101410000A4B1B78DBB21846FFF7DEFF03461A467D
:101420009DF8073093420CBF01230023DBB218461E
:1014300003B05DF804FB00BF0858002009580020E5
:1014400082B0084B1B788DF80730074B1B78DBB256
:101450009DF807209A420CBF01230023DBB21846F7
:1014600002B07047085800200958002000B585B028
:1014700003460092ADF806300B46ADF80430BDF8D7
:10148000043001339BB2DB00ADF80E300098FFF75B
:1014900095FF034683F00103DBB2002B01D0072345
:1014A00017E00E4A009B1360BDF80E30009A1344FB
:1014B0000B4A13600B4B00221A700B4B00221A7060
:1014C0000A4ABDF806301380094ABDF8043013807B
:1014D0000023184605B05DF804FB00BF005800204B
:1014E0000458002009580020085800200A580020FD
:1014F0000C58002000B587B003900B460192ADF860
:101500000A30374B1B88BDF80A209A4260D84FF644
:10151000FF73ADF8123000238DF811300DF1110377
:10152000184600F029F9FFF76DFF0346002B0ED196
:101530002C4B1B78DBB2ADF812302A4B1B78DBB298
:101540001846FFF749FF03461A46264B1A709DF8C6
:101550001130184600F01AF9BDF812304FF6FF723C
:10156000934232D0204B1A68BDF81230DB0013448E
:10157000019A1A60039B002B1CD0BDF80A30002B87
:1015800018D01A4B1B68BDF812201549098801FBB9
:1015900002F21344BDF80A20039918460AF0E4FC4D
:1015A000114B1A68BDF81230DB001344BDF80A2055
:1015B0009A8007E00C4B1A68BDF81230DB00134428
:1015C00000229A800023059304E00423059301E0A0
:1015D00009230593059B184607B05DF804FB00BF7F
:1015E0000A58002009580020005800200458002004
:1015F000002318467047000000B585B02FE0204B4F
:101600001B78DBB2ADF80E301E4B1B68BDF80E2008
:101610001D49098801FB02F2134402931B4B1A680F
:10162000BDF80E30DB0013449B88ADF80630174B35
:101630001A68BDF80E30DB0013441B680093BDF838
:101640000620009B1146029898470D4B1B78DBB291
:101650001846FFF7C1FE03461A46094B1A70FFF7FA
:10166000C7FF034683F00103DBB2002B04D0FFF772
:10167000E7FE0346002BC2D000BF05B05DF804FBB7
:1016800008580020045800200A5800200058002064
:1016900082B0EFF310830093009B019372B600BFFA
:1016A000019B184602B0704762B600BF00BF70478A
:1016B00000B585B00190FFF7EBFF0390164B9B68D8
:1016C000002B1BD1144B01229A60144BD3F88020BD
:1016D000134B1340104A1360104B114AC3F880207B
:1016E0000E4BD3F884300C4A53600C4B4FF0FF3252
:1016F000C3F88420019B00221A7002E0019B0122A2
:101700001A70039B002B01D1FFF7CEFF0023184670
:1017100005B05DF804FB00BF1058002000E100E0B8
:10172000FC06FFBD00B585B003468DF80730104BB1
:101730009B68002B16D09DF80730002B12D1FFF7C5
:10174000A7FF03900B4A0A4B1B681360094A084B1A
:101750005B685360064B00229A60039B002B01D10B
:10176000FFF7A2FF0023184605B05DF804FB00BF99
:101770001058002000E100E000B583B0019001980E
:10178000FFF796FF00BF03B05DF804FB00B583B020
:1017900003468DF807309DF807301846FFF7C2FF63
:1017A00000BF03B05DF804FB88B003900291019282
:1017B000019B002B03D0019B1B68DB4301E04FF032
:1017C000FF330793002306931FE0039A069B1344FD
:1017D0001B781A46079B53400793082305930EE096
:1017E000079B5B08079A02F00102002A01D00B4A0E
:1017F00000E0002253400793059B013B0593059BA6
:10180000002BEDD1069B01330693069A029B9A4268
:10181000DBD3079BDB43184608B070472083B8ED45
:1018200086B001900091019B53E8011F8AB2D889CC
:1018300002449889824228BF121A1889824202BF44
:10184000BFF32F8F002307E0C2EA010243E8012023
:101850000028E9D14FF001038DF80F300590029177
:101860000492029A009B1A609DF80F30DBB2184672
:1018700006B0704784B00190019951E8013FC3EA76
:10188000034341E80132002AF7D10392029300BFDB
:1018900004B0704786B001900091019B53E8021F8D
:1018A0001FFAA1F2D888824202BFBFF32F8F002314
:1018B0000DE0D88902449889824228BF121AC1EAF1
:1018C000024243E802200028E8D14FF001038DF8DE
:1018D0000F30059002910492029A009B1A609DF8C5
:1018E0000F30DBB2184606B0704784B00190019902
:1018F00051E8023FC3EA234341E80232002AF7D10C
:101900000392029300BF04B0704786B00190019B20
:1019100053E8021FDA88B1EB314F4FF0000017BFD8
:1019200089B242EA024241EA024204E05968B1EB5C
:10193000314F08BF012043E802210029E8D18DF88A
:101940000F00059104929DF80F30DBB2184606B0E7
:10195000704784B00390029111461A460B46ADF8C9
:1019600006301346ADF80430029B002B01D10E2344
:101970001FE0BDF80630BDF80420B3FBF2F101FB17
:1019800002F29B1A9BB2002B01D0092311E0039BAA
:10199000029A1A60039B00225A60039B00229A60FD
:1019A000039BBDF806209A81039BBDF80420DA81D1
:1019B0000023184604B0704700B585B00190019827
:1019C000FFF7A3FF03468DF80F309DF80F30002B73
:1019D00001D0002300E01123184605B05DF804FB98
:1019E00000B585B001900091009B19460198FFF762
:1019F00017FF0346002B07D0019B1B68009A128833
:101A000013440393039B00E00023184605B05DF8E0
:101A100004FB00B583B001900091009B1A88009BE5
:101A20005B889A4204D10198FFF724FF012300E06C
:101A30000023184603B05DF804FB00B585B00190A3
:101A40000091009B19460198FFF724FF0346002BE5
:101A500007D0019B1B68009A528813440393039B91
:101A600000E00023184605B05DF804FB00B583B024
:101A700001900091009B1A88009B5B889A4204D1D8
:101A80000198FFF732FF012300E00023184603B05E
:101A90005DF804FB10B487B001900091019B009A9F
:101AA00053E8004F104643E8000191F0000FF7D1D2
:101AB000059404900391059B184607B05DF8044B0C
:101AC000704710B487B001900091019B009A53E8D1
:101AD000004F44EA020043E8000191F0000FF6D104
:101AE000059404900391059B184607B05DF8044BDC
:101AF000704710B487B001900091019B009A53E8A1
:101B0000004F04EA020043E8000191F0000FF6D113
:101B1000059404900391049B184607B05DF8044BAC
:101B2000704700B583B0019001210198FFF7C9FF0C
:101B30000346184603B05DF804FB00B583B001907E
:101B400000210198FFF7D5FF0346184603B05DF862
:101B500004FB82B001900B468DF80330019BDA68DC
:101B60009DF803300199098A01FB03F313441846D9
:101B700002B0704782B001900091009B019AD26838
:101B80009B1A019A128AB3FBF2F3DBB2184602B039
:101B9000704784B00190019B002B01D10E2320E0FF
:101BA000019B9A68019B5B68D31A8DF80F30019BEB
:101BB0001B68019A52681A6007E0019B1A68136853
:101BC000591C11609DF80F201A709DF80F305A1E95
:101BD0008DF80F20002BF0D1019B1B6800221A7199
:101BE0000023184604B0704700B585B0019000236B
:101BF000039300238DF80A300DF10A031846FFF70E
:101C0000BBFD019B1B681A68019B5B689A421FD948
:101C1000019B1B681A68013A1A601B681B781946F9
:101C20000198FFF796FF0390019B9A68019B1B6840
:101C30001B68D31A8DF80B30019B1B681B799DF82C
:101C40000B209A4204D9019B1B689DF80B201A7146
:101C50009DF80A301846FFF799FD039B184605B01A
:101C60005DF804FB10B584B001900091009B0393D4
:101C700000238DF80B300DF10B031846FFF77CFDA8
:101C8000019B1B681C68621C1A6003990198FFF78E
:101C900071FF034623709DF80B301846FFF776FD61
:101CA00000BF04B010BD00B585B003900291019251
:101CB000039B029A1A60039B1B681B680199039897
:101CC00098470346184605B05DF804FB10B586B08A
:101CD0000590049103920293049800F097F8039BF7
:101CE000184600F093F8029A0499059800F074F8E9
:101CF000059B1B68DC68089B0093029B039A049970
:101D00000598A0470346184606B010BD10B584B02C
:101D100003900291019200930299039800F083F8D6
:101D2000039B5B681B68019A02FB03F31A46029946
:101D3000039800F051F8039B1B681C69009B019AF3
:101D400002990398A0470346184604B010BD00004E
:101D500000B585B00190019B002B03D0019B1B684F
:101D6000002B28D10023039319E0039A13469B000C
:101D700013449B001A46154B13440193019B1B68A7
:101D8000002B09D0019B1B68DB690198984703462B
:101D9000002B01D0012314E0039B013303930C4A71
:101DA0000A4BD31A0B4AA2FB03231B09039A9A423C
:101DB000DBD3002305E0019B1B68DB690198984792
:101DC0000346184605B05DF804FB00BFB857002075
:101DD000CC570020CDCCCCCC84B0039002910192A2
:101DE000039BDB68029A9A4209D3029A019B13442F
:101DF0005A1E039B1B699A4201D8012300E000236D
:101E000003F00103DBB2184604B0704782B00190C2
:101E1000019B03F00303002B0CBF01230023DBB263
:101E2000184602B0704782B001900091019B5B6838
:101E30001B685A1E009B1340002B0CBF012300237C
:101E4000DBB2184602B0704700B58BB00390019228
:101E500000930B468DF80B30039B9B68002B13D02F
:101E60009DF80B308DF8103000230593009B0693EE
:101E7000019B07930C9B08930D9B0993039B9B6805
:101E800004AA1046984700E000BF0BB05DF804FBC1
:101E900082B001900091019B024A5A6000231846CB
:101EA00002B0704794C00F0000B583B0019000915C
:101EB0000348FFF742FE0023184603B05DF804FB19
:101EC0001C58002000B585B0039002910192009348
:101ED000029B009A194601980AF046F8002318461A
:101EE00005B05DF804FB000000B587B005900491D3
:101EF000039202931148FFF714FE0346002B01D012
:101F0000112316E00422029BB3FBF2F31A46039955
:101F1000049802F0A1FF0948FFF70FFE089B019308
:101F2000029B0093049B039A01210598FFF78CFF05
:101F30000023184607B05DF804FB00BF1C580020C2
:101F400000B589B005900491039202930023079392
:101F50001548FFF7E6FD0346002B0ED011231EE0C7
:101F60004FF48052079B03FB02F2049B1344184674
:101F700002F04EFF079B01330793079A039B9A4297
:101F8000EED10948FFF7D9FD029B0193039B009313
:101F9000049B002202210598FFF756FF00231846F4
:101FA00009B05DF804FB00BF1C58002082B001900E
:101FB0000091009B184602B0704782B001900091DA
:101FC0000023184602B0704782B00190044B1B6892
:101FD000002B14BF01230023DBB2184602B0704768
:101FE0001C58002029DF704700BF184628DF7047C3
:101FF00000BF184600B589B001900091019B1B6895
:102000009B68002B35D002AB00221A605A609A60A0
:10201000DA601A615A61009B0393019B9B680793E6
:10202000019B1B79002B02D0012B0DD01AE001235C
:102030008DF80830019B1B690493019BDB680593B5
:10204000019B5B6906930DE002238DF80830019B2C
:10205000DB684FF4805202FB03F30493019B5B693E
:10206000069300BF019B1B689B6802AA1046984715
:1020700000E000BF09B05DF804FB00B587B0019037
:10208000019B5A69019B9B69D31A142B28BF142307
:1020900005930422059BB3FBF2F3012B38BF012308
:1020A0000593019B1A69019B9B6913440493019B4F
:1020B000DB681A46019B9B6913440393059A0399B5
:1020C0000498FFF78FFF0346184607B05DF804FB3E
:1020D00000B583B00190019BDA68019B1B69134432
:1020E0001846FFF783FF0346184603B05DF804FB6C
:1020F00008B5034B03491846FFF7B8FC00BF08BDFD
:10210000FC590020245A002008B5084B08491846FD
:10211000FFF793FC0346074A1360064B1B68002B2E
:1021200014BF01230023DBB2184608BDFC59002070
:10213000245A0020205A002000B583B02A4B1B7A75
:10214000002B0BD1FFF7E0FF034683F00103DBB266
:10215000002B03D0244B00225A6042E0224B022283
:102160001A72224B1B681B79002B02D0012B07D05F
:102170000DE01E4B1B681846FFF77FFF019009E03A
:102180001A4B1B681846FFF7A3FF019002E00323D8
:10219000019300BF019B002B03D0019B112B0CD09E
:1021A0000FE0114B1B7C83F00103DBB2002B17D037
:1021B0000021022000F060F912E00B4B01221A729C
:1021C0000FE00A4B1B6803211846FFF713FF064B6D
:1021D00000221A72044B00225A60FFF789FF00E0C8
:1021E00000BF03B05DF804FB0C5A0020205A002009
:1021F00008B50848FFF795FC0346002B08D1064BAD
:102200005B7C83F00103DBB2002B01D0FFF794FF6E
:1022100000BF08BD105A00200C5A002084B0019065
:102220001A4B0022DA60019B1B79002B02D0012B94
:1022300017D026E0019B5A69019B9B69D31A142B86
:1022400028BF14230393019B9A69039B1A44019BA3
:102250009A61019B9A69019B5B699A420ED10123A5
:1022600010E0019B1B695A1C019B1A61019B1A69B2
:10227000019B5B699A4203D1012303E000BF00E0A8
:1022800000BF0023184604B0704700BF0C5A00205E
:1022900082B00190084BDB680133074AD360064BDC
:1022A000DB68082B04D9044B0022DA60012300E02C
:1022B0000023184602B070470C5A002000B583B0C6
:1022C00001900091019B0D4A5A600D48FFF729FCCF
:1022D0000346002B0CD102F0F9FB03461A46084BCB
:1022E0001A7408481C234FF4EE720749FFF731FBBC
:1022F0000023184603B05DF804FB00BFC0C00F0008
:102300000C5A0020FC5900202058002000B583B052
:102310000190009114220021054809F04EFE054B62
:102320001846FFF749FB0023184603B05DF804FB8D
:102330000C5A0020FC59002000B587B00390029190
:1023400001920093174A04AB19461046FFF748FB69
:102350000590059B002B01D104231FE01C220021C6
:10236000059809F02AFE059B00221A71059B039A25
:102370001A60059B089A9A60059B029A1A61059B50
:10238000019ADA60059B009A5A61064A04AB194625
:102390001046FFF73EFBFFF72BFF0023184607B060
:1023A0005DF804FBFC59002000B585B00390029154
:1023B00001920093029B009A1946019809F0D4FDFE
:1023C0000023184605B05DF804FB000000B587B097
:1023D0000390029101920093184A04AB19461046EB
:1023E000FFF7FEFA0590059B002B01D1042320E0A6
:1023F0001C220021059809F0E0FD059B01221A71BD
:10240000059B039A1A60059B009A9A604FF48052CC
:10241000029BB3FBF2F2059BDA60059B019A5A61BD
:10242000064A04AB19461046FFF7F3FAFFF7E0FE41
:102430000023184607B05DF804FB00BFFC590020DC
:1024400082B001900091009B184602B0704782B0A4
:10245000019000910023184602B0704782B00190AD
:10246000044B1B7A002B14BF01230023DBB2184658
:1024700002B070470C5A002000B585B00190009161
:10248000019B022B02D0019B032B48D1274B1B7AC7
:10249000022B05D0022B35DC002B42D0012B31E082
:1024A00000238DF80F30019B022B03D0019B032BDF
:1024B00009D011E01E4B1B681846FFF7AFFE03461C
:1024C0008DF80F3008E01A4B1B681846FFF7E0FE46
:1024D00003468DF80F3000BF9DF80F30002B10D051
:1024E000124B00221A72124B1A68019B022B01D167
:1024F000002300E00D2319461046FFF77BFDFFF790
:10250000F7FD00BF094B5B7C83F00103DBB2002BBE
:1025100002D0FFF711FE05E002F0BCFA02E000BFB6
:1025200000E000BF05B05DF804FB00BF0C5A0020BE
:10253000205A002082B0034600918DF80730064BE8
:1025400001225A74044B1B7A002B0CBF0123002379
:10255000DBB2184602B070470C5A002000B583B0B9
:10256000034600918DF807309DF80730012B03D00A
:102570009DF80730032B0DD1084B00225A749DF8AB
:102580000730012B0CBF01230023DAB2034B1A746E
:10259000FFF7D2FD00BF03B05DF804FB0C5A00202A
:1025A00082B001900091019B009A1A60019B1B6808
:1025B0001A68019B5A60019B5A68019B1B685B6803
:1025C0009A4202D1019B00225A6000BF02B07047BC
:1025D00082B00190019B5B68002B14D0019B5B686B
:1025E0001A46019B1B689B6813441A46019B5A605C
:1025F000019B5A68019B1B685B689A4204D1019B4E
:1026000000225A6000E000BF02B0704784B003901F
:1026100002910192039B029A1A60039B029A5A60EC
:10262000039B00229A60039B019ADA60039B5B681C
:102630009B881A46019B1A44039B1A61039B1B69E2
:10264000039A5268B2F906201A44039B5A61039B0D
:102650005B681B88002B14BF01230023DBB21846E4
:1026600004B0704700B585B00190019B5B68029390
:10267000029B1B88002B01D100236BE0019B5B6850
:1026800003F11002019B5A60019B5B681B88002BC1
:1026900009D1019B1968019BDB681A460198FFF775
:1026A000B5FF002356E0029B1B890393029B9B7896
:1026B00003F03003302B11D1019B5B689B7803F052
:1026C0003003302B0AD100230393019B1A69029B2C
:1026D0009B885B421A44019B1A611BE0029B9B781A
:1026E00003F0C003002B0DD1029B9B7803F0300355
:1026F000202B07D1029B5B891A46039B02FB03F345
:10270000039307E0029B9B7803F0C003802B01D169
:1027100004230393029B9B7803F03003002B04D126
:10272000019B9B685A1C019B9A60019B1A69019B43
:102730005B689B881946039B0B441A44019B1A61F2
:10274000019B1B69019A5268B2F906201A44019B49
:102750005A610123184605B05DF804FB00B585B049
:1027600001900091019B5B680393019B5B681B8850
:102770001A46009B934208D1019B5B689B7803F04B
:102780000F03082B01D0012308E00198FFF76AFF2F
:10279000019B5B68039A9A42E7D10023184605B073
:1027A0005DF804FB86B0039002910192039B5B6885
:1027B0000593039B5A68019B1A44039B5A60029B32
:1027C000002B0DD007E0059A531C0593029B591C62
:1027D000029112781A70019B5A1E0192002BF2D1BD
:1027E0000123184606B0704700B589B003900291E6
:1027F0000192029B002B21D1039B1B681F4A93422D
:102800001CD010E004AB102219460398FFF7ECFF30
:10281000034683F00103DBB2002B01D0002329E043
:10282000019B103B0193019B102BEBD804AB019A49
:1028300019460398FFF7D8FF03461BE0039B9B68EC
:10284000019A9A4201D9002314E0039B1B68019A64
:10285000029903989847034683F00103DBB2002BEB
:1028600001D0002306E0039B9A68019BD21A039BC8
:102870009A600123184609B05DF804FBA5270F00F4
:1028800000B583B001900091019B9B68002B01D1A2
:10289000002313E0019B1B680122009901989847CF
:1028A000034683F00103DBB2002B01D0002305E0D7
:1028B000019B9B685A1E019B9A600123184603B036
:1028C0005DF804FB10B48BB00390029101920A4BA7
:1028D0000693029B0593059B0793019B0893002396
:1028E0000993039B1C4606AB0FCB84E80F000398AB
:1028F0000BB05DF8044B7047A5270F0000B587B0FB
:10290000019000910DF10F0319460198FFF7B8FFF0
:10291000034683F00103DBB2002B01D0002338E033
:102920009DF80F305BB2002B03DB9DF80F30059351
:102930002BE0072304939DF80F3003F07F030593EA
:10294000049B1F2B01D9002323E00DF10F0319462F
:102950000198FFF795FF034683F00103DBB2002BDC
:1029600001D0002315E09DF80F3003F07F02049B97
:1029700002FA03F3059A13430593049B0733049368
:102980009DF80F305BB2002BDADB009B059A1A60D2
:102990000123184607B05DF804FB2DE9F04F89B01C
:1029A00001900091002307934FF000024FF00003C5
:1029B000CDE90423079B3F2B01D900233BE00DF118
:1029C0000F0319460198FFF75BFF034683F00103ED
:1029D000DBB2002B01D000232DE09DF80F30DBB2DD
:1029E00000229A4693460AF07F060027079BA3F130
:1029F0002001C3F1200207FA03F506FA01F10D43A5
:102A000026FA02F2154306FA03F4DDE9042342EA4A
:102A1000040843EA0509CDE90489079B07330793B6
:102A20009DF80F305BB2002BC4DB0099DDE9042375
:102A3000C1E900230123184609B0BDE8F08F00B5B5
:102A400085B001900DF10F03012219460198FFF79F
:102A5000CBFE034683F00103DBB2002B01D0002341
:102A600005E09DF80F305BB2002BEBDB012318462D
:102A700005B05DF804FB00B585B0019003AB1946C5
:102A80000198FFF73BFF034683F00103DBB2002B05
:102A900001D0002306E0039B1A4600210198FFF7AE
:102AA000A3FE0346184605B05DF804FB00B587B0E9
:102AB0000390029101920093009B00221A70029BE6
:102AC00000221A70019B00221A6005AB1946039878
:102AD000FFF714FF034683F00103DBB2002B08D09D
:102AE000039B9B68002B02D1009B01221A700023DC
:102AF00013E0059B002B04D1009B01221A700023D8
:102B00000BE0059BDA08019B1A60059BDBB203F022
:102B10000703DAB2029B1A700123184607B05DF86A
:102B200004FB000000B583B001900B468DF8033024
:102B30009DF80330052B27D801A252F823F000BFDF
:102B4000592B0F00632B0F00712B0F00892B0F00E7
:102B5000892B0F007B2B0F000198FFF770FF0346B6
:102B600013E0082200210198FFF73EFE03460CE027
:102B70000198FFF780FF034607E004220021019837
:102B8000FFF732FE034600E00023184603B05DF86D
:102B900004FB00BF00B587B00390019200930B4681
:102BA0008DF80B30009B1B6805939DF80B30052BAF
:102BB00035D0052B3DDC002B02D0012B25D038E091
:102BC000009B00221A60009B1B685A1C009B1A6025
:102BD000009B1B68059A9A4201D200232AE0012239
:102BE00001990398FFF700FE034683F00103DBB26F
:102BF000002B01D000231DE0019B5A1C01921B7881
:102C00005BB2002BDFDB012314E0009B08221A607B
:102C1000082201990398FFF7E7FD03460AE0009BAD
:102C200004221A60042201990398FFF7DDFD034690
:102C300000E00023184607B05DF804FB10B584B02F
:102C40000190009103AB19460198FFF757FE034628
:102C500083F00103DBB2002B01D0002316E0009AC1
:102C6000019B14460FCB84E80F00009B9A68039BDE
:102C70009A4201D2002309E0039A009B9A60019BCB
:102C80009A68039BD21A019B9A600123184604B0EC
:102C900010BD82B001900091009B5A68019B5A6060
:102CA00000BF02B07047000000B58FB003900B4624
:102CB00001928DF80B30019B5B689B788DF8363064
:102CC0009DF8363003F00F036A4A52F823300C9314
:102CD0009DF8363003F03003302B00F09F80302B0E
:102CE00000F3C380202B1DD0202B00F3BE80002BCF
:102CF00002D0102B09D0B8E0019B5968019B1A69DA
:102D00000C9B039898470346B0E0019B5B69012246
:102D10001A70019B5968019B1A690C9B039898478C
:102D20000346A3E09DF80B30022B51D19DF83630BD
:102D300003F00F03042B4BDC01238DF83730019B8C
:102D40005B690B9304AB19460398FFF777FF0346C3
:102D500083F00103DBB2002B23D0002386E0019B2C
:102D60001B69019A5268128911460B9A128801FB5D
:102D700002F213440A93019B596804A80C9B0A9A17
:102D80009847034683F00103DBB2002B03D00023F6
:102D90008DF837300FE00B9B1B8801339AB20B9BE9
:102DA0001A80069B002B06D00B9B1A88019B5B6840
:102DB0005B899A42D3D304AB19460398FFF769FFA6
:102DC000069B002B01D0002350E09DF837304DE0EA
:102DD000019B5B690993019B1B69019A52681289E7
:102DE0001146099A128801FB02F213440893099BC9
:102DF0001A88019B5B685B899A4201D3002335E006
:102E0000099B1B8801339AB2099B1A80019B596860
:102E10000C9B089A03989847034627E0019B5A6841
:102E2000019B5B6912881A809DF8363003F00F030E
:102E3000072B11D1019B1869019B5B681B891A46FE
:102E4000002109F0BAF8019B5B68DA68019B1B69F5
:102E50001946104600F001FA019B5968019B1A6956
:102E60000C9B03989847034600E0002318460FB0D8
:102E70005DF804FBECC00F0084B003900B46019298
:102E80008DF80B300023184604B0704710B596B08B
:102E900007900B4605928DF81B30059B1B69159317
:102EA000159B04331493159B1B68002B07D19DF8C9
:102EB0001B3019460798FFF735FE03464DE09DF895
:102EC0001B30022B25D110AB19460798FFF7B6FE31
:102ED000034683F00103DBB2002B01D000233CE06A
:102EE000159B1B68059A516810A8149A98470346C9
:102EF00083F00103DBB2002B01D000232DE0129BF5
:102F0000002BEDD110AB19460798FFF7C2FE012345
:102F100023E00A23089308AB09AA9DF81B10079821
:102F2000FFF738FE034683F00103DBB2002B01D02C
:102F3000002312E0089A6B4609A91846FFF7C2FC65
:102F40000CAC6B460FCB84E80F00159B1B68059AF1
:102F500051680CA8149A98470346184616B010BD3D
:102F600000B585B003900B4601928DF80B30019BA4
:102F70005B689B7803F0C003802B0FD0802B1FDC95
:102F8000002B02D0402B12D01AE09DF80B30019A92
:102F900019460398FFF788FE034612E09DF80B30B0
:102FA000019A19460398FFF767FF034609E09DF869
:102FB0000B30019A19460398FFF768FF034600E0BB
:102FC0000023184605B05DF804FB00B585B00190FC
:102FD0000091009B1B689B680393009B5B681A46EB
:102FE00003990198FFF712FB009B5A68019B1A6135
:102FF000009B03F10C02019B5A61039B9B7803F039
:10300000C003802B03D1009B1A1D019B1A6100BFD6
:1030100005B05DF804FB00B58DB0039002910192FC
:103020008DF80330029B1B689B680B930B9B1B88DE
:103030001A46019B934201D001230FE005AB029990
:103040001846FFF7C2FF029B01221A7305AA9DF8DA
:10305000033019460398FFF783FF034618460DB067
:103060005DF804FB10B588B00390029100931346FD
:103070008DF80730009B1B691B680793039B9B68B7
:10308000059327E0079B1B681B68002B0CD0079B50
:103090001B681C689DF80730029A07990398A0479F
:1030A00003468DF81B3009E09DF80730029A079916
:1030B0000398FFF7B0FF03468DF81B309DF81B30D7
:1030C00083F00103DBB2002B01D000230BE0079B50
:1030D0009B680793079B002B04D0039B9B68059A72
:1030E0009A42CFD00123184608B010BD00B585B074
:1030F0000190019B5B680393019B5B689B7803F0E5
:103100000F03082B01D1012308E00198FFF7AAFA69
:10311000019B5B68039A9A42EED10023184605B0E2
:103120005DF804FB00B58BB00190019B5B689B7858
:103130008DF822309DF8223003F00F03082B17D1B1
:10314000019B1B691B6809930EE0099B00221A73FF
:1031500002AB09991846FFF738FF02AB1846FFF794
:10316000E1FF099B9B680993099B002BEDD170E05F
:103170009DF8223003F0C003002B50D101238DF8BD
:1031800023309DF8223003F03003102B04D1019B33
:103190005B6900221A7012E09DF8223003F03003C0
:1031A000202B05D09DF8223003F03003302B06D1C0
:1031B000019B5B6900221A8000238DF823309DF863
:1031C0002330002B45D0019B5B689B7803F00F03F5
:1031D000072B09D1019B5B68DA68019B1B691946C3
:1031E000104600F03AF834E0019B5B68DB68002B86
:1031F0000BD0019B1869019B5B68D968019B5B68D8
:103200001B891A4608F0B0FE23E0019B1869019B58
:103210005B681B891A46002108F0CFFE19E09DF873
:10322000223003F0C003802B13D1019B1B690022C5
:103230001A609DF8223003F03003202B05D09DF852
:10324000223003F03003302B03D1019B5B69002255
:103250001A8000BF0BB05DF804FB00B589B0019087
:10326000009102AB009A01991846FFF7CFF9034687
:1032700083F00103DBB2002B0BD102AB1846FFF742
:1032800051FF02AB1846FFF7EDF90346002BF4D1CE
:1032900000E000BF09B05DF804FB10B596B00390E4
:1032A0000291019200230D9300230E934FF0FF3300
:1032B00012930023159307AB019A02991846FFF762
:1032C000A5F99CE00DF1160306AA0DF1170103986C
:1032D000FFF7ECFB034683F00103DBB2002B06D0C3
:1032E0009DF81630002B40F090800023D5E0069A20
:1032F00007AB11461846FFF731FA034683F0010386
:10330000DBB2002B3DD0069B159A9A422BD807AB17
:103310001846FFF7EBFE034683F00103DBB2002BF8
:1033200003D04FF0FF33159302E0089B1B881593E1
:10333000069B159A9A4216D8039B9B681093069990
:103340009DF8172007AB0398FFF78CFE034683F028
:103350000103DBB2002B01D000239EE0039B9B689E
:10336000109A9A4248D19DF8173019460398FFF7F2
:10337000D9FB034683F00103DBB2002B3ED00023D0
:103380008BE0089B9B7803F03003002B19D1099B3D
:103390003F2B16D8099B03F01F03012202FA03F307
:1033A0001193099B5B099B0058336B4453F8241C11
:1033B000099B5B09119A0A439B0058336B4443F8FD
:1033C000242C039BDB68002B07D0039BDC68069949
:1033D0009DF8172007AB0398A0479DF8173007AA60
:1033E00019460398FFF7BCFD034683F00103DBB2E7
:1033F000002B04D0002350E000BF00E000BF039B7F
:103400009B68002B7FF45EAF00E000BF099B149324
:10341000089B9B788DF83F3007AB1846FFF722F9E1
:103420000346002BF2D19DF83F3003F03003002B10
:1034300006D1089B1B88002B02D0149B01331493E8
:10344000149B002B28D0002313930DE0139B9B00AB
:1034500058336B4453F8243C129A9A4201D000230B
:103460001BE0139B01331393149B5B09139A9A423D
:10347000ECD3149B5B099B0058336B4453F8242C0A
:10348000149B03F01F03C3F12003129921FA03F3E5
:103490009A4201D0002300E00123184616B010BD67
:1034A00000B587B003900291019201990298FFF74D
:1034B000D4FE019A02990398FFF7EFFE03468DF8B8
:1034C00017309DF81730184607B05DF804FBF0B5CB
:1034D00085B00190009102AB19460198FFF75DFAA3
:1034E000034683F00103DBB2002B01D0002327E069
:1034F000DDE9022302F00104002554EA050311D09E
:10350000DDE902014FF000024FF00003420842EAF9
:10351000C1724B08D643DF4332463B460099C1E9AE
:1035200000230CE0DDE902014FF000024FF0000340
:10353000420842EAC1724B080099C1E90023012305
:10354000184605B0F0BD00B585B00190009103AB01
:10355000042219460198FFF747F9034683F0010357
:10356000DBB2002B01D0002311E09DF80C301A468D
:103570009DF80D301B021A439DF80E301B041A43B0
:103580009DF80F301B061A43009B1A600123184652
:1035900005B05DF804FB2DE9F04F9DB0199018912E
:1035A0001AAB082219461998FFF71EF9034683F053
:1035B0000103DBB2002B01D000239FE09DF86830AF
:1035C000DBB20022009301929DF86930DBB2002249
:1035D0001C4615464FF000024FF000032B0243EA51
:1035E00014632202DDE90045214641EA020829462A
:1035F00041EA03099DF86A30DBB200229A469346FD
:103600004FF000024FF000034FEA0B4343EA1A4326
:103610004FEA0A4248EA0201029149EA030303938E
:103620009DF86B30DBB2002204930592DDE90412B1
:103630000B461F0A0B461E06DDE902120B463343FA
:10364000069313463B4307939DF86C30DBB2002290
:10365000089309924FF000024FF0000308990B0005
:103660000022DDE90645214611430A912946194306
:103670000B919DF86D30DBB200220C930D924FF050
:1036800000024FF000030C990B020022DDE90A450D
:10369000214611430E91294619430F919DF86E3032
:1036A000DBB20022109311924FF000024FF00003A2
:1036B00010990B040022DDE90E45214611431291B9
:1036C0002946194313919DF86F30DBB20022149301
:1036D00015924FF000024FF0000314990B060022E0
:1036E000DDE91245214611431691294619431791E8
:1036F000189BDDE91612C3E90012012318461DB01C
:10370000BDE8F08F2DE9F04F8BB00390029101924C
:1037100004AB19460398FFF740F9034683F0010311
:10372000DBB2002B01D000235FE0029B1B89082B3A
:1037300004D1DDE90423CDE9082307E0DDE9042312
:103740001346DA179A469346CDE908AB029B1B89CC
:10375000082B0AD10199DDE90823C1E90023019B67
:10376000D3E90023CDE9062334E0029B1B89042B17
:103770000AD1089A019B1A60019B1B68DA179846C8
:103780009146CDE9068925E0029B1B89022B0DD1CC
:10379000BDF92020019B1A80019BB3F900301BB2B8
:1037A000DA171E461746CDE9066713E0029B1B8910
:1037B000012B0DD19DF92020019B1A70019B93F9DB
:1037C00000305BB2DA171C461546CDE9064501E02C
:1037D00000230AE0DDE90601DDE90823994208BF7C
:1037E000904201D0002300E0012318460BB0BDE851
:1037F000F08F2DE9F04389B003900291019204AB60
:1038000019460398FFF7C9F8034683F00103DBB2BA
:10381000002B01D000234FE0029B1B89082B0AD10B
:10382000DDE904230199C1E90023019BD3E90023C9
:10383000CDE9062335E0029B1B89042B0BD1DDE982
:103840000423019B1A60019B1B6800229846914645
:10385000CDE9068925E0029B1B89022B0DD1DDE90C
:10386000042392B2019B1A80019B1B889BB2002209
:103870001E461746CDE9066713E0029B1B89012B04
:103880000DD1DDE90423D2B2019B1A70019B1B7894
:10389000DBB200221C461546CDE9064501E00023B7
:1038A0000AE0DDE90423DDE90601994208BF904200
:1038B00001D0002300E00123184609B0BDE8F083E1
:1038C0002DE9F04389B003900291019204AB1946AF
:1038D0000398FFF7FCFD034683F00103DBB2002BE6
:1038E00001D0002351E0029B1B89082B0AD1DDE99E
:1038F00004230199C1E90023019BD3E90023CDE909
:10390000062337E0029B1B89042B0BD1DDE904233E
:10391000019B1A60019B1B68DA1798469146CDE916
:10392000068927E0029B1B89022B0ED1DDE90423C7
:1039300012B2019B1A80019BB3F900301BB2DA1757
:103940001E461746CDE9066714E0029B1B89012B32
:103950000ED1DDE9042352B2019B1A70019B93F949
:1039600000305BB2DA171C461546CDE9064501E08A
:1039700000230AE0DDE90423DDE90601994208BFDE
:10398000904201D0002300E00123184609B0BDE8B1
:10399000F08300B585B003900291019201990398DC
:1039A000FFF7D1FD0346184605B05DF804FB00B5EE
:1039B00085B003900291019201990398FFF7EBFD06
:1039C0000346184605B05DF804FB00B589B00390C6
:1039D0000291019205AB19460398FEF78FFF03464B
:1039E00083F00103DBB2002B01D000232CE0059B08
:1039F000B3F5803F01D3002326E0059B02330793F4
:103A0000059B079A9A4201D200231DE0029B9B78F6
:103A100003F0C003802B01D1002315E0029B1B891A
:103A20001A46079B934201D900230DE0019B0693A0
:103A3000059B9AB2069B1A80069B0233059A19468B
:103A40000398FEF7D1FE0346184609B05DF804FB63
:103A500000B589B003900291019205AB1946039815
:103A6000FEF74CFF034683F00103DBB2002B01D0CD
:103A7000002328E0059B01330793059B079A9A4290
:103A800001D200231FE0029B9B7803F0C003802B30
:103A900001D1002317E0029B1B891A46079B934222
:103AA00001D900230FE0059B1A4601990398FEF700
:103AB0009BFE03468DF81B30059B019A13440022A0
:103AC0001A709DF81B30184609B05DF804FB00B56C
:103AD0008BB0039002910192029BDB68089304ABC8
:103AE00019460398FFF7AAF8034683F00103DBB2F7
:103AF000002B01D0002325E0029BDB68002B01D1C5
:103B000000231FE0029B9B7803F03003202B09D198
:103B100004AB019A08991846FFF7C2FC03468DF8DA
:103B2000273008E004AB019A08991846FFF7B5FB67
:103B300003468DF8273004AB19460398FFF7A9F820
:103B40009DF8273018460BB05DF804FB00B585B032
:103B500001900091019B0393039B0833202200995D
:103B6000184608F001FA039B03F12800009B20335C
:103B70002022194608F0F8F90023184605B05DF830
:103B800004FB00B585B0019001210198FDF782FF8B
:103B90000390BFF35F8F00BF039B002B0CBF01237B
:103BA0000023DBB2184605B05DF804FB82B001903B
:103BB000BFF35F8F00BF019B00221A6000BF02B0FD
:103BC0007047000008B50348FFF7DBFF03461846BF
:103BD00008BD00BF286A002008B50248FFF7E6FFCD
:103BE00000BF08BD286A002082B00190019B002B15
:103BF00007D0019B064A934205D000BF48F21653F6
:103C000003E0002301E048F24253184602B0704737
:103C10008408F00000B58DB00590049103920293E2
:103C2000059B0B93049B0A930B9B154A1A60FFF7A5
:103C3000C9FF03468DF827309DF8273083F0010334
:103C4000DBB2002B02D048F2045315E000F0C2F9B9
:103C50000B980A9B03F10801029B0093039B0E9AA9
:103C600006F0E4FF089000F0C1F9FFF7B5FF0898EF
:103C7000FFF7BAFF0790079B18460DB05DF804FBED
:103C8000DD55AABB00B585B0019001210198FDF773
:103C900001FF0390BFF35F8F00BF039B002B0CBF9E
:103CA00001230023DBB2184605B05DF804FB82B0A7
:103CB0000190BFF35F8F00BF019B00221A6000BF1D
:103CC00002B0704708B50348FFF7DCFF034618460B
:103CD00008BD00BF286A002008B50248FFF7E7FFCB
:103CE00000BF08BD286A002084B00190019B002B12
:103CF00032D0019B284A934245D8019B274A9342E0
:103D000041D3019BA3F57003A3F500730F2B3AD8A1
:103D100001A252F823F000BF5F3D0F00673D0F0086
:103D20006F3D0F00873D0F00873D0F00873D0F005F
:103D3000873D0F00873D0F00873D0F00873D0F0037
:103D4000873D0F00873D0F00773D0F00873D0F0037
:103D5000873D0F007F3D0F000023039317E048F2DB
:103D60000153039313E048F2035303930FE048F227
:103D7000025303930BE048F21653039307E048F213
:103D80000353039303E048F21653039300BF039BCE
:103D9000184604B0704700BF0F02F0000002F000A8
:103DA00000B587B00190019B08330593059806F094
:103DB000A7FF04900498FFF797FF0390039B184612
:103DC00007B05DF804FB000000B58DB003900291D0
:103DD0000192039B08330993029B0A93019B0B9367
:103DE000FFF770FF03468DF823309DF8233083F0F2
:103DF0000103DBB2002B02D048F204532AE000F0AA
:103E0000E9F80B9BB3F5805F28BF4FF4805307930D
:103E1000079A0A99114808F0A7F8079A0F490998D4
:103E200006F088FF06900B9A079BD31A0B930A9A09
:103E3000079B13440A93069B002B02D10B9B002B7C
:103E4000DFD100F0D3F8FFF747FF0698FFF74CFFEC
:103E50000590059B18460DB05DF804FB285A00201C
:103E600000B58BB0039002910192039B0833099334
:103E7000029B0893019B1B681F2B02D848F2145326
:103E800024E0FFF71FFF03468DF81F309DF81F3019
:103E900083F00103DBB2002B02D048F2045315E09B
:103EA00000F098F80899099806F09CFF069000F039
:103EB0009DF8FFF711FF0698FFF716FF0590059B89
:103EC000002B02D1019B20221A60059B18460BB0E3
:103ED0005DF804FB82B00190019B00221A60BFF3E1
:103EE0005F8F00BF00BF02B07047000008B50248F6
:103EF000FFF7F0FF00BF08BD286A002084B00190E2
:103F000003230393019B002B03D0019B052B03D0BC
:103F100006E00023039306E048F20353039302E014
:103F20000323039300BF039B184604B070470000AF
:103F300000B583B0FFF7DAFF094B0122C3F8002573
:103F400006F080FF0190064B0022C3F8002501987F
:103F5000FFF7D4FF0090009B184603B05DF804FB08
:103F600000A00250034B0022C3F80025002318468E
:103F7000704700BF00A0025082B003468DF80730A2
:103F80009DF8073003F01F0205499DF907305B09D2
:103F9000012000FA02F241F8232000BF02B070476E
:103FA00000E100E082B003468DF807309DF807304D
:103FB00003F01F0206499DF907305B09012000FA52
:103FC00002F2203341F8232000BF02B0704700BF47
:103FD00000E100E008B5044B0122C3F800252A20C7
:103FE000FFF7CAFF00BF08BD00A0025008B5044B90
:103FF0000022C3F800252A20FFF7D4FF00BF08BD28
:1040000000A0025000B585B00190019B002B0AD0A2
:10401000074B43F001030393019B9B010293039B16
:104020000298984700E000BF05B05DF804FB00BFB0
:1040300040C10F0082B00190019B1B681F2B02D86A
:104040004FF0A04306E0019B1B6803F01F02019B99
:104050001A60024B184602B0704700BF00030050C0
:1040600000B585B00190084611461A4603468DF802
:1040700003300B468DF8023013468DF8013001AB4A
:104080001846FFF7D7FF03909DF803209DF80230F4
:104090005B001A439DF801309B001A439DF81830CD
:1040A0001B0242EA03019DF81C301B04019A1943CC
:1040B000039B02F5E07243F8221000BF05B05DF8E3
:1040C00004FB00B585B00390029100230193002307
:1040D00000930023012201210398FFF7C1FF029BF7
:1040E000002B03D0039800F03BF802E0039800F0A7
:1040F0004BF800BF05B05DF804FB00B585B0039038
:104100000B468DF80B309DF80B30002201920022F7
:104110000092002200210398FFF7A2FF00BF05B024
:104120005DF804FB00B585B0019001AB1846FFF7C0
:1041300081FF0390019A039B02F5E07253F822304D
:1041400023F002030293019A029B43F00201039BB6
:1041500002F5E07243F8221000BF05B05DF804FBE1
:1041600000B585B0019001AB1846FFF763FF0390DF
:10417000019B012202FA03F31946039800F035F877
:1041800000BF05B05DF804FB00B585B0019001AB40
:104190001846FFF74FFF0390019B012202FA03F339
:1041A0001946039800F02BF800BF05B05DF804FB3A
:1041B00000B585B0019001AB1846FFF73BFF0390B7
:1041C000039800F00AF80246019B22FA03F303F079
:1041D0000103184605B05DF804FB82B00190019B15
:1041E000D3F81035184602B0704782B001900091A4
:1041F000019B009AC3F8082500BF02B0704782B047
:1042000001900091019B009AC3F80C2500BF02B0F9
:10421000704700B583B00190019B002B0AD04FF48A
:104220007A70FFF7EFFE019B013B0193019B002B8E
:10423000F5D100E000BF03B05DF804FB00B587B026
:104240000390029113468DF80730039B002B7DD01D
:10425000029B002B7AD09DF80730002B76D00021EE
:104260001020FFF74AFF00210F20FFF72AFF00214F
:104270000E20FFF726FF0D20FFF772FF6420FFF7E7
:10428000C1FE0E20FFF780FF0D20FFF77DFF00230A
:104290008DF817304CE000238DF816303FE09DF884
:1042A0001730039A13441B781A469DF81630C3F151
:1042B000070342FA03F303F00103002B03D00F209E
:1042C000FFF74EFF02E00F20FFF75EFF0A20FFF727
:1042D00099FE0E20FFF744FF0A20FFF793FE1020FF
:1042E000FFF766FF04909DF81730029A134419787F
:1042F0009DF81630C3F10703049A02FA03F3DAB209
:104300009DF81730029803440A43D2B21A700E2067
:10431000FFF73AFF9DF8163001338DF816309DF8FF
:104320001630072BBBD99DF8173001338DF81730A5
:104330009DF817209DF807309A42ACD30D20FFF767
:104340000FFF01210F20FFF7BCFE00E000BF07B008
:104350005DF804FB08B500F065F80021012000F0CD
:104360003DF80A20FFF755FF8021012000F036F8C4
:104370000A20FFF74EFF812000F017F80A20FFF710
:1043800048FF0021402000F029F80021412000F0E2
:1043900025F8802000F009F80A20FFF73AFF0021F5
:1043A0001020FFF78EFE00BF08BD00B585B00346A4
:1043B0008DF807308123ADF80C300023ADF80830BC
:1043C0009DF807308DF80D3002A903AB0222184684
:1043D000FFF734FF00BF05B05DF804FB00B585B002
:1043E00003460A468DF8073013468DF80630002341
:1043F000ADF80C300023ADF808309DF8073063F0BD
:104400007F03DBB28DF80C309DF806308DF80D304F
:1044100002A903AB02221846FFF710FF00BF05B048
:104420005DF804FB08B52F20FFF7AEFE0A20FFF76A
:10443000F0FE2F20FFF794FE0A20FFF7EAFE00BFF0
:1044400008BD08B51120FFF78BFE6420FFF7DAFDE9
:104450001120FFF799FE6420FFF7D4FD1120FFF72C
:104460007FFE6420FFF7CEFD00BF08BD00B585B01C
:1044700003468DF807301320FFF786FE1420FFF760
:1044800083FE1120FFF780FEFFF7DBFF1120FFF70F
:104490007BFE0023039320E09DF80720039BC3F1DC
:1044A000070342FA03F303F00103002B03D01420A7
:1044B000FFF756FE02E01420FFF766FE0A20FFF722
:1044C000A1FD1320FFF74CFE0A20FFF79BFD1320F0
:1044D000FFF75AFE039B01330393039B072BDBD9A2
:1044E0001120FFF73DFE00BF05B05DF804FB08B5E5
:1044F000B920FFF7BBFF00BF08BD08B50021192098
:10450000FFF7DFFD00212520FFF7DBFD00211C2048
:10451000FFF7F3FD00212220FFF7D3FD002121202A
:10452000FFF7CFFD00212020FFF7CBFD0021242045
:10453000FFF7C7FD00212320FFF7C3FD00212E2038
:10454000FFF7BFFD00210E20FFF7BBFD00210F206C
:10455000FFF7B7FD00211020FFF7B3FD00210D206C
:10456000FFF7AFFD00212F20FFF7ABFDFFF75AFF4C
:1045700003210B20FFF7C1FD00211820FFF7A1FD4B
:1045800000212C20FFF79DFD0C20FFF7CBFD002123
:104590002920FFF796FD00212820FFF792FD00213A
:1045A0001A20FFF78EFD00211B20FFF78AFD002156
:1045B0002D20FFF786FD00210620FFF782FD002158
:1045C0000720FFF77EFD00210820FFF77AFD00217C
:1045D0000920FFF776FD00210420FFF772FD00217E
:1045E0000520FFF76EFD00210A20FFF76AFD00217C
:1045F0001320FFF766FD01211120FFF762FD002166
:104600001420FFF75EFD00211520FFF776FD012144
:104610001620FFF756FD01211720FFF752FDFFF787
:1046200066FF00BF08BD000082B003468DF807306A
:104630009DF8073003F01F0205499DF907305B091B
:10464000012000FA02F241F8232000BF02B07047B7
:1046500000E100E082B003468DF807309DF8073096
:1046600003F01F0206499DF907305B09012000FA9B
:1046700002F2203341F8232000BF02B0704700BF90
:1046800000E100E082B003468DF807309DF9073065
:10469000002B0BDA0B4A9DF8073003F00F03043BA5
:1046A00013441B7EDBB25B09DBB208E0064A9DF9CE
:1046B0000730134493F80033DBB25B09DBB21846D2
:1046C00002B0704700ED00E000E100E082B0019030
:1046D000019B5B68184602B0704710DF704700BF4F
:1046E000184611DF704700BF1846000082B003462D
:1046F0008DF807309DF907301F2B0CDC9DF9073032
:104700000F4A22FA03F303F00103002B14BF012325
:104710000023DBB210E09DF907303F2B0BDC9DF945
:104720000730203B012202FA03F3002B14BF0123C0
:104730000023DBB200E00123184602B0704700BF3F
:10474000FC06FFBD82B00190019B072B07D8EC222D
:10475000019B42FA03F303F00103002B01D1002374
:1047600000E00123184602B07047000000B583B096
:1047700003468DF807309DF907301846FFF7B6FF5E
:104780000346002B02D142F201032EE09DF90730CF
:104790001846FFF777FF03461846FFF7D3FF034697
:1047A000002B02D142F202031FE0124B9B68002B48
:1047B00015D09DF907305B090E4A52F823209DF869
:1047C000073003F01F03012101FA03F319469DF995
:1047D00007305B090A43074941F8232004E09DF9AB
:1047E00007301846FFF720FF0023184603B05DF896
:1047F00004FB00BF1058002000B583B003468DF8BD
:1048000007309DF907301846FFF770FF0346002B6D
:1048100002D142F201031FE0114B9B68002B15D01F
:104820009DF907305B090E4A52F823109DF80730B6
:1048300003F01F03012202FA03F3DA439DF9073064
:104840005B090A40064941F8232004E09DF907303E
:104850001846FFF7FFFE0023184603B05DF804FB7F
:104860001058002000B587B003468DF8073002AB22
:1048700014491846FDF794FE17E002AB1846FFF7FF
:1048800025FF0590059B1B680493059B59689DF8BF
:104890000720049B104698470346002B01D11123A3
:1048A0000BE002AB1846FDF793FE02AB1846FFF78C
:1048B0000DFF0346002BE0D10023184607B05DF83A
:1048C00004FB00BF48C10F0000B587B003468DF858
:1048D000073002AB11491846FDF762FE12E002AB49
:1048E0001846FFF7F3FE0590059B1B680493059B94
:1048F00059689DF80720049B1046984702AB18465C
:10490000FDF766FE02AB1846FFF7E0FE0346002BFC
:10491000E5D100BF00BF07B05DF804FB54C10F0034
:1049200000B583B01620FFF721FF0190019B009393
:10493000009B002B02D0009801F0D8F900BF03B013
:104940005DF804FB00B583B01620FFF755FF01901A
:10495000019B0093009B002B02D0009801F0C6F948
:1049600000BF03B05DF804FB00B585B0234B1B7896
:10497000002B01D008233CE0214B01221A700020BB
:10498000FFF770FF0346112B01D1002331E0002017
:10499000FFF79AFF1B4B1B68029300238DF807302B
:1049A0000DF107031846FCF7E7FE02AB164918465F
:1049B000FFF793FE0390039B002B0CBF0123002302
:1049C000DAB20E4B1A709DF807301846FCF7DEFE7F
:1049D000039B002B01D0039B0BE0094B00221A70B4
:1049E0000A4B00221A70FFF79BFF0120FFF76CFFB4
:1049F0000023184605B05DF804FB00BF2C6A0020B8
:104A00002E6A00206CC10F00D75C0F002D6A0020B9
:104A100000B583B01D4B1B7883F00103DBB2002B84
:104A200001D008232EE01A4B01221A700120FFF753
:104A300019FF0346112B01D1002323E00220FFF7C9
:104A400043FF00238DF803300DF103031846FCF7F4
:104A500093FEFFF746FE01900C4B00221A709DF862
:104A600003301846FCF792FE019B002B01D0019BFE
:104A700008E0074B00221A70FFF764FF0320FFF7DE
:104A800023FF0023184603B05DF804FB2C6A0020C6
:104A90002E6A002008B50B4B1B7883F00103DBB2B4
:104AA000002B01D008230AE0074B1B78002B03D012
:104AB000FFF7AEFF034602E0FFF756FF0346184636
:104AC00008BD00BF2E6A00202C6A0020014B1B7815
:104AD000184670472C6A002000B585B06B46114916
:104AE0001846FDF75DFD10E06B461846FFF7EEFD3A
:104AF0000390039B1B680293039B5A68029B10461A
:104B000098476B461846FDF763FD6B461846FFF75E
:104B1000DDFD0346002BE7D100BF00BF05B05DF807
:104B200004FB00BF60C10F0008B5FFF7D5FF00BF51
:104B300008BD60DF704700BF184669DF704700BFDF
:104B4000184661DF704700BF184682B00190019B94
:104B50005B68184602B0704782B00190019B002B41
:104B600001D10E2304E0044B1A46019B1A60002376
:104B7000184602B0704700BFB857002000B587B094
:104B8000034600918DF807300098FFF7E5FF059088
:104B9000059B002B01D0059B7AE002AB0C22002183
:104BA000184607F00AFA9DF807308DF808300123FF
:104BB0008DF80A300623ADF80C30009B1A6802AB62
:104BC00019462020FFF7B9FF059002AB0C22002107
:104BD000184607F0F2F901238DF8093000238DF80B
:104BE0000A3000238DF80B30009B1A6802AB19467F
:104BF0004020FFF7A2FF059002AB0C2200211846CF
:104C000007F0DBF99DF807308DF80830F723ADF891
:104C10000A30009B1A6802AB19462320FFF78DFF6C
:104C2000059002AB0C220021184607F0C6F90123BB
:104C30008DF80830009B1A6802AB19460120FFF777
:104C40007CFF059002AB0C220021184607F0B5F955
:104C50004FF4B0630293009B1A6802AB1946A1207F
:104C6000FFF76BFF059002AB0C220021184607F0FE
:104C7000A4F99DF808306FF300038DF80830009B0D
:104C80001A6802AB1946A020FFF757FF05900023D2
:104C9000184607B05DF804FB00B585B00190019B94
:104CA0001B6803930198FFF744FF0290019B1B6868
:104CB000039A9A42029B002B02D1044B01221A70E4
:104CC000029B184605B05DF804FB00BF2F6A002068
:104CD00000B5ADF5077D86ABA3F505731860224BD3
:104CE0001B7883F00103DBB2002B38D14FF4FA7349
:104CF000ADF806320DF2062202AB11461846FFF758
:104D000020FF8590859B002B03D0859B052B22D10E
:104D100026E002AB84937FAB14491846FDF740FCB4
:104D200011E07FAB1846FFF710FF8390839B1B6851
:104D30008293839B5A68829B1146849898477FABE5
:104D40001846FDF745FC7FAB1846FFF7FEFE03460D
:104D5000002BE6D1CAE7859800F0C8FF00E000BF4D
:104D60000DF5077D5DF804FB2F6A002070C10F0070
:104D700082B00190019B5B68184602B070474BDF20
:104D8000704700BF1846000000B589B0019004AB21
:104D90001846FFF7F4FF0790079B002B03D0079BF3
:104DA000052B20D122E002AB12491846FDF7F8FB93
:104DB00011E002AB1846FFF7DBFF0690069B1B686D
:104DC0000593049A069B5968059B1046984702ABC9
:104DD0001846FDF7FDFB02AB1846FFF7C9FF034677
:104DE000002BE6D1D3E7079800F080FF00BF09B0A1
:104DF0005DF804FB7CC10F0000BF044BD3F8003406
:104E0000002BFAD000BF00BF704700BF00E0014098
:104E100000B583B001900F4B0222C3F80425BFF305
:104E20006F8F00BFBFF34F8F00BF0A4A019BC2F8CC
:104E30000835FFF7E1FF074B0022C3F80425BFF355
:104E40006F8F00BFBFF34F8F00BF00BF03B05DF88F
:104E500004FB00BF00E0014000B587B00390029161
:104E60000192174B0122C3F80425BFF36F8F00BFD7
:104E7000BFF34F8F00BF002305930EE0059B9B00FF
:104E8000029A1344059A9100039A0A441B6813601E
:104E9000FFF7B2FF059B01330593059A019B9A42E8
:104EA000ECD3074B0022C3F80425BFF36F8F00BF7C
:104EB000BFF34F8F00BF00BF07B05DF804FB00BF1A
:104EC00000E0014000B583B00346ADF80630BDF800
:104ED0000630184600F026F803461B68012B0CBF6D
:104EE00001230023DBB2184603B05DF804FB00B5D4
:104EF00085B00346ADF80630BDF80630184600F020
:104F000011F803461A4600231360BDF80630184610
:104F100000F008F803461B680393039B00BF05B02D
:104F20005DF804FB82B00346ADF80630BDF80630EC
:104F300003F1804303F5C043184602B070470000F8
:104F400082B00190034A019BC2F8083300BF02B04F
:104F5000704700BF0060004082B00190034BD3F85F
:104F60000423019B1340184602B0704700600040C4
:104F700082B00190084A019B03F5A27352F82330D6
:104F8000054923F00102019B03F5A27341F8232098
:104F900000BF02B0704700BF0060004082B00190C7
:104FA000054A019B03F5A27352F823301B0A03F054
:104FB0003F03184602B070470060004082B0019085
:104FC000064A019B03F5A27352F823301B0C03F031
:104FD0000303DBB2184602B0704700BF0060004018
:104FE00082B00190044A019B03F5A273002142F8AC
:104FF000231000BF02B070470060004082B00190F3
:10500000019B1B681F2B02D84FF0A04306E0019BB9
:105010001B6803F01F02019B1A60024B184602B086
:10502000704700BF0003005000B585B001900846EE
:1050300011461A4603468DF803300B468DF80230B0
:1050400013468DF8013001AB1846FFF7D7FF0390E8
:105050009DF803209DF802305B001A439DF8013053
:105060009B001A439DF818301B0242EA03019DF889
:105070001C301B04019A1943039B02F5E07243F8AC
:10508000221000BF05B05DF804FB00B585B00390A9
:1050900000230193002300930023012200210398A1
:1050A000FFF7C2FF00BF05B05DF804FB00B585B097
:1050B00001900B468DF8033001AB1846FFF79EFFB9
:1050C0000390019A039B02F5E07253F82230019A93
:1050D00023F44031039B02F5E07243F82210019A59
:1050E000039B02F5E07253F822309DF8032012046E
:1050F0001146019A1943039B02F5E07243F822100E
:1051000000BF05B05DF804FB00B585B0019001ABB0
:105110001846FFF773FF0390019A039B02F5E072B4
:1051200053F822301B0C03F00303DBB2184605B022
:105130005DF804FB82B00190019BD3F8103518464E
:1051400002B0704700B589B0039002910192134AF2
:1051500005AB92E8030083E80300039B079311E08B
:10516000079B9B0020336B4453F80C3C1846FFF719
:10517000E1FF0246019B1A60019B04330193079BE8
:1051800001330793039A029B1344079A9A42E7D389
:1051900000BF00BF09B05DF804FB00BF88C10F006D
:1051A00084B001900091009B0393019BDB08029364
:1051B000019B03F0070301930122019B02FA03F311
:1051C0000399029A0A4412781340184604B07047B3
:1051D00084B001900091009B0393019BDB08029334
:1051E000019B03F007030193039A029B13441B786E
:1051F0005AB20121019B01FA03F35BB2134359B286
:10520000039A029B1344CAB21A7000BF04B07047DD
:1052100084B001900091009B0393019BDB080293F3
:10522000019B03F007030193039A029B13441B782D
:105230005AB20121019B01FA03F35BB2DB435BB27B
:10524000134059B2039A029B1344CAB21A7000BFAA
:1052500004B0704782B00190074A019B1344483361
:1052600093F9003013F1020F0CBF01230023DBB2CE
:10527000184602B0704700BF306A002082B001902B
:105280000C4A019B1344483393F90030002B09DB8F
:10529000084A019B1344483393F90030072B01DC83
:1052A000012300E0002303F00103DBB2184602B043
:1052B000704700BF306A002082B00190064A019B0F
:1052C0001344483393F90030072BCCBF012300234C
:1052D000DBB2184602B07047306A002082B00190FD
:1052E000064A019B1344483393F90030DB43DBB299
:1052F000DB09DBB2184602B0704700BF306A0020FD
:1053000082B00190044A019B13444833FF221A7073
:1053100000BF02B0704700BF306A002000B583B004
:10532000019004490198FFF773FF00BF03B05DF8D7
:1053300004FB00BFB26A002000B583B001900749AA
:105340000198FFF72DFF0346002B14BF0123002314
:10535000DBB2184603B05DF804FB00BFB26A002060
:1053600082B00190044A019B1344483393F9003002
:10537000184602B0704700BF306A002082B001902A
:10538000034A019B52F82330184602B0704700BF11
:10539000306A002082B003468DF807309DF8073050
:1053A000094A4FF0FF3142F823109DF80730072BD0
:1053B00007D99DF80730083B034A1344FF2283F8BE
:1053C000782000BF02B07047306A002000B583B07B
:1053D0000023019315E00198FFF73CFF0346002BE3
:1053E00003D0019800F01AF808E00198FFF776FF63
:1053F0000346002B02D0019800F063F8019B0133B3
:105400000193019B2F2BE6D9034B002283F88820C0
:1054100000BF03B05DF804FB306A002000B583B024
:1054200001900198FFF72AFF0346002B0ED0019848
:10543000FFF796FF0346DBB21846FFF7ABFF019874
:10544000FFF78EFF03461846FFF7CAFD0198FFF7E6
:1054500057FF0198FFF770FF0346002B05D0019816
:10546000FFF713FE0198FFF759FF00BF03B05DF887
:1054700004FB00B585B001900198FFF71DFF0346BE
:10548000002B04D000210198FFF710FE15E00198D1
:10549000FFF7F4FE0346002B0FD00198FFF760FFE3
:1054A00003460393039B1846FFF762FD0122039B0B
:1054B00002FA03F31846FFF743FD00BF05B05DF89D
:1054C00004FB00B583B001900198FFF7D2FF01986B
:1054D000FFF7D4FE0346002B06D00198FFF740FFEC
:1054E00003461846FFF77CFD0198FFF725FF0346AA
:1054F000002B05D00198FFF7C8FD0198FFF70EFFBC
:105500000198FFF72DFF0346DBB21846FFF742FF75
:105510000198FFF7F5FE00BF03B05DF804FB000043
:1055200000B599B00023179306AB00221A605A60A9
:105530004FF48073ADF85630012314930023169373
:1055400021E0BDF856301846FFF7BCFC0346002B9F
:105550000ED01498FFF700FD0346002B08D0BDF8CD
:1055600056301846FFF7C3FC179A149B1343179342
:10557000149B5B001493BDF856300433ADF85630DD
:10558000169B01331693169B072BDAD94FF4BE7086
:10559000FFF798FC0346002B0DD04FF4BE70FFF7C9
:1055A000A6FC179B43F00043179306AB1A46022153
:1055B0000020FFF7C7FD179BDBB2002B29D001238A
:1055C00014930023169321E0149A179B1340002B89
:1055D00016D01698FFF7E2FC11901698FFF7EEFC34
:1055E00003468DF843301698FFF7C8FE0F900F9BC7
:1055F000002B05D09DF843200F9B1146119898472A
:10560000149B5B001493169B01331693169B072B78
:10561000DAD9179B002B80F2F08000238DF84B30F5
:1056200004AB00221A605A60002313930AE0139B14
:105630009B0060336B444FF0FF3243F8582C139BB0
:1056400001331393139B012BF1D900238DF84B30B9
:105650000023169378E06B4A169B1344783393F932
:1056600000308DF83B309DF83B3023F0C0030D93A4
:10567000644A169B1344783393F90030B3F1FF3F2B
:105680005FD002AB19460D98FFF78AFD0346002B49
:1056900057D09DF83B309B098DF833300D98FFF7BC
:1056A0005FFE03461846FFF769FE0B900B9B002B2D
:1056B00003D19DF83330032B43D19DF83330032BB6
:1056C00004D104AB19460D98FFF782FD0D98FFF742
:1056D0001BFD03468DF82B3006AB19460D98FFF7DE
:1056E0005FFD0990099B002B03D09DF82B30022B06
:1056F00006D0099B002B24D19DF82B30032B20D101
:105700009DF83330032B13D19DF82B30022B01D1A0
:10571000032300E002238DF823309DF8233019463F
:105720000D98FFF7C3FC9DF84B3001338DF84B30DB
:105730000B9B002B05D09DF833200B9B11460D9839
:105740009847169B01331693169B092B83D99DF816
:105750004B30002B4CD001238DF84A306B461A4653
:1057600002210020FFF7EEFC0023139314E0139BAB
:105770009B0060336B4453F8602C139B9B00603399
:105780006B4453F8483C9A4203D000238DF84A30CA
:1057900005E0139B01331393139B012BE7D99DF86D
:1057A0004A30002B03D000238DF84B3020E000233B
:1057B00013931AE0139B9B0060336B4453F8602CE7
:1057C000139B9B0060336B4443F8482C139B9B0056
:1057D00060336B4453F8502C139B9B0060336B4435
:1057E00043F8582C139B01331393139B012BE1D9DE
:1057F0009DF84B30002B7FF428AF00BF19B05DF847
:1058000004FB00BF306A002082B001900091019B30
:10581000002B02D148F210530CE0009B002B02D168
:1058200048F2135306E0009B00221A60009B019A85
:105830005A600023184602B0704782B00190009170
:10584000019B002B02D148F2105308E0019B1B681A
:10585000009A9A4202D048F2405300E000231846D2
:1058600002B0704784B0039002910192039B002B19
:1058700002D148F2105307E0029A019B9A4202D0EB
:1058800048F2115300E00023184604B070470000AE
:1058900000B58BB00390029101920093029B099393
:1058A00009990398FFF7B0FF0890089B0793079B9F
:1058B000002B01D0079B22E0039B9B791A4600999D
:1058C0000198FFF7CFFF0890089B0693069B002BDB
:1058D00001D0069B13E00C4B0593059B002B02D1D6
:1058E00048F203530BE0059B0199029898470890F2
:1058F000089B002B02D1099B044A1A60089B18469A
:105900000BB05DF804FB00BF4D3B0F007052464DDD
:1059100090B58FB002AFF860B9607A603B60002349
:10592000FB62BB68BB622B49B86AFFF786FF7862EF
:105930007B6A3B623B6A002B01D03B6A45E0BB6A55
:105940005B68FB61FB695B795B001A46796C386CBC
:10595000FFF788FF78627B6ABB61BB69002B01D0CF
:10596000BB6932E07B68002B02D148F210532CE077
:10597000194B7B61A4233B617B69002B02D148F268
:10598000035322E0FB68002B15D13B69002B12D09A
:105990003B690733DB08DB00ADEB030D02AB0733DC
:1059A000DB08DB00FB62FB6A002B02D148F21553D7
:1059B0000BE0FB6AFB603B6C00937C693B687A6898
:1059C000B968F868A04778627B6A18463437BD46E4
:1059D00090BD00BF7052464D153C0F0082B0019043
:1059E000019B002B02D148F2015308E0019B1B6888
:1059F000044A934202D048F2025300E000231846C2
:105A000002B070476E52464800B585B001900091D3
:105A1000019B002B02D148F2015318E0009B002BA0
:105A200002D148F2105312E0019B0393039B009AAA
:105A30005A60009B1B68019898470290029B002BBC
:105A400001D0029B03E0039B034A1A60002318461F
:105A500005B05DF804FB00BF6E52464800B587B044
:105A6000039002910192039B05930598FFF7B6FFFF
:105A70000490049B002B01D0049B13E0029B002B9D
:105A800002D148F210530DE0019B002B01D10023FD
:105A900008E0059B5B685B68019A02990398984748
:105AA0000490049B184607B05DF804FB00B587B06E
:105AB000039002910192039B05930598FFF78EFFD7
:105AC0000490049B002B01D0049B18E0029B002B48
:105AD00002D148F2135312E0019B1A68059B5B68E0
:105AE000DB689A4202D248F2145308E0059B5B68D7
:105AF0009B68019A0299039898470490049B184662
:105B000007B05DF804FB00B589B0039002910192E3
:105B10000093039B07930023069302990798FFF7CE
:105B200073FF0590059B002B01D0059B16E0009AA2
:105B300001990798FFF792FF0590059B002B01D074
:105B4000059B0BE00B9A0A990798FFF7AFFF0590AA
:105B5000059B002B01D0059B00E00023184609B0EF
:105B60005DF804FB00B585B0134A144BD31ADB086B
:105B70000293134B01221A700023039310E0039B3E
:105B8000DB000E4A13440193019B1B689847009069
:105B9000009B002B01D0009B0AE0039B0133039381
:105BA000039A029B9A42EAD3054B02221A70002301
:105BB000184605B05DF804FB28C00F0020C00F0098
:105BC000BC6A002086B001900091019B0593009B68
:105BD000013B019A1344049311E0059B1B788DF857
:105BE0000F30049B1A78059B1A70049B9DF80F20B8
:105BF0001A70059B01330593049B013B0493049A9F
:105C0000059B9A42E9D200BF00BF06B0704786B03C
:105C1000039002910192029B0593019B013B039A21
:105C20001344049309E0059B1A78049B1A70059BA2
:105C300001330593049B013B0493049A039B9A420E
:105C4000F1D200BF00BF06B0704700B585B0039029
:105C500002910192019A02990398FFF7D8FF039AE3
:105C6000019BD018029A019B1344019A1946FFF731
:105C7000CEFF00BF05B05DF804FB00B583B0019016
:105C8000009100990198FFF79DFF019A009B134432
:105C900000991846FFF796FF00BF03B05DF804FBBC
:105CA000BFF34F8F00BF074BDB6803F4E062054989
:105CB000054B1343CB60BFF34F8F00BF00BF00BF46
:105CC000FCE700BF00ED00E00400FA0508B5FFF7AF
:105CD000E7FF00BF08BD00B585B0039002910192B7
:105CE000FFF7F4FF00BF05B05DF804FB00B583B01B
:105CF0000190FFF7EBFF00BF03B05DF804FB00006D
:105D000082B003468DF807309DF80730072B13D873
:105D100001A252F823F000BF395D0F00395D0F007A
:105D2000395D0F00395D0F00395D0F00395D0F00DF
:105D3000395D0F00395D0F0000BF00BF02B0704732
:105D400000B585B000224FF48051002000F05CFCCB
:105D50000390039B0293029B002B02D00298FFF753
:105D6000C5FF1248114BC3F57E230022194600F0EF
:105D70004BFC0390039B0193019B002B02D00198E5
:105D8000FFF7B4FF0A4800F03BFB0390039B00932E
:105D9000009B002B02D00098FFF7A8FF00F0AEFB9D
:105DA0000023184605B05DF804FB00BF00100F008B
:105DB000015D0F0082B00190019B002B01D10E23E9
:105DC00009E0019B054A1A60019B054A5A60019B44
:105DD00001221A720023184602B07047E55D0F00D9
:105DE000515E0F0000B585B001900091112303931F
:105DF000009B002B01D10E2325E0009B1B78042B78
:105E000020D801A252F823F01D5E0F00215E0F0082
:105E1000375E0F003B5E0F003F5E0F00082312E06D
:105E2000019803F0BBFB0390039B002B09D1009B5F
:105E300002221A7005E0112305E0082303E008237D
:105E400001E000BF039B184605B05DF804FB00BFEE
:105E500084B00190009108230393009B002B01D193
:105E60000E2315E0009B1B78022B0DD1019B022B0A
:105E700004D0019B032B09D1112309E000230393D4
:105E8000009B03221A7002E000BF00E000BF039BEA
:105E9000184604B07047000010B588B00190314A30
:105EA000314BD31A314AA2FB0323DB0804930023AE
:105EB0008DF81F30019B18331B68023B1B788DF84F
:105EC0000F304FF0FF3306939DF80F30002B02D1B7
:105ED000019B1B6906930023059332E0059A134644
:105EE0005B0013449B001A461F4B13440293029B12
:105EF0001A689DF80F309A421DD1069BB3F1FF3FFF
:105F000004D0029B5B68069A9A4216D1029B9C6859
:105F1000019B1868019B04331968019B08331A68B8
:105F2000019B0C331B68A0470246019B1A600123AA
:105F30008DF81F3009E000BF00E000BF059B013372
:105F40000593059A049B9A42C8D39DF81F3083F0AD
:105F50000103DBB2002B02D0019B01221A6000BFBB
:105F600008B010BD3CC00F0030C00F00ABAAAAAAF9
:105F70001EF0040F0CBFEFF30880EFF30980FFF76A
:105F80008BBF00BF00BF00BFBFF34F8F00BF074BE9
:105F9000DB6803F4E0620549054B1343CB60BFF3B4
:105FA0004F8F00BF00BF00BFFCE700BF00ED00E067
:105FB0000400FA0533DF704700BF184641DF704721
:105FC00000BF184682B00190019B1B681F2B02D8AE
:105FD0004FF0A04306E0019B1B6803F01F02019BEA
:105FE0001A60024B184602B0704700BF0003005011
:105FF00000B585B00190084611461A4603468DF853
:1060000003300B468DF8023013468DF8013001AB9A
:106010001846FFF7D7FF03909DF803209DF8023044
:106020005B001A439DF801309B001A439DF818301D
:106030001B0242EA03019DF81C301B04019A19431C
:10604000039B02F5E07243F8221000BF05B05DF833
:1060500004FB00B585B003900B468DF80B3013465A
:106060008DF80A309DF80B209DF80A30019300232B
:1060700000931346002200210398FFF7B9FF00BFE9
:1060800005B05DF804FB4FF08043D3F800341846A8
:10609000704782B001904FF08042019BC2F80034FB
:1060A00000BF02B07047000084B003468DF807308F
:1060B000044B03939DF80720039B1A6000BF04B0B4
:1060C000704700BF1C05004082B0044B0193019B48
:1060D0001B68DBB2184602B0704700BF1C050040C9
:1060E00082B003468DF807304FF080429DF80730AC
:1060F000C2F8203500BF02B070474FF08043D3F89C
:106100002035DBB218467047002318467047000060
:1061100082B00190024B01221A7000BF02B070479A
:10612000C46A002000B583B00190FFF72DFF00BFC7
:1061300003B05DF804FB000000B583B003468DF8A2
:1061400007309DF80730002B06D0074B00221A704D
:10615000064803F0FBF902E00020FFF7E3FF00BF71
:1061600003B05DF804FB00BFC46A002025610F0086
:1061700000B583B0FFF72AF9032203210B20FFF7B4
:1061800068FFFFF717FF0190019B0093009B002B16
:1061900002D00098FFF7AAFD00BF03B05DF804FB32
:1061A00000B583B003468DF807309DF80730042B07
:1061B00002DC032B04DA0DE0063B012B0AD805E0D4
:1061C0000C494FF4702000F0E3FC04E00120FFF7DD
:1061D000B3FF00E000BF084B1B68002B05D0064B47
:1061E0001B689DF807201046984700BF03B05DF874
:1061F00004FB00BFA1630F00C06A002000B583B09C
:10620000084A20211820FBF731F90190019B0093E7
:10621000009B002B02D00098FFF768FD00BF03B081
:106220005DF804FBC86A002008B5FFF7C7FE00BF91
:1062300008BD08B500F088FFFBF7DEF9FFF7F4FFB3
:10624000F8E700B583B001238DF80730FFF71BFF97
:10625000034603F48033002B07D04FF48030FFF760
:1062600018FF00238DF8073019E0FFF746FF0346BB
:1062700003F0F803A82B12D1FFF73FFF034603F00A
:106280000103002B0BD0FFF738FF034603F0560342
:10629000DBB21846FFF724FF00238DF807309DF886
:1062A0000730184603B05DF804FB00B585B00390D5
:1062B000029101928DF803309DF8033083F00103C1
:1062C000DBB2002B05D0039B1B78012B01D10123EE
:1062D00005E0019A0299039804F006F9034618466E
:1062E00005B05DF804FB000000B583B003468DF8EF
:1062F00007301A4B1B6A012B02D09DF8073029E0AA
:1063000043F204031B68164A934210D1134B5A6B95
:106310009DF807304FF480511248FFF7C6FF03463F
:1063200083F00103DBB2002B01D0002312E003F065
:1063300019FA0146094B9A699DF807300A48FFF798
:10634000B4FF034683F00103DBB2002B01D000232E
:1063500000E00123184603B05DF804FBB07F002085
:10636000DBE5B151108200205182002008B5FFF713
:10637000ABFE034603F0F803B02B0FD1FFF7A4FEEA
:10638000034603F00103002B08D0FFF79DFE0346F0
:1063900003F04E03DBB21846FFF786FE00BF08BDD0
:1063A00008B5FFF74EFF03461846FFF79DFF03466B
:1063B00083F00103DBB2002B01D0FFF7D9FE0120EF
:1063C000FFF7BAFE00BF08BD08B5FFF73AFF034666
:1063D0001846FFF789FF034683F00103DBB2002B69
:1063E00001D0012309E0FFF76FFE034603F0B1037C
:1063F000002B01D0012300E00023184608BD000057
:1064000000B587B0019000238DF81330364A019B08
:106410001360FEF772F8FDF79DFF002002F09EFF6B
:106420000390039B002B01D0032359E000F05CFD97
:1064300003468DF80B309DF80B30022B0FD0022B4A
:1064400019DC002B02D0012B10D014E04FF4702384
:106450000593FFF7B9FF03468DF813300DE04FF4B5
:10646000A023059301238DF8133006E00120FFF7E8
:1064700063FE032334E0032332E09DF81330002B46
:106480001DD000F035FEFFF7B9FEFFF76FFFFFF7F5
:106490003BFE0390039B002B01D0032320E0134914
:1064A000059800F075FB124801F074F80390039B07
:1064B000002B01D0032313E0FFF7BBFE0FE003F036
:1064C000C5F80390039B002B01D0032308E0094B80
:1064D00000221A70084803F039F800F00FF803237F
:1064E000184607B05DF804FBC06A0020A1630F00E6
:1064F000A1610F00C46A002011610F0000B583B0D4
:106500004FF4805301930A4B4FF0FF32C3F88020C1
:10651000074B4FF0FF32C3F8802102F0ACF9009036
:10652000019800F0E1F800BF03B05DF804FB00BF84
:1065300000E100E000B585B0039002910192039B59
:1065400083F30888029B9E46019B184700BF05B055
:106550005DF804FB00B595B00190EFF305830A9355
:106560000A9BC3F308031393019B1B681293019BBF
:1065700004331B6811934FF0FF33109300230B93E8
:106580000B9B83F3148800BF00230C930C9B83F3B5
:10659000108800BF00230D930D9B83F3118800BF6B
:1065A00000230E930E9B83F3138800BF139B002BD5
:1065B00005D1119A10991298FFF7BCFF20E0002333
:1065C00002930023039300230493002305930023E5
:1065D00006934FF0FF330793119B08934FF080739E
:1065E0000993129B203B0F930F9B02A92022184670
:1065F00005F0BAFC6FF0060210990F98FFF79AFFAA
:1066000000BF15B05DF804FB88B0039002911346FB
:106610008DF80730029BC3F30B03002B03D1039BC0
:10662000B3F57F2F01D9072356E002230793079B79
:1066300043F0040306939DF80730002B01D0069B1E
:1066400000E0079B0593264B1B68072B01D9042309
:1066500042E0244A224B1B6880331B011344039AF7
:106660001A60204A1E4B1B6880331B0113440433FD
:10667000029A1A601B4A1A4B1B681B01134403F64B
:106680000803059A1A60164B1B680133144A1360FD
:10669000144A134B1B68013B80331B0113441B68D6
:1066A000039A9A42CFD10F4A0D4B1B68013B8033AE
:1066B0001B01134404331B68029A9A42C3D1094A4E
:1066C000074B1B68013B1B01134403F608031B68BF
:1066D000059A9A42B7D10023184608B0704700BF08
:1066E000E86E002000E0014000B585B001900F4B3E
:1066F000C3F57F2303930D4B002203991846FFF740
:1067000083FF029003F02EF80246094B9B69134465
:10671000002219460020FFF777FF02900198FFF74B
:1067200019FF00BF05B05DF804FB00BF00100F00AB
:10673000B07F002082B003468DF807309DF8073007
:1067400003F01F0205499DF907305B09012000FA9B
:1067500002F241F8232000BF02B0704700E100E0E0
:1067600082B0034600918DF807309DF90730002B69
:106770000CDA009BDAB20C499DF8073003F00F03E6
:10678000043B5201D2B20B441A7609E0009BDAB204
:1067900006499DF907305201D2B20B4483F8002319
:1067A00000BF02B0704700BF00ED00E000E100E074
:1067B00000B583B003460A468DF8073013468DF8BE
:1067C00006309DF806209DF9073011461846FFF760
:1067D000C7FF00BF03B05DF804FB00B583B00346FC
:1067E0008DF807309DF907301846FFF7A3FF00BF6B
:1067F00003B05DF804FB000000B585B00190019B7B
:10680000002B0AD0074B43F001030393019B9B012C
:106810000293039B0298984700E000BF05B05DF823
:1068200004FB00BFD0C10F0082B003468DF80730D3
:106830009DF8073003F1804301221A6000BF02B0C7
:1068400070474FF08043D3F818341B0C03F001035A
:10685000002B14BF01230023DBB21846704784B01D
:10686000039002910192039B029A02F5A87201998A
:1068700043F8221000BF04B0704782B0019000912D
:10688000019B009AC3F8042300BF02B0704782B096
:1068900001900091019B009AC3F8082300BF02B049
:1068A000704782B001900B46ADF80230BDF802305F
:1068B000019A13441B68184602B0704784B00190D7
:1068C0000B46ADF80230BDF80230019A13440022A5
:1068D0001A60BDF80230019A13441B680393039BAE
:1068E00000BF04B0704782B00190019BD3F804351B
:1068F000184602B0704782B001900091019B009A47
:10690000C3F8082500BF02B0704782B001900B4663
:106910008DF803309DF80320019B13441A46012390
:10692000136000BF02B0704708B51E4B1B7883F0A0
:106930000103DBB2002B33D0FFF783FF034683F064
:106940000103DBB2002B02D00820FFF76DFF4FF4EC
:1069500080711548FFF7B2FF4FF4A0711248FFF79E
:10696000ADFF4FF4A2711048FFF7A8FF05212420C6
:10697000FFF71EFF2420FFF730FF00210A48FFF732
:10698000BAFF08210848FFF7C0FF00210648FFF7BB
:10699000BCFF02210448FFF770FF024B01221A706E
:1069A00000BF08BDF06E00200040024000B583B07B
:1069B00001900091009A01990E48FFF750FF1F20A7
:1069C000FFF71AFF019B9BB250339BB29B009BB217
:1069D00019460848FFF772FF4FF48032019B02FA14
:1069E00003F319460348FFF748FF00BF03B05DF803
:1069F00004FB00BF0040024000B585B0019000914B
:106A0000009B6FF07F42934228BF134602931448C5
:106A1000FFF769FF0246029B134423F07F43039371
:106A2000009A029BD21A019B5A60019B5B68002B63
:106A30000CD0019B5B68952B08D8019B5B6803F128
:106A40009602019B5A60039B963B0393019B1B7B21
:106A500003991846FFF7AAFF00BF05B05DF804FBD5
:106A60000040024000B583B00190019B1B7B1A4699
:106A70004FF48033934019460348FFF708FF00BFE7
:106A800003B05DF804FB00BF0040024000B583B0D6
:106A90000190019B5B68002B06D0019B5B68194647
:106AA0000198FFF7A9FF10E0019B9B68002B05D020
:106AB000019B9B6819460198FFF79EFF019B1B688D
:106AC000002B02D0019B1B68984703B05DF804FBC4
